:040000002CEF00F0F1
:060008005782ECEF14F03A
:100018005780D8CF06F0E8CF07F0E0CF08F00E0100
:1000280033AB19EF00F01BEF00F024EF00F00B0EDC
:10003800D46EDB0ED36E010E0001756F0E01339B7B
:1000480008C0E0FF07C0E8FF06C0D8FF57901000BF
:10005800C6EF13F0000E0001B36F000E346E000EF1
:10006800356EC80E366E420E376E20EE04F0A35180
:10007800D926A451DA22DECFA7F0DDCFA8F020EEF2
:1000880002F0A351D926A451DA22DECFA9F0DDCFA0
:10009800AAF0A3C0D9FFA4C0DAFFDECFABF0DDCF52
:1000A800ACF0A951AB25AD6FAA51AC21AE6FA751E9
:1000B800AD25AF6FA851AE21B06FAFC009F0B0C089
:1000C8000AF00B6A0C6A000E9DEC09F009C01BF0DF
:1000D8000AC01CF00BC01DF00CC01EF0A3C0D9FF55
:1000E800A4C0DAFFDECFB1F0DDCFB2F0B1C009F0C5
:1000F800B2C00AF00B6A0C6A000E9DEC09F009C048
:1001080017F00AC018F00BC019F00CC01AF053EC25
:1001180005F017C030F018C031F019C032F01AC01D
:1001280033F03EEC03F030C049F031C04AF032C041
:100138004BF033C04CF02DEC0BF049500001B46F7C
:10014800000E346E000E356EC80E366E420E376ED7
:1001580020EE04F0A351D926A451DA22DECFA7F06D
:10016800DDCFA8F020EE02F0A351D926A451DA225F
:10017800DECFA9F0DDCFAAF0A3C0D9FFA4C0DAFF73
:10018800DECFABF0DDCFACF0A951AB25AD6FAA51F6
:10019800AC21AE6FA751AD25AF6FA851AE21B06F9E
:1001A800AFC009F0B0C00AF00B6A0C6A000E9DECF3
:1001B80009F009C01BF00AC01CF00BC01DF00CC0F0
:1001C8001EF0000120EE02F0A351D926A451DA2234
:1001D800DECFB1F0DDCFB2F0B1C009F0B2C00AF0A5
:1001E8000B6A0C6A000E9DEC09F009C017F00AC0F2
:1001F80018F00BC019F00CC01AF053EC05F017C03A
:1002080030F018C031F019C032F01AC033F03EECAB
:1002180003F030C049F031C04AF032C04BF033C06F
:100228004CF02DEC0BF049500001B56F000E346E08
:10023800000E356EC80E366E420E376E20EE04F094
:10024800A351D926A451DA22DECFA7F0DDCFA8F03A
:1002580020EE02F0A351D926A451DA22DECFA9F06C
:10026800DDCFAAF0A3C0D9FFA4C0DAFFDECFABF080
:10027800DDCFACF0A951AB25AD6FAA51AC21AE6F63
:10028800A751AD25AF6FA851AE21B06FAFC009F02F
:10029800B0C00AF00B6A0C6A000E9DEC09F009C0A8
:1002A8001BF00AC01CF00BC01DF00CC01EF00001B2
:1002B80020EE04F0A351D926A451DA22DECFB1F002
:1002C800DDCFB2F0B1C009F0B2C00AF00B6A0C6A17
:1002D800000E9DEC09F009C017F00AC018F00BC019
:1002E80019F00CC01AF053EC05F017C030F018C024
:1002F80031F019C032F01AC033F03EEC03F030C0D0
:1003080049F031C04AF032C04BF033C04CF02DEC0C
:100318000BF049500001B66F5550D8B496EF01F074
:1003280098EF01F03AEF03F0490EB4659EEF01F043
:10033800A0EF01F0CCEF01F04D0EB461A6EF01F093
:10034800A8EF01F0CCEF01F0090EB565AEEF01F0B2
:10035800B0EF01F0CCEF01F00D0EB561B6EF01F092
:10036800B8EF01F0CCEF01F00C0EB665BEEF01F06E
:10037800C0EF01F0CCEF01F0100EB661C6EF01F04E
:10038800C8EF01F0CCEF01F0010EB36F3AEF03F0C4
:10039800230EB465D2EF01F0D4EF01F000EF02F0C4
:1003A800270EB461DAEF01F0DCEF01F000EF02F0A4
:1003B800280EB565E2EF01F0E4EF01F000EF02F07E
:1003C8002C0EB561EAEF01F0ECEF01F000EF02F05E
:1003D800130EB665F2EF01F0F4EF01F000EF02F052
:1003E800170EB661FAEF01F0FCEF01F000EF02F032
:1003F800020EB36F3AEF03F01C0EB46506EF02F07D
:1004080008EF02F034EF02F0230EB4610EEF02F0B1
:1004180010EF02F034EF02F01F0EB56516EF02F090
:1004280018EF02F034EF02F0270EB5611EEF02F06C
:1004380020EF02F034EF02F01E0EB66526EF02F050
:1004480028EF02F034EF02F0260EB6612EEF02F02C
:1004580030EF02F034EF02F0030EB36F3AEF03F01F
:10046800310EB4653AEF02F03CEF02F068EF02F0AB
:10047800350EB46142EF02F044EF02F068EF02F08B
:100488001D0EB5654AEF02F04CEF02F068EF02F07E
:10049800210EB56152EF02F054EF02F068EF02F05E
:1004A800100EB6655AEF02F05CEF02F068EF02F04A
:1004B800140EB66162EF02F064EF02F068EF02F02A
:1004C800040EB36F3AEF03F02F0EB4656EEF02F02F
:1004D80070EF02F09CEF02F0330EB46176EF02F099
:1004E80078EF02F09CEF02F01B0EB5657EEF02F08C
:1004F80080EF02F09CEF02F01F0EB56186EF02F06C
:1005080088EF02F09CEF02F0140EB6658EEF02F051
:1005180090EF02F09CEF02F0180EB66196EF02F031
:1005280098EF02F09CEF02F0050EB36F3AEF03F07C
:100538003A0EB465A2EF02F0A4EF02F0D0EF02F099
:100548003E0EB461AAEF02F0ACEF02F0D0EF02F079
:10055800150EB565B2EF02F0B4EF02F0D0EF02F07D
:10056800190EB561BAEF02F0BCEF02F0D0EF02F05D
:100578000F0EB665C2EF02F0C4EF02F0D0EF02F042
:10058800130EB661CAEF02F0CCEF02F0D0EF02F022
:10059800060EB36F3AEF03F0200EB465D6EF02F003
:1005A800D8EF02F004EF03F0240EB461DEEF02F09E
:1005B800E0EF02F004EF03F0250EB565E6EF02F078
:1005C800E8EF02F004EF03F0290EB561EEEF02F058
:1005D800F0EF02F004EF03F0190EB665F6EF02F043
:1005E800F8EF02F004EF03F01D0EB661FEEF02F023
:1005F80000EF03F004EF03F0070EB36F3AEF03F0D8
:100608002A0EB4650AEF03F00CEF03F038EF03F09D
:100618002E0EB46112EF03F014EF03F038EF03F07D
:100628001F0EB5651AEF03F01CEF03F038EF03F067
:10063800230EB56122EF03F024EF03F038EF03F047
:10064800150EB6652AEF03F02CEF03F038EF03F030
:10065800190EB66132EF03F034EF03F038EF03F010
:10066800080EB36F3AEF03F0000EB36F000E556E2D
:10067800B35112003350800B3C6E33503324426E1A
:1006880032AE49EF03F04BEF03F04CEF03F042803A
:100698004250D8B452EF03F054EF03F067EF03F081
:1006A8004228D8A45AEF03F05CEF03F064EF03F09C
:1006B800000E306E000E316E000E326E000E336E7C
:1006C800328E6FEF03F0000E306E000E316E000EAA
:1006D800326E000E336E3750800B3C1A3750372479
:1006E800416E36AE7AEF03F07CEF03F07DEF03F056
:1006F80041804150D8B483EF03F085EF03F098EFC1
:1007080003F04128D8A48BEF03F08DEF03F095EFA9
:1007180003F0000E346E000E356E000E366E000EBD
:10072800376E368EA0EF03F0000E346E000E356E75
:10073800000E366E000E376E4150D8B4A6EF03F0A7
:10074800A8EF03F0B0EF03F04250D8A4AEEF03F0E7
:10075800B0EF03F0BAEF03F0000E306E000E316E0A
:10076800000E326E000E336E52EF05F03650300236
:10077800F3CF47F0F4CF48F047503D6E3E6A3F6AEA
:10078800406A4850436E446A456A466A35503102A9
:10079800F3CF47F0F4CF48F047503D26000E3E22F5
:1007A8003F22402248504326000E4422452246223A
:1007B80034503202F3CF47F0F4CF48F047503D268B
:1007C800000E3E223F22402248504326000E44227B
:1007D800452246223FC040F03EC03FF03DC03EF0BB
:1007E8003D6A34503102F3CF47F0F4CF48F0475018
:1007F8003D2648503E22000E3F22000E4022355032
:100808003002F3CF47F0F4CF48F047503D26485028
:100818003E22000E3F22000E40223FC040F03EC064
:100828003FF03DC03EF03D6A34503002F3CF47F010
:10083800F4CF48F047503D2648503E22000E3F2254
:10084800000E402236503102F3CF47F0F4CF48F083
:100858004750432648504422000E4522000E4622A7
:1008680035503202F3CF47F0F4CF48F047504326D3
:1008780048504422000E4522000E462236503202CD
:10088800F3CF47F0F4CF48F04750386E4850396EF0
:100898003A6A3B6A3AC03BF039C03AF038C039F09E
:1008A800386A38504326395044223A5045223B5042
:1008B80046223DC038F03EC039F03FC03AF040C053
:1008C8003BF0190E6DEF04F0D8903B323A323932D2
:1008D8003832E82E68EF04F0385043263950442265
:1008E8003A5045223B5046223FC040F03EC03FF0C0
:1008F8003DC03EF03D6A415042C038F0396A382662
:10090800000E3922820E3824476EFF0E3920486EB9
:10091800A3EF04F0D890433644364536463640AE09
:1009280098EF04F09AEF04F09BEF04F04380D8901E
:100938003D363E363F3640364706D8A0480645AED7
:10094800A8EF04F0AAEF04F08EEF04F0000E416E59
:1009580040AEB1EF04F0B3EF04F0D7EF04F0FF0EB0
:100968003D14386EFF0E3E14396EFF0E3F143A6E7A
:100978007F0E40143B6E385039103A103B10D8B4F3
:10098800C8EF04F0CAEF04F0CEEF04F0010E416E98
:10099800D7EF04F043A0D3EF04F0D5EF04F0D7EF7E
:1009A80004F0CAEF04F04150D8B4DDEF04F0DFEFF3
:1009B80004F003EF05F0010E4326000E4422452201
:1009C800462246A0EAEF04F0ECEF04F003EF05F04E
:1009D80043C038F044C039F045C03AF046C03BF057
:1009E8003B343B323A323932383238C043F039C0BE
:1009F80044F03AC045F03BC046F0474A482A48BE52
:100A08000EEF05F0485008E14728D8A00EEF05F092
:100A180010EF05F01AEF05F0000E436E000E446E5D
:100A2800800E456E7F0E466E48EF05F048BE27EFF4
:100A380005F0485006E14704D8B025EF05F027EF48
:100A480005F033EF05F0000E436E000E446E000E05
:100A5800456E000E466E000E3C6E48EF05F047C02E
:100A680042F0FF0E4316FF0E44167F0E4516000E89
:100A7800461642A042EF05F044EF05F045EF05F0B9
:100A8800458ED8904230466E3C50461243C030F0F6
:100A980044C031F045C032F046C033F012001A505D
:100AA800800B276E1A501A242E6E19AE5EEF05F0D1
:100AB80060EF05F061EF05F02E802E50D8B467EF97
:100AC80005F069EF05F07EEF05F02E28D8A46FEF4A
:100AD80005F071EF05F079EF05F0000E176E000EC6
:100AE800186E000E196E000E1A6E198E000E1A6E10
:100AF80086EF05F0000E176E000E186E000E196EC8
:100B0800000E1A6E1E50800B271A1E501E242F6EC0
:100B18001DAE91EF05F093EF05F094EF05F02F80EF
:100B28002F50D8B49AEF05F09CEF05F0B1EF05F01F
:100B38002F28D8A4A2EF05F0A4EF05F0ACEF05F03C
:100B4800000E1B6E000E1C6E000E1D6E000E1E6E3B
:100B58001D8E000E1E6EB9EF05F0000E1B6E000E06
:100B68001C6E000E1D6E000E1E6E1B501C101D10FC
:100B78001E10D8A4C2EF05F0C4EF05F0DCEF05F0B5
:100B8800000E176E000E186E000E196E000E1A6E0B
:100B9800800E19127F0E1A1227501A1217C017F05A
:100BA80018C018F019C019F01AC01AF01FEF07F092
:100BB8002E50D8A4E2EF05F0E4EF05F0EEEF05F0D3
:100BC800000E176E000E186E000E196E000E1A6ECB
:100BD8001FEF07F02F502EC01FF0206A1F5E000E77
:100BE800205A7F0E1F24286E000E2020296E17C061
:100BF80023F018C024F019C025F01AC026F0000E02
:100C0800176E000E186E000E196E000E1A6E000E8A
:100C18002A6E000E2B6E000E2C6E000E2D6E000E2E
:100C28002F6E4FEF06F02F50D8B41DEF06F01FEFD0
:100C380006F036EF06F0D8902336243625362636C9
:100C4800D8901736183619361A362DAE2EEF06F00C
:100C580030EF06F031EF06F01780D8902A362B36A1
:100C68002C362D361B50235C1C5024581D502558FB
:100C78001E502658D8A043EF06F045EF06F04EEF79
:100C880006F02D8C1B50235E1C50245A1D50255AEB
:100C98001E50265A2F2A190E2F6455EF06F057EFCB
:100CA80006F017EF06F02350241025102610D8B4AC
:100CB80060EF06F062EF06F07AEF06F02A807AEF2E
:100CC80006F0D8901736183619361A362DAE6FEF4B
:100CD80006F071EF06F072EF06F01780D8902A360A
:100CE8002B362C362D362806D8A0290619AE7FEFCC
:100CF80006F081EF06F065EF06F0000E2F6E2DAEC0
:100D080088EF06F08AEF06F0AEEF06F0FF0E2A1421
:100D18001F6EFF0E2B14206EFF0E2C14216E7F0EFB
:100D28002D14226E1F50201021102210D8B49FEFCE
:100D380006F0A1EF06F0A5EF06F0010E2F6EAEEF5C
:100D480006F017A0AAEF06F0ACEF06F0AEEF06F03B
:100D5800A1EF06F02F50D8B4B4EF06F0B6EF06F0C6
:100D6800DAEF06F0010E1726000E182219221A22B1
:100D78001AA0C1EF06F0C3EF06F0DAEF06F017C0CD
:100D88001FF018C020F019C021F01AC022F0223438
:100D98002232213220321F321FC017F020C018F033
:100DA80021C019F022C01AF0284A292A29BEE5EFE5
:100DB80006F0295008E12828D8A0E5EF06F0E7EF6B
:100DC80006F0F2EF06F0000E296E2868000E176E86
:100DD800000E186E000E196E000E1A6E29BEFFEF77
:100DE80006F0295006E12804D8B0FDEF06F0FFEF21
:100DF80006F00DEF07F0000E296E000E286E000EAB
:100E0800176E000E186E000E196E000E1A6E000E88
:100E1800276E28C02EF02EA014EF07F016EF07F06B
:100E280019EF07F0198E1AEF07F0199ED8902E3097
:100E38001A6ED0EF05F0120035043610D8A427EF4B
:100E480007F029EF07F047EF07F037C027F038C061
:100E580028F039C029F03AC02AF079EC11F07CBEAC
:100E680038EF07F03AEF07F061EF08F0560E096E19
:100E7800000E0A6E760E0B6E000E0C6E020EA9ECBA
:100E880014F061EF08F0020E35183610D8A44FEFB1
:100E980007F051EF07F06FEF07F037C027F038C0C1
:100EA80028F039C029F03AC02AF0BCEC11F07CBE19
:100EB80060EF07F062EF07F061EF08F0560E096E79
:100EC800000E0A6E760E0B6E000E0C6E010EA9EC6B
:100ED80014F061EF08F0030E35183610D8A477EF38
:100EE80007F079EF07F097EF07F037C027F038C021
:100EF80028F039C029F03AC02AF01EEC0FF07CBE69
:100F080088EF07F08AEF07F061EF08F0560E096ED8
:100F1800000E0A6E760E0B6E000E0C6E030EA9EC18
:100F280014F061EF08F0040E35183610D8A49FEFBE
:100F380007F0A1EF07F0BFEF07F037C027F038C080
:100F480028F039C029F03AC02AF06DEC10F07CBEC8
:100F5800B0EF07F0B2EF07F061EF08F0560E096E38
:100F6800000E0A6E760E0B6E000E0C6E090EA9ECC2
:100F780014F061EF08F0050E35183610D8A4C7EF45
:100F880007F0C9EF07F0E7EF07F037C027F038C0E0
:100F980028F039C029F03AC02AF0B0EC10F07CBE35
:100FA800D8EF07F0DAEF07F061EF08F0560E096E98
:100FB800000E0A6E760E0B6E000E0C6E0A0EA9EC71
:100FC80014F061EF08F0060E35183610D8A4EFEFCC
:100FD80007F0F1EF07F00FEF08F037C02CF038C03A
:100FE8002DF039C02EF03AC02FF0F3EC10F07CBE93
:100FF80000EF08F002EF08F061EF08F0560E096EF6
:10100800000E0A6E760E0B6E000E0C6E070EA9EC23
:1010180014F061EF08F0070E35183610D8A417EF52
:1010280008F019EF08F037EF08F037C02CF038C097
:101038002DF039C02EF03AC02FF036EC11F07CBEFE
:1010480028EF08F02AEF08F061EF08F0560E096E55
:10105800000E0A6E760E0B6E000E0C6E060EA9ECD4
:1010680014F061EF08F0090E35183610D8A43FEFD8
:1010780008F041EF08F04DEF08F037C02EF038C007
:101088002FF039C030F03AC031F06CEC0EF061EF5F
:1010980008F00A0E35183610D8A455EF08F057EFA7
:1010A80008F061EF08F037C02EF038C02FF039C0D3
:1010B80030F03AC031F0C5EC0EF01200000E00011D
:1010C800BE6F000EBD6F000EC06F000EBF6F000E2A
:1010D800C26F000EC16F000EC46F000EC36F1BEC11
:1010E80015F026EC14F00CEC15F0CCEC14F0000E16
:1010F8000A6E630E096E25EC10F0000E0001C56F34
:10110800010EC66F010EC76FAA0ECA6F0F0ECB6F06
:10111800A60ECC6F0F0ECD6FBCCFC8F0C96B000EFA
:10112800CE6F010ECF6F010ED06F250ED36F0F0E4D
:10113800D46F210ED56F0F0ED66FBCCFD1F0D26B06
:10114800000EBC6F000EB96F8EB4ADEF08F0AFEFB4
:1011580008F0A8EF08F067EC15F0000E0001BB6F6F
:10116800000EBA6FDAEF08F0C50E1C6E000E1D6E89
:10117800CE0E1E6E000E1F6E28EC0CF0BD0E146E07
:10118800000E156EA7EC12F0BD0E0001A36F000E45
:10119800A46FB951B76FB86BB7C0A5F0B8C0A6F0C7
:1011A8002EEC00F00001BC6FBA4BBB2BBC51D8B47D
:1011B800E0EF08F0E2EF08F0B8EF08F0BC51D8B45F
:1011C800E8EF08F0EAEF08F047EF09F0080EBC195D
:1011D800D8B4F1EF08F0F3EF08F047EF09F0FA0E92
:1011E800BA25096EFF0EBB210A6E9E0E0B6E000E0D
:1011F8000C6E3C0E0D6E010E0E6E40EC14F08086E7
:1012080014EF09F0C50E1C6E000E1D6ECE0E1E6E7C
:10121800000E1F6E02EC0EF00001BA07D8A0BB0743
:101228000001BA51BB11D8A41CEF09F01EEF09F058
:1012380006EF09F0090E0001B86F1E0EB76FE40E35
:10124800E82EFED7B72FFCD7B82FFAD700F0809634
:101258000001BC51B76FB86BB7C035F0B8C036F0F5
:10126800C50E376E000E386ECE0E396E000E3A6E11
:1012780020EC07F0000E0001BC6F000E556E000E4A
:10128800B96FB1EF08F0080EBC19D8A44EEF09F0F9
:1012980050EF09F0B1EF08F0FA0EBA25096EFF0E0B
:1012A800BB210A6E9E0E0B6E000E0C6E3C0E0D6E70
:1012B800010E0E6E40EC14F07C8E71EF09F0C50E35
:1012C8001C6E000E1D6ECE0E1E6E000E1F6E02EC02
:1012D8000EF00001BA07D8A0BB070001BA51BB1134
:1012E800D8A479EF09F07BEF09F063EF09F0090E54
:1012F8000001B86F1E0EB76FE40EE82EFED7B72FA9
:10130800FCD7B82FFAD700F0C50E3B6E000E3C6E26
:10131800CE0E3D6E000E3E6E8DEC0DF07C9E000EE6
:101328000001BC6F000EB96F0300B1EF08F02CEF9D
:1013380000F0116E1150D8B4A4EF09F0A6EF09F02F
:10134800C8EF09F00CBEADEF09F0ABEF09F0C8EF3C
:1013580009F009C00DF00AC00EF00BC00FF00CC068
:1013680010F00D1E0E1E0F1E101E0D2A000E0E224E
:101378000F2210220DC013F00EC014F00FC015F08C
:1013880010C016F0D0EF09F009C013F00AC014F02D
:101398000BC015F00CC016F009500A100B100C10F9
:1013A800D8A4D9EF09F0DBEF09F0E5EF09F0000E5A
:1013B800096E000E0A6E000E0B6E000E0C6E76EFB4
:1013C8000AF0960E126EEFEF09F0122AD890163234
:1013D800153214321332000E13140D6E000E14144D
:1013E8000E6E000E15140F6EFE0E1614106E0D50B4
:1013F8000E100F101010D8A404EF0AF006EF0AF030
:10140800E9EF09F014EF0AF0122A010E1326000E74
:10141800142215221622D89016321532143213329D
:10142800000E13140D6E000E14140E6E000E15141B
:101438000F6EFF0E1614106E0D500E100F101010B8
:10144800D8A429EF0AF02BEF0AF008EF0AF033EFDF
:101458000AF01206D890133614361536163615BE0D
:1014680038EF0AF03AEF0AF042EF0AF0020E126083
:1014780040EF0AF042EF0AF02DEF0AF012B047EF02
:101488000AF049EF0AF04AEF0AF0159ED890123296
:1014980012C00DF00E6A0F6A106A0DC010F00F6AC4
:1014A8000E6A0D6A0D5013120E5014120F501512B9
:1014B800105016121150D8B464EF0AF066EF0AF013
:1014C8006EEF0AF00CBE6DEF0AF06BEF0AF06EEFEC
:1014D8000AF0168E13C009F014C00AF015C00BF0FC
:1014E80016C00CF0120020EE02F01650D926175044
:1014F800DA22DF50D8B483EF0AF085EF0AF0B9EFAB
:101508000AF016C0D9FF17C0DAFFDF50096E0A6A61
:1015180009BE0A0620EE03F01650D9261750DA2223
:10152800DECF0BF0DDCF0CF096EC14F009C00FF015
:101538000AC010F0000E126E640E116EFFEC11F06E
:1015480020EE03F01650D9261750DA22DF50186E15
:101558000F50185C1A6E20EE03F01650D92617505B
:10156800DA22DF501B6EDCEF0AF0000E1A6E16C08E
:10157800D9FF17C0DAFFDF50096E0A6A09BE0A06EA
:1015880020EE03F01650D9261750DA22DECF0BF0E2
:10159800DDCF0CF096EC14F009C00FF00AC010F083
:1015A800000E126E640E116EFFEC11F00F501B6EE0
:1015B80020EE01F01650D9261750DA22DF50D8B4A1
:1015C800E8EF0AF0EAEF0AF00CEF0BF020EE05F076
:1015D8001650D9261750DA22DECF18F0DDCF19F0D1
:1015E80018C0D9FF19C0DAFF1AC0DFFF20EE07F0D4
:1015F8001650D9261750DA22DECF18F0DDCF19F0B1
:1016080018C0D9FF19C0DAFF1BC0DFFF2CEF0BF0A1
:1016180020EE05F01650D9261750DA22DECF18F042
:10162800DDCF19F018C0D9FF19C0DAFF1BC0DFFFE2
:1016380020EE07F01650D9261750DA22DECF18F020
:10164800DDCF19F018C0D9FF19C0DAFF1AC0DFFFC3
:1016580012004B344C344E6E4E50D8A436EF0BF07B
:1016680038EF0BF042EF0BF0000E496E000E4A6E99
:10167800000E4B6E000E4C6EB0EF0BF049C09FF0A1
:101688004AC0A0F04BC0A1F04CC0A2F0200E53EF0E
:101698000BF00001D890A233A133A0339F33E82E7A
:1016A8004DEF0BF09F514D6E4B8EFF0E4916FF0EFE
:1016B8004A16FF0E4B16000E4C16960E4E5E4EBE88
:1016C8006AEF0BF068EF0BF080EF0BF04E50800ADA
:1016D800970FD8B072EF0BF074EF0BF076EF0BF0BA
:1016E80038EF0BF0D8904C324B324A3249324E3EEA
:1016F80076EF0BF098EF0BF01F0E4E6486EF0BF0B1
:1017080088EF0BF090EF0BF038EF0BF0D8904936DC
:101718004A364B364C364E064E50D8A496EF0BF050
:1017280098EF0BF08AEF0BF04D50D8B49EEF0BF00A
:10173800A0EF0BF0A8EF0BF04C1E4B1E4A1E496C95
:10174800000E4A224B224C2249C049F04AC04AF0B6
:101758004BC04BF04CC04CF0120020EE01F01C5076
:10176800D9261D50DA22010EDF6E20EE02F01C5041
:10177800D9261D50DA22000EDF6E20EE01F01E5031
:10178800D9261F50DA22000EDF6E20EE02F01E501E
:10179800D9261F50DA22000EDF6E1CC0D9FF1DC0EB
:1017A800DAFFDF50800A410FD8A0DDEF0BF0DFEF42
:1017B8000BF0E5EF0BF01CC0D9FF1DC0DAFF3E0EA1
:1017C800DF6E1EC0D9FF1FC0DAFFDF50800A410F4D
:1017D800D8A0F1EF0BF0F3EF0BF0F9EF0BF01EC010
:1017E800D9FF1FC0DAFF3E0EDF6E1CC0D9FF1DC037
:1017F800DAFFDF500A0F1CC0D9FF1DC0DAFFDF6E09
:101808001EC0D9FF1FC0DAFFDF500A0F1EC0D9FF64
:101818001FC0DAFFDF6E1CC016F01DC017F077EC92
:101828000AF01EC016F01FC017F077EC0AF0020E7F
:10183800216EA00E206E920EE82EFED7202EFCD729
:10184800212EFAD700D0120020EE01F01C50D92624
:101858001D50DA22010EDF6E20EE02F01C50D92650
:101868001D50DA22000EDF6E20EE01F01E50D92640
:101878001F50DA22010EDF6E20EE02F01E50D9262C
:101888001F50DA22000EDF6E1CC0D9FF1DC0DAFF20
:10189800DF50800A570FD8A054EF0CF056EF0CF029
:1018A8005CEF0CF01CC0D9FF1DC0DAFF280EDF6EFC
:1018B8001EC0D9FF1FC0DAFFDF50800A540FD8A01E
:1018C80068EF0CF06AEF0CF070EF0CF01EC0D9FF57
:1018D8001FC0DAFF2B0EDF6E1CC0D9FF1DC0DAFF58
:1018E800DF50050F1CC0D9FF1DC0DAFFDF6E1EC018
:1018F800D9FF1FC0DAFFDF50070F1EC0D9FF1FC076
:10190800DAFFDF6E1CC016F01DC017F077EC0AF086
:101918001EC016F01FC017F077EC0AF0050E216EF6
:101928000F0E206EF10EE82EFED7202EFCD7212EAA
:10193800FAD700F0120020EE01F01C50D9261D50F5
:10194800DA22000EDF6E20EE02F01C50D9261D5060
:10195800DA22000EDF6E20EE01F01E50D9261F504D
:10196800DA22010EDF6E20EE02F01E50D9261F503B
:10197800DA22000EDF6E1CC0D9FF1DC0DAFFDF506F
:10198800800A410FD8A0CBEF0CF0CDEF0CF0D3EFCD
:101998000CF01CC0D9FF1DC0DAFF3E0EDF6E1EC062
:1019A800D9FF1FC0DAFFDF50800A410FD8A0DFEF50
:1019B8000CF0E1EF0CF0E7EF0CF01EC0D9FF1FC0F0
:1019C800DAFF3E0EDF6E1CC0D9FF1DC0DAFFDF5004
:1019D8000A0F1CC0D9FF1DC0DAFFDF6E1EC0D9FF79
:1019E8001FC0DAFFDF500A0F1EC0D9FF1FC0DAFF81
:1019F800DF6E1CC016F01DC017F077EC0AF01EC091
:101A080016F01FC017F077EC0AF0020E216EA00E38
:101A1800206E920EE82EFED7202EFCD7212EFAD764
:101A280000D0120020EE01F01C50D9261D50DA22F9
:101A3800000EDF6E20EE02F01C50D9261D50DA226F
:101A4800000EDF6E20EE01F01E50D9261F50DA225C
:101A5800000EDF6E20EE02F01E50D9261F50DA224B
:101A6800000EDF6E1CC0D9FF1DC0DAFFDF50800AF0
:101A7800590FD8A042EF0DF044EF0DF04AEF0DF0EA
:101A88001CC0D9FF1DC0DAFF260EDF6E1EC0D9FFAD
:101A98001FC0DAFFDF50800A510FD8A056EF0DF0B3
:101AA80058EF0DF05EEF0DF01EC0D9FF1FC0DAFF32
:101AB8002E0EDF6E1CC0D9FF1DC0DAFFDF50050FE8
:101AC8001CC0D9FF1DC0DAFFDF6E1EC0D9FF1FC0C2
:101AD800DAFFDF50080F1EC0D9FF1FC0DAFFDF6E24
:101AE8001CC016F01DC017F077EC0AF01EC016F0E7
:101AF8001FC017F077EC0AF0050E216E0F0E206E4E
:101B0800F10EE82EFED7202EFCD7212EFAD700F0B2
:101B180012003BC027F03CC028F03DC029F03EC071
:101B28002AF01EEC0FF0F8EF0DF0000E456E000ED7
:101B3800446E9E0E096E000E0A6E3C0E0B6E010E70
:101B48000C6E0AEC14F009C041F00AC042F0B9EF7B
:101B58000DF03BC01CF03CC01DF03DC01EF03EC067
:101B68001FF028EC0CF0444A452A4150445C42508E
:101B78004558D8A0C2EF0DF0C4EF0DF0ADEF0DF051
:101B8800D3EF0DF03BC01CF03CC01DF03DC01EF073
:101B98003EC01FF002EC0EF04406D8A045064450A3
:101BA8004510D8A4DAEF0DF0DCEF0DF0C6EF0DF01C
:101BB800560E096E000E0A6E760E0B6E000E0C6E37
:101BC800BBEC14F0436E43503F6E406A3FC035F0A3
:101BD80040C036F03BC037F03CC038F03DC039F06B
:101BE8003EC03AF020EC07F000019E51D8A4FFEF68
:101BF8000DF001EF0EF099EF0DF0120020EE02F05B
:101C08001C50D9261D50DA22010EDF6E20EE02F09C
:101C18001E50D9261F50DA22010EDF6E1CC0D9FFD4
:101C28001DC0DAFF000EDBBE1EEF0EF01CEF0EF03B
:101C380024EF0EF01CC0D9FF1DC0DAFF000EDF6EC6
:101C48001EC0D9FF1FC0DAFF000EDBBE30EF0EF05A
:101C58002EEF0EF036EF0EF01EC0D9FF1FC0DAFFD0
:101C6800000EDF6E1CC0D9FF1DC0DAFFDF50FB0F6E
:101C78001CC0D9FF1DC0DAFFDF6E1EC0D9FF1FC010
:101C8800DAFFDF50FB0F1EC0D9FF1FC0DAFFDF6E7F
:101C98001CC0D9FF1DC0DAFF000EDF6E1EC0D9FFC1
:101CA8001FC0DAFF000EDF6E1CC016F01DC017F053
:101CB80077EC0AF01EC016F01FC017F077EC0AF098
:101CC800D00E206ECA0EE82EFED7202EFCD71200AA
:101CD800000E346E2EC027F02FC028F030C029F037
:101CE80031C02AF079EC11F0050E336E0F0E326E0A
:101CF800F10EE82EFED7322EFCD7332EFAD700F09D
:101D080091EF0EF02EC01CF02FC01DF030C01EF059
:101D180031C01FF028EC0CF0342A2C0E346497EFF5
:101D28000EF099EF0EF086EF0EF0A6EF0EF02EC033
:101D38001CF02FC01DF030C01EF031C01FF002ECA7
:101D48000EF034063450D8A4ACEF0EF0AEEF0EF01F
:101D58009BEF0EF0050E336E0F0E326EF10EE82E6D
:101D6800FED7322EFCD7332EFAD700F02EC027F03C
:101D78002FC028F030C029F031C02AF01EEC0FF037
:101D88001200000E346E2EC027F02FC028F030C08D
:101D980029F031C02AF0BCEC11F0050E336E0F0E9D
:101DA800326EF10EE82EFED7322EFCD7332EFAD73C
:101DB80000F0EAEF0EF02EC01CF02FC01DF030C06E
:101DC8001EF031C01FF028EC0CF0342A2C0E3464BD
:101DD800F0EF0EF0F2EF0EF0DFEF0EF0FFEF0EF087
:101DE8002EC01CF02FC01DF030C01EF031C01FF0F7
:101DF80002EC0EF034063450D8A405EF0FF007EFCC
:101E08000FF0F4EF0EF0050E336E0F0E326EF10E7A
:101E1800E82EFED7322EFCD7332EFAD700F02EC08C
:101E280027F02FC028F030C029F031C02AF01EEC6E
:101E38000FF01200000E2D6E2DEF0FF027C01CF0D2
:101E480028C01DF029C01EF02AC01FF016EC0DF0A6
:101E58002D2A0F0E2D6433EF0FF035EF0FF022EF20
:101E68000FF042EF0FF027C01CF028C01DF029C06A
:101E78001EF02AC01FF002EC0EF02D062D50D8A43B
:101E880048EF0FF04AEF0FF037EF0FF0050E2C6E0A
:101E98000F0E2B6EF10EE82EFED72B2EFCD72C2E14
:101EA800FAD700F027C022F028C023F029C024F078
:101EB8002AC025F0CEEC0FF0050E2C6E0F0E2B6EFF
:101EC800F10EE82EFED72B2EFCD72C2EFAD700F0D9
:101ED80027C022F028C023F029C024F02AC025F00A
:101EE800CEEC0FF01200000E266E86EF0FF022C027
:101EF8001CF023C01DF024C01EF025C01FF0B1EC5B
:101F08000BF0262A0E0E26648CEF0FF08EEF0FF0E2
:101F18007BEF0FF09BEF0FF022C01CF023C01DF0E9
:101F280024C01EF025C01FF002EC0EF02606265035
:101F3800D8A4A1EF0FF0A3EF0FF090EF0FF0B0EFE0
:101F48000FF022C01CF023C01DF024C01EF025C0D5
:101F58001FF0B1EC0BF0262A0E0E2664B6EF0FF038
:101F6800B8EF0FF0A5EF0FF0C5EF0FF022C01CF08F
:101F780023C01DF024C01EF025C01FF002EC0EF097
:101F880026062650D8A4CBEF0FF0CDEF0FF0BAEF0E
:101F98000FF01200000E266EDDEF0FF022C01CF0CD
:101FA80023C01DF024C01EF025C01FF09FEC0CF0CC
:101FB800262A0F0E2664E3EF0FF0E5EF0FF0D2EFBD
:101FC8000FF0F2EF0FF022C01CF023C01DF024C068
:101FD8001EF025C01FF002EC0EF026062650D8A4ED
:101FE800F8EF0FF0FAEF0FF0E7EF0FF007EF10F050
:101FF80022C01CF023C01DF024C01EF025C01FF015
:102008009FEC0CF0262A0E0E26640DEF10F00FEF51
:1020180010F0FCEF0FF01CEF10F022C01CF023C0F2
:102028001DF024C01EF025C01FF002EC0EF026069D
:102038002650D8A422EF10F024EF10F011EF10F082
:1020480012007D9485947D9885987B9E839E7F9CC5
:10205800879C050E0E01746F060E766F070E696F6A
:10206800080E886FBD508F0B4009BD6EE00EBE167E
:10207800BF50F00B0109BF6E09C0BCFFBD8E000E3A
:10208800AA6E000EA66E000E0F01256F000E216FBE
:10209800FC0EAD16F30EAD16CF0EAD163F0EAD16F7
:1020A800AB88AB50F00B0C09AB6EAB8EA788A75072
:1020B800F00B0C09A76EA78E26892651F00B0C0988
:1020C800266F268F22892251F00B0C09226F228F4E
:1020D8001200000E2D6E7CEF10F027C01CF028C0F7
:1020E8001DF029C01EF02AC01FF016EC0DF02D2A95
:1020F8002C0E2D6482EF10F084EF10F071EF10F0C9
:1021080091EF10F027C01CF028C01DF029C01EF068
:102118002AC01FF002EC0EF02D062D50D8A497EF20
:1021280010F099EF10F086EF10F0050E2C6E0F0EE0
:102138002B6EF10EE82EFED72B2EFCD72C2EFAD7BD
:1021480000F027C022F028C023F029C024F02AC0BC
:1021580025F077EC0FF01200000E2D6EBFEF10F097
:1021680027C01CF028C01DF029C01EF02AC01FF08F
:1021780016EC0DF02D2A2C0E2D64C5EF10F0C7EFCC
:1021880010F0B4EF10F0D4EF10F027C01CF028C006
:102198001DF029C01EF02AC01FF002EC0EF02D061B
:1021A8002D50D8A4DAEF10F0DCEF10F0C9EF10F0E2
:1021B800050E2C6E0F0E2B6EF10EE82EFED72B2E71
:1021C800FCD72C2EFAD700F027C022F028C023F025
:1021D80029C024F02AC025F0CEEC0FF01200000E22
:1021E800326E02EF11F02CC01CF02DC01DF02EC075
:1021F8001EF02FC01FF016EC0DF0322A0F0E3264BD
:1022080008EF11F00AEF11F0F7EF10F017EF11F0E7
:102218002CC01CF02DC01DF02EC01EF02FC01FF0CA
:1022280002EC0EF032063250D8A41DEF11F01FEF69
:1022380011F00CEF11F0050E316E0F0E306EF10E2D
:10224800E82EFED7302EFCD7312EFAD700F02CC05E
:1022580027F02DC028F02EC029F02FC02AF039EC25
:1022680012F01200000E326E45EF11F02CC01CF077
:102278002DC01DF02EC01EF02FC01FF016EC0DF063
:10228800322A0F0E32644BEF11F04DEF11F03AEF96
:1022980011F05AEF11F02CC01CF02DC01DF02EC00B
:1022A8001EF02FC01FF002EC0EF032063250D8A4F8
:1022B80060EF11F062EF11F04FEF11F0050E316E83
:1022C8000F0E306EF10EE82EFED7302EFCD7312ED1
:1022D800FAD700F02CC027F02DC028F02EC029F026
:1022E8002FC02AF070EC12F01200000E2D6E88EF4D
:1022F80011F027C01CF028C01DF029C01EF02AC00C
:102308001FF016EC0DF02D2A0F0E2D648EEF11F034
:1023180090EF11F07DEF11F09DEF11F027C01CF048
:1023280028C01DF029C01EF02AC01FF002EC0EF0D4
:102338002D062D50D8A4A3EF11F0A5EF11F092EFC0
:1023480011F0050E2C6E0F0E2B6EF10EE82EFED737
:102358002B2EFCD72C2EFAD700F027C022F028C04D
:1023680023F029C024F02AC025F077EC0FF01200E2
:10237800000E2D6ECBEF11F027C01CF028C01DF009
:1023880029C01EF02AC01FF016EC0DF02D2A0F0EE2
:102398002D64D1EF11F0D3EF11F0C0EF11F0E0EFA1
:1023A80011F027C01CF028C01DF029C01EF02AC05B
:1023B8001FF002EC0EF02D062D50D8A4E6EF11F018
:1023C800E8EF11F0D5EF11F0050E2C6E0F0E2B6E05
:1023D800F10EE82EFED72B2EFCD72C2EFAD700F0C4
:1023E80027C022F028C023F029C024F02AC025F0F5
:1023F800CEEC0FF01200000E146E000E136E11508A
:102408001210D8B40AEF12F00CEF12F034EF12F0F9
:10241800010E156E14EF12F0D89011361236152AE7
:1024280012AE19EF12F01BEF12F010EF12F0D89065
:102438001336143611500F5C12501058D8A027EFDD
:1024480012F029EF12F02EEF12F011500F5E125019
:10245800105A1380D89012321132152E1BEF12F039
:1024680013C00FF014C010F0120027C022F028C0CB
:1024780023F029C024F02AC025F077EC0FF0000ED5
:102488002B6E52EF12F027C01CF028C01DF029C097
:102498001EF02AC01FF0B1EC0BF02B2A0E0E2B6495
:1024A80058EF12F05AEF12F047EF12F067EF12F000
:1024B80027C01CF028C01DF029C01EF02AC01FF03C
:1024C80002EC0EF02B062B50D8A46DEF12F06FEF34
:1024D80012F05CEF12F0120027C022F028C023F09F
:1024E80029C024F02AC025F0CEEC0FF0000E2B6E88
:1024F80089EF12F027C01CF028C01DF029C01EF07B
:102508002AC01FF09FEC0CF02B2A0F0E2B648FEFC4
:1025180012F091EF12F07EEF12F09EEF12F027C04A
:102528001CF028C01DF029C01EF02AC01FF002ECC4
:102538000EF02B062B50D8A4A4EF12F0A6EF12F041
:1025480093EF12F01200D6EC12F014C0D9FF15C0A8
:10255800DAFF0DC0DEFF0EC0DDFFFEEC12F020EE4C
:1025680002F01450D9261550DA220DC0DEFF0EC035
:10257800DDFF4EEC13F020EE04F01450D926155070
:10258800DA220DC0DEFF0EC0DDFF26EC13F020EED0
:1025980006F01450D9261550DA220DC0DEFF0EC001
:1025A800DDFF120058EC15F0520E42EC15F0B60E95
:1025B80042EC15F04EEC15F0530E42EC15F0010EFE
:1025C800E9EC13F00F6E0F50126E136A000EE9EC6F
:1025D80013F00F6E0F50116E106A12501010126E19
:1025E80013501110136E53EC15F012C00DF013C0F8
:1025F8000EF0120058EC15F0520E42EC15F0B80E21
:1026080042EC15F04EEC15F0530E42EC15F0010EAD
:10261800E9EC13F00F6E0F50126E136A000EE9EC1E
:1026280013F00F6E0F50116E106A12501010126EC8
:1026380013501110136E53EC15F012C00DF013C0A7
:102648000EF0120058EC15F0520E42EC15F0B40ED4
:1026580042EC15F04EEC15F0530E42EC15F0010E5D
:10266800E9EC13F00F6E0F50126E136A000EE9ECCE
:1026780013F00F6E0F50116E106A12501010126E78
:1026880013501110136E53EC15F012C00DF013C057
:102698000EF0120058EC15F0520E42EC15F0BA0E7E
:1026A80042EC15F04EEC15F0530E42EC15F0010E0D
:1026B800E9EC13F00F6E0F50126E136A000EE9EC7E
:1026C80013F00F6E0F50116E106A12501010126E28
:1026D80013501110136E53EC15F012C00DF013C007
:1026E8000EF01200130E0B6E000EDCEC14F03F0E11
:1026F8000D6E550EE82EFED70D2EFCD700F0040EF9
:102708000B6E0C0EDCEC14F04FC00BF0040EDCEC7E
:1027180014F050500B6E050EDCEC14F0D7C00BF023
:10272800060EDCEC14F00001D8510B6E070EDCEC41
:1027380014F01200130E036E000EFCEC14F03F0EA2
:10274800056E550EE82EFED7052EFCD700F0040EB8
:10275800036E0C0EFCEC14F04FC003F0040EFCECFE
:1027680014F05050036E050EFCEC14F0D7C003F0C3
:10277800060EFCEC14F00001D851036E070EFCECB9
:1027880014F01200D60EF66E2A0EF76E000EF86ED2
:102798000900F5CFD7F00900F5CFD8F001EE00F029
:1027A8008C0EEE6AE806FDE100EE60F03F0EEE6A80
:1027B800E806FDE100EE4FF0080EEE6AE806FDE1DE
:1027C80057905792000162EF08F00B6E6EEC14F010
:1027D8000E01DA876EEC14F0D5CE0CF06EEC14F026
:1027E8000B50D8B4FAEF13F0FEEF13F00A6A0A2A76
:1027F800FFEF13F00A6A0A3A0A460E01DA510A187C
:10280800DF0B0A18DA6FDA890C50120009C0D9FFF9
:102818000AC0DAFFDF06DF500D6E0D50020DF3CF50
:102828000EF0F4CF0FF00E500B24D96E0F500C2081
:10283800DA6EDECF10F0DDCF11F010C009F011C054
:102848000AF0120059EC14F0010E0B6E000EDCECCD
:1028580014F03F0E0D6E550EE82EFED70D2EFCD748
:1028680000F0030E0B6E000EDCEC14F0D50E0B6EB0
:10287800010EDCEC14F012000BC0D9FF0CC0DAFF1B
:10288800DFCF0FF0010EDF260F50020DF3CF10F04F
:10289800F4CF11F010500D24D96E11500E20DA6EBD
:1028A80009C0DEFF0AC0DDFF12000E01D951F00B8E
:1028B8000809D96FD98B9F0ED66F848A848CA79B01
:1028C800A79D1D0E1D6F1E0E1C6F1C0E6F6F1B0E1D
:1028D800706F12000E01D8B574EF14F076EF14F093
:1028E8006EEF14F0DACE09F01F0E0916D8A47FEFA8
:1028F80014F081EF14F06EEF14F012000E01D8B549
:1029080088EF14F08AEF14F082EF14F0DACE01F0B9
:102918001F0E0116D8A493EF14F095EF14F082EF70
:1029280014F0120009500B02F3CF0DF0F4CF0EF0A3
:1029380009500C02F3500E260A500B02F3500E26D3
:102948000DC009F00EC00AF012000E6E09C0D9FFC2
:102958000AC0DAFFDFCF0DF0010EDF260D500B2481
:10296800D96E000E0C20DA6E0EC0DFFF120009C00F
:10297800D9FF0AC0DAFFDF06DF500D6E0D500B24B9
:10298800D96E000E0C20DA6EDF500E6E0E5012005B
:10299800D6501F0B4009D66ED688D650F00B0809C2
:1029A800D66ED5880B0ED46EDB0ED36ED58E120084
:1029B8000C6E58EC15F0520E42EC15F00C508009D4
:1029C80042EC15F00B5042EC15F053EC15F01200E8
:1029D8000E0133A3F2EF14F0F4EF14F0FAEF14F051
:1029E800010E556E35EC15F00E0133935792110018
:1029F800046E62EC15F0520E48EC15F00450800994
:102A080048EC15F0035048EC15F05DEC15F0120099
:102A180082820E019A9329831F83F292298B1F9B2E
:102A28002D8728EC15F0F28AF28CF28E120087922C
:102A38008198869E809688967C9E849E86848686CB
:102A48000E01B495B497120058EC15F0520E42ECF2
:102A580015F0E60E42EC15F053EC15F076EC13F099
:102A6800120062EC15F0520E48EC15F0E60E48EC38
:102A780015F05DEC15F09EEC13F012000A6E6EEC8A
:102A880014F00AC0D5FE1200026E82EC14F002C0E7
:102A9800D5FE12006EEC14F00E01DA8312006EEC13
:102AA80014F00E01DA8512006EEC14F00E01DA81D2
:102AB800120082EC14F00E01DA85120082EC14F098
:102AC8000E01DA8112007F8279887E8E1200540B03
:020000040020DA
:10000000FF0FFF0FFF0FFF0FFF0FFF0FFF0FFF0F80
:020000040030CA
:0C000000AAFFFFFF9FFFFFFFFFFFFFFFB5
:00000001FF
