:040000002CEF00F0F1
:060008005782E5EF14F041
:100018005780D8CF06F0E8CF07F0E0CF08F00E0100
:1000280033AB19EF00F01BEF00F024EF00F00B0EDC
:10003800D46EDB0ED36E010E0001756F0E01339B7B
:1000480008C0E0FF07C0E8FF06C0D8FF57901000BF
:10005800BFEF13F0000E0001B36F000E346E000EF8
:10006800356EC80E366E420E376E20EE04F0A35180
:10007800D926A451DA22DECFA7F0DDCFA8F020EEF2
:1000880002F0A351D926A451DA22DECFA9F0DDCFA0
:10009800AAF0A3C0D9FFA4C0DAFFDECFABF0DDCF52
:1000A800ACF0A951AB25AD6FAA51AC21AE6FA751E9
:1000B800AD25AF6FA851AE21B06FAFC009F0B0C089
:1000C8000AF00B6A0C6A000E96EC09F009C01BF0E6
:1000D8000AC01CF00BC01DF00CC01EF0A3C0D9FF55
:1000E800A4C0DAFFDECFB1F0DDCFB2F0B1C009F0C5
:1000F800B2C00AF00B6A0C6A000E96EC09F009C04F
:1001080017F00AC018F00BC019F00CC01AF053EC25
:1001180005F017C030F018C031F019C032F01AC01D
:1001280033F03EEC03F030C049F031C04AF032C041
:100138004BF033C04CF026EC0BF049500001B46F83
:10014800000E346E000E356EC80E366E420E376ED7
:1001580020EE04F0A351D926A451DA22DECFA7F06D
:10016800DDCFA8F020EE02F0A351D926A451DA225F
:10017800DECFA9F0DDCFAAF0A3C0D9FFA4C0DAFF73
:10018800DECFABF0DDCFACF0A951AB25AD6FAA51F6
:10019800AC21AE6FA751AD25AF6FA851AE21B06F9E
:1001A800AFC009F0B0C00AF00B6A0C6A000E96ECFA
:1001B80009F009C01BF00AC01CF00BC01DF00CC0F0
:1001C8001EF0000120EE02F0A351D926A451DA2234
:1001D800DECFB1F0DDCFB2F0B1C009F0B2C00AF0A5
:1001E8000B6A0C6A000E96EC09F009C017F00AC0F9
:1001F80018F00BC019F00CC01AF053EC05F017C03A
:1002080030F018C031F019C032F01AC033F03EECAB
:1002180003F030C049F031C04AF032C04BF033C06F
:100228004CF026EC0BF049500001B56F000E346E0F
:10023800000E356EC80E366E420E376E20EE04F094
:10024800A351D926A451DA22DECFA7F0DDCFA8F03A
:1002580020EE02F0A351D926A451DA22DECFA9F06C
:10026800DDCFAAF0A3C0D9FFA4C0DAFFDECFABF080
:10027800DDCFACF0A951AB25AD6FAA51AC21AE6F63
:10028800A751AD25AF6FA851AE21B06FAFC009F02F
:10029800B0C00AF00B6A0C6A000E96EC09F009C0AF
:1002A8001BF00AC01CF00BC01DF00CC01EF00001B2
:1002B80020EE04F0A351D926A451DA22DECFB1F002
:1002C800DDCFB2F0B1C009F0B2C00AF00B6A0C6A17
:1002D800000E96EC09F009C017F00AC018F00BC020
:1002E80019F00CC01AF053EC05F017C030F018C024
:1002F80031F019C032F01AC033F03EEC03F030C0D0
:1003080049F031C04AF032C04BF033C04CF026EC13
:100318000BF049500001B66F5550D8B496EF01F074
:1003280098EF01F03AEF03F0490EB4659EEF01F043
:10033800A0EF01F0CCEF01F04D0EB461A6EF01F093
:10034800A8EF01F0CCEF01F0090EB565AEEF01F0B2
:10035800B0EF01F0CCEF01F00D0EB561B6EF01F092
:10036800B8EF01F0CCEF01F00C0EB665BEEF01F06E
:10037800C0EF01F0CCEF01F0100EB661C6EF01F04E
:10038800C8EF01F0CCEF01F0010EB36F3AEF03F0C4
:10039800230EB465D2EF01F0D4EF01F000EF02F0C4
:1003A800270EB461DAEF01F0DCEF01F000EF02F0A4
:1003B800280EB565E2EF01F0E4EF01F000EF02F07E
:1003C8002C0EB561EAEF01F0ECEF01F000EF02F05E
:1003D800130EB665F2EF01F0F4EF01F000EF02F052
:1003E800170EB661FAEF01F0FCEF01F000EF02F032
:1003F800020EB36F3AEF03F01C0EB46506EF02F07D
:1004080008EF02F034EF02F0230EB4610EEF02F0B1
:1004180010EF02F034EF02F01F0EB56516EF02F090
:1004280018EF02F034EF02F0270EB5611EEF02F06C
:1004380020EF02F034EF02F01E0EB66526EF02F050
:1004480028EF02F034EF02F0260EB6612EEF02F02C
:1004580030EF02F034EF02F0030EB36F3AEF03F01F
:10046800310EB4653AEF02F03CEF02F068EF02F0AB
:10047800350EB46142EF02F044EF02F068EF02F08B
:100488001D0EB5654AEF02F04CEF02F068EF02F07E
:10049800210EB56152EF02F054EF02F068EF02F05E
:1004A800100EB6655AEF02F05CEF02F068EF02F04A
:1004B800140EB66162EF02F064EF02F068EF02F02A
:1004C800040EB36F3AEF03F02F0EB4656EEF02F02F
:1004D80070EF02F09CEF02F0330EB46176EF02F099
:1004E80078EF02F09CEF02F01B0EB5657EEF02F08C
:1004F80080EF02F09CEF02F01F0EB56186EF02F06C
:1005080088EF02F09CEF02F0140EB6658EEF02F051
:1005180090EF02F09CEF02F0180EB66196EF02F031
:1005280098EF02F09CEF02F0050EB36F3AEF03F07C
:100538003A0EB465A2EF02F0A4EF02F0D0EF02F099
:100548003E0EB461AAEF02F0ACEF02F0D0EF02F079
:10055800150EB565B2EF02F0B4EF02F0D0EF02F07D
:10056800190EB561BAEF02F0BCEF02F0D0EF02F05D
:100578000F0EB665C2EF02F0C4EF02F0D0EF02F042
:10058800130EB661CAEF02F0CCEF02F0D0EF02F022
:10059800060EB36F3AEF03F0200EB465D6EF02F003
:1005A800D8EF02F004EF03F0240EB461DEEF02F09E
:1005B800E0EF02F004EF03F0250EB565E6EF02F078
:1005C800E8EF02F004EF03F0290EB561EEEF02F058
:1005D800F0EF02F004EF03F0190EB665F6EF02F043
:1005E800F8EF02F004EF03F01D0EB661FEEF02F023
:1005F80000EF03F004EF03F0070EB36F3AEF03F0D8
:100608002A0EB4650AEF03F00CEF03F038EF03F09D
:100618002E0EB46112EF03F014EF03F038EF03F07D
:100628001F0EB5651AEF03F01CEF03F038EF03F067
:10063800230EB56122EF03F024EF03F038EF03F047
:10064800150EB6652AEF03F02CEF03F038EF03F030
:10065800190EB66132EF03F034EF03F038EF03F010
:10066800080EB36F3AEF03F0000EB36F000E556E2D
:10067800B35112003350800B3C6E33503324426E1A
:1006880032AE49EF03F04BEF03F04CEF03F042803A
:100698004250D8B452EF03F054EF03F067EF03F081
:1006A8004228D8A45AEF03F05CEF03F064EF03F09C
:1006B800000E306E000E316E000E326E000E336E7C
:1006C800328E6FEF03F0000E306E000E316E000EAA
:1006D800326E000E336E3750800B3C1A3750372479
:1006E800416E36AE7AEF03F07CEF03F07DEF03F056
:1006F80041804150D8B483EF03F085EF03F098EFC1
:1007080003F04128D8A48BEF03F08DEF03F095EFA9
:1007180003F0000E346E000E356E000E366E000EBD
:10072800376E368EA0EF03F0000E346E000E356E75
:10073800000E366E000E376E4150D8B4A6EF03F0A7
:10074800A8EF03F0B0EF03F04250D8A4AEEF03F0E7
:10075800B0EF03F0BAEF03F0000E306E000E316E0A
:10076800000E326E000E336E52EF05F03650300236
:10077800F3CF47F0F4CF48F047503D6E3E6A3F6AEA
:10078800406A4850436E446A456A466A35503102A9
:10079800F3CF47F0F4CF48F047503D26000E3E22F5
:1007A8003F22402248504326000E4422452246223A
:1007B80034503202F3CF47F0F4CF48F047503D268B
:1007C800000E3E223F22402248504326000E44227B
:1007D800452246223FC040F03EC03FF03DC03EF0BB
:1007E8003D6A34503102F3CF47F0F4CF48F0475018
:1007F8003D2648503E22000E3F22000E4022355032
:100808003002F3CF47F0F4CF48F047503D26485028
:100818003E22000E3F22000E40223FC040F03EC064
:100828003FF03DC03EF03D6A34503002F3CF47F010
:10083800F4CF48F047503D2648503E22000E3F2254
:10084800000E402236503102F3CF47F0F4CF48F083
:100858004750432648504422000E4522000E4622A7
:1008680035503202F3CF47F0F4CF48F047504326D3
:1008780048504422000E4522000E462236503202CD
:10088800F3CF47F0F4CF48F04750386E4850396EF0
:100898003A6A3B6A3AC03BF039C03AF038C039F09E
:1008A800386A38504326395044223A5045223B5042
:1008B80046223DC038F03EC039F03FC03AF040C053
:1008C8003BF0190E6DEF04F0D8903B323A323932D2
:1008D8003832E82E68EF04F0385043263950442265
:1008E8003A5045223B5046223FC040F03EC03FF0C0
:1008F8003DC03EF03D6A415042C038F0396A382662
:10090800000E3922820E3824476EFF0E3920486EB9
:10091800A3EF04F0D890433644364536463640AE09
:1009280098EF04F09AEF04F09BEF04F04380D8901E
:100938003D363E363F3640364706D8A0480645AED7
:10094800A8EF04F0AAEF04F08EEF04F0000E416E59
:1009580040AEB1EF04F0B3EF04F0D7EF04F0FF0EB0
:100968003D14386EFF0E3E14396EFF0E3F143A6E7A
:100978007F0E40143B6E385039103A103B10D8B4F3
:10098800C8EF04F0CAEF04F0CEEF04F0010E416E98
:10099800D7EF04F043A0D3EF04F0D5EF04F0D7EF7E
:1009A80004F0CAEF04F04150D8B4DDEF04F0DFEFF3
:1009B80004F003EF05F0010E4326000E4422452201
:1009C800462246A0EAEF04F0ECEF04F003EF05F04E
:1009D80043C038F044C039F045C03AF046C03BF057
:1009E8003B343B323A323932383238C043F039C0BE
:1009F80044F03AC045F03BC046F0474A482A48BE52
:100A08000EEF05F0485008E14728D8A00EEF05F092
:100A180010EF05F01AEF05F0000E436E000E446E5D
:100A2800800E456E7F0E466E48EF05F048BE27EFF4
:100A380005F0485006E14704D8B025EF05F027EF48
:100A480005F033EF05F0000E436E000E446E000E05
:100A5800456E000E466E000E3C6E48EF05F047C02E
:100A680042F0FF0E4316FF0E44167F0E4516000E89
:100A7800461642A042EF05F044EF05F045EF05F0B9
:100A8800458ED8904230466E3C50461243C030F0F6
:100A980044C031F045C032F046C033F012001A505D
:100AA800800B276E1A501A242E6E19AE5EEF05F0D1
:100AB80060EF05F061EF05F02E802E50D8B467EF97
:100AC80005F069EF05F07EEF05F02E28D8A46FEF4A
:100AD80005F071EF05F079EF05F0000E176E000EC6
:100AE800186E000E196E000E1A6E198E000E1A6E10
:100AF80086EF05F0000E176E000E186E000E196EC8
:100B0800000E1A6E1E50800B271A1E501E242F6EC0
:100B18001DAE91EF05F093EF05F094EF05F02F80EF
:100B28002F50D8B49AEF05F09CEF05F0B1EF05F01F
:100B38002F28D8A4A2EF05F0A4EF05F0ACEF05F03C
:100B4800000E1B6E000E1C6E000E1D6E000E1E6E3B
:100B58001D8E000E1E6EB9EF05F0000E1B6E000E06
:100B68001C6E000E1D6E000E1E6E1B501C101D10FC
:100B78001E10D8A4C2EF05F0C4EF05F0DCEF05F0B5
:100B8800000E176E000E186E000E196E000E1A6E0B
:100B9800800E19127F0E1A1227501A1217C017F05A
:100BA80018C018F019C019F01AC01AF01FEF07F092
:100BB8002E50D8A4E2EF05F0E4EF05F0EEEF05F0D3
:100BC800000E176E000E186E000E196E000E1A6ECB
:100BD8001FEF07F02F502EC01FF0206A1F5E000E77
:100BE800205A7F0E1F24286E000E2020296E17C061
:100BF80023F018C024F019C025F01AC026F0000E02
:100C0800176E000E186E000E196E000E1A6E000E8A
:100C18002A6E000E2B6E000E2C6E000E2D6E000E2E
:100C28002F6E4FEF06F02F50D8B41DEF06F01FEFD0
:100C380006F036EF06F0D8902336243625362636C9
:100C4800D8901736183619361A362DAE2EEF06F00C
:100C580030EF06F031EF06F01780D8902A362B36A1
:100C68002C362D361B50235C1C5024581D502558FB
:100C78001E502658D8A043EF06F045EF06F04EEF79
:100C880006F02D8C1B50235E1C50245A1D50255AEB
:100C98001E50265A2F2A190E2F6455EF06F057EFCB
:100CA80006F017EF06F02350241025102610D8B4AC
:100CB80060EF06F062EF06F07AEF06F02A807AEF2E
:100CC80006F0D8901736183619361A362DAE6FEF4B
:100CD80006F071EF06F072EF06F01780D8902A360A
:100CE8002B362C362D362806D8A0290619AE7FEFCC
:100CF80006F081EF06F065EF06F0000E2F6E2DAEC0
:100D080088EF06F08AEF06F0AEEF06F0FF0E2A1421
:100D18001F6EFF0E2B14206EFF0E2C14216E7F0EFB
:100D28002D14226E1F50201021102210D8B49FEFCE
:100D380006F0A1EF06F0A5EF06F0010E2F6EAEEF5C
:100D480006F017A0AAEF06F0ACEF06F0AEEF06F03B
:100D5800A1EF06F02F50D8B4B4EF06F0B6EF06F0C6
:100D6800DAEF06F0010E1726000E182219221A22B1
:100D78001AA0C1EF06F0C3EF06F0DAEF06F017C0CD
:100D88001FF018C020F019C021F01AC022F0223438
:100D98002232213220321F321FC017F020C018F033
:100DA80021C019F022C01AF0284A292A29BEE5EFE5
:100DB80006F0295008E12828D8A0E5EF06F0E7EF6B
:100DC80006F0F2EF06F0000E296E2868000E176E86
:100DD800000E186E000E196E000E1A6E29BEFFEF77
:100DE80006F0295006E12804D8B0FDEF06F0FFEF21
:100DF80006F00DEF07F0000E296E000E286E000EAB
:100E0800176E000E186E000E196E000E1A6E000E88
:100E1800276E28C02EF02EA014EF07F016EF07F06B
:100E280019EF07F0198E1AEF07F0199ED8902E3097
:100E38001A6ED0EF05F0120035043610D8A427EF4B
:100E480007F029EF07F047EF07F037C027F038C061
:100E580028F039C029F03AC02AF072EC11F07CBEB3
:100E680038EF07F03AEF07F061EF08F0560E096E19
:100E7800000E0A6E760E0B6E000E0C6E020EA2ECC1
:100E880014F061EF08F0020E35183610D8A44FEFB1
:100E980007F051EF07F06FEF07F037C027F038C0C1
:100EA80028F039C029F03AC02AF0B5EC11F07CBE20
:100EB80060EF07F062EF07F061EF08F0560E096E79
:100EC800000E0A6E760E0B6E000E0C6E010EA2EC72
:100ED80014F061EF08F0030E35183610D8A477EF38
:100EE80007F079EF07F097EF07F037C027F038C021
:100EF80028F039C029F03AC02AF017EC0FF07CBE70
:100F080088EF07F08AEF07F061EF08F0560E096ED8
:100F1800000E0A6E760E0B6E000E0C6E030EA2EC1F
:100F280014F061EF08F0040E35183610D8A49FEFBE
:100F380007F0A1EF07F0BFEF07F037C027F038C080
:100F480028F039C029F03AC02AF066EC10F07CBECF
:100F5800B0EF07F0B2EF07F061EF08F0560E096E38
:100F6800000E0A6E760E0B6E000E0C6E090EA2ECC9
:100F780014F061EF08F0050E35183610D8A4C7EF45
:100F880007F0C9EF07F0E7EF07F037C027F038C0E0
:100F980028F039C029F03AC02AF0A9EC10F07CBE3C
:100FA800D8EF07F0DAEF07F061EF08F0560E096E98
:100FB800000E0A6E760E0B6E000E0C6E0A0EA2EC78
:100FC80014F061EF08F0060E35183610D8A4EFEFCC
:100FD80007F0F1EF07F00FEF08F037C02CF038C03A
:100FE8002DF039C02EF03AC02FF0ECEC10F07CBE9A
:100FF80000EF08F002EF08F061EF08F0560E096EF6
:10100800000E0A6E760E0B6E000E0C6E070EA2EC2A
:1010180014F061EF08F0070E35183610D8A417EF52
:1010280008F019EF08F037EF08F037C02CF038C097
:101038002DF039C02EF03AC02FF02FEC11F07CBE05
:1010480028EF08F02AEF08F061EF08F0560E096E55
:10105800000E0A6E760E0B6E000E0C6E060EA2ECDB
:1010680014F061EF08F0090E35183610D8A43FEFD8
:1010780008F041EF08F04DEF08F037C02EF038C007
:101088002FF039C030F03AC031F065EC0EF061EF66
:1010980008F00A0E35183610D8A455EF08F057EFA7
:1010A80008F061EF08F037C02EF038C02FF039C0D3
:1010B80030F03AC031F0BEEC0EF01200000E000124
:1010C800BE6F000EBD6F000EC06F000EBF6F000E2A
:1010D800C26F000EC16F000EC46F000EC36F2EECFE
:1010E80015F01FEC14F005EC15F0C5EC14F0000E2B
:1010F8000A6E630E096E1EEC10F0000E0001C56F3B
:10110800010EC66F010EC76FAA0ECA6F0F0ECB6F06
:10111800A60ECC6F0F0ECD6FBCCFC8F0C96B000EFA
:10112800CE6F010ECF6F010ED06F250ED36F0F0E4D
:10113800D46F210ED56F0F0ED66FBCCFD1F0D26B06
:10114800000EBC6F000EB96F5BEC15F0000E0001CD
:10115800BB6F000EBA6FD3EF08F0C50E1C6E000E01
:101168001D6ECE0E1E6E000E1F6E21EC0CF0BD0E15
:10117800146E000E156EA0EC12F0BD0E0001A36FE8
:10118800000EA46FB951B76FB86BB7C0A5F0B8C05F
:10119800A6F02EEC00F00001BC6FBA4BBB2BBC5183
:1011A800D8B4D9EF08F0DBEF08F0B1EF08F0BC5184
:1011B800D8B4E1EF08F0E3EF08F040EF09F0080ECB
:1011C800BC19D8B4EAEF08F0ECEF08F040EF09F0EA
:1011D800FA0EBA25096EFF0EBB210A6E9E0E0B6E23
:1011E800000E0C6E3C0E0D6E010E0E6E39EC14F0F6
:1011F80080860DEF09F0C50E1C6E000E1D6ECE0E1A
:101208001E6E000E1F6EFBEC0DF00001BA07D8A091
:10121800BB070001BA51BB11D8A415EF09F017EFAD
:1012280009F0FFEF08F0090E0001B86F1E0EB76F46
:10123800E40EE82EFED7B72FFCD7B82FFAD700F068
:1012480080960001BC51B76FB86BB7C035F0B8C015
:1012580036F0C50E376E000E386ECE0E396E000EA3
:101268003A6E20EC07F0000E0001BC6F000E556EC0
:10127800000EB96FAAEF08F0080EBC19D8A447EF02
:1012880009F049EF09F0AAEF08F0FA0EBA25096E3D
:10129800FF0EBB210A6E9E0E0B6E000E0C6E3C0EEE
:1012A8000D6E010E0E6E39EC14F07C8E6AEF09F0AB
:1012B800C50E1C6E000E1D6ECE0E1E6E000E1F6E2D
:1012C800FBEC0DF00001BA07D8A0BB070001BA512A
:1012D800BB11D8A472EF09F074EF09F05CEF09F0C4
:1012E800090E0001B86F1E0EB76FE40EE82EFED788
:1012F800B72FFCD7B82FFAD700F0C50E3B6E000EFB
:101308003C6ECE0E3D6E000E3E6E86EC0DF07C9E61
:10131800000E0001BC6F000EB96F0300AAEF08F0C1
:101328002CEF00F0116E1150D8B49DEF09F09FEF2B
:1013380009F0C1EF09F00CBEA6EF09F0A4EF09F01F
:10134800C1EF09F009C00DF00AC00EF00BC00FF094
:101358000CC010F00D1E0E1E0F1E101E0D2A000EC2
:101368000E220F2210220DC013F00EC014F00FC071
:1013780015F010C016F0C9EF09F009C013F00AC043
:1013880014F00BC015F00CC016F009500A100B1021
:101398000C10D8A4D2EF09F0D4EF09F0DEEF09F071
:1013A800000E096E000E0A6E000E0B6E000E0C6E1B
:1013B8006FEF0AF0960E126EE8EF09F0122AD89035
:1013C8001632153214321332000E13140D6E000E3D
:1013D80014140E6E000E15140F6EFE0E1614106EF9
:1013E8000D500E100F101010D8A4FDEF09F0FFEFEC
:1013F80009F0E2EF09F00DEF0AF0122A010E1326A8
:10140800000E142215221622D890163215321432E4
:101418001332000E13140D6E000E14140E6E000E0F
:1014280015140F6EFF0E1614106E0D500E100F10BF
:101438001010D8A422EF0AF024EF0AF001EF0AF006
:101448002CEF0AF01206D8901336143615361636D5
:1014580015BE31EF0AF033EF0AF03BEF0AF0020E47
:10146800126039EF0AF03BEF0AF026EF0AF012B0EB
:1014780040EF0AF042EF0AF043EF0AF0159ED890C9
:10148800123212C00DF00E6A0F6A106A0DC010F009
:101498000F6A0E6A0D6A0D5013120E5014120F5077
:1014A8001512105016121150D8B45DEF0AF05FEF04
:1014B8000AF067EF0AF00CBE66EF0AF064EF0AF074
:1014C80067EF0AF0168E13C009F014C00AF015C0B1
:1014D8000BF016C00CF0120020EE02F01650D926C0
:1014E8001750DA22DF50D8B47CEF0AF07EEF0AF00A
:1014F800B2EF0AF016C0D9FF17C0DAFFDF50096E45
:101508000A6A09BE0A0620EE03F01650D9261750BB
:10151800DA22DECF0BF0DDCF0CF08FEC14F009C02F
:101528000FF00AC010F0000E126E640E116EF8EC87
:1015380011F020EE03F01650D9261750DA22DF50AA
:10154800186E0F50185C1A6E20EE03F01650D9264C
:101558001750DA22DF501B6ED5EF0AF0000E1A6E14
:1015680016C0D9FF17C0DAFFDF50096E0A6A09BE34
:101578000A0620EE03F01650D9261750DA22DECFDD
:101588000BF0DDCF0CF08FEC14F009C00FF00AC09F
:1015980010F0000E126E640E116EF8EC11F00F5080
:1015A8001B6E20EE01F01650D9261750DA22DF50B4
:1015B800D8B4E1EF0AF0E3EF0AF005EF0BF020EE04
:1015C80005F01650D9261750DA22DECF18F0DDCFF5
:1015D80019F018C0D9FF19C0DAFF1AC0DFFF20EED2
:1015E80007F01650D9261750DA22DECF18F0DDCFD3
:1015F80019F018C0D9FF19C0DAFF1BC0DFFF25EFAB
:101608000BF020EE05F01650D9261750DA22DECF5F
:1016180018F0DDCF19F018C0D9FF19C0DAFF1BC0C8
:10162800DFFF20EE07F01650D9261750DA22DECF5A
:1016380018F0DDCF19F018C0D9FF19C0DAFF1AC0A9
:10164800DFFF12004B344C344E6E4E50D8A42FEFAF
:101658000BF031EF0BF03BEF0BF0000E496E000E74
:101668004A6E000E4B6E000E4C6EA9EF0BF049C08F
:101678009FF04AC0A0F04BC0A1F04CC0A2F0200ED1
:101688004CEF0BF00001D890A233A133A0339F3365
:10169800E82E46EF0BF09F514D6E4B8EFF0E49160C
:1016A800FF0E4A16FF0E4B16000E4C16960E4E5E97
:1016B8004EBE63EF0BF061EF0BF079EF0BF04E507D
:1016C800800A970FD8B06BEF0BF06DEF0BF06FEF50
:1016D8000BF031EF0BF0D8904C324B324A32493292
:1016E8004E3E6FEF0BF091EF0BF01F0E4E647FEF45
:1016F8000BF081EF0BF089EF0BF031EF0BF0D89086
:1017080049364A364B364C364E064E50D8A48FEFE3
:101718000BF091EF0BF083EF0BF04D50D8B497EF2F
:101728000BF099EF0BF0A1EF0BF04C1E4B1E4A1E6D
:10173800496C000E4A224B224C2249C049F04AC04B
:101748004AF04BC04BF04CC04CF0120020EE01F0B8
:101758001C50D9261D50DA22010EDF6E20EE02F051
:101768001C50D9261D50DA22000EDF6E20EE01F043
:101778001E50D9261F50DA22000EDF6E20EE02F02E
:101788001E50D9261F50DA22000EDF6E1CC0D9FF6A
:101798001DC0DAFFDF50800A410FD8A0D6EF0BF04A
:1017A800D8EF0BF0DEEF0BF01CC0D9FF1DC0DAFF3D
:1017B8003E0EDF6E1EC0D9FF1FC0DAFFDF50800A61
:1017C800410FD8A0EAEF0BF0ECEF0BF0F2EF0BF0C3
:1017D8001EC0D9FF1FC0DAFF3E0EDF6E1CC0D9FF46
:1017E8001DC0DAFFDF500A0F1CC0D9FF1DC0DAFF89
:1017F800DF6E1EC0D9FF1FC0DAFFDF500A0F1EC000
:10180800D9FF1FC0DAFFDF6E1CC016F01DC017F02D
:1018180070EC0AF01EC016F01FC017F070EC0AF04A
:10182800020E216EA00E206E920EE82EFED7202EFC
:10183800FCD7212EFAD700D0120020EE01F01C5060
:10184800D9261D50DA22010EDF6E20EE02F01C5060
:10185800D9261D50DA22000EDF6E20EE01F01E5050
:10186800D9261F50DA22010EDF6E20EE02F01E503C
:10187800D9261F50DA22000EDF6E1CC0D9FF1DC00A
:10188800DAFFDF50800A570FD8A04DEF0CF04FEF6A
:101898000CF055EF0CF01CC0D9FF1DC0DAFF280E64
:1018A800DF6E1EC0D9FF1FC0DAFFDF50800A540F59
:1018B800D8A061EF0CF063EF0CF069EF0CF01EC0DC
:1018C800D9FF1FC0DAFF2B0EDF6E1CC0D9FF1DC069
:1018D800DAFFDF50050F1CC0D9FF1DC0DAFFDF6E2D
:1018E8001EC0D9FF1FC0DAFFDF50070F1EC0D9FF87
:1018F8001FC0DAFFDF6E1CC016F01DC017F070ECB9
:101908000AF01EC016F01FC017F070EC0AF0050EA2
:10191800216E0F0E206EF10EE82EFED7202EFCD77A
:10192800212EFAD700F0120020EE01F01C50D92623
:101938001D50DA22000EDF6E20EE02F01C50D92670
:101948001D50DA22000EDF6E20EE01F01E50D9265F
:101958001F50DA22010EDF6E20EE02F01E50D9264B
:101968001F50DA22000EDF6E1CC0D9FF1DC0DAFF3F
:10197800DF50800A410FD8A0C4EF0CF0C6EF0CF07E
:10198800CCEF0CF01CC0D9FF1DC0DAFF3E0EDF6E95
:101998001EC0D9FF1FC0DAFFDF50800A410FD8A050
:1019A800D8EF0CF0DAEF0CF0E0EF0CF01EC0D9FF26
:1019B8001FC0DAFF3E0EDF6E1CC0D9FF1DC0DAFF64
:1019C800DF500A0F1CC0D9FF1DC0DAFFDF6E1EC032
:1019D800D9FF1FC0DAFFDF500A0F1EC0D9FF1FC092
:1019E800DAFFDF6E1CC016F01DC017F070EC0AF0AD
:1019F8001EC016F01FC017F070EC0AF0020E216E20
:101A0800A00E206E920EE82EFED7202EFCD7212E97
:101A1800FAD700D0120020EE01F01C50D9261D5034
:101A2800DA22000EDF6E20EE02F01C50D9261D507F
:101A3800DA22000EDF6E20EE01F01E50D9261F506C
:101A4800DA22000EDF6E20EE02F01E50D9261F505B
:101A5800DA22000EDF6E1CC0D9FF1DC0DAFFDF508E
:101A6800800A590FD8A03BEF0DF03DEF0DF043EF82
:101A78000DF01CC0D9FF1DC0DAFF260EDF6E1EC098
:101A8800D9FF1FC0DAFFDF50800A510FD8A04FEFEF
:101A98000DF051EF0DF057EF0DF01EC0D9FF1FC02C
:101AA800DAFF2E0EDF6E1CC0D9FF1DC0DAFFDF5033
:101AB800050F1CC0D9FF1DC0DAFFDF6E1EC0D9FF9D
:101AC8001FC0DAFFDF50080F1EC0D9FF1FC0DAFFA2
:101AD800DF6E1CC016F01DC017F070EC0AF01EC0B7
:101AE80016F01FC017F070EC0AF0050E216E0F0EED
:101AF800206EF10EE82EFED7202EFCD7212EFAD725
:101B080000F012003BC027F03CC028F03DC029F08F
:101B18003EC02AF017EC0FF0F1EF0DF0000E456E05
:101B2800000E446E9E0E096E000E0A6E3C0E0B6E81
:101B3800010E0C6E03EC14F009C041F00AC042F02B
:101B4800B2EF0DF03BC01CF03CC01DF03DC01EF0D4
:101B58003EC01FF021EC0CF0444A452A4150445C39
:101B680042504558D8A0BBEF0DF0BDEF0DF0A6EFE1
:101B78000DF0CCEF0DF03BC01CF03CC01DF03DC09B
:101B88001EF03EC01FF0FBEC0DF04406D8A0450641
:101B980044504510D8A4D3EF0DF0D5EF0DF0BFEFAA
:101BA8000DF0560E096E000E0A6E760E0B6E000EC4
:101BB8000C6EB4EC14F0436E43503F6E406A3FC065
:101BC80035F040C036F03BC037F03CC038F03DC07F
:101BD80039F03EC03AF020EC07F000019E51D8A43D
:101BE800F8EF0DF0FAEF0DF092EF0DF0120020EE85
:101BF80002F01C50D9261D50DA22010EDF6E20EEAD
:101C080002F01E50D9261F50DA22010EDF6E1CC0CA
:101C1800D9FF1DC0DAFF000EDBBE17EF0EF015EF7F
:101C28000EF01DEF0EF01CC0D9FF1DC0DAFF000E2C
:101C3800DF6E1EC0D9FF1FC0DAFF000EDBBE29EF22
:101C48000EF027EF0EF02FEF0EF01EC0D9FF1FC0C9
:101C5800DAFF000EDF6E1CC0D9FF1DC0DAFFDF50AF
:101C6800FB0F1CC0D9FF1DC0DAFFDF6E1EC0D9FFF5
:101C78001FC0DAFFDF50FB0F1EC0D9FF1FC0DAFFFD
:101C8800DF6E1CC0D9FF1DC0DAFF000EDF6E1EC05C
:101C9800D9FF1FC0DAFF000EDF6E1CC016F01DC092
:101CA80017F070EC0AF01EC016F01FC017F070ECA9
:101CB8000AF0D00E206ECA0EE82EFED7202EFCD7D2
:101CC8001200000E346E2EC027F02FC028F030C04E
:101CD80029F031C02AF072EC11F0050E336E0F0EA8
:101CE800326EF10EE82EFED7322EFCD7332EFAD7FD
:101CF80000F08AEF0EF02EC01CF02FC01DF030C08F
:101D08001EF031C01FF021EC0CF0342A2C0E346484
:101D180090EF0EF092EF0EF07FEF0EF09FEF0EF0C7
:101D28002EC01CF02FC01DF030C01EF031C01FF0B7
:101D3800FBEC0DF034063450D8A4A5EF0EF0A7EF55
:101D48000EF094EF0EF0050E336E0F0E326EF10E9C
:101D5800E82EFED7322EFCD7332EFAD700F02EC04D
:101D680027F02FC028F030C029F031C02AF017EC36
:101D78000FF01200000E346E2EC027F02FC028F08E
:101D880030C029F031C02AF0B5EC11F0050E336EE1
:101D98000F0E326EF10EE82EFED7322EFCD7332E00
:101DA800FAD700F0E3EF0EF02EC01CF02FC01DF0A4
:101DB80030C01EF031C01FF021EC0CF0342A2C0E7C
:101DC8003464E9EF0EF0EBEF0EF0D8EF0EF0F8EF19
:101DD8000EF02EC01CF02FC01DF030C01EF031C018
:101DE8001FF0FBEC0DF034063450D8A4FEEF0EF0D3
:101DF80000EF0FF0EDEF0EF0050E336E0F0E326EA2
:101E0800F10EE82EFED7322EFCD7332EFAD700F08B
:101E18002EC027F02FC028F030C029F031C02AF09A
:101E280017EC0FF01200000E2D6E26EF0FF027C0F2
:101E38001CF028C01DF029C01EF02AC01FF00FECAE
:101E48000DF02D2A0F0E2D642CEF0FF02EEF0FF052
:101E58001BEF0FF03BEF0FF027C01CF028C01DF060
:101E680029C01EF02AC01FF0FBEC0DF02D062D50E6
:101E7800D8A441EF0FF043EF0FF030EF0FF0050E4D
:101E88002C6E0F0E2B6EF10EE82EFED72B2EFCD7E4
:101E98002C2EFAD700F027C022F028C023F029C042
:101EA80024F02AC025F0C7EC0FF0050E2C6E0F0E9B
:101EB8002B6EF10EE82EFED72B2EFCD72C2EFAD740
:101EC80000F027C022F028C023F029C024F02AC03F
:101ED80025F0C7EC0FF01200000E266E7FEF0FF012
:101EE80022C01CF023C01DF024C01EF025C01FF026
:101EF800AAEC0BF0262A0E0E266485EF0FF087EF6A
:101F08000FF074EF0FF094EF0FF022C01CF023C015
:101F18001DF024C01EF025C01FF0FBEC0DF02606B6
:101F28002650D8A49AEF0FF09CEF0FF089EF0FF02E
:101F3800A9EF0FF022C01CF023C01DF024C01EF032
:101F480025C01FF0AAEC0BF0262A0E0E2664AFEF70
:101F58000FF0B1EF0FF09EEF0FF0BEEF0FF022C0C1
:101F68001CF023C01DF024C01EF025C01FF0FBECA0
:101F78000DF026062650D8A4C4EF0FF0C6EF0FF0D8
:101F8800B3EF0FF01200000E266ED6EF0FF022C04E
:101F98001CF023C01DF024C01EF025C01FF098ECD3
:101FA8000CF0262A0F0E2664DCEF0FF0DEEF0FF0A0
:101FB800CBEF0FF0EBEF0FF022C01CF023C01DF0A9
:101FC80024C01EF025C01FF0FBEC0DF0260626509D
:101FD800D8A4F1EF0FF0F3EF0FF0E0EF0FF000EF00
:101FE80010F022C01CF023C01DF024C01EF025C034
:101FF8001FF098EC0CF0262A0E0E266406EF10F05F
:1020080008EF10F0F5EF0FF015EF10F022C01CF0FC
:1020180023C01DF024C01EF025C01FF0FBEC0DF0FE
:1020280026062650D8A41BEF10F01DEF10F00AEF7B
:1020380010F012007D9485947D9885987B9E839EF0
:102048007F9C879C050E0E01746F060E766F070E37
:10205800696F080E886FBD508F0B4009BD6EE00E8A
:10206800BE16BF50F00B0109BF6E09C0BCFFBD8E84
:10207800000EAA6E000EA66E000E0F01256F000E50
:10208800216FFC0EAD16F30EAD16CF0EAD163F0E3A
:10209800AD16AB88AB50F00B0C09AB6EAB8EA788B6
:1020A800A750F00B0C09A76EA78E26892651F00BB6
:1020B8000C09266F268F22892251F00B0C09226FFA
:1020C800228F1200000E2D6E75EF10F027C01CF045
:1020D80028C01DF029C01EF02AC01FF00FEC0DF01B
:1020E8002D2A2C0E2D647BEF10F07DEF10F06AEF97
:1020F80010F08AEF10F027C01CF028C01DF029C08E
:102108001EF02AC01FF0FBEC0DF02D062D50D8A4B0
:1021180090EF10F092EF10F07FEF10F0050E2C6E9C
:102128000F0E2B6EF10EE82EFED72B2EFCD72C2E81
:10213800FAD700F027C022F028C023F029C024F0E5
:102148002AC025F070EC0FF01200000E2D6EB8EFCB
:1021580010F027C01CF028C01DF029C01EF02AC0AE
:102168001FF00FEC0DF02D2A2C0E2D64BEEF10F091
:10217800C0EF10F0ADEF10F0CDEF10F027C01CF05D
:1021880028C01DF029C01EF02AC01FF0FBEC0DF07E
:102198002D062D50D8A4D3EF10F0D5EF10F0C2EFD4
:1021A80010F0050E2C6E0F0E2B6EF10EE82EFED7DA
:1021B8002B2EFCD72C2EFAD700F027C022F028C0EF
:1021C80023F029C024F02AC025F0C7EC0FF0120034
:1021D800000E326EFBEF10F02CC01CF02DC01DF06D
:1021E8002EC01EF02FC01FF00FEC0DF0322A0F0E7C
:1021F800326401EF11F003EF11F0F0EF10F010EF7F
:1022080011F02CC01CF02DC01DF02EC01EF02FC0E8
:102218001FF0FBEC0DF032063250D8A416EF11F087
:1022280018EF11F005EF11F0050E316E0F0E306E3C
:10223800F10EE82EFED7302EFCD7312EFAD700F05B
:102248002CC027F02DC028F02EC029F02FC02AF06E
:1022580032EC12F01200000E326E3EEF11F02CC07C
:102268001CF02DC01DF02EC01EF02FC01FF00FEC6B
:102278000DF0322A0F0E326444EF11F046EF11F0E0
:1022880033EF11F053EF11F02CC01CF02DC01DF0EE
:102298002EC01EF02FC01FF0FBEC0DF0320632509E
:1022A800D8A459EF11F05BEF11F048EF11F0050ECB
:1022B800316E0F0E306EF10EE82EFED7302EFCD7A1
:1022C800312EFAD700F02CC027F02DC028F02EC0F0
:1022D80029F02FC02AF069EC12F01200000E2D6EC2
:1022E80081EF11F027C01CF028C01DF029C01EF096
:1022F8002AC01FF00FEC0DF02D2A0F0E2D6487EF6A
:1023080011F089EF11F076EF11F096EF11F027C078
:102318001CF028C01DF029C01EF02AC01FF0FBECDD
:102328000DF02D062D50D8A49CEF11F09EEF11F062
:102338008BEF11F0050E2C6E0F0E2B6EF10EE82EA2
:10234800FED72B2EFCD72C2EFAD700F027C022F070
:1023580028C023F029C024F02AC025F070EC0FF023
:102368001200000E2D6EC4EF11F027C01CF028C01B
:102378001DF029C01EF02AC01FF00FEC0DF02D2A09
:102388000F0E2D64CAEF11F0CCEF11F0B9EF11F078
:10239800D9EF11F027C01CF028C01DF029C01EF08D
:1023A8002AC01FF0FBEC0DF02D062D50D8A4DFEF4E
:1023B80011F0E1EF11F0CEEF11F0050E2C6E0F0EBB
:1023C8002B6EF10EE82EFED72B2EFCD72C2EFAD72B
:1023D80000F027C022F028C023F029C024F02AC02A
:1023E80025F0C7EC0FF01200000E146E000E136EED
:1023F80011501210D8B403EF12F005EF12F02DEFC0
:1024080012F0010E156E0DEF12F0D890113612363B
:10241800152A12AE12EF12F014EF12F009EF12F0B3
:10242800D8901336143611500F5C12501058D8A09B
:1024380020EF12F022EF12F027EF12F011500F5E8A
:102448001250105A1380D89012321132152E14EFF0
:1024580012F013C00FF014C010F0120027C022F0C1
:1024680028C023F029C024F02AC025F070EC0FF012
:10247800000E2B6E4BEF12F027C01CF028C01DF089
:1024880029C01EF02AC01FF0AAEC0BF02B2A0E0E52
:102498002B6451EF12F053EF12F040EF12F060EF9F
:1024A80012F027C01CF028C01DF029C01EF02AC059
:1024B8001FF0FBEC0DF02B062B50D8A466EF12F0A2
:1024C80068EF12F055EF12F0120027C022F028C072
:1024D80023F029C024F02AC025F0C7EC0FF0000E25
:1024E8002B6E82EF12F027C01CF028C01DF029C007
:1024F8001EF02AC01FF098EC0CF02B2A0F0E2B644C
:1025080088EF12F08AEF12F077EF12F097EF12F0DF
:1025180027C01CF028C01DF029C01EF02AC01FF0DB
:10252800FBEC0DF02B062B50D8A49DEF12F09FEF7B
:1025380012F08CEF12F01200CFEC12F014C0D9FF99
:1025480015C0DAFF0DC0DEFF0EC0DDFFF7EC12F09C
:1025580020EE02F01450D9261550DA220DC0DEFF05
:102568000EC0DDFF47EC13F020EE04F01450D9261E
:102578001550DA220DC0DEFF0EC0DDFF1FEC13F090
:1025880020EE06F01450D9261550DA220DC0DEFFD1
:102598000EC0DDFF12004CEC15F0520E36EC15F0B3
:1025A800B60E36EC15F042EC15F0530E36EC15F07D
:1025B800010EE2EC13F00F6E0F50126E136A000E4C
:1025C800E2EC13F00F6E0F50116E106A12501010DB
:1025D800126E13501110136E47EC15F012C00DF067
:1025E80013C00EF012004CEC15F0520E36EC15F03C
:1025F800B80E36EC15F042EC15F0530E36EC15F02B
:10260800010EE2EC13F00F6E0F50126E136A000EFB
:10261800E2EC13F00F6E0F50116E106A125010108A
:10262800126E13501110136E47EC15F012C00DF016
:1026380013C00EF012004CEC15F0520E36EC15F0EB
:10264800B40E36EC15F042EC15F0530E36EC15F0DE
:10265800010EE2EC13F00F6E0F50126E136A000EAB
:10266800E2EC13F00F6E0F50116E106A125010103A
:10267800126E13501110136E47EC15F012C00DF0C6
:1026880013C00EF012004CEC15F0520E36EC15F09B
:10269800BA0E36EC15F042EC15F0530E36EC15F088
:1026A800010EE2EC13F00F6E0F50126E136A000E5B
:1026B800E2EC13F00F6E0F50116E106A12501010EA
:1026C800126E13501110136E47EC15F012C00DF076
:1026D80013C00EF01200130E0B6E000ED5EC14F0A2
:1026E8003F0E0D6E550EE82EFED70D2EFCD700F0CE
:1026F800040E0B6E0C0ED5EC14F04FC00BF0040E4C
:10270800D5EC14F050500B6E050ED5EC14F0D7C074
:102718000BF0060ED5EC14F00001D8510B6E070E25
:10272800D5EC14F01200130E036E000EF5EC14F045
:102738003F0E056E550EE82EFED7052EFCD700F08D
:10274800040E036E0C0EF5EC14F04FC003F0040EEB
:10275800F5EC14F05050036E050EF5EC14F0D7C0EC
:1027680003F0060EF5EC14F00001D851036E070EC5
:10277800F5EC14F01200BE0EF66E2A0EF76E000E7F
:10278800F86E0900F5CFD7F00900F5CFD8F001EEC3
:1027980000F08C0EEE6AE806FDE100EE60F03F0EF8
:1027A800EE6AE806FDE100EE4FF0080EEE6AE80674
:1027B800FDE157905792000162EF08F00B6E67EC4D
:1027C80014F00E01DA8767EC14F0D5CE0CF067EC44
:1027D80014F00B50D8B4F3EF13F0F7EF13F00A6AC4
:1027E8000A2AF8EF13F00A6A0A3A0A460E01DA5181
:1027F8000A18DF0B0A18DA6FDA890C50120009C0C0
:10280800D9FF0AC0DAFFDF06DF500D6E0D50020D4A
:10281800F3CF0EF0F4CF0FF00E500B24D96E0F50FB
:102828000C20DA6EDECF10F0DDCF11F010C009F009
:1028380011C00AF0120052EC14F0010E0B6E000EDB
:10284800D5EC14F03F0E0D6E550EE82EFED70D2E6A
:10285800FCD700F0030E0B6E000ED5EC14F0D50E6D
:102868000B6E010ED5EC14F012000BC0D9FF0CC092
:10287800DAFFDFCF0FF0010EDF260F50020DF3CF86
:1028880010F0F4CF11F010500D24D96E11500E2015
:10289800DA6E09C0DEFF0AC0DDFF12000E01D95151
:1028A800F00B0809D96FD98B9F0ED66F848A848C58
:1028B800A79BA79D1D0E1D6F1E0E1C6F1C0E6F6F14
:1028C8001B0E706F12000E01D8B56DEF14F06FEF8C
:1028D80014F067EF14F0DACE09F01F0E0916D8A429
:1028E80078EF14F07AEF14F067EF14F012000E018D
:1028F800D8B581EF14F083EF14F07BEF14F0DACE43
:1029080001F01F0E0116D8A48CEF14F08EEF14F00E
:102918007BEF14F0120009500B02F3CF0DF0F4CF47
:102928000EF009500C02F3500E260A500B02F35019
:102938000E260DC009F00EC00AF012000E6E09C076
:10294800D9FF0AC0DAFFDFCF0DF0010EDF260D50E8
:102958000B24D96E000E0C20DA6E0EC0DFFF1200B9
:1029680009C0D9FF0AC0DAFFDF06DF500D6E0D502F
:102978000B24D96E000E0C20DA6EDF500E6E0E504E
:102988001200D6501F0B4009D66ED688D650F00BD1
:102998000809D66ED5880B0ED46EDB0ED36ED58E95
:1029A80012000C6E4CEC15F0520E36EC15F00C5073
:1029B800800936EC15F00B5036EC15F047EC15F0A5
:1029C80012000E0133A3EBEF14F0EDEF14F0F3EF68
:1029D80014F0010E556E21EC15F00E013393579249
:1029E8001100046E56EC15F0520E3CEC15F0045034
:1029F80080093CEC15F003503CEC15F051EC15F057
:102A0800120082820E019A9329831F83F292298BE6
:102A18001F9B2D8714EC15F0F28AF28CF28E1200AF
:102A28004CEC15F0520E36EC15F0E60E36EC15F0BF
:102A380047EC15F06FEC13F0120056EC15F0520E3F
:102A48003CEC15F0E60E3CEC15F051EC15F097EC6B
:102A580013F0120087928198869E809688967C9EB5
:102A6800849E12000A6E67EC14F00AC0D5FE1200AC
:102A7800026E7BEC14F002C0D5FE120067EC14F075
:102A88000E01DA83120067EC14F00E01DA851200E9
:102A980067EC14F00E01DA8112007BEC14F00E01E1
:102AA800DA8512007BEC14F00E01DA8112007F82C5
:082AB80079887E8E1200540B98
:020000040020DA
:10000000FF0FFF0FFF0FFF0FFF0FFF0FFF0FFF0F80
:020000040030CA
:0C000000AAFFFFFF9FFFFFFFFFFFFFFFB5
:00000001FF
