:040000002CEF00F0F1
:0600080054820EEF15F01A
:100018005480D8CF09F0E8CF0AF0E0CF0BF00E01FA
:1000280033AB19EF00F01BEF00F024EF00F0C20E25
:10003800D46EF60ED36E010E0001B46F0E01339B21
:100048000BC0E0FF0AC0E8FF09C0D8FF54901000B9
:04005800BBEF16F0F4
:100E0000000A436F6C6F7220446574656374656497
:100E1000203D2025303264202530356420253035B2
:090E20006420253035640A00004D
:100E2A00000E0001776F000E376E000E386EC80E86
:100E3A00396E420E3A6E71516F25756F725170217B
:100E4A00766F6D5175276E51762375C00CF076C09A
:100E5A000DF00E6A0F6A000E54EC10F00CC01EF072
:100E6A000DC01FF00EC020F00FC021F06DC00CF0B5
:100E7A006EC00DF00E6A0F6A000E54EC10F00CC032
:100E8A001AF00DC01BF00EC01CF00FC01DF0CEEC06
:100E9A000BF01AC033F01BC034F01CC035F01DC073
:100EAA0036F0B8EC09F033C03FF034C040F035C03A
:100EBA0041F036C042F053EC13F03F500001786F16
:100ECA00000E376E000E386EC80E396E420E3A6E3C
:100EDA0071516F25756F72517021766F6D5175273B
:100EEA006E51762375C00CF076C00DF00E6A0F6A4B
:100EFA00000E54EC10F00CC01EF00DC01FF00EC016
:100F0A0020F00FC021F06FC00CF070C00DF00E6A17
:100F1A000F6A000E54EC10F00CC01AF00DC01BF052
:100F2A000EC01CF00FC01DF0CEEC0BF01AC033F04F
:100F3A001BC034F01CC035F01DC036F0B8EC09F007
:100F4A0033C03FF034C040F035C041F036C042F003
:100F5A0053EC13F03F500001796F000E376E000E0C
:100F6A00386EC80E396E420E3A6E71516F25756F22
:100F7A0072517021766F6D5175276E51762375C047
:100F8A000CF076C00DF00E6A0F6A000E54EC10F0E9
:100F9A000CC01EF00DC01FF00EC020F00FC021F0D3
:100FAA0071C00CF072C00DF00E6A0F6A000E54EC9C
:100FBA0010F00CC01AF00DC01BF00EC01CF00FC0D0
:100FCA001DF0CEEC0BF01AC033F01BC034F01CC07D
:100FDA0035F01DC036F0B8EC09F033C03FF034C02C
:100FEA0040F035C041F036C042F053EC13F03F50A8
:100FFA0000017A6FB551D8B405EF08F007EF08F091
:10100A00B7EF09F0290E0001766F960E756F7F0E05
:10101A00E82EFED7752FFCD7762FFAD7470E000198
:10102A0078651AEF08F01CEF08F048EF08F04F0E49
:10103A00786122EF08F024EF08F048EF08F0070E75
:10104A0079652AEF08F02CEF08F048EF08F00F0E48
:10105A00796132EF08F034EF08F048EF08F00A0E31
:10106A007A653AEF08F03CEF08F048EF08F0120E04
:10107A007A6142EF08F044EF08F048EF08F0010EF9
:10108A00776FB4EF09F0210E78654EEF08F050EF54
:10109A0008F07CEF08F0290E786156EF08F058EF57
:1010AA0008F07CEF08F0260E79655EEF08F060EF35
:1010BA0008F07CEF08F02E0E796166EF08F068EF11
:1010CA0008F07CEF08F0110E7A656EEF08F070EF09
:1010DA0008F07CEF08F0190E7A6176EF08F078EFE5
:1010EA0008F07CEF08F0020E776FB4EF09F01B0EE0
:1010FA00786582EF08F084EF08F0B0EF08F0230E6D
:10110A0078618AEF08F08CEF08F0B0EF08F01F0E54
:10111A00796592EF08F094EF08F0B0EF08F0270E27
:10112A0079619AEF08F09CEF08F0B0EF08F01E0E14
:10113A007A65A2EF08F0A4EF08F0B0EF08F0260EE7
:10114A007A61AAEF08F0ACEF08F0B0EF08F0030EEE
:10115A00776FB4EF09F0310E7865B6EF08F0B8EFA3
:10116A0008F0E4EF08F0350E7861BEEF08F0C0EF42
:10117A0008F0E4EF08F01D0E7965C6EF08F0C8EF35
:10118A0008F0E4EF08F0210E7961CEEF08F0D0EF15
:10119A0008F0E4EF08F0100E7A65D6EF08F0D8EF01
:1011AA0008F0E4EF08F0140E7A61DEEF08F0E0EFE1
:1011BA0008F0E4EF08F0040E776FB4EF09F02F0E91
:1011CA007865EAEF08F0ECEF08F018EF09F0330E53
:1011DA007861F2EF08F0F4EF08F018EF09F01B0E4F
:1011EA007965FAEF08F0FCEF08F018EF09F01F0E26
:1011FA00796102EF09F004EF09F018EF09F0140E13
:10120A007A650AEF09F00CEF09F018EF09F0180EE9
:10121A007A6112EF09F014EF09F018EF09F0050EE0
:10122A00776FB4EF09F0380E78651EEF09F020EFFA
:10123A0009F04CEF09F0400E786126EF09F028EF2B
:10124A0009F04CEF09F0130E79652EEF09F030EF33
:10125A0009F04CEF09F01B0E796136EF09F038EF0F
:10126A0009F04CEF09F00D0E7A653EEF09F040EFF8
:10127A0009F04CEF09F0150E7A6146EF09F048EFD4
:10128A0009F04CEF09F0060E776FB4EF09F01E0E65
:10129A00786552EF09F054EF09F080EF09F0260E55
:1012AA0078615AEF09F05CEF09F080EF09F0230E3C
:1012BA00796562EF09F064EF09F080EF09F02B0E0F
:1012CA0079616AEF09F06CEF09F080EF09F0170E07
:1012DA007A6572EF09F074EF09F080EF09F01F0EDA
:1012EA007A617AEF09F07CEF09F080EF09F0070ED6
:1012FA00776FB4EF09F0280E786586EF09F088EF6A
:10130A0009F0B4EF09F0300E78618EEF09F090EF32
:10131A0009F0B4EF09F01D0E796596EF09F098EF20
:10132A0009F0B4EF09F0250E79619EEF09F0A0EFFC
:10133A0009F0B4EF09F0130E7A65A6EF09F0A8EFE9
:10134A0009F0B4EF09F01B0E7A61AEEF09F0B0EFC5
:10135A0009F0B4EF09F0080E776FB4EF09F0000E48
:10136A00B56F775112003650800B0001606F36500E
:10137A003624666F35AEC4EF09F0C6EF09F0C7EF41
:10138A0009F066816651D8B4CDEF09F0CFEF09F0C4
:10139A00E2EF09F06629D8A4D5EF09F0D7EF09F0F2
:1013AA00DFEF09F0000E336E000E346E000E356E5C
:1013BA00000E366E358EEAEF09F0000E336E000E1F
:1013CA00346E000E356E000E366E3A50800B601B7E
:1013DA003A503A24616F39AEF5EF09F0F7EF09F0A8
:1013EA00F8EF09F061816151D8B4FEEF09F000EF1E
:1013FA000AF013EF0AF06129D8A406EF0AF008EF01
:10140A000AF010EF0AF0000E376E000E386E000E6A
:10141A00396E000E3A6E398E1BEF0AF0000E376EE7
:10142A00000E386E000E396E000E3A6E6151D8B455
:10143A0021EF0AF023EF0AF02BEF0AF06651D8A445
:10144A0029EF0AF02BEF0AF035EF0AF0000E336E9F
:10145A00000E346E000E356E000E366ECDEF0BF0B8
:10146A0039503302F3CF6BF0F4CF6CF06B51626FEB
:10147A00636B646B656B6C51676F686B696B6A6BE6
:10148A0038503402F3CF6BF0F4CF6CF06B51622713
:10149A00000E6323642365236C516727000E6823BB
:1014AA0069236A2337503502F3CF6BF0F4CF6CF01F
:1014BA006B516227000E6323642365236C516727EF
:1014CA00000E682369236A2364C065F063C064F070
:1014DA0062C063F0626B37503402F3CF6BF0F4CF23
:1014EA006CF06B5162276C516323000E6423000E6B
:1014FA00652338503302F3CF6BF0F4CF6CF06B51A5
:10150A0062276C516323000E6423000E652364C0B6
:10151A0065F063C064F062C063F0626B37503302F7
:10152A00F3CF6BF0F4CF6CF06B5162276C516323ED
:10153A00000E6423000E652339503402F3CF6BF09A
:10154A00F4CF6CF06B5167276C516823000E692346
:10155A00000E6A2338503502F3CF6BF0F4CF6CF0EB
:10156A006B5167276C516823000E6923000E6A23AA
:10157A0039503502F3CF6BF0F4CF6CF06B513B6E00
:10158A006C513C6E3D6A3E6A3DC03EF03CC03DF047
:10159A003BC03CF03B6A3B5067273C5068233D50B8
:1015AA0069233E506A2362C03BF063C03CF064C0CA
:1015BA003DF065C03EF0190EE8EF0AF0D8903E32D1
:1015CA003D323C323B32E82EE3EF0AF03B506727CC
:1015DA003C5068233D5069233E506A2364C065F03D
:1015EA0063C064F062C063F0626B615166C03BF035
:1015FA003C6A3B26000E3C22820E3B246B6FFF0E98
:10160A003C206C6F1EEF0BF0D8906737683769374C
:10161A006A3765AF13EF0BF015EF0BF016EF0BF00F
:10162A006781D89062376337643765376B07D8A00C
:10163A006C0769AF23EF0BF025EF0BF009EF0BF006
:10164A00000E616F65AF2CEF0BF02EEF0BF052EF2F
:10165A000BF0FF0E62153B6EFF0E63153C6EFF0E1C
:10166A0064153D6E7F0E65153E6E3B503C103D1075
:10167A003E10D8B443EF0BF045EF0BF049EF0BF0F7
:10168A00010E616F52EF0BF067A14EEF0BF050EFB6
:10169A000BF052EF0BF045EF0BF06151D8B458EF55
:1016AA000BF05AEF0BF07EEF0BF0010E6727000EDE
:1016BA00682369236A236AA165EF0BF067EF0BF0D1
:1016CA007EEF0BF067C03BF068C03CF069C03DF0AC
:1016DA006AC03EF03E343E323D323C323B323BC081
:1016EA0067F03CC068F03DC069F03EC06AF06B4BE1
:1016FA006C2B6CBF89EF0BF06C5108E16B29D8A0F9
:10170A0089EF0BF08BEF0BF095EF0BF0000E676F84
:10171A00000E686F800E696F7F0E6A6FC3EF0BF061
:10172A006CBFA2EF0BF06C5106E16B05D8B0A0EFCD
:10173A000BF0A2EF0BF0AEEF0BF0000E676F000E8E
:10174A00686F000E696F000E6A6F000E606FC3EF5C
:10175A000BF06BC066F0FF0E6717FF0E68177F0E5F
:10176A006917000E6A1766A1BDEF0BF0BFEF0BF009
:10177A00C0EF0BF0698FD89066316A6F60516A13B7
:10178A0067C033F068C034F069C035F06AC036F01B
:10179A0012001D50800B2A6E1D501D24316E1CAE86
:1017AA00D9EF0BF0DBEF0BF0DCEF0BF031803150AF
:1017BA00D8B4E2EF0BF0E4EF0BF0F9EF0BF03128BD
:1017CA00D8A4EAEF0BF0ECEF0BF0F4EF0BF0000EFD
:1017DA001A6E000E1B6E000E1C6E000E1D6E1C8E05
:1017EA00000E1D6E01EF0CF0000E1A6E000E1B6E3D
:1017FA00000E1C6E000E1D6E2150800B2A1A2150FD
:10180A002124326E20AE0CEF0CF00EEF0CF00FEF2D
:10181A000CF032803250D8B415EF0CF017EF0CF000
:10182A002CEF0CF03228D8A41DEF0CF01FEF0CF0AF
:10183A0027EF0CF0000E1E6E000E1F6E000E206EBB
:10184A00000E216E208E000E216E34EF0CF0000E79
:10185A001E6E000E1F6E000E206E000E216E1E50B0
:10186A001F1020102110D8A43DEF0CF03FEF0CF010
:10187A0057EF0CF0000E1A6E000E1B6E000E1C6E57
:10188A00000E1D6E800E1C127F0E1D122A501D1294
:10189A001AC01AF01BC01BF01CC01CF01DC01DF0A2
:1018AA009AEF0DF03150D8A45DEF0CF05FEF0CF019
:1018BA0069EF0CF0000E1A6E000E1B6E000E1C6E05
:1018CA00000E1D6E9AEF0DF0325031C022F0236ADD
:1018DA00225E000E235A7F0E22242B6E000E232036
:1018EA002C6E1AC026F01BC027F01CC028F01DC0A1
:1018FA0029F0000E1A6E000E1B6E000E1C6E000EF2
:10190A001D6E000E2D6E000E2E6E000E2F6E000E36
:10191A00306E000E326ECAEF0CF03250D8B498EF27
:10192A000CF09AEF0CF0B1EF0CF0D890263627366F
:10193A0028362936D8901A361B361C361D3630AE54
:10194A00A9EF0CF0ABEF0CF0ACEF0CF01A80D890CA
:10195A002D362E362F3630361E50265C1F5027580D
:10196A002050285821502958D8A0BEEF0CF0C0EFBB
:10197A000CF0C9EF0CF0308C1E50265E1F50275A0F
:10198A002050285A2150295A322A190E3264D0EF8F
:10199A000CF0D2EF0CF092EF0CF026502710281022
:1019AA002910D8B4DBEF0CF0DDEF0CF0F5EF0CF0FA
:1019BA002D80F5EF0CF0D8901A361B361C361D36E2
:1019CA0030AEEAEF0CF0ECEF0CF0EDEF0CF01A8011
:1019DA00D8902D362E362F3630362B06D8A02C0628
:1019EA001CAEFAEF0CF0FCEF0CF0E0EF0CF0000E7E
:1019FA00326E30AE03EF0DF005EF0DF029EF0DF06A
:101A0A00FF0E2D14226EFF0E2E14236EFF0E2F14BE
:101A1A00246E7F0E3014256E2250231024102510B8
:101A2A00D8B41AEF0DF01CEF0DF020EF0DF0010EF7
:101A3A00326E29EF0DF01AA025EF0DF027EF0DF009
:101A4A0029EF0DF01CEF0DF03250D8B42FEF0DF046
:101A5A0031EF0DF055EF0DF0010E1A26000E1B2284
:101A6A001C221D221DA03CEF0DF03EEF0DF055EF9C
:101A7A000DF01AC022F01BC023F01CC024F01DC0B8
:101A8A0025F02534253224322332223222C01AF09C
:101A9A0023C01BF024C01CF025C01DF02B4A2C2AA1
:101AAA002CBE60EF0DF02C5008E12B28D8A060EF77
:101ABA000DF062EF0DF06DEF0DF0000E2C6E2B683D
:101ACA00000E1A6E000E1B6E000E1C6E000E1D6EAE
:101ADA002CBE7AEF0DF02C5006E12B04D8B078EF2B
:101AEA000DF07AEF0DF088EF0DF0000E2C6E000E5F
:101AFA002B6E000E1A6E000E1B6E000E1C6E000E70
:101B0A001D6E000E2A6E2BC031F031A08FEF0DF042
:101B1A0091EF0DF094EF0DF01C8E95EF0DF01C9ED9
:101B2A00D89031301D6E4BEF0CF012003BC0D9FF3C
:101B3A003CC0DAFFDECFF6FFDDCFF7FF000EF86E0E
:101B4A000800F550250AD8A4ADEF0DF0AFEF0DF05F
:101B5A00E1EF0EF03BC0D9FF3CC0DAFFDE2A000EEF
:101B6A00DD22000E0001B36F000EB26FB2C04DF05D
:101B7A0049684A68000E7A6F000E796FF1EF0DF02E
:101B8A004D823BC0D9FF3CC0DAFFDE2A000EDD22BF
:101B9A00F1EF0DF0000E7A6F010E796FF1EF0DF093
:101BAA003BC0D9FF3CC0DAFFDECFF6FFDDCFF7FF3F
:101BBA00000EF86E0800F5503F6E406A4050000A69
:101BCA00D8B4EAEF0DF0CFEF0DF03F50300AD8B499
:101BDA00C5EF0DF0CFEF0DF079517A11D8B4F8EFC7
:101BEA000DF0FAEF0DF0D5EF0DF03BC0D9FF3CC078
:101BFA00DAFFDECFF6FFDDCFF7FF000EF86E080042
:101C0A00F5502A0AD8A40CEF0EF00EEF0EF037EFBB
:101C1A000EF03BC0D9FF3CC0DAFFDE2A000EDD22FF
:101C2A003DC0D9FF3EC0DAFFDFCF3FF0020EDE260D
:101C3A00DFCF40F0000EDD223FC0D9FF40C0DAFFFF
:101C4A00DECFB2F0DDCFB3F0B3BF30EF0EF02EEF40
:101C5A000EF06CEF0EF04D80B26DB31FD8B0B32BFF
:101C6A006CEF0EF03BC0D9FF3CC0DAFFDECF12F0BA
:101C7A00DDCF13F0A4EC12F012C0B2F013C0B3F02F
:101C8A004EEF0EF03BC0D9FF3CC0DAFFDE2A000E51
:101C9A00DD223BC0D9FF3CC0DAFFDECFF6FFDDCF45
:101CAA00F7FF000EF86E0800F5CF3FF0D00E3F2484
:101CBA00406E416AFF0E4122415009E10A0E405C22
:101CCA00D8A06AEF0EF06CEF0EF047EF0EF03BC0B3
:101CDA00D9FF3CC0DAFFDECF7BF0DDCF7CF07BC0E2
:101CEA00F6FF7CC0F7FF000EF86E0800F550640A94
:101CFA00D8B482EF0EF084EF0EF094EF0EF07BC0B2
:101D0A00F6FF7CC0F7FF000EF86E0800F550690A6E
:101D1A00D8A492EF0EF094EF0EF0D8EF0EF03DC07B
:101D2A00D9FF3EC0DAFFDFCF3FF0020EDE26DFCF5B
:101D3A0040F0000EDD223FC0D9FF40C0DAFFDECFFF
:101D4A0071F0DDCF72F00001000E72BFFF0E736FEB
:101D5A00746F756F766F776F786F010E7B253F6EA4
:101D6A00000E7C21406E3BC0D9FF3CC0DAFF3FC069
:101D7A00DEFF40C0DDFF39C027F03AC028F071C04D
:101D8A0029F072C02AF073C02BF074C02CF075C011
:101D9A002DF076C02EF077C02FF078C030F0F8EC36
:101DAA000EF0F7EF0EF03BC0D9FF3CC0DAFFDE2A97
:101DBA00000EDD22F7EF0EF03BC0D9FF3CC0DAFF80
:101DCA00DECFF6FFDDCFF7FF000EF86E0800F55004
:101DDA000C6E0D6A39C00EF03AC00FF054EC14F0D4
:101DEA00D8EF0EF0120029C066F02AC067F02BC0A7
:101DFA0068F02CC069F02DC06AF02EC06BF02FC0BD
:101E0A006CF030C06DF000016DBF0EEF0FF011EFF6
:101E1A000FF0010E12EF0FF0000E6E6F6E51D8B474
:101E2A0019EF0FF01BEF0FF02BEF0FF06D1F6C1F68
:101E3A006B1F6A1F691F681F671F666D000E672385
:101E4A00682369236A236B236C236D234ABE30EF10
:101E5A000FF032EF0FF033EF0FF04D924ABE40EF22
:101E6A000FF04A5006E14904D8B03EEF0FF040EFB8
:101E7A000FF046EF0FF0000E636F010E626F4AEF2C
:101E8A000FF049C062F04AC063F0B2C064F0B3C058
:101E9A0065F06E51D8B454EF0FF056EF0FF06DEFB6
:101EAA000FF06407D8A065076E51D8A45FEF0FF052
:101EBA0061EF0FF067EF0FF0000E616F2B0E606F8E
:101ECA006BEF0FF0000E616F2D0E606F60C06EF049
:101EDA00000E706F1F0E6F6F000ED56FF2EF0FF0CE
:101EEA006F07D8A07007B60E6F25D96E000E702145
:101EFA00DA6E66C00CF067C00DF068C00EF069C0FB
:101F0A000FF06AC010F06BC011F06CC012F06DC017
:101F1A0013F00A0E146E000E156E000E166E000EE9
:101F2A00176E000E186E000E196E000E1A6E000E55
:101F3A001B6EF2EC11F00CC031F00DC032F00EC085
:101F4A0033F00FC034F010C035F011C036F012C0B3
:101F5A0037F013C038F031C01EF032C01FF044EC25
:101F6A0017F01E50300FDF6E00016207D8A063071A
:101F7A006407D8A0650766C00CF067C00DF068C09A
:101F8A000EF069C00FF06AC010F06BC011F06CC09F
:101F9A0012F06DC013F00A0E146E000E156E000ECC
:101FAA00166E000E176E000E186E000E196E000ED9
:101FBA001A6E000E1B6E2EEC11F00CC066F00DC0EE
:101FCA0067F00EC068F00FC069F010C06AF011C067
:101FDA006BF012C06CF013C06DF0000170BFFEEF21
:101FEA000FF0705108E16F05D8A0FEEF0FF000EF77
:101FFA0010F030EF10F066516711681169116A111B
:10200A006B116C116D11D8A40DEF10F00FEF10F0D9
:10201A0075EF0FF063BF1CEF10F0635106E1620524
:10202A00D8B01AEF10F01CEF10F075EF0FF065BF83
:10203A0027EF10F0655108E16405D8A027EF10F0EA
:10204A0029EF10F030EF10F04DB22EEF10F030EF14
:10205A0010F075EF0FF06E51D8B436EF10F038EF7C
:10206A0010F043EF10F06F07D8A07007B60E6F2577
:10207A00D96E000E7021DA6E6EC0DFFF27C01CF029
:10208A0028C01DF0B60E6F251E6E000E70211F6E41
:10209A0064C020F065C021F0B9EC14F01200146E8F
:1020AA001450D8B45BEF10F05DEF10F07FEF10F032
:1020BA000FBE64EF10F062EF10F07FEF10F00CC06B
:1020CA0010F00DC011F00EC012F00FC013F0101E68
:1020DA00111E121E131E102A000E11221222132282
:1020EA0010C016F011C017F012C018F013C019F082
:1020FA0087EF10F00CC016F00DC017F00EC018F0E4
:10210A000FC019F00C500D100E100F10D8A490EF3C
:10211A0010F092EF10F09CEF10F0000E0C6E000E13
:10212A000D6E000E0E6E000E0F6E2DEF11F0960E54
:10213A00156EA6EF10F0152AD890193218321732F8
:10214A001632000E1614106E000E1714116E000EC1
:10215A001814126EFE0E1914136E1050111012106C
:10216A001310D8A4BBEF10F0BDEF10F0A0EF10F0E1
:10217A00CBEF10F0152A010E1626000E1722182290
:10218A001922D8901932183217321632000E161444
:10219A00106E000E1714116E000E1814126EFF0E38
:1021AA001914136E1050111012101310D8A4E0EF66
:1021BA0010F0E2EF10F0BFEF10F0EAEF10F01506A2
:1021CA00D890163617361836193618BEEFEF10F0B3
:1021DA00F1EF10F0F9EF10F0020E1560F7EF10F0C2
:1021EA00F9EF10F0E4EF10F015B0FEEF10F000EF89
:1021FA0011F001EF11F0189ED890153215C010F0A9
:10220A00116A126A136A10C013F0126A116A106A0C
:10221A001050161211501712125018121350191288
:10222A001450D8B41BEF11F01DEF11F025EF11F087
:10223A000FBE24EF11F022EF11F025EF11F0198EE5
:10224A0016C00CF017C00DF018C00EF019C00FF030
:10225A001200000E1D6E1BBE37EF11F035EF11F0A4
:10226A0049EF11F01B1E1A1E191E181E171E161EE4
:10227A00151E146C000E1522162217221822192276
:10228A001A221B22010E1D6E13BE50EF11F04EEFE3
:10229A0011F062EF11F0131E121E111E101E0F1EF6
:1022AA000E1E0D1E0C6C000E0D220E220F22102285
:1022BA00112212221322010E1D1A20EE1EF0070E01
:1022CA00DE6AE806FDE214501510161017101810F1
:1022DA0019101A101B10D8B475EF11F077EF11F01E
:1022EA00C9EF11F0010E1C6E85EF11F0D89014366B
:1022FA00153616361736183619361A361B361C2A6C
:10230A001BAE8AEF11F08CEF11F07BEF11F0D89031
:10231A001E361F36203621362236233624362536F7
:10232A0014500C5C15500D5816500E5817500F5873
:10233A0018501058195011581A5012581B50135847
:10234A00D8A0AAEF11F0ACEF11F0BDEF11F01450C4
:10235A000C5E15500D5A16500E5A17500F5A185037
:10236A00105A1950115A1A50125A1B50135A1E80D9
:10237A00D8901B321A3219321832173216321532E5
:10238A0014321C2E8CEF11F01D50D8B4CFEF11F07F
:10239A00D1EF11F0E1EF11F0251E241E231E221E9B
:1023AA00211E201E1F1E1E6C000E1F22202221220B
:1023BA0022222322242225221EC00CF01FC00DF047
:1023CA0020C00EF021C00FF022C010F023C011F07F
:1023DA0024C012F025C013F01200000E1D6E13BEA9
:1023EA00FBEF11F0F9EF11F00DEF12F0131E121EB0
:1023FA00111E101E0F1E0E1E0D1E0C6C000E0D223D
:10240A000E220F221022112212221322010E1D6EF9
:10241A001BBE14EF12F012EF12F024EF12F01B1E83
:10242A001A1E191E181E171E161E151E146C000ED3
:10243A00152216221722182219221A221B22145098
:10244A00151016101710181019101A101B10D8B4DE
:10245A0031EF12F033EF12F07BEF12F0010E1C6E27
:10246A0041EF12F0D890143615361636173618364C
:10247A0019361A361B361C2A1BAE46EF12F048EFE5
:10248A0012F037EF12F014500C5C15500D5816501C
:10249A000E5817500F5818501058195011581A50F2
:1024AA0012581B501358D8A05DEF12F05FEF12F0CC
:1024BA006FEF12F014500C5E15500D5A16500E5A4A
:1024CA0017500F5A1850105A1950115A1A50125AB6
:1024DA001B50135AD8901B321A321932183217323B
:1024EA001632153214321C2E48EF12F01D50D8B491
:1024FA0081EF12F083EF12F093EF12F0131E121E07
:10250A00111E101E0F1E0E1E0D1E0C6C000E0D222B
:10251A000E220F2210221122122213220CC00CF0BA
:10252A000DC00DF00EC00EF00FC00FF010C010F06D
:10253A0011C011F012C012F013C013F01200000EF5
:10254A001A6E000E196E000E186E000E176EB0EF9E
:10255A0012F0124A132A12C0F6FF13C0F7FF000E38
:10256A00F86E0800F550200AD8B4BEEF12F0C0EF9A
:10257A0012F0AEEF12F012C0F6FF13C0F7FF000E12
:10258A00F86E0800F5CF14F0F70E1424156E166ACB
:10259A00FF0E1622165009E1050E155CD8A0D8EFD9
:1025AA0012F0DAEF12F0AEEF12F0E4EF12F0000ED2
:1025BA00186E010E176E124A132A1DEF13F012C07D
:1025CA00F6FF13C0F7FF000EF86E0800F550146E00
:1025DA00156A1550000AD8B4F5EF12F01DEF13F082
:1025EA0014502B0AD8B4E0EF12F0060AD8B4DCEF84
:1025FA0012F01DEF13F019C00CF01AC00DF0000E06
:10260A000F6E0A0E0E6E3FEC18F012C0F6FF13C0E2
:10261A00F7FF000EF86E0800F5500C5E000E0D5A1A
:10262A00300E0C24196E000E0D201A6EE0EF12F017
:10263A0012C0F6FF13C0F7FF000EF86E0800F5CFC0
:10264A0014F0D00E1424156E166AFF0E16221650B8
:10265A0009E10A0E155CD8A035EF13F037EF13F035
:10266A0000EF13F017501810D8A43EEF13F040EF04
:10267A0013F04EEF13F019C014F01AC015F0141E1F
:10268A00151E144A152A14C012F015C013F052EF81
:10269A0013F019C012F01AC013F012004134423478
:1026AA00486E4850D8A45CEF13F05EEF13F068EF61
:1026BA0013F0000E3F6E000E406E000E416E000ECB
:1026CA00426ED5EF13F03FC043F040C044F041C022
:1026DA0045F042C046F0200E78EF13F0D89046320B
:1026EA00453244324332E82E73EF13F04350476EBB
:1026FA00418EFF0E3F16FF0E4016FF0E4116000ECA
:10270A004216960E485E48BE8FEF13F08DEF13F017
:10271A00A5EF13F04850800A970FD8B097EF13F03F
:10272A0099EF13F09BEF13F05EEF13F0D89042325B
:10273A00413240323F32483E9BEF13F0BDEF13F077
:10274A001F0E4864ABEF13F0ADEF13F0B5EF13F0C3
:10275A005EEF13F0D8903F3640364136423648068F
:10276A004850D8A4BBEF13F0BDEF13F0AFEF13F04E
:10277A004750D8B4C3EF13F0C5EF13F0CDEF13F001
:10278A00421E411E401E3F6C000E40224122422240
:10279A003FC03FF040C040F041C041F042C042F06B
:1027AA001200000E0101676F000E666F000E696F5E
:1027BA00000E686F000E6B6F000E6A6F000E6D6F71
:1027CA00000E6C6FEFEC18F064EC17F052EC18F096
:1027DA0095EC18F065EC18F01AEC19F0660E176E05
:1027EA00010E186E4BEC15F021EE66F000EE6DF05E
:1027FA00070EDBCFEBFFE806FCE215EC07F0010160
:10280A00646F000E656F0EEF14F0ACEC17F0010167
:10281A00656FD7EC18F00009D8A416EF14F018EF7A
:10282A0014F00AEF14F001016505D8A41FEF14F0A3
:10283A0021EF14F043EF14F03C0E0001836F010EF8
:10284A00846F010E856F0E0E866F64C187F0886BE8
:10285A0066C189F067C18AF068C18BF069C18CF0E2
:10286A006AC18DF06BC18EF0A4EC15F03C0E0D6EB2
:10287A00010E0E6E7EEC17F0A4EC18F0090E0001A2
:10288A009D6F1E0E9C6FE40EE82EFED79C2FFCD780
:10289A009D2FFAD700F0F1EF13F02CEF00F00E5055
:1028AA000F10D8B45BEF14F05DEF14F066EF14F07C
:1028BA000E500F10D8A464EF14F066EF14F06BEF0B
:1028CA0014F00C501FEC19F0B8EF14F020EE09F0D8
:1028DA000E50D9260F50DA22DE50DE10D8B478EF27
:1028EA0014F07AEF14F095EF14F020EE09F00E5080
:1028FA00D9260F50DA2210EE03F00E50E1260F50BF
:10290A00E222DE50E65CE650800A146EDE50800A4F
:10291A001458D8B093EF14F095EF14F0B8EF14F000
:10292A0020EE03F00E50D9260F50DA22DECF10F037
:10293A00DDCF11F00EC0D9FF0FC0DAFFDECF12F0E3
:10294A00DDCF13F010501224D96E11501320DA6E15
:10295A000CC0DFFF20EE03F00E50D9260F50DA220A
:10296A00DE2A000EDD2212004DA0BEEF14F0C0EFE9
:10297A0014F0CAEF14F01EC015F01FC016F01CC0E8
:10298A0017F01DC018F001EC17F021BECFEF14F0BC
:10299A00D1EF14F0D7EF14F020C025F021C026F0B3
:1029AA00DBEF14F0000E266E000E256E000E246E6C
:1029BA00000E236EEDEF14F0000E0D6E200E0C6E5D
:1029CA001CC00EF01DC00FF054EC14F0234A242A48
:1029DA002550235C2450800A226E2650800A2258F1
:1029EA00D8A0FAEF14F0FCEF14F0E1EF14F04DB0B8
:1029FA0001EF15F003EF15F00DEF15F01EC015F0FD
:102A0A001FC016F01CC017F01DC018F001EC17F01B
:102A1A001200D9CF06F0DACF07F00E0137A718EF68
:102A2A0015F01AEF15F01FEF15F0E3CE08F0085075
:102A3A0002EC18F0E3EC18F00009D8A427EF15F01F
:102A4A0029EF15F02BEF15F00E012D950E0137A584
:102A5A0031EF15F033EF15F037EF15F0C2EC17F040
:102A6A000E01E46F33A33CEF15F03EEF15F045EF8E
:102A7A0015F0010E0001B56FBEEC18F00E0133938C
:102A8A0007C0DAFF06C0D9FF54921100CDEC15F049
:102A9A0017C0D9FF18C0DAFF10C0DEFF11C0DDFF72
:102AAA00F5EC15F020EE02F01750D9261850DA226C
:102ABA0010C0DEFF11C0DDFF45EC16F020EE04F079
:102ACA001750D9261850DA2210C0DEFF11C0DDFFD8
:102ADA001DEC16F020EE06F01750D9261850DA220F
:102AEA0010C0DEFF11C0DDFF12007FC042F080C0BF
:102AFA0043F08EEF15F07DC039F07EC03AF0420EF9
:102B0A003B6E000E3C6E81C03DF082C03EF09BECF5
:102B1A000DF042C0F6FF43C0F7FF000EF86E080042
:102B2A00F5500009D8A49CEF15F09EEF15F080EF40
:102B3A0015F0000E00017E6F000E7D6F1200870EE9
:102B4A0000018F6F000E906F83C091F084C092F0E5
:102B5A00000E956F000E946F000E9B6F000E9A6F19
:102B6A00910E7D6F000E7E6F85C07FF086C080F06B
:102B7A008F0E816F000E826F7AEC15F0000194516E
:102B8A008325D96E95518421DA6E000EDF6E12000C
:102B9A000BEC19F0520EF5EC18F0B60EF5EC18F035
:102BAA0001EC19F0530EF5EC18F0010E23EC17F0B6
:102BBA00126E1250156E166A000E23EC17F0126E82
:102BCA001250146E136A15501310156E1650141005
:102BDA00166E06EC19F015C010F016C011F01200AE
:102BEA000BEC19F0520EF5EC18F0B80EF5EC18F0E3
:102BFA0001EC19F0530EF5EC18F0010E23EC17F066
:102C0A00126E1250156E166A000E23EC17F0126E31
:102C1A001250146E136A15501310156E16501410B4
:102C2A00166E06EC19F015C010F016C011F012005D
:102C3A000BEC19F0520EF5EC18F0B40EF5EC18F096
:102C4A0001EC19F0530EF5EC18F0010E23EC17F015
:102C5A00126E1250156E166A000E23EC17F0126EE1
:102C6A001250146E136A15501310156E1650141064
:102C7A00166E06EC19F015C010F016C011F012000D
:102C8A000BEC19F0520EF5EC18F0BA0EF5EC18F040
:102C9A0001EC19F0530EF5EC18F0010E23EC17F0C5
:102CAA00126E1250156E166A000E23EC17F0126E91
:102CBA001250146E136A15501310156E1650141014
:102CCA00166E06EC19F015C010F016C011F01200BD
:102CDA00130E0E6E000E75EC18F03F0E106E550EA8
:102CEA00E82EFED7102EFCD700F0040E0E6E0C0E46
:102CFA0075EC18F04BC00EF0040E75EC18F04C5041
:102D0A000E6E050E75EC18F052C00EF0060E75EC3C
:102D1A0018F053500E6E070E75EC18F01200130ED1
:102D2A00036E000E85EC18F03F0E056E550EE82E68
:102D3A00FED7052EFCD700F0040E036E0C0E85ECB0
:102D4A0018F04BC003F0040E85EC18F04C50036EDB
:102D5A00050E85EC18F052C003F0060E85EC18F04B
:102D6A005350036E070E85EC18F012003C0EF66EF7
:102D7A00320EF76E000EF86E0900F5CF52F0090018
:102D8A00F5CF53F001EE00F03C0EEE6AE806FDE1E5
:102D9A0000EE9EF0380EEE6AE806FDE100EE49F01C
:102DAA00090EEE6AE806FDE1549054920001D6EF4E
:102DBA0013F0010E106E200E0C180D10D8B4E8EFA7
:102DCA0016F0EAEF16F0FDEF16F0F70E0C240E6E71
:102DDA00FF0E0D200F6E0F5009E1050E0E5CD8A0F4
:102DEA00F9EF16F0FBEF16F0FDEF16F0000E106E7D
:102DFA0010C00CF00D6A1200000E1B6E000E1A6E47
:102E0A0012EF17F019C00CF00D6A17C00EF018C0B7
:102E1A000FF054EC14F01A4A1B2A1A501524D96ED2
:102E2A001B501620DA6EDF50196E1950D8A420EF05
:102E3A0017F022EF17F007EF17F012000E6E17ECDB
:102E4A0018F00E01DA8717EC18F0D5CE0FF017EC50
:102E5A0018F00E50D8B434EF17F038EF17F00D6AA7
:102E6A000D2A39EF17F00D6A0D3A0D460E01DA51A7
:102E7A000D18DF0B0D18DA6FDA890F5012001FBE1A
:102E8A0051EF17F01F5006E11E04D8B04FEF17F0AC
:102E9A0051EF17F05FEF17F01EC020F01FC021F0AE
:102EAA00201E211E204A212A20C01EF021C01FF008
:102EBA0063EF17F01EC01EF01FC01FF01200D8ECFF
:102ECA0017F0010E0E6E000E75EC18F03F0E106E24
:102EDA00550EE82EFED7102EFCD700F0030E0E6E0C
:102EEA00000E75EC18F0D50E0E6E010E75EC18F08A
:102EFA00120089EF17F00DC0D9FF0EC0DAFFDF50BC
:102F0A00EDEC17F00D4A0E2A0DC0D9FF0EC0DAFFFC
:102F1A00DF50D8A493EF17F095EF17F080EF17F072
:102F2A001200D00E0C240E6EFF0E0D200F6E0F50E5
:102F3A000AE10A0E0E5CD8A0A5EF17F0A8EF17F069
:102F4A00010EA9EF17F0000E0C6E0D6A1200130E97
:102F5A005064B2EF17F0B4EF17F0B6EF17F0000EA7
:102F6A00506E502A50040C6E0D6A9E0E0C24D96EB7
:102F7A00000E0D20DA6EDF5012003B0E4E64C8EFD1
:102F8A0017F0CAEF17F0CCEF17F0000E4E6E4E2A6C
:102F9A004E04016E026A000E0124D96E010E02204F
:102FAA00DA6EDF5012000E01D951F00B0809D96F01
:102FBA00D98B9F0ED66F848A848CA79BA79D1D0EE2
:102FCA001D6F1E0E1C6F1C0E6F6F1B0E706F120092
:102FDA000C6E3B0E4F64F4EF17F0F6EF17F0F8EFB4
:102FEA0017F0000E4F6E000E4F24D96EDA6A010EEA
:102FFA00DA220CC0DFFF4F2A1200016E130E516451
:10300A0009EF18F00BEF18F00DEF18F0000E516EE3
:10301A009E0E5124D96EDA6A000EDA2201C0DFFF51
:10302A00512A12000E01D8B51DEF18F01FEF18F043
:10303A0017EF18F0DACE0CF01F0E0C16D8A428EFF2
:10304A0018F02AEF18F017EF18F012000E01D8B591
:10305A0031EF18F033EF18F02BEF18F0DACE01F059
:10306A001F0E0116D8A43CEF18F03EEF18F02BEF14
:10307A0018F012000C500E02F3CF10F0F4CF11F03A
:10308A000C500F02F35011260D500E02F350112668
:10309A0010C00CF011C00DF0120082820E019A933A
:1030AA00090E0D01F16F0E0129831F83F292298BFC
:1030BA001F9B2D87B1EC18F0F28AF28CF28E120067
:1030CA00D6501F0B4009D66ED688D650F00B080989
:1030DA00D66ED588C20ED46EF60ED36ED58E120079
:1030EA000F6E0BEC19F0520EF5EC18F00F50800928
:1030FA00F5EC18F00E50F5EC18F006EC19F0120089
:10310A00046E15EC19F0520EFBEC18F0045080090D
:10311A00FBEC18F00350FBEC18F010EC19F012005D
:10312A00120E0E01626F110E156FE997E895330EB4
:10313A00E56F000EE66FE789E88BE78F1200CBECAC
:10314A0018F00009D8B4ACEF18F0AEEF18F0B0EFF1
:10315A0018F00E012D8512000BEC19F0520EF5EC49
:10316A0018F0E60EF5EC18F006EC19F06DEC16F016
:10317A00120015EC19F0520EFBEC18F0E60EFBECFF
:10318A0018F010EC19F094EC16F012004E504F188B
:10319A00D8A4D2EF18F0D5EF18F0010ED6EF18F038
:1031AA00000E120050505118D8A4DEEF18F0E1EFCB
:1031BA0018F0010EE2EF18F0000E12004E504F18F0
:1031CA00D8A4EAEF18F0EDEF18F0010EEEEF18F0C0
:1031DA00000E120087928198869E80968896120029
:1031EA000D6E17EC18F00DC0D5FE1200026E2BEC16
:1031FA0018F002C0D5FE120017EC18F00E01DA839F
:10320A00120017EC18F00E01DA85120017EC18F00C
:10321A000E01DA8112002BEC18F00E01DA85120089
:10322A002BEC18F00E01DA8112007F8279887E8EEB
:06323A001200C40912009D
:020000040020DA
:10000000FF0FFF0FFF0FFF0FFF0FFF0FFF0FFF0F80
:020000040030CA
:0C000000AAFFFFFF9FFFFFFFFFFFFFFFB5
:00000001FF
