:040000002CEF00F0F1
:0600080057826AEF14F0BC
:100018005780D8CF06F0E8CF07F0E0CF08F00E0100
:1000280033AB19EF00F01BEF00F024EF00F0C20E25
:10003800D46EF60ED36E010E0001746F0E01339B61
:1000480008C0E0FF07C0E8FF06C0D8FF57901000BF
:1000580044EF13F0000E0001B06F000E346E000E76
:10006800356EC80E366E420E376E20EE04F0A25181
:10007800D926A351DA22DECFA4F0DDCFA5F020EEF9
:1000880002F0A251D926A351DA22DECFA6F0DDCFA5
:10009800A7F0A2C0D9FFA3C0DAFFDECFA8F0DDCF5A
:1000A800A9F0A651A825AA6FA751A921AB6FA45101
:1000B800AA25AC6FA551AB21AD6FACC009F0ADC09E
:1000C8000AF00B6A0C6A000E83EC09F009C01BF0F9
:1000D8000AC01CF00BC01DF00CC01EF0A2C0D9FF56
:1000E800A3C0DAFFDECFAEF0DDCFAFF0AEC009F0CF
:1000F800AFC00AF00B6A0C6A000E83EC09F009C065
:1001080017F00AC018F00BC019F00CC01AF053EC25
:1001180005F017C030F018C031F019C032F01AC01D
:1001280033F03EEC03F030C049F031C04AF032C041
:100138004BF033C04CF013EC0BF049500001B16F99
:10014800000E346E000E356EC80E366E420E376ED7
:1001580020EE04F0A251D926A351DA22DECFA4F072
:10016800DDCFA5F020EE02F0A251D926A351DA2264
:10017800DECFA6F0DDCFA7F0A2C0D9FFA3C0DAFF7B
:10018800DECFA8F0DDCFA9F0A651A825AA6FA75108
:10019800A921AB6FA451AA25AC6FA551AB21AD6FB6
:1001A800ACC009F0ADC00AF00B6A0C6A000E83EC13
:1001B80009F009C01BF00AC01CF00BC01DF00CC0F0
:1001C8001EF0000120EE02F0A251D926A351DA2236
:1001D800DECFAEF0DDCFAFF0AEC009F0AFC00AF0B1
:1001E8000B6A0C6A000E83EC09F009C017F00AC00C
:1001F80018F00BC019F00CC01AF053EC05F017C03A
:1002080030F018C031F019C032F01AC033F03EECAB
:1002180003F030C049F031C04AF032C04BF033C06F
:100228004CF013EC0BF049500001B26F000E346E25
:10023800000E356EC80E366E420E376E20EE04F094
:10024800A251D926A351DA22DECFA4F0DDCFA5F042
:1002580020EE02F0A251D926A351DA22DECFA6F071
:10026800DDCFA7F0A2C0D9FFA3C0DAFFDECFA8F088
:10027800DDCFA9F0A651A825AA6FA751A921AB6F78
:10028800A451AA25AC6FA551AB21AD6FACC009F044
:10029800ADC00AF00B6A0C6A000E83EC09F009C0C5
:1002A8001BF00AC01CF00BC01DF00CC01EF00001B2
:1002B80020EE04F0A251D926A351DA22DECFAEF007
:1002C800DDCFAFF0AEC009F0AFC00AF00B6A0C6A20
:1002D800000E83EC09F009C017F00AC018F00BC033
:1002E80019F00CC01AF053EC05F017C030F018C024
:1002F80031F019C032F01AC033F03EEC03F030C0D0
:1003080049F031C04AF032C04BF033C04CF013EC26
:100318000BF049500001B36F5550D8B496EF01F077
:1003280098EF01F03AEF03F0490EB1659EEF01F046
:10033800A0EF01F0CCEF01F04D0EB161A6EF01F096
:10034800A8EF01F0CCEF01F0090EB265AEEF01F0B5
:10035800B0EF01F0CCEF01F00D0EB261B6EF01F095
:10036800B8EF01F0CCEF01F00C0EB365BEEF01F071
:10037800C0EF01F0CCEF01F0100EB361C6EF01F051
:10038800C8EF01F0CCEF01F0010EB06F3AEF03F0C7
:10039800230EB165D2EF01F0D4EF01F000EF02F0C7
:1003A800270EB161DAEF01F0DCEF01F000EF02F0A7
:1003B800280EB265E2EF01F0E4EF01F000EF02F081
:1003C8002C0EB261EAEF01F0ECEF01F000EF02F061
:1003D800130EB365F2EF01F0F4EF01F000EF02F055
:1003E800170EB361FAEF01F0FCEF01F000EF02F035
:1003F800020EB06F3AEF03F01C0EB16506EF02F083
:1004080008EF02F034EF02F0230EB1610EEF02F0B4
:1004180010EF02F034EF02F01F0EB26516EF02F093
:1004280018EF02F034EF02F0270EB2611EEF02F06F
:1004380020EF02F034EF02F01E0EB36526EF02F053
:1004480028EF02F034EF02F0260EB3612EEF02F02F
:1004580030EF02F034EF02F0030EB06F3AEF03F022
:10046800310EB1653AEF02F03CEF02F068EF02F0AE
:10047800350EB16142EF02F044EF02F068EF02F08E
:100488001D0EB2654AEF02F04CEF02F068EF02F081
:10049800210EB26152EF02F054EF02F068EF02F061
:1004A800100EB3655AEF02F05CEF02F068EF02F04D
:1004B800140EB36162EF02F064EF02F068EF02F02D
:1004C800040EB06F3AEF03F02F0EB1656EEF02F035
:1004D80070EF02F09CEF02F0330EB16176EF02F09C
:1004E80078EF02F09CEF02F01B0EB2657EEF02F08F
:1004F80080EF02F09CEF02F01F0EB26186EF02F06F
:1005080088EF02F09CEF02F0140EB3658EEF02F054
:1005180090EF02F09CEF02F0180EB36196EF02F034
:1005280098EF02F09CEF02F0050EB06F3AEF03F07F
:100538003A0EB165A2EF02F0A4EF02F0D0EF02F09C
:100548003E0EB161AAEF02F0ACEF02F0D0EF02F07C
:10055800150EB265B2EF02F0B4EF02F0D0EF02F080
:10056800190EB261BAEF02F0BCEF02F0D0EF02F060
:100578000F0EB365C2EF02F0C4EF02F0D0EF02F045
:10058800130EB361CAEF02F0CCEF02F0D0EF02F025
:10059800060EB06F3AEF03F0200EB165D6EF02F009
:1005A800D8EF02F004EF03F0240EB161DEEF02F0A1
:1005B800E0EF02F004EF03F0250EB265E6EF02F07B
:1005C800E8EF02F004EF03F0290EB261EEEF02F05B
:1005D800F0EF02F004EF03F0190EB365F6EF02F046
:1005E800F8EF02F004EF03F01D0EB361FEEF02F026
:1005F80000EF03F004EF03F0070EB06F3AEF03F0DB
:100608002A0EB1650AEF03F00CEF03F038EF03F0A0
:100618002E0EB16112EF03F014EF03F038EF03F080
:100628001F0EB2651AEF03F01CEF03F038EF03F06A
:10063800230EB26122EF03F024EF03F038EF03F04A
:10064800150EB3652AEF03F02CEF03F038EF03F033
:10065800190EB36132EF03F034EF03F038EF03F013
:10066800080EB06F3AEF03F0000EB06F000E556E33
:10067800B05112003350800B3C6E33503324426E1D
:1006880032AE49EF03F04BEF03F04CEF03F042803A
:100698004250D8B452EF03F054EF03F067EF03F081
:1006A8004228D8A45AEF03F05CEF03F064EF03F09C
:1006B800000E306E000E316E000E326E000E336E7C
:1006C800328E6FEF03F0000E306E000E316E000EAA
:1006D800326E000E336E3750800B3C1A3750372479
:1006E800416E36AE7AEF03F07CEF03F07DEF03F056
:1006F80041804150D8B483EF03F085EF03F098EFC1
:1007080003F04128D8A48BEF03F08DEF03F095EFA9
:1007180003F0000E346E000E356E000E366E000EBD
:10072800376E368EA0EF03F0000E346E000E356E75
:10073800000E366E000E376E4150D8B4A6EF03F0A7
:10074800A8EF03F0B0EF03F04250D8A4AEEF03F0E7
:10075800B0EF03F0BAEF03F0000E306E000E316E0A
:10076800000E326E000E336E52EF05F03650300236
:10077800F3CF47F0F4CF48F047503D6E3E6A3F6AEA
:10078800406A4850436E446A456A466A35503102A9
:10079800F3CF47F0F4CF48F047503D26000E3E22F5
:1007A8003F22402248504326000E4422452246223A
:1007B80034503202F3CF47F0F4CF48F047503D268B
:1007C800000E3E223F22402248504326000E44227B
:1007D800452246223FC040F03EC03FF03DC03EF0BB
:1007E8003D6A34503102F3CF47F0F4CF48F0475018
:1007F8003D2648503E22000E3F22000E4022355032
:100808003002F3CF47F0F4CF48F047503D26485028
:100818003E22000E3F22000E40223FC040F03EC064
:100828003FF03DC03EF03D6A34503002F3CF47F010
:10083800F4CF48F047503D2648503E22000E3F2254
:10084800000E402236503102F3CF47F0F4CF48F083
:100858004750432648504422000E4522000E4622A7
:1008680035503202F3CF47F0F4CF48F047504326D3
:1008780048504422000E4522000E462236503202CD
:10088800F3CF47F0F4CF48F04750386E4850396EF0
:100898003A6A3B6A3AC03BF039C03AF038C039F09E
:1008A800386A38504326395044223A5045223B5042
:1008B80046223DC038F03EC039F03FC03AF040C053
:1008C8003BF0190E6DEF04F0D8903B323A323932D2
:1008D8003832E82E68EF04F0385043263950442265
:1008E8003A5045223B5046223FC040F03EC03FF0C0
:1008F8003DC03EF03D6A415042C038F0396A382662
:10090800000E3922820E3824476EFF0E3920486EB9
:10091800A3EF04F0D890433644364536463640AE09
:1009280098EF04F09AEF04F09BEF04F04380D8901E
:100938003D363E363F3640364706D8A0480645AED7
:10094800A8EF04F0AAEF04F08EEF04F0000E416E59
:1009580040AEB1EF04F0B3EF04F0D7EF04F0FF0EB0
:100968003D14386EFF0E3E14396EFF0E3F143A6E7A
:100978007F0E40143B6E385039103A103B10D8B4F3
:10098800C8EF04F0CAEF04F0CEEF04F0010E416E98
:10099800D7EF04F043A0D3EF04F0D5EF04F0D7EF7E
:1009A80004F0CAEF04F04150D8B4DDEF04F0DFEFF3
:1009B80004F003EF05F0010E4326000E4422452201
:1009C800462246A0EAEF04F0ECEF04F003EF05F04E
:1009D80043C038F044C039F045C03AF046C03BF057
:1009E8003B343B323A323932383238C043F039C0BE
:1009F80044F03AC045F03BC046F0474A482A48BE52
:100A08000EEF05F0485008E14728D8A00EEF05F092
:100A180010EF05F01AEF05F0000E436E000E446E5D
:100A2800800E456E7F0E466E48EF05F048BE27EFF4
:100A380005F0485006E14704D8B025EF05F027EF48
:100A480005F033EF05F0000E436E000E446E000E05
:100A5800456E000E466E000E3C6E48EF05F047C02E
:100A680042F0FF0E4316FF0E44167F0E4516000E89
:100A7800461642A042EF05F044EF05F045EF05F0B9
:100A8800458ED8904230466E3C50461243C030F0F6
:100A980044C031F045C032F046C033F012001A505D
:100AA800800B276E1A501A242E6E19AE5EEF05F0D1
:100AB80060EF05F061EF05F02E802E50D8B467EF97
:100AC80005F069EF05F07EEF05F02E28D8A46FEF4A
:100AD80005F071EF05F079EF05F0000E176E000EC6
:100AE800186E000E196E000E1A6E198E000E1A6E10
:100AF80086EF05F0000E176E000E186E000E196EC8
:100B0800000E1A6E1E50800B271A1E501E242F6EC0
:100B18001DAE91EF05F093EF05F094EF05F02F80EF
:100B28002F50D8B49AEF05F09CEF05F0B1EF05F01F
:100B38002F28D8A4A2EF05F0A4EF05F0ACEF05F03C
:100B4800000E1B6E000E1C6E000E1D6E000E1E6E3B
:100B58001D8E000E1E6EB9EF05F0000E1B6E000E06
:100B68001C6E000E1D6E000E1E6E1B501C101D10FC
:100B78001E10D8A4C2EF05F0C4EF05F0DCEF05F0B5
:100B8800000E176E000E186E000E196E000E1A6E0B
:100B9800800E19127F0E1A1227501A1217C017F05A
:100BA80018C018F019C019F01AC01AF01FEF07F092
:100BB8002E50D8A4E2EF05F0E4EF05F0EEEF05F0D3
:100BC800000E176E000E186E000E196E000E1A6ECB
:100BD8001FEF07F02F502EC01FF0206A1F5E000E77
:100BE800205A7F0E1F24286E000E2020296E17C061
:100BF80023F018C024F019C025F01AC026F0000E02
:100C0800176E000E186E000E196E000E1A6E000E8A
:100C18002A6E000E2B6E000E2C6E000E2D6E000E2E
:100C28002F6E4FEF06F02F50D8B41DEF06F01FEFD0
:100C380006F036EF06F0D8902336243625362636C9
:100C4800D8901736183619361A362DAE2EEF06F00C
:100C580030EF06F031EF06F01780D8902A362B36A1
:100C68002C362D361B50235C1C5024581D502558FB
:100C78001E502658D8A043EF06F045EF06F04EEF79
:100C880006F02D8C1B50235E1C50245A1D50255AEB
:100C98001E50265A2F2A190E2F6455EF06F057EFCB
:100CA80006F017EF06F02350241025102610D8B4AC
:100CB80060EF06F062EF06F07AEF06F02A807AEF2E
:100CC80006F0D8901736183619361A362DAE6FEF4B
:100CD80006F071EF06F072EF06F01780D8902A360A
:100CE8002B362C362D362806D8A0290619AE7FEFCC
:100CF80006F081EF06F065EF06F0000E2F6E2DAEC0
:100D080088EF06F08AEF06F0AEEF06F0FF0E2A1421
:100D18001F6EFF0E2B14206EFF0E2C14216E7F0EFB
:100D28002D14226E1F50201021102210D8B49FEFCE
:100D380006F0A1EF06F0A5EF06F0010E2F6EAEEF5C
:100D480006F017A0AAEF06F0ACEF06F0AEEF06F03B
:100D5800A1EF06F02F50D8B4B4EF06F0B6EF06F0C6
:100D6800DAEF06F0010E1726000E182219221A22B1
:100D78001AA0C1EF06F0C3EF06F0DAEF06F017C0CD
:100D88001FF018C020F019C021F01AC022F0223438
:100D98002232213220321F321FC017F020C018F033
:100DA80021C019F022C01AF0284A292A29BEE5EFE5
:100DB80006F0295008E12828D8A0E5EF06F0E7EF6B
:100DC80006F0F2EF06F0000E296E2868000E176E86
:100DD800000E186E000E196E000E1A6E29BEFFEF77
:100DE80006F0295006E12804D8B0FDEF06F0FFEF21
:100DF80006F00DEF07F0000E296E000E286E000EAB
:100E0800176E000E186E000E196E000E1A6E000E88
:100E1800276E28C02EF02EA014EF07F016EF07F06B
:100E280019EF07F0198E1AEF07F0199ED8902E3097
:100E38001A6ED0EF05F0120035043610D8A427EF4B
:100E480007F029EF07F047EF07F037C027F038C061
:100E580028F039C029F03AC02AF0E8EC0FF07CBE3F
:100E680038EF07F03AEF07F061EF08F0560E096E19
:100E7800000E0A6E750E0B6E000E0C6E020E27EC3D
:100E880014F061EF08F0020E35183610D8A44FEFB1
:100E980007F051EF07F06FEF07F037C027F038C0C1
:100EA80028F039C029F03AC02AF0F4EC10F07CBEE2
:100EB80060EF07F062EF07F061EF08F0560E096E79
:100EC800000E0A6E750E0B6E000E0C6E010E27ECEE
:100ED80014F061EF08F0030E35183610D8A477EF38
:100EE80007F079EF07F097EF07F037C027F038C021
:100EF80028F039C029F03AC02AF004EC0FF07CBE83
:100F080088EF07F08AEF07F061EF08F0560E096ED8
:100F1800000E0A6E750E0B6E000E0C6E030E27EC9B
:100F280014F061EF08F0040E35183610D8A49FEFBE
:100F380007F0A1EF07F0BFEF07F037C027F038C080
:100F480028F039C029F03AC02AF0A5EC0FF07CBE91
:100F5800B0EF07F0B2EF07F061EF08F0560E096E38
:100F6800000E0A6E750E0B6E000E0C6E090E27EC45
:100F780014F061EF08F0050E35183610D8A4C7EF45
:100F880007F0C9EF07F0E7EF07F037C027F038C0E0
:100F980028F039C029F03AC02AF02BEC10F07CBEBA
:100FA800D8EF07F0DAEF07F061EF08F0560E096E98
:100FB800000E0A6E750E0B6E000E0C6E0A0E27ECF4
:100FC80014F061EF08F0060E35183610D8A4EFEFCC
:100FD80007F0F1EF07F00FEF08F037C027F038C03F
:100FE80028F039C029F03AC02AF06EEC10F07CBE27
:100FF80000EF08F002EF08F061EF08F0560E096EF6
:10100800000E0A6E750E0B6E000E0C6E070E27ECA6
:1010180014F061EF08F0070E35183610D8A417EF52
:1010280008F019EF08F037EF08F037C027F038C09C
:1010380028F039C029F03AC02AF0B1EC10F07CBE93
:1010480028EF08F02AEF08F061EF08F0560E096E55
:10105800000E0A6E750E0B6E000E0C6E060E27EC57
:1010680014F061EF08F0090E35183610D8A43FEFD8
:1010780008F041EF08F04DEF08F037C02EF038C007
:101088002FF039C030F03AC031F052EC0EF061EF79
:1010980008F00A0E35183610D8A455EF08F057EFA7
:1010A80008F061EF08F037C02EF038C02FF039C0D3
:1010B80030F03AC031F0ABEC0EF01200000E000137
:1010C800BA6F000EB96F000EBC6F000EBB6F000E3A
:1010D800BE6F000EBD6F000EC06F000EBF6FB3EC89
:1010E80014F0A4EC13F08AEC14F04AEC14F0000E9F
:1010F8000A6E630E096E5DEC0FF0000E0001C16F01
:10110800010EC26F010EC36FAA0EC66F0F0EC76F16
:10111800A60EC86F0F0EC96FBCCFC4F0C56B000E0A
:10112800CA6F010ECB6F010ECC6F250ECF6F0F0E5D
:10113800D06F210ED16F0F0ED26FBCCFCDF0CE6B1A
:10114800000EB86FE0EC14F0000E0001B76F000E4F
:10115800B66FCAEF08F0C10E1C6E000E1D6ECA0EE7
:101168001E6E000E1F6E0EEC0CF0B90E146E000E03
:10117800156E71EC11F0B90E0001A26F000EA36F8D
:101188002EEC00F00001B86FB64BB72BB851D8B4AD
:10119800D0EF08F0D2EF08F0AFEF08F0B851D8B4AC
:1011A800D8EF08F0DAEF08F033EF09F0080EB819B5
:1011B800D8B4E1EF08F0E3EF08F033EF09F0F80EE8
:1011C800B625096EFF0EB7210A6E9D0E0B6E000E36
:1011D8000C6E3C0E0D6E010E0E6EBEEC13F080868A
:1011E80004EF09F0C10E1C6E000E1D6ECA0E1E6EB5
:1011F800000E1F6EE8EC0DF00001B607D8A0B70787
:101208000001B651B711D8A40CEF09F00EEF09F0A0
:10121800F6EF08F0090E0001B56F1E0EB46FE40E6C
:10122800E82EFED7B42FFCD7B52FFAD700F080965A
:101238000001B851B46FB56BB4C035F0B5C036F025
:10124800C10E376E000E386ECA0E396E000E3A6E39
:1012580020EC07F0000E0001B86FA8EF08F0080EA8
:10126800B819D8A43AEF09F03CEF09F0A8EF08F054
:10127800F80EB625096EFF0EB7210A6E9D0E0B6E8D
:10128800000E0C6E3C0E0D6E010E0E6EBEEC13F0D1
:101298007C8E5DEF09F0C10E1C6E000E1D6ECA0E2D
:1012A8001E6E000E1F6EE8EC0DF00001B607D8A008
:1012B800B7070001B651B711D8A465EF09F067EF79
:1012C80009F04FEF09F0090E0001B56F1E0EB46F5B
:1012D800E40EE82EFED7B42FFCD7B52FFAD700F0CE
:1012E800C10E3B6E000E3C6ECA0E3D6E000E3E6E89
:1012F80073EC0DF07C9E2EEF09F02CEF00F0116ED0
:101308001150D8B48AEF09F08CEF09F0AEEF09F06C
:101318000CBE93EF09F091EF09F0AEEF09F009C0A8
:101328000DF00AC00EF00BC00FF00CC010F00D1E2F
:101338000E1E0F1E101E0D2A000E0E220F22102246
:101348000DC013F00EC014F00FC015F010C016F049
:10135800B6EF09F009C013F00AC014F00BC015F07D
:101368000CC016F009500A100B100C10D8A4BFEFCF
:1013780009F0C1EF09F0CBEF09F0000E096E000E7D
:101388000A6E000E0B6E000E0C6E5CEF0AF0960EE5
:10139800126ED5EF09F0122AD8901632153214328F
:1013A8001332000E13140D6E000E14140E6E000E80
:1013B80015140F6EFE0E1614106E0D500E100F1031
:1013C8001010D8A4EAEF09F0ECEF09F0CFEF09F01C
:1013D800FAEF09F0122A010E1326000E1422152224
:1013E8001622D8901632153214321332000E131406
:1013F8000D6E000E14140E6E000E15140F6EFF0EF7
:101408001614106E0D500E100F101010D8A40FEFF8
:101418000AF011EF0AF0EEEF09F019EF0AF01206E0
:10142800D890133614361536163615BE1EEF0AF048
:1014380020EF0AF028EF0AF0020E126026EF0AF0F9
:1014480028EF0AF013EF0AF012B02DEF0AF02FEF91
:101458000AF030EF0AF0159ED890123212C00DF043
:101468000E6A0F6A106A0DC010F00F6A0E6A0D6AD4
:101478000D5013120E5014120F5015121050161250
:101488001150D8B44AEF0AF04CEF0AF054EF0AF0C2
:101498000CBE53EF0AF051EF0AF054EF0AF0168E23
:1014A80013C009F014C00AF015C00BF016C00CF0F8
:1014B800120020EE02F01650D9261750DA22DF501B
:1014C800D8B469EF0AF06BEF0AF09FEF0AF016C084
:1014D800D9FF17C0DAFFDF50096E0A6A09BE0A068B
:1014E80020EE03F01650D9261750DA22DECF0BF083
:1014F800DDCF0CF014EC14F009C00FF00AC010F0A6
:10150800000E126E640E116E37EC11F020EE03F02F
:101518001650D9261750DA22DF50186E0F50185C73
:101528001A6E20EE03F01650D9261750DA22DF5033
:101538001B6EC2EF0AF0000E1A6E16C0D9FF17C054
:10154800DAFFDF50096E0A6A09BE0A0620EE03F0C8
:101558001650D9261750DA22DECF0BF0DDCF0CF06B
:1015680014EC14F009C00FF00AC010F0000E126E4F
:10157800640E116E37EC11F00F501B6E20EE01F067
:101588001650D9261750DA22DF50D8B4CEEF0AF019
:10159800D0EF0AF0F2EF0AF020EE05F01650D92647
:1015A8001750DA22DECF18F0DDCF19F018C0D9FFB6
:1015B80019C0DAFF1AC0DFFF20EE07F01650D9264F
:1015C8001750DA22DECF18F0DDCF19F018C0D9FF96
:1015D80019C0DAFF1BC0DFFF12EF0BF020EE05F099
:1015E8001650D9261750DA22DECF18F0DDCF19F0C1
:1015F80018C0D9FF19C0DAFF1BC0DFFF20EE07F0C3
:101608001650D9261750DA22DECF18F0DDCF19F0A0
:1016180018C0D9FF19C0DAFF1AC0DFFF12004B3417
:101628004C344E6E4E50D8A41CEF0BF01EEF0BF04E
:1016380028EF0BF0000E496E000E4A6E000E4B6E3E
:10164800000E4C6E96EF0BF049C09EF04AC09FF01A
:101658004BC0A0F04CC0A1F0200E39EF0BF00001F8
:10166800D890A133A0339F339E33E82E33EF0BF08D
:101678009E514D6E4B8EFF0E4916FF0E4A16FF0EF9
:101688004B16000E4C16960E4E5E4EBE50EF0BF0EB
:101698004EEF0BF066EF0BF04E50800A970FD8B064
:1016A80058EF0BF05AEF0BF05CEF0BF01EEF0BF05E
:1016B800D8904C324B324A3249324E3E5CEF0BF0F6
:1016C8007EEF0BF01F0E4E646CEF0BF06EEF0BF01D
:1016D80076EF0BF01EEF0BF0D89049364A364B36B2
:1016E8004C364E064E50D8A47CEF0BF07EEF0BF034
:1016F80070EF0BF04D50D8B484EF0BF086EF0BF081
:101708008EEF0BF04C1E4B1E4A1E496C000E4A22EF
:101718004B224C2249C049F04AC04AF04BC04BF01A
:101728004CC04CF0120020EE01F01C50D9261D5080
:10173800DA22010EDF6E20EE02F01C50D9261D5071
:10174800DA22000EDF6E20EE01F01E50D9261F505F
:10175800DA22000EDF6E20EE02F01E50D9261F504E
:10176800DA22000EDF6E1CC0D9FF1DC0DAFFDF5081
:10177800800A340FD8A0C3EF0BF0C5EF0BF0CBEF06
:101788000BF01CC0D9FF1DC0DAFF4B0EDF6E1EC068
:10179800D9FF1FC0DAFFDF50800A340FD8A0D7EF77
:1017A8000BF0D9EF0BF0DFEF0BF01EC0D9FF1FC015
:1017B800DAFF4B0EDF6E1CC0D9FF1DC0DAFFDF5009
:1017C800050F1CC0D9FF1DC0DAFFDF6E1EC0D9FF90
:1017D8001FC0DAFFDF50050F1EC0D9FF1FC0DAFF98
:1017E800DF6E1CC016F01DC017F05DEC0AF01EC0BD
:1017F80016F01FC017F05DEC0AF0050E216E0F0EF3
:10180800206EF10EE82EFED7202EFCD7212EFAD717
:1018180000F0120020EE01F01C50D9261D50DA22EB
:10182800010EDF6E20EE02F01C50D9261D50DA2280
:10183800000EDF6E20EE01F01E50D9261F50DA226E
:10184800010EDF6E20EE02F01E50D9261F50DA225C
:10185800000EDF6E1CC0D9FF1DC0DAFFDF50800A02
:101868005C0FD8A03AEF0CF03CEF0CF042EF0CF014
:101878001CC0D9FF1DC0DAFF230EDF6E1EC0D9FFC2
:101888001FC0DAFFDF50800A510FD8A04EEF0CF0CE
:1018980050EF0CF056EF0CF01EC0D9FF1FC0DAFF56
:1018A8002E0EDF6E1CC0D9FF1DC0DAFFDF50050FFA
:1018B8001CC0D9FF1DC0DAFFDF6E1EC0D9FF1FC0D4
:1018C800DAFFDF50080F1EC0D9FF1FC0DAFFDF6E36
:1018D8001CC016F01DC017F05DEC0AF01EC016F013
:1018E8001FC017F05DEC0AF0050E216E0F0E206E7A
:1018F800F10EE82EFED7202EFCD7212EFAD700F0C5
:10190800120020EE01F01C50D9261D50DA22000EDC
:10191800DF6E20EE02F01C50D9261D50DA22000E90
:10192800DF6E20EE01F01E50D9261F50DA22010E7C
:10193800DF6E20EE02F01E50D9261F50DA22000E6C
:10194800DF6E1CC0D9FF1DC0DAFFDF50800A340FDC
:10195800D8A0B1EF0CF0B3EF0CF0B9EF0CF01CC04D
:10196800D9FF1DC0DAFF4B0EDF6E1EC0D9FF1FC0A6
:10197800DAFFDF50800A340FD8A0C5EF0CF0C7EFAC
:101988000CF0CDEF0CF01EC0D9FF1FC0DAFF4B0ED4
:10199800DF6E1CC0D9FF1DC0DAFFDF50050F1CC069
:1019A800D9FF1DC0DAFFDF6E1EC0D9FF1FC0DAFFE6
:1019B800DF50050F1EC0D9FF1FC0DAFFDF6E1CC045
:1019C80016F01DC017F05DEC0AF01EC016F01FC01F
:1019D80017F05DEC0AF0050E216E0F0E206EF10E69
:1019E800E82EFED7202EFCD7212EFAD700F01200C1
:1019F80020EE01F01C50D9261D50DA22000EDF6EB1
:101A080020EE02F01C50D9261D50DA22000EDF6E9F
:101A180020EE01F01E50D9261F50DA22000EDF6E8C
:101A280020EE02F01E50D9261F50DA22000EDF6E7B
:101A38001CC0D9FF1DC0DAFFDF50800A5C0FD8A098
:101A480028EF0DF02AEF0DF030EF0DF01CC0D9FF94
:101A58001DC0DAFF230EDF6E1EC0D9FF1FC0DAFFDC
:101A6800DF50800A510FD8A03CEF0DF03EEF0DF08B
:101A780044EF0DF01EC0D9FF1FC0DAFF2E0EDF6E37
:101A88001CC0D9FF1DC0DAFFDF50050F1CC0D9FFED
:101A98001DC0DAFFDF6E1EC0D9FF1FC0DAFFDF509E
:101AA800080F1EC0D9FF1FC0DAFFDF6E1CC016F07A
:101AB8001DC017F05DEC0AF01EC016F01FC017F02D
:101AC8005DEC0AF0050E216E0F0E206EF10EE82E69
:101AD800FED7202EFCD7212EFAD700F012003BC0EB
:101AE80027F03CC028F03DC029F03EC02AF004ECA5
:101AF8000FF0DEEF0DF0000E456E000E446E9D0EE9
:101B0800096E000E0A6E3C0E0B6E010E0C6E88EC10
:101B180013F009C041F00AC042F09FEF0DF03BC03E
:101B28001CF03CC01DF03DC01EF03EC01FF00EEC86
:101B38000CF0444A452A4150445C42504558D8A0CC
:101B4800A8EF0DF0AAEF0DF093EF0DF0B9EF0DF03F
:101B58003BC01CF03CC01DF03DC01EF03EC01FF055
:101B6800E8EC0DF04406D8A0450644504510D8A42A
:101B7800C0EF0DF0C2EF0DF0ACEF0DF0560E096E90
:101B8800000E0A6E750E0B6E000E0C6E39EC14F01A
:101B9800436E43503F6E406A3FC035F040C036F058
:101BA8003BC037F03CC038F03DC039F03EC03AF099
:101BB80020EC07F000019D51D8A4E5EF0DF0E7EF08
:101BC8000DF07FEF0DF0120020EE02F01C50D92628
:101BD8001D50DA22010EDF6E20EE02F01E50D926CB
:101BE8001F50DA22010EDF6E1CC0D9FF1DC0DAFFBC
:101BF800000EDBBE04EF0EF002EF0EF00AEF0EF05F
:101C08001CC0D9FF1DC0DAFF000EDF6E1EC0D9FF51
:101C18001FC0DAFF000EDBBE16EF0EF014EF0EF059
:101C28001CEF0EF01EC0D9FF1FC0DAFF000EDF6EDA
:101C38001CC0D9FF1DC0DAFFDF50FB0F1CC0D9FF45
:101C48001DC0DAFFDF6E1EC0D9FF1FC0DAFFDF50EC
:101C5800FB0F1EC0D9FF1FC0DAFFDF6E1CC0D9FF03
:101C68001DC0DAFF000EDF6E1EC0D9FF1FC0DAFFED
:101C7800000EDF6E1CC016F01DC017F05DEC0AF0F8
:101C88001EC016F01FC017F05DEC0AF0D00E206ED3
:101C9800CA0EE82EFED7202EFCD71200000E346E96
:101CA8002EC022F02FC023F030C024F031C025F020
:101CB800FAEC11F0050E336E0F0E326EF10EE82EAF
:101CC800FED7322EFCD7332EFAD700F077EF0EF07E
:101CD8002EC01CF02FC01DF030C01EF031C01FF008
:101CE8000EEC0CF0342A270E34647DEF0EF07FEFF3
:101CF8000EF06CEF0EF08CEF0EF02EC01CF02FC023
:101D08001DF030C01EF031C01FF0E8EC0DF03406B5
:101D18003450D8A492EF0EF094EF0EF081EF0EF04D
:101D2800050E336E0F0E326EF10EE82EFED7322EF0
:101D3800FCD7332EFAD700F02EC027F02FC028F09A
:101D480030C029F031C02AF004EC0FF01200000E68
:101D5800346E2EC022F02FC023F030C024F031C0E2
:101D680025F027EC12F0050E336E0F0E326EF10ED1
:101D7800E82EFED7322EFCD7332EFAD700F0D0EF5C
:101D88000EF02EC01CF02FC01DF030C01EF031C068
:101D98001FF00EEC0CF0342A270E3464D6EF0EF048
:101DA800D8EF0EF0C5EF0EF0E5EF0EF02EC01CF0E8
:101DB8002FC01DF030C01EF031C01FF0E8EC0DF050
:101DC80034063450D8A4EBEF0EF0EDEF0EF0DAEF56
:101DD8000EF0050E336E0F0E326EF10EE82EFED7A2
:101DE800322EFCD7332EFAD700F02EC027F02FC0A2
:101DF80028F030C029F031C02AF004EC0FF01200AE
:101E0800000E2D6E13EF0FF027C01CF028C01DF038
:101E180029C01EF02AC01FF0FCEC0CF02D2A110E70
:101E28002D6419EF0FF01BEF0FF008EF0FF028EFFC
:101E38000FF027C01CF028C01DF029C01EF02AC0D2
:101E48001FF0E8EC0DF02D062D50D8A42EEF0FF062
:101E580030EF0FF01DEF0FF0050E2C6E0F0E2B6EEE
:101E6800F10EE82EFED72B2EFCD72C2EFAD700F039
:101E780027C022F028C023F029C024F02AC025F06A
:101E880027EC12F0050E2C6E0F0E2B6EF10EE82EBD
:101E9800FED72B2EFCD72C2EFAD700F027C022F025
:101EA80028C023F029C024F02AC025F027EC12F01E
:101EB80012007D9485947D9885987B9E839E7F9C57
:101EC800879C050E0E01746F060E766F070E696FFC
:101ED800080E886FBD508F0B4009BD6EE00EBE1610
:101EE800BF50F00B0109BF6E09C0BCFFBD8E000ECC
:101EF800AA6E000EA66E000E0F01256F000E216F50
:101F0800FC0EAD16F30EAD16CF0EAD163F0EAD1688
:101F1800AB88AB50F00B0C09AB6EAB8EA788A75003
:101F2800F00B0C09A76EA78E26892651F00B0C0919
:101F3800266F268F22892251F00B0C09226F228FDF
:101F48001200000E2D6EB4EF0FF027C01CF028C051
:101F58001DF029C01EF02AC01FF0FCEC0CF02D2A41
:101F6800270E2D64BAEF0FF0BCEF0FF0A9EF0FF0BA
:101F7800C9EF0FF027C01CF028C01DF029C01EF0C3
:101F88002AC01FF0E8EC0DF02D062D50D8A4CFEF95
:101F98000FF0D1EF0FF0BEEF0FF0050E2C6E0F0E05
:101FA8002B6EF10EE82EFED72B2EFCD72C2EFAD74F
:101FB80000F027C022F028C023F029C024F02AC04E
:101FC80025F0FAEC11F01200000E2D6EF7EF0FF06D
:101FD80027C01CF028C01DF029C01EF02AC01FF021
:101FE800FCEC0CF02D2A110E2D64FDEF0FF0FFEF25
:101FF8000FF0ECEF0FF00CEF10F027C01CF028C02A
:102008001DF029C01EF02AC01FF0E8EC0DF02D06C7
:102018002D50D8A412EF10F014EF10F001EF10F0CB
:10202800050E2C6E0F0E2B6EF10EE82EFED72B2E02
:10203800FCD72C2EFAD700F027C022F028C023F0B6
:1020480029C024F02AC025F0FAEC11F01200000E85
:102058002D6E3AEF10F027C01CF028C01DF029C0E3
:102068001EF02AC01FF0FCEC0CF02D2A270E2D6460
:1020780040EF10F042EF10F02FEF10F04FEF10F09C
:1020880027C01CF028C01DF029C01EF02AC01FF070
:10209800E8EC0DF02D062D50D8A455EF10F057EFB1
:1020A80010F044EF10F0050E2C6E0F0E2B6EF10E93
:1020B800E82EFED72B2EFCD72C2EFAD700F027C0FF
:1020C80022F028C023F029C024F02AC025F027ECEC
:1020D80012F01200000E2D6E7DEF10F027C01CF0DC
:1020E80028C01DF029C01EF02AC01FF0FCEC0CF01F
:1020F8002D2A110E2D6483EF10F085EF10F072EF8A
:1021080010F092EF10F027C01CF028C01DF029C075
:102118001EF02AC01FF0E8EC0DF02D062D50D8A4B3
:1021280098EF10F09AEF10F087EF10F0050E2C6E74
:102138000F0E2B6EF10EE82EFED72B2EFCD72C2E71
:10214800FAD700F027C022F028C023F029C024F0D5
:102158002AC025F0A0EC11F01200000E2D6EC0EF81
:1021680010F027C01CF028C01DF029C01EF02AC09E
:102178001FF0FCEC0CF02D2A110E2D64C6EF10F0A8
:10218800C8EF10F0B5EF10F0D5EF10F027C01CF035
:1021980028C01DF029C01EF02AC01FF0E8EC0DF081
:1021A8002D062D50D8A4DBEF10F0DDEF10F0CAEFAC
:1021B80010F0050E2C6E0F0E2B6EF10EE82EFED7CA
:1021C8002B2EFCD72C2EFAD700F027C022F028C0DF
:1021D80023F029C024F02AC025F0CDEC11F012001C
:1021E800000E2D6E03EF11F027C01CF028C01DF063
:1021F80029C01EF02AC01FF0FCEC0CF02D2A110E8D
:102208002D6409EF11F00BEF11F0F8EF10F018EF53
:1022180011F027C01CF028C01DF029C01EF02AC0EC
:102228001FF0E8EC0DF02D062D50D8A41EEF11F08C
:1022380020EF11F00DEF11F0050E2C6E0F0E2B6E26
:10224800F10EE82EFED72B2EFCD72C2EFAD700F055
:1022580027C022F028C023F029C024F02AC025F086
:1022680027EC12F01200000E146E000E136E1150BF
:102278001210D8B442EF11F044EF11F06CEF11F0E6
:10228800010E156E4CEF11F0D89011361236152A42
:1022980012AE51EF11F053EF11F048EF11F0D89052
:1022A8001336143611500F5C12501058D8A05FEF37
:1022B80011F061EF11F066EF11F011500F5E12503E
:1022C800105A1380D89012321132152E53EF11F094
:1022D80013C00FF014C010F0120054EC12F014C028
:1022E800D9FF15C0DAFF0DC0DEFF0EC0DDFF7CECA4
:1022F80012F020EE02F01450D9261550DA220DC043
:10230800DEFF0EC0DDFFCCEC12F020EE04F014501E
:10231800D9261550DA220DC0DEFF0EC0DDFFA4EC71
:1023280012F020EE06F01450D9261550DA220DC00E
:10233800DEFF0EC0DDFF1200000E266EAFEF11F0BB
:1023480022C01CF023C01DF024C01EF025C01FF0C1
:1023580097EC0BF0262A150E2664B5EF11F0B7EFAF
:1023680011F0A4EF11F0C4EF11F022C01CF023C04B
:102378001DF024C01EF025C01FF0E8EC0DF0260665
:102388002650D8A4CAEF11F0CCEF11F0B9EF11F034
:102398001200000E266EDCEF11F022C01CF023C0E4
:1023A8001DF024C01EF025C01FF085EC0CF0262A75
:1023B800150E2664E2EF11F0E4EF11F0D1EF11F001
:1023C800F1EF11F022C01CF023C01DF024C01EF054
:1023D80025C01FF0E8EC0DF026062650D8A4F7EF2C
:1023E80011F0F9EF11F0E6EF11F01200000E266E71
:1023F80009EF12F022C01CF023C01DF024C01EF00B
:1024080025C01FF097EC0BF0262A120E26640FEF5A
:1024180012F011EF12F0FEEF11F01EEF12F022C0D1
:102428001CF023C01DF024C01EF025C01FF0E8ECEE
:102438000DF026062650D8A424EF12F026EF12F04D
:1024480013EF12F01200000E266E36EF12F022C0C3
:102458001CF023C01DF024C01EF025C01FF085EC21
:102468000CF0262A120E26643CEF12F03EEF12F012
:102478002BEF12F04BEF12F022C01CF023C01DF01E
:1024880024C01EF025C01FF0E8EC0DF026062650EB
:10249800D8A451EF12F053EF12F040EF12F01200EF
:1024A800D1EC14F0520EBBEC14F0B60EBBEC14F0E9
:1024B800C7EC14F0530EBBEC14F0010E67EC13F0EC
:1024C8000F6E0F50126E136A000E67EC13F00F6E4A
:1024D8000F50116E106A12501010126E1350111016
:1024E800136ECCEC14F012C00DF013C00EF01200F5
:1024F800D1EC14F0520EBBEC14F0B80EBBEC14F097
:10250800C7EC14F0530EBBEC14F0010E67EC13F09B
:102518000F6E0F50126E136A000E67EC13F00F6EF9
:102528000F50116E106A12501010126E13501110C5
:10253800136ECCEC14F012C00DF013C00EF01200A4
:10254800D1EC14F0520EBBEC14F0B40EBBEC14F04A
:10255800C7EC14F0530EBBEC14F0010E67EC13F04B
:102568000F6E0F50126E136A000E67EC13F00F6EA9
:102578000F50116E106A12501010126E1350111075
:10258800136ECCEC14F012C00DF013C00EF0120054
:10259800D1EC14F0520EBBEC14F0BA0EBBEC14F0F4
:1025A800C7EC14F0530EBBEC14F0010E67EC13F0FB
:1025B8000F6E0F50126E136A000E67EC13F00F6E59
:1025C8000F50116E106A12501010126E1350111025
:1025D800136ECCEC14F012C00DF013C00EF0120004
:1025E800130E0B6E000E5AEC14F03F0E0D6E550EC6
:1025F800E82EFED70D2EFCD700F0040E0B6E0C0E45
:102608005AEC14F04FC00BF0040E5AEC14F0505072
:102618000B6E050E5AEC14F0D3C00BF0060E5AECF4
:1026280014F00001D4510B6E070E5AEC14F012008E
:10263800130E036E000E7AEC14F03F0E056E550E65
:10264800E82EFED7052EFCD700F0040E036E0C0E04
:102658007AEC14F04FC003F0040E7AEC14F05050EA
:10266800036E050E7AEC14F0D3C003F0060E7AEC74
:1026780014F00001D451036E070E7AEC14F0120026
:10268800C80EF66E290EF76E000EF86E0900F5CF2B
:10269800D3F00900F5CFD4F001EE00F08C0EEE6A0D
:1026A800E806FDE100EE60F03E0EEE6AE806FDE1A8
:1026B80000EE4FF0080EEE6AE806FDE157905792DB
:1026C800000162EF08F00B6EECEC13F00E01DA87F4
:1026D800ECEC13F0D5CE0CF0ECEC13F00B50D8B4B6
:1026E80078EF13F07CEF13F00A6A0A2A7DEF13F0F3
:1026F8000A6A0A3A0A460E01DA510A18DF0B0A1862
:10270800DA6FDA890C50120009C0D9FF0AC0DAFF63
:10271800DF06DF500D6E0D50020DF3CF0EF0F4CF33
:102728000FF00E500B24D96E0F500C20DA6EDECF4E
:1027380010F0DDCF11F010C009F011C00AF012003E
:10274800D7EC13F0010E0B6E000E5AEC14F03F0E8E
:102758000D6E550EE82EFED70D2EFCD700F0030E99
:102768000B6E000E5AEC14F0D50E0B6E010E5AECDF
:1027780014F012000BC0D9FF0CC0DAFFDFCF0FF046
:10278800010EDF260F50020DF3CF10F0F4CF11F039
:1027980010500D24D96E11500E20DA6E09C0DEFFDC
:1027A8000AC0DDFF12000E01D951F00B0809D96FDC
:1027B800D98B9F0ED66F848A848CA79BA79D1D0EEC
:1027C8001D6F1E0E1C6F1C0E6F6F1B0E706F12009C
:1027D8000E01D8B5F2EF13F0F4EF13F0ECEF13F0AD
:1027E800DACE09F01F0E0916D8A4FDEF13F0FFEF9B
:1027F80013F0ECEF13F012000E01D8B506EF14F049
:1028080008EF14F000EF14F0DACE01F01F0E0116F5
:10281800D8A411EF14F013EF14F000EF14F0120025
:1028280009500B02F3CF0DF0F4CF0EF009500C0253
:10283800F3500E260A500B02F3500E260DC009F075
:102848000EC00AF012000E6E09C0D9FF0AC0DAFFE6
:10285800DFCF0DF0010EDF260D500B24D96E000ED0
:102868000C20DA6E0EC0DFFF120009C0D9FF0AC0C3
:10287800DAFFDF06DF500D6E0D500B24D96E000E07
:102888000C20DA6EDF500E6E0E501200D6501F0B61
:102898004009D66ED688D650F00B0809D66ED58872
:1028A800C20ED46EF60ED36ED58E12000C6ED1EC1D
:1028B80014F0520EBBEC14F00C508009BBEC14F071
:1028C8000B50BBEC14F0CCEC14F012000E0133A347
:1028D80070EF14F072EF14F078EF14F0010E556EEB
:1028E800A6EC14F00E01339357921100046EDBEC42
:1028F80014F0520EC1EC14F004508009C1EC14F02D
:102908000350C1EC14F0D6EC14F0120082820E01D0
:102918009A9329831F83F292298B1F9B2D8799EC09
:1029280014F0F28AF28CF28E1200D1EC14F0520EEE
:10293800BBEC14F0E60EBBEC14F0CCEC14F0F4ECA9
:1029480012F01200DBEC14F0520EC1EC14F0E60E9B
:10295800C1EC14F0D6EC14F01CEC13F012008792C2
:102968008198869E809688967C9E849E12000A6E28
:10297800ECEC13F00AC0D5FE1200026E00EC14F065
:1029880002C0D5FE1200ECEC13F00E01DA8312003F
:10299800ECEC13F00E01DA851200ECEC13F00E01EA
:1029A800DA81120000EC14F00E01DA85120000EC56
:1029B80014F00E01DA8112007F8279887E8E12006F
:0229C800540BAE
:020000040020DA
:10000000FF0FFF0FFF0FFF0FFF0FFF0FFF0FFF0F80
:020000040030CA
:0C000000AAFFFFFF9FFFFFFFFFFFFFFFB5
:00000001FF
