:040000002CEF00F0F1
:0600080057820CEF15F019
:100018005780D8CF06F0E8CF07F0E0CF08F00E0100
:1000280033AB19EF00F01BEF00F024EF00F00B0EDC
:10003800D46EDB0ED36E010E0001756F0E01339B7B
:1000480008C0E0FF07C0E8FF06C0D8FF57901000BF
:1000580006EF14F0000E0001B16F000E346E000EB2
:10006800356EC80E366E420E376E20EE04F0A35180
:10007800D926A451DA22DECFA5F0DDCFA6F020EEF6
:1000880002F0A351D926A451DA22DECFA7F0DDCFA2
:10009800A8F0A3C0D9FFA4C0DAFFDECFA9F0DDCF56
:1000A800AAF0A751A925AB6FA851AA21AC6FA551F9
:1000B800AB25AD6FA651AC21AE6FADC009F0AEC097
:1000C8000AF00B6A0C6A000EDCEC09F009C01BF0A0
:1000D8000AC01CF00BC01DF00CC01EF0A3C0D9FF55
:1000E800A4C0DAFFDECFAFF0DDCFB0F0AFC009F0CB
:1000F800B0C00AF00B6A0C6A000EDCEC09F009C00B
:1001080017F00AC018F00BC019F00CC01AF053EC25
:1001180005F017C030F018C031F019C032F01AC01D
:1001280033F03EEC03F030C049F031C04AF032C041
:100138004BF033C04CF06CEC0BF049500001B26F3F
:10014800000E346E000E356EC80E366E420E376ED7
:1001580020EE04F0A351D926A451DA22DECFA5F06F
:10016800DDCFA6F020EE02F0A351D926A451DA2261
:10017800DECFA7F0DDCFA8F0A3C0D9FFA4C0DAFF77
:10018800DECFA9F0DDCFAAF0A751A925AB6FA85102
:10019800AA21AC6FA551AB25AD6FA651AC21AE6FAE
:1001A800ADC009F0AEC00AF00B6A0C6A000EDCECB8
:1001B80009F009C01BF00AC01CF00BC01DF00CC0F0
:1001C8001EF0000120EE02F0A351D926A451DA2234
:1001D800DECFAFF0DDCFB0F0AFC009F0B0C00AF0AD
:1001E8000B6A0C6A000EDCEC09F009C017F00AC0B3
:1001F80018F00BC019F00CC01AF053EC05F017C03A
:1002080030F018C031F019C032F01AC033F03EECAB
:1002180003F030C049F031C04AF032C04BF033C06F
:100228004CF06CEC0BF049500001B36F000E346ECB
:10023800000E356EC80E366E420E376E20EE04F094
:10024800A351D926A451DA22DECFA5F0DDCFA6F03E
:1002580020EE02F0A351D926A451DA22DECFA7F06E
:10026800DDCFA8F0A3C0D9FFA4C0DAFFDECFA9F084
:10027800DDCFAAF0A751A925AB6FA851AA21AC6F71
:10028800A551AB25AD6FA651AC21AE6FADC009F03D
:10029800AEC00AF00B6A0C6A000EDCEC09F009C06B
:1002A8001BF00AC01CF00BC01DF00CC01EF00001B2
:1002B80020EE04F0A351D926A451DA22DECFAFF004
:1002C800DDCFB0F0AFC009F0B0C00AF00B6A0C6A1D
:1002D800000EDCEC09F009C017F00AC018F00BC0DA
:1002E80019F00CC01AF053EC05F017C030F018C024
:1002F80031F019C032F01AC033F03EEC03F030C0D0
:1003080049F031C04AF032C04BF033C04CF06CECCD
:100318000BF049500001B46F7651D8B496EF01F054
:1003280098EF01F03AEF03F0490EB2659EEF01F045
:10033800A0EF01F0CCEF01F04D0EB261A6EF01F095
:10034800A8EF01F0CCEF01F0090EB365AEEF01F0B4
:10035800B0EF01F0CCEF01F00D0EB361B6EF01F094
:10036800B8EF01F0CCEF01F00C0EB465BEEF01F070
:10037800C0EF01F0CCEF01F0100EB461C6EF01F050
:10038800C8EF01F0CCEF01F0010EB16F3AEF03F0C6
:10039800230EB265D2EF01F0D4EF01F000EF02F0C6
:1003A800270EB261DAEF01F0DCEF01F000EF02F0A6
:1003B800280EB365E2EF01F0E4EF01F000EF02F080
:1003C8002C0EB361EAEF01F0ECEF01F000EF02F060
:1003D800130EB465F2EF01F0F4EF01F000EF02F054
:1003E800170EB461FAEF01F0FCEF01F000EF02F034
:1003F800020EB16F3AEF03F01C0EB26506EF02F081
:1004080008EF02F034EF02F0230EB2610EEF02F0B3
:1004180010EF02F034EF02F01F0EB36516EF02F092
:1004280018EF02F034EF02F0270EB3611EEF02F06E
:1004380020EF02F034EF02F01E0EB46526EF02F052
:1004480028EF02F034EF02F0260EB4612EEF02F02E
:1004580030EF02F034EF02F0030EB16F3AEF03F021
:10046800310EB2653AEF02F03CEF02F068EF02F0AD
:10047800350EB26142EF02F044EF02F068EF02F08D
:100488001D0EB3654AEF02F04CEF02F068EF02F080
:10049800210EB36152EF02F054EF02F068EF02F060
:1004A800100EB4655AEF02F05CEF02F068EF02F04C
:1004B800140EB46162EF02F064EF02F068EF02F02C
:1004C800040EB16F3AEF03F02F0EB2656EEF02F033
:1004D80070EF02F09CEF02F0330EB26176EF02F09B
:1004E80078EF02F09CEF02F01B0EB3657EEF02F08E
:1004F80080EF02F09CEF02F01F0EB36186EF02F06E
:1005080088EF02F09CEF02F0140EB4658EEF02F053
:1005180090EF02F09CEF02F0180EB46196EF02F033
:1005280098EF02F09CEF02F0050EB16F3AEF03F07E
:100538003A0EB265A2EF02F0A4EF02F0D0EF02F09B
:100548003E0EB261AAEF02F0ACEF02F0D0EF02F07B
:10055800150EB365B2EF02F0B4EF02F0D0EF02F07F
:10056800190EB361BAEF02F0BCEF02F0D0EF02F05F
:100578000F0EB465C2EF02F0C4EF02F0D0EF02F044
:10058800130EB461CAEF02F0CCEF02F0D0EF02F024
:10059800060EB16F3AEF03F0200EB265D6EF02F007
:1005A800D8EF02F004EF03F0240EB261DEEF02F0A0
:1005B800E0EF02F004EF03F0250EB365E6EF02F07A
:1005C800E8EF02F004EF03F0290EB361EEEF02F05A
:1005D800F0EF02F004EF03F0190EB465F6EF02F045
:1005E800F8EF02F004EF03F01D0EB461FEEF02F025
:1005F80000EF03F004EF03F0070EB16F3AEF03F0DA
:100608002A0EB2650AEF03F00CEF03F038EF03F09F
:100618002E0EB26112EF03F014EF03F038EF03F07F
:100628001F0EB3651AEF03F01CEF03F038EF03F069
:10063800230EB36122EF03F024EF03F038EF03F049
:10064800150EB4652AEF03F02CEF03F038EF03F032
:10065800190EB46132EF03F034EF03F038EF03F012
:10066800080EB16F3AEF03F0000EB16F000E766F0F
:10067800B15112003350800B3C6E33503324426E1C
:1006880032AE49EF03F04BEF03F04CEF03F042803A
:100698004250D8B452EF03F054EF03F067EF03F081
:1006A8004228D8A45AEF03F05CEF03F064EF03F09C
:1006B800000E306E000E316E000E326E000E336E7C
:1006C800328E6FEF03F0000E306E000E316E000EAA
:1006D800326E000E336E3750800B3C1A3750372479
:1006E800416E36AE7AEF03F07CEF03F07DEF03F056
:1006F80041804150D8B483EF03F085EF03F098EFC1
:1007080003F04128D8A48BEF03F08DEF03F095EFA9
:1007180003F0000E346E000E356E000E366E000EBD
:10072800376E368EA0EF03F0000E346E000E356E75
:10073800000E366E000E376E4150D8B4A6EF03F0A7
:10074800A8EF03F0B0EF03F04250D8A4AEEF03F0E7
:10075800B0EF03F0BAEF03F0000E306E000E316E0A
:10076800000E326E000E336E52EF05F03650300236
:10077800F3CF47F0F4CF48F047503D6E3E6A3F6AEA
:10078800406A4850436E446A456A466A35503102A9
:10079800F3CF47F0F4CF48F047503D26000E3E22F5
:1007A8003F22402248504326000E4422452246223A
:1007B80034503202F3CF47F0F4CF48F047503D268B
:1007C800000E3E223F22402248504326000E44227B
:1007D800452246223FC040F03EC03FF03DC03EF0BB
:1007E8003D6A34503102F3CF47F0F4CF48F0475018
:1007F8003D2648503E22000E3F22000E4022355032
:100808003002F3CF47F0F4CF48F047503D26485028
:100818003E22000E3F22000E40223FC040F03EC064
:100828003FF03DC03EF03D6A34503002F3CF47F010
:10083800F4CF48F047503D2648503E22000E3F2254
:10084800000E402236503102F3CF47F0F4CF48F083
:100858004750432648504422000E4522000E4622A7
:1008680035503202F3CF47F0F4CF48F047504326D3
:1008780048504422000E4522000E462236503202CD
:10088800F3CF47F0F4CF48F04750386E4850396EF0
:100898003A6A3B6A3AC03BF039C03AF038C039F09E
:1008A800386A38504326395044223A5045223B5042
:1008B80046223DC038F03EC039F03FC03AF040C053
:1008C8003BF0190E6DEF04F0D8903B323A323932D2
:1008D8003832E82E68EF04F0385043263950442265
:1008E8003A5045223B5046223FC040F03EC03FF0C0
:1008F8003DC03EF03D6A415042C038F0396A382662
:10090800000E3922820E3824476EFF0E3920486EB9
:10091800A3EF04F0D890433644364536463640AE09
:1009280098EF04F09AEF04F09BEF04F04380D8901E
:100938003D363E363F3640364706D8A0480645AED7
:10094800A8EF04F0AAEF04F08EEF04F0000E416E59
:1009580040AEB1EF04F0B3EF04F0D7EF04F0FF0EB0
:100968003D14386EFF0E3E14396EFF0E3F143A6E7A
:100978007F0E40143B6E385039103A103B10D8B4F3
:10098800C8EF04F0CAEF04F0CEEF04F0010E416E98
:10099800D7EF04F043A0D3EF04F0D5EF04F0D7EF7E
:1009A80004F0CAEF04F04150D8B4DDEF04F0DFEFF3
:1009B80004F003EF05F0010E4326000E4422452201
:1009C800462246A0EAEF04F0ECEF04F003EF05F04E
:1009D80043C038F044C039F045C03AF046C03BF057
:1009E8003B343B323A323932383238C043F039C0BE
:1009F80044F03AC045F03BC046F0474A482A48BE52
:100A08000EEF05F0485008E14728D8A00EEF05F092
:100A180010EF05F01AEF05F0000E436E000E446E5D
:100A2800800E456E7F0E466E48EF05F048BE27EFF4
:100A380005F0485006E14704D8B025EF05F027EF48
:100A480005F033EF05F0000E436E000E446E000E05
:100A5800456E000E466E000E3C6E48EF05F047C02E
:100A680042F0FF0E4316FF0E44167F0E4516000E89
:100A7800461642A042EF05F044EF05F045EF05F0B9
:100A8800458ED8904230466E3C50461243C030F0F6
:100A980044C031F045C032F046C033F012001A505D
:100AA800800B276E1A501A242E6E19AE5EEF05F0D1
:100AB80060EF05F061EF05F02E802E50D8B467EF97
:100AC80005F069EF05F07EEF05F02E28D8A46FEF4A
:100AD80005F071EF05F079EF05F0000E176E000EC6
:100AE800186E000E196E000E1A6E198E000E1A6E10
:100AF80086EF05F0000E176E000E186E000E196EC8
:100B0800000E1A6E1E50800B271A1E501E242F6EC0
:100B18001DAE91EF05F093EF05F094EF05F02F80EF
:100B28002F50D8B49AEF05F09CEF05F0B1EF05F01F
:100B38002F28D8A4A2EF05F0A4EF05F0ACEF05F03C
:100B4800000E1B6E000E1C6E000E1D6E000E1E6E3B
:100B58001D8E000E1E6EB9EF05F0000E1B6E000E06
:100B68001C6E000E1D6E000E1E6E1B501C101D10FC
:100B78001E10D8A4C2EF05F0C4EF05F0DCEF05F0B5
:100B8800000E176E000E186E000E196E000E1A6E0B
:100B9800800E19127F0E1A1227501A1217C017F05A
:100BA80018C018F019C019F01AC01AF01FEF07F092
:100BB8002E50D8A4E2EF05F0E4EF05F0EEEF05F0D3
:100BC800000E176E000E186E000E196E000E1A6ECB
:100BD8001FEF07F02F502EC01FF0206A1F5E000E77
:100BE800205A7F0E1F24286E000E2020296E17C061
:100BF80023F018C024F019C025F01AC026F0000E02
:100C0800176E000E186E000E196E000E1A6E000E8A
:100C18002A6E000E2B6E000E2C6E000E2D6E000E2E
:100C28002F6E4FEF06F02F50D8B41DEF06F01FEFD0
:100C380006F036EF06F0D8902336243625362636C9
:100C4800D8901736183619361A362DAE2EEF06F00C
:100C580030EF06F031EF06F01780D8902A362B36A1
:100C68002C362D361B50235C1C5024581D502558FB
:100C78001E502658D8A043EF06F045EF06F04EEF79
:100C880006F02D8C1B50235E1C50245A1D50255AEB
:100C98001E50265A2F2A190E2F6455EF06F057EFCB
:100CA80006F017EF06F02350241025102610D8B4AC
:100CB80060EF06F062EF06F07AEF06F02A807AEF2E
:100CC80006F0D8901736183619361A362DAE6FEF4B
:100CD80006F071EF06F072EF06F01780D8902A360A
:100CE8002B362C362D362806D8A0290619AE7FEFCC
:100CF80006F081EF06F065EF06F0000E2F6E2DAEC0
:100D080088EF06F08AEF06F0AEEF06F0FF0E2A1421
:100D18001F6EFF0E2B14206EFF0E2C14216E7F0EFB
:100D28002D14226E1F50201021102210D8B49FEFCE
:100D380006F0A1EF06F0A5EF06F0010E2F6EAEEF5C
:100D480006F017A0AAEF06F0ACEF06F0AEEF06F03B
:100D5800A1EF06F02F50D8B4B4EF06F0B6EF06F0C6
:100D6800DAEF06F0010E1726000E182219221A22B1
:100D78001AA0C1EF06F0C3EF06F0DAEF06F017C0CD
:100D88001FF018C020F019C021F01AC022F0223438
:100D98002232213220321F321FC017F020C018F033
:100DA80021C019F022C01AF0284A292A29BEE5EFE5
:100DB80006F0295008E12828D8A0E5EF06F0E7EF6B
:100DC80006F0F2EF06F0000E296E2868000E176E86
:100DD800000E186E000E196E000E1A6E29BEFFEF77
:100DE80006F0295006E12804D8B0FDEF06F0FFEF21
:100DF80006F00DEF07F0000E296E000E286E000EAB
:100E0800176E000E186E000E196E000E1A6E000E88
:100E1800276E28C02EF02EA014EF07F016EF07F06B
:100E280019EF07F0198E1AEF07F0199ED8902E3097
:100E38001A6ED0EF05F01200000E0001BC6F000E14
:100E4800BB6F000EBE6F000EBD6F000EC06F000EB0
:100E5800BF6F000EC26F000EC16F5CEC15F066EC40
:100E680014F04DEC15F01DEC15F0000E0A6E630E33
:100E7800096E65EC10F0000E0001C36F010EC46F1F
:100E8800010EC56FAA0EC86F0F0EC96FA60ECA6FE6
:100E98000F0ECB6FBCCFC6F0C76B000ECC6F010E28
:100EA800CD6F010ECE6F250ED16F0F0ED26F210EB2
:100EB800D36F0F0ED46FBCCFCFF0D06B000EBA6FCC
:100EC800000EB76F8EB46BEF07F06DEF07F066EFAB
:100ED80007F0000E0001766FA8EC15F0000E000177
:100EE800B96F000EB86FB7EF07F0C30E1C6E000E97
:100EF8001D6ECC0E1E6E000E1F6E67EC0CF0BB0E46
:100F0800146E000E156EE7EC12F0BB0E0001A36F15
:100F1800000EA46F2EEC00F00001BA6FB84BB92B8D
:100F28006D0EC15D070EC259D8A09DEF07F09FEF67
:100F380007F0ABEF07F0980EC15D080EC259D8B0A4
:100F4800A8EF07F0AAEF07F0ABEF07F0B72B640E96
:100F5800B765B1EF07F0B3EF07F0B7EF07F0010E91
:100F6800746F080EBA6FBA51D8B4BDEF07F0BFEF6F
:100F780007F079EF07F0BA51D8B4C5EF07F0C7EF1B
:100F880007F024EF08F0080EBA19D8B4CEEF07F02E
:100F9800D0EF07F024EF08F0FA0EB825096EFF0E1F
:100FA800B9210A6E550E0B6E000E0C6E3C0E0D6EBE
:100FB800010E0E6E80EC14F08086F1EF07F0C30E80
:100FC8001C6E000E1D6ECC0E1E6E000E1F6E42ECC7
:100FD8000EF00001B807D8A0B9070001B851B9113F
:100FE800D8A4F9EF07F0FBEF07F0E3EF07F0090EDD
:100FF8000001B66F1E0EB56FE40EE82EFED7B52FB2
:10100800FCD7B62FFAD700F080960001BA51B56F19
:10101800B66BB5C035F0B6C036F0C30E376E000EED
:10102800386ECC0E396E000E3A6E9AEC08F0000E4F
:101038000001BA6F000E766F000EB76F72EF07F0FF
:10104800080EBA19D8A42BEF08F02DEF08F072EFAC
:1010580007F07451D8B433EF08F035EF08F04DEFCE
:1010680008F0B751B85DB56F000EB959B66FFA0EF2
:10107800B525096EFF0EB6210A6E550E0B6E000ED1
:101088000C6E3C0E0D6E010E0E6E80EC14F05DEFD2
:1010980008F0FA0EB825096EFF0EB9210A6E550E32
:1010A8000B6E000E0C6E3C0E0D6E010E0E6E80EC7B
:1010B80014F07C8E6EEF08F0C30E1C6E000E1D6ED1
:1010C800CC0E1E6E000E1F6E42EC0EF00001B8072B
:1010D800D8A0B9070001B851B911D8A476EF08F023
:1010E80078EF08F060EF08F0090E0001B66F1E0EE9
:1010F800B56FE40EE82EFED7B52FFCD7B62FFAD77A
:1011080000F0C30E3B6E000E3C6ECC0E3D6E000E22
:101118003E6ECCEC0DF07C9E000E0001BA6F000E06
:10112800B76F030072EF07F02CEF00F035043610AC
:10113800D8A4A1EF08F0A3EF08F0C1EF08F037C07A
:1011480027F038C028F039C029F03AC02AF0B9ECA5
:1011580011F07CBEB2EF08F0B4EF08F0DBEF09F055
:10116800560E096E000E0A6E770E0B6E000E0C6E90
:10117800020EE9EC14F0DBEF09F0020E3518361018
:10118800D8A4C9EF08F0CBEF08F0E9EF08F037C0B2
:1011980027F038C028F039C029F03AC02AF0FCEC12
:1011A80011F07CBEDAEF08F0DCEF08F0DBEF09F0B5
:1011B800560E096E000E0A6E770E0B6E000E0C6E40
:1011C800010EE9EC14F0DBEF09F0030E35183610C8
:1011D800D8A4F1EF08F0F3EF08F011EF09F037C0E9
:1011E80027F038C028F039C029F03AC02AF05EEC60
:1011F8000FF07CBE02EF09F004EF09F0DBEF09F015
:10120800560E096E000E0A6E770E0B6E000E0C6EEF
:10121800030EE9EC14F0DBEF09F0040E3518361074
:10122800D8A419EF09F01BEF09F039EF09F037C01E
:1012380027F038C028F039C029F03AC02AF0ADECC0
:1012480010F07CBE2AEF09F02CEF09F0DBEF09F073
:10125800560E096E000E0A6E770E0B6E000E0C6E9F
:10126800090EE9EC14F0DBEF09F0050E351836101D
:10127800D8A441EF09F043EF09F061EF09F037C056
:1012880027F038C028F039C029F03AC02AF0F0EC2D
:1012980010F07CBE52EF09F054EF09F0DBEF09F0D3
:1012A800560E096E000E0A6E770E0B6E000E0C6E4F
:1012B8000A0EE9EC14F0DBEF09F0060E35183610CB
:1012C800D8A469EF09F06BEF09F089EF09F037C08E
:1012D8002CF038C02DF039C02EF03AC02FF033EC86
:1012E80011F07CBE7AEF09F07CEF09F0DBEF09F032
:1012F800560E096E000E0A6E770E0B6E000E0C6EFF
:10130800070EE9EC14F0DBEF09F0070E351836107C
:10131800D8A491EF09F093EF09F0B1EF09F037C0C5
:101328002CF038C02DF039C02EF03AC02FF076ECF2
:1013380011F07CBEA2EF09F0A4EF09F0DBEF09F091
:10134800560E096E000E0A6E770E0B6E000E0C6EAE
:10135800060EE9EC14F0DBEF09F0090E351836102B
:10136800D8A4B9EF09F0BBEF09F0C7EF09F037C00F
:101378002EF038C02FF039C030F03AC031F0ACEC64
:101388000EF0DBEF09F00A0E35183610D8A4CFEFAF
:1013980009F0D1EF09F0DBEF09F037C02EF038C0C3
:1013A8002FF039C030F03AC031F005EC0FF01200E0
:1013B800116E1150D8B4E3EF09F0E5EF09F007EF2B
:1013C8000AF00CBEECEF09F0EAEF09F007EF0AF0BB
:1013D80009C00DF00AC00EF00BC00FF00CC010F0E1
:1013E8000D1E0E1E0F1E101E0D2A000E0E220F229D
:1013F80010220DC013F00EC014F00FC015F010C06D
:1014080016F00FEF0AF009C013F00AC014F00BC071
:1014180015F00CC016F009500A100B100C10D8A4C7
:1014280018EF0AF01AEF0AF024EF0AF0000E096E1E
:10143800000E0A6E000E0B6E000E0C6EB5EF0AF071
:10144800960E126E2EEF0AF0122AD8901632153226
:1014580014321332000E13140D6E000E14140E6E97
:10146800000E15140F6EFE0E1614106E0D500E1091
:101478000F101010D8A443EF0AF045EF0AF028EF38
:101488000AF053EF0AF0122A010E1326000E142256
:1014980015221622D8901632153214321332000E45
:1014A80013140D6E000E14140E6E000E15140F6E2C
:1014B800FF0E1614106E0D500E100F101010D8A439
:1014C80068EF0AF06AEF0AF047EF0AF072EF0AF0E5
:1014D8001206D890133614361536163615BE77EF21
:1014E8000AF079EF0AF081EF0AF0020E12607FEF3E
:1014F8000AF081EF0AF06CEF0AF012B086EF0AF0FA
:1015080088EF0AF089EF0AF0159ED890123212C0BF
:101518000DF00E6A0F6A106A0DC010F00F6A0E6A9D
:101528000D6A0D5013120E5014120F501512105050
:1015380016121150D8B4A3EF0AF0A5EF0AF0ADEFD8
:101548000AF00CBEACEF0AF0AAEF0AF0ADEF0AF011
:10155800168E13C009F014C00AF015C00BF016C09F
:101568000CF0120020EE02F01650D9261750DA229D
:10157800DF50D8B4C2EF0AF0C4EF0AF0F8EF0AF06F
:1015880016C0D9FF17C0DAFFDF50096E0A6A09BE14
:101598000A0620EE03F01650D9261750DA22DECFBD
:1015A8000BF0DDCF0CF0D6EC14F009C00FF00AC038
:1015B80010F0000E126E640E116E3FEC12F020EE69
:1015C80003F01650D9261750DA22DF50186E0F5044
:1015D800185C1A6E20EE03F01650D9261750DA223E
:1015E800DF501B6E1BEF0BF0000E1A6E16C0D9FFF2
:1015F80017C0DAFFDF50096E0A6A09BE0A0620EE34
:1016080003F01650D9261750DA22DECF0BF0DDCFC3
:101618000CF0D6EC14F009C00FF00AC010F0000E60
:10162800126E640E116E3FEC12F00F501B6E20EE1E
:1016380001F01650D9261750DA22DF50D8B427EF18
:101648000BF029EF0BF04BEF0BF020EE05F01650E6
:10165800D9261750DA22DECF18F0DDCF19F018C0DE
:10166800D9FF19C0DAFF1AC0DFFF20EE07F01650C5
:10167800D9261750DA22DECF18F0DDCF19F018C0BE
:10168800D9FF19C0DAFF1BC0DFFF6BEF0BF020EEAC
:1016980005F01650D9261750DA22DECF18F0DDCF24
:1016A80019F018C0D9FF19C0DAFF1BC0DFFF20EE00
:1016B80007F01650D9261750DA22DECF18F0DDCF02
:1016C80019F018C0D9FF19C0DAFF1AC0DFFF1200DD
:1016D8004B344C344E6E4E50D8A475EF0BF077EF68
:1016E8000BF081EF0BF0000E496E000E4A6E000EF3
:1016F8004B6E000E4C6EEFEF0BF049C09FF04AC0E6
:10170800A0F04BC0A1F04CC0A2F0200E92EF0BF05D
:101718000001D890A233A133A0339F33E82E8CEF79
:101728000BF09F514D6E4B8EFF0E4916FF0E4A1659
:10173800FF0E4B16000E4C16960E4E5E4EBEA9EFCF
:101748000BF0A7EF0BF0BFEF0BF04E50800A970F8E
:10175800D8B0B1EF0BF0B3EF0BF0B5EF0BF077EFBC
:101768000BF0D8904C324B324A3249324E3EB5EFEC
:101778000BF0D7EF0BF01F0E4E64C5EF0BF0C7EF61
:101788000BF0CFEF0BF077EF0BF0D89049364A36D5
:101798004B364C364E064E50D8A4D5EF0BF0D7EF4B
:1017A8000BF0C9EF0BF04D50D8B4DDEF0BF0DFEFC5
:1017B8000BF0E7EF0BF04C1E4B1E4A1E496C000E57
:1017C8004A224B224C2249C049F04AC04AF04BC039
:1017D8004BF04CC04CF0120020EE01F01C50D92602
:1017E8001D50DA22010EDF6E20EE02F01C50D926C1
:1017F8001D50DA22000EDF6E20EE01F01E50D926B1
:101808001F50DA22000EDF6E20EE02F01E50D9269D
:101818001F50DA22000EDF6E1CC0D9FF1DC0DAFF90
:10182800DF50800A410FD8A01CEF0CF01EEF0CF01F
:1018380024EF0CF01CC0D9FF1DC0DAFF3E0EDF6E8E
:101848001EC0D9FF1FC0DAFFDF50800A410FD8A0A1
:1018580030EF0CF032EF0CF038EF0CF01EC0D9FF6F
:101868001FC0DAFF3E0EDF6E1CC0D9FF1DC0DAFFB5
:10187800DF500A0F1CC0D9FF1DC0DAFFDF6E1EC083
:10188800D9FF1FC0DAFFDF500A0F1EC0D9FF1FC0E3
:10189800DAFFDF6E1CC016F01DC017F0B6EC0AF0B8
:1018A8001EC016F01FC017F0B6EC0AF0020E216E2B
:1018B800A00E206E920EE82EFED7202EFCD7212EE9
:1018C800FAD700D0120020EE01F01C50D9261D5086
:1018D800DA22010EDF6E20EE02F01C50D9261D50D0
:1018E800DA22000EDF6E20EE01F01E50D9261F50BE
:1018F800DA22010EDF6E20EE02F01E50D9261F50AC
:10190800DA22000EDF6E1CC0D9FF1DC0DAFFDF50DF
:10191800800A570FD8A093EF0CF095EF0CF09BEFCF
:101928000CF01CC0D9FF1DC0DAFF280EDF6E1EC0E8
:10193800D9FF1FC0DAFFDF50800A540FD8A0A7EFE5
:101948000CF0A9EF0CF0AFEF0CF01EC0D9FF1FC0D0
:10195800DAFF2B0EDF6E1CC0D9FF1DC0DAFFDF5087
:10196800050F1CC0D9FF1DC0DAFFDF6E1EC0D9FFEE
:101978001FC0DAFFDF50070F1EC0D9FF1FC0DAFFF4
:10198800DF6E1CC016F01DC017F0B6EC0AF01EC0C2
:1019980016F01FC017F0B6EC0AF0050E216E0F0EF8
:1019A800206EF10EE82EFED7202EFCD7212EFAD776
:1019B80000F0120020EE01F01C50D9261D50DA224A
:1019C800000EDF6E20EE02F01C50D9261D50DA22E0
:1019D800000EDF6E20EE01F01E50D9261F50DA22CD
:1019E800010EDF6E20EE02F01E50D9261F50DA22BB
:1019F800000EDF6E1CC0D9FF1DC0DAFFDF50800A61
:101A0800410FD8A00AEF0DF00CEF0DF012EF0DF01A
:101A18001CC0D9FF1DC0DAFF3E0EDF6E1EC0D9FF05
:101A28001FC0DAFFDF50800A410FD8A01EEF0DF06B
:101A380020EF0DF026EF0DF01EC0D9FF1FC0DAFF12
:101A48003E0EDF6E1CC0D9FF1DC0DAFFDF500A0F43
:101A58001CC0D9FF1DC0DAFFDF6E1EC0D9FF1FC032
:101A6800DAFFDF500A0F1EC0D9FF1FC0DAFFDF6E92
:101A78001CC016F01DC017F0B6EC0AF01EC016F018
:101A88001FC017F0B6EC0AF0020E216EA00E206EF1
:101A9800920EE82EFED7202EFCD7212EFAD700D0A2
:101AA800120020EE01F01C50D9261D50DA22000E3B
:101AB800DF6E20EE02F01C50D9261D50DA22000EEF
:101AC800DF6E20EE01F01E50D9261F50DA22000EDC
:101AD800DF6E20EE02F01E50D9261F50DA22000ECB
:101AE800DF6E1CC0D9FF1DC0DAFFDF50800A590F16
:101AF800D8A081EF0DF083EF0DF089EF0DF01CC039
:101B0800D9FF1DC0DAFF260EDF6E1EC0D9FF1FC029
:101B1800DAFFDF50800A510FD8A095EF0DF097EF4C
:101B28000DF09DEF0DF01EC0D9FF1FC0DAFF2E0E7D
:101B3800DF6E1CC0D9FF1DC0DAFFDF50050F1CC0C7
:101B4800D9FF1DC0DAFFDF6E1EC0D9FF1FC0DAFF44
:101B5800DF50080F1EC0D9FF1FC0DAFFDF6E1CC0A0
:101B680016F01DC017F0B6EC0AF01EC016F01FC024
:101B780017F0B6EC0AF0050E216E0F0E206EF10E6E
:101B8800E82EFED7202EFCD7212EFAD700F012001F
:101B98000E0129933BC027F03CC028F03DC029F036
:101BA8003EC02AF05EEC0FF039EF0EF0000E456EE5
:101BB800000E446E550E096E000E0A6E3C0E0B6E3A
:101BC800010E0C6E4AEC14F009C041F00AC042F054
:101BD800FAEF0DF03BC01CF03CC01DF03DC01EF0FC
:101BE8003EC01FF067EC0CF0444A452A4150445C63
:101BF80042504558D8A003EF0EF005EF0EF0EEEF77
:101C08000DF014EF0EF03BC01CF03CC01DF03DC0C1
:101C18001EF03EC01FF042EC0EF04406D8A0450668
:101C280044504510D8A41BEF0EF01DEF0EF007EF3F
:101C38000EF0560E096E000E0A6E770E0B6E000E31
:101C48000C6EFBEC14F0436E43503F6E406A3FC08D
:101C580035F040C036F03BC037F03CC038F03DC0EE
:101C680039F03EC03AF09AEC08F05550D8A43FEF4E
:101C78000EF041EF0EF0DAEF0DF0120020EE02F058
:101C88001C50D9261D50DA22010EDF6E20EE02F01C
:101C98001E50D9261F50DA22010EDF6E1CC0D9FF54
:101CA8001DC0DAFF000EDBBE5EEF0EF05CEF0EF03B
:101CB80064EF0EF01CC0D9FF1DC0DAFF000EDF6E06
:101CC8001EC0D9FF1FC0DAFF000EDBBE70EF0EF09A
:101CD8006EEF0EF076EF0EF01EC0D9FF1FC0DAFFD0
:101CE800000EDF6E1CC0D9FF1DC0DAFFDF50FB0FEE
:101CF8001CC0D9FF1DC0DAFFDF6E1EC0D9FF1FC090
:101D0800DAFFDF50FB0F1EC0D9FF1FC0DAFFDF6EFE
:101D18001CC0D9FF1DC0DAFF000EDF6E1EC0D9FF40
:101D28001FC0DAFF000EDF6E1CC016F01DC017F0D2
:101D3800B6EC0AF01EC016F01FC017F0B6EC0AF099
:101D4800D00E206ECA0EE82EFED7202EFCD7120029
:101D5800000E346E2EC027F02FC028F030C029F0B6
:101D680031C02AF0B9EC11F0050E336E0F0E326E49
:101D7800F10EE82EFED7322EFCD7332EFAD700F01C
:101D8800D1EF0EF02EC01CF02FC01DF030C01EF099
:101D980031C01FF067EC0CF0342A2C0E3464D7EFF6
:101DA8000EF0D9EF0EF0C6EF0EF0E6EF0EF02EC0F3
:101DB8001CF02FC01DF030C01EF031C01FF042ECE7
:101DC8000EF034063450D8A4ECEF0EF0EEEF0EF01F
:101DD800DBEF0EF0050E336E0F0E326EF10EE82EAD
:101DE800FED7322EFCD7332EFAD700F02EC027F0BC
:101DF8002FC028F030C029F031C02AF05EEC0FF077
:101E08001200000E346E2EC027F02FC028F030C00C
:101E180029F031C02AF0FCEC11F0050E336E0F0EDC
:101E2800326EF10EE82EFED7322EFCD7332EFAD7BB
:101E380000F02AEF0FF02EC01CF02FC01DF030C0AC
:101E48001EF031C01FF067EC0CF0342A2C0E3464FD
:101E580030EF0FF032EF0FF01FEF0FF03FEF0FF002
:101E68002EC01CF02FC01DF030C01EF031C01FF076
:101E780042EC0EF034063450D8A445EF0FF047EF8B
:101E88000FF034EF0FF0050E336E0F0E326EF10EB9
:101E9800E82EFED7322EFCD7332EFAD700F02EC00C
:101EA80027F02FC028F030C029F031C02AF05EECAE
:101EB8000FF01200000E2D6E6DEF0FF027C01CF012
:101EC80028C01DF029C01EF02AC01FF055EC0DF0E7
:101ED8002D2A0F0E2D6473EF0FF075EF0FF062EFE0
:101EE8000FF082EF0FF027C01CF028C01DF029C0AA
:101EF8001EF02AC01FF042EC0EF02D062D50D8A47B
:101F080088EF0FF08AEF0FF077EF0FF0050E2C6EC9
:101F18000F0E2B6EF10EE82EFED72B2EFCD72C2E93
:101F2800FAD700F027C022F028C023F029C024F0F7
:101F38002AC025F00EEC10F0050E2C6E0F0E2B6E3D
:101F4800F10EE82EFED72B2EFCD72C2EFAD700F058
:101F580027C022F028C023F029C024F02AC025F089
:101F68000EEC10F01200000E266EC6EF0FF022C025
:101F78001CF023C01DF024C01EF025C01FF0F0EC9B
:101F88000BF0262A0E0E2664CCEF0FF0CEEF0FF0E2
:101F9800BBEF0FF0DBEF0FF022C01CF023C01DF0E9
:101FA80024C01EF025C01FF042EC0EF02606265075
:101FB800D8A4E1EF0FF0E3EF0FF0D0EF0FF0F0EF60
:101FC8000FF022C01CF023C01DF024C01EF025C055
:101FD8001FF0F0EC0BF0262A0E0E2664F6EF0FF039
:101FE800F8EF0FF0E5EF0FF005EF10F022C01CF04E
:101FF80023C01DF024C01EF025C01FF042EC0EF0D7
:1020080026062650D8A40BEF10F00DEF10F0FAEFCB
:102018000FF01200000E266E1DEF10F022C01CF00B
:1020280023C01DF024C01EF025C01FF0DEEC0CF00C
:10203800262A0F0E266423EF10F025EF10F012EF7A
:1020480010F032EF10F022C01CF023C01DF024C0A5
:102058001EF025C01FF042EC0EF026062650D8A42C
:1020680038EF10F03AEF10F027EF10F047EF10F0CC
:1020780022C01CF023C01DF024C01EF025C01FF094
:10208800DEEC0CF0262A0E0E26644DEF10F04FEF12
:1020980010F03CEF10F05CEF10F022C01CF023C0F1
:1020A8001DF024C01EF025C01FF042EC0EF02606DD
:1020B8002650D8A462EF10F064EF10F051EF10F042
:1020C80012007D9485947D9885987B9E839E7F9C45
:1020D800879C050E0E01746F060E766F070E696FEA
:1020E800080E886FBD508F0B4009BD6EE00EBE16FE
:1020F800BF50F00B0109BF6E09C0BCFFBD8E000EBA
:10210800AA6E000EA66E000E0F01256F000E216F3D
:10211800FC0EAD16F30EAD16CF0EAD163F0EAD1676
:10212800AB88AB50F00B0C09AB6EAB8EA788A750F1
:10213800F00B0C09A76EA78E26892651F00B0C0907
:10214800266F268F22892251F00B0C09226F228FCD
:102158001200000E2D6EBCEF10F027C01CF028C036
:102168001DF029C01EF02AC01FF055EC0DF02D2AD5
:102178002C0E2D64C2EF10F0C4EF10F0B1EF10F088
:10218800D1EF10F027C01CF028C01DF029C01EF0A8
:102198002AC01FF042EC0EF02D062D50D8A4D7EF20
:1021A80010F0D9EF10F0C6EF10F0050E2C6E0F0EE0
:1021B8002B6EF10EE82EFED72B2EFCD72C2EFAD73D
:1021C80000F027C022F028C023F029C024F02AC03C
:1021D80025F0B7EC0FF01200000E2D6EFFEF10F097
:1021E80027C01CF028C01DF029C01EF02AC01FF00F
:1021F80055EC0DF02D2A2C0E2D6405EF11F007EF8C
:1022080011F0F4EF10F014EF11F027C01CF028C003
:102218001DF029C01EF02AC01FF042EC0EF02D065A
:102228002D50D8A41AEF11F01CEF11F009EF11F09E
:10223800050E2C6E0F0E2B6EF10EE82EFED72B2EF0
:10224800FCD72C2EFAD700F027C022F028C023F0A4
:1022580029C024F02AC025F00EEC10F01200000E60
:10226800326E42EF11F02CC01CF02DC01DF02EC0B4
:102278001EF02FC01FF055EC0DF0322A0F0E3264FD
:1022880048EF11F04AEF11F037EF11F057EF11F066
:102298002CC01CF02DC01DF02EC01EF02FC01FF04A
:1022A80042EC0EF032063250D8A45DEF11F05FEF29
:1022B80011F04CEF11F0050E316E0F0E306EF10E6D
:1022C800E82EFED7302EFCD7312EFAD700F02CC0DE
:1022D80027F02DC028F02EC029F02FC02AF079EC65
:1022E80012F01200000E326E85EF11F02CC01CF0B7
:1022F8002DC01DF02EC01EF02FC01FF055EC0DF0A4
:10230800322A0F0E32648BEF11F08DEF11F07AEF55
:1023180011F09AEF11F02CC01CF02DC01DF02EC04A
:102328001EF02FC01FF042EC0EF032063250D8A437
:10233800A0EF11F0A2EF11F08FEF11F0050E316E42
:102348000F0E306EF10EE82EFED7302EFCD7312E50
:10235800FAD700F02CC027F02DC028F02EC029F0A5
:102368002FC02AF0B0EC12F01200000E2D6EC8EF4C
:1023780011F027C01CF028C01DF029C01EF02AC08B
:102388001FF055EC0DF02D2A0F0E2D64CEEF11F035
:10239800D0EF11F0BDEF11F0DDEF11F027C01CF008
:1023A80028C01DF029C01EF02AC01FF042EC0EF014
:1023B8002D062D50D8A4E3EF11F0E5EF11F0D2EF80
:1023C80011F0050E2C6E0F0E2B6EF10EE82EFED7B7
:1023D8002B2EFCD72C2EFAD700F027C022F028C0CD
:1023E80023F029C024F02AC025F0B7EC0FF0120022
:1023F800000E2D6E0BEF12F027C01CF028C01DF048
:1024080029C01EF02AC01FF055EC0DF02D2A0F0E22
:102418002D6411EF12F013EF12F000EF12F020EF1D
:1024280012F027C01CF028C01DF029C01EF02AC0D9
:102438001FF042EC0EF02D062D50D8A426EF12F016
:1024480028EF12F015EF12F0050E2C6E0F0E2B6E02
:10245800F10EE82EFED72B2EFCD72C2EFAD700F043
:1024680027C022F028C023F029C024F02AC025F074
:102478000EEC10F01200000E146E000E136E1150C8
:102488001210D8B44AEF12F04CEF12F074EF12F0B9
:10249800010E156E54EF12F0D89011361236152A27
:1024A80012AE59EF12F05BEF12F050EF12F0D89025
:1024B8001336143611500F5C12501058D8A067EF1D
:1024C80012F069EF12F06EEF12F011500F5E125019
:1024D800105A1380D89012321132152E5BEF12F079
:1024E80013C00FF014C010F0120027C022F028C04B
:1024F80023F029C024F02AC025F0B7EC0FF0000E15
:102508002B6E92EF12F027C01CF028C01DF029C0D6
:102518001EF02AC01FF0F0EC0BF02B2A0E0E2B64D5
:1025280098EF12F09AEF12F087EF12F0A7EF12F07F
:1025380027C01CF028C01DF029C01EF02AC01FF0BB
:1025480042EC0EF02B062B50D8A4ADEF12F0AFEFF3
:1025580012F09CEF12F0120027C022F028C023F0DE
:1025680029C024F02AC025F00EEC10F0000E2B6EC6
:10257800C9EF12F027C01CF028C01DF029C01EF0BA
:102588002AC01FF0DEEC0CF02B2A0F0E2B64CFEFC5
:1025980012F0D1EF12F0BEEF12F0DEEF12F027C00A
:1025A8001CF028C01DF029C01EF02AC01FF042EC04
:1025B8000EF02B062B50D8A4E4EF12F0E6EF12F041
:1025C800D3EF12F0120016EC13F014C0D9FF15C0A7
:1025D800DAFF0DC0DEFF0EC0DDFF3EEC13F020EE8B
:1025E80002F01450D9261550DA220DC0DEFF0EC0B5
:1025F800DDFF8EEC13F020EE04F01450D9261550B0
:10260800DA220DC0DEFF0EC0DDFF66EC13F020EE0F
:1026180006F01450D9261550DA220DC0DEFF0EC080
:10262800DDFF120099EC15F0520E83EC15F0B60E92
:1026380083EC15F08FEC15F0530E83EC15F0010EBA
:1026480029EC14F00F6E0F50126E136A000E29EC6D
:1026580014F00F6E0F50116E106A12501010126E97
:1026680013501110136E94EC15F012C00DF013C036
:102678000EF0120099EC15F0520E83EC15F0B80E1E
:1026880083EC15F08FEC15F0530E83EC15F0010E6A
:1026980029EC14F00F6E0F50126E136A000E29EC1D
:1026A80014F00F6E0F50116E106A12501010126E47
:1026B80013501110136E94EC15F012C00DF013C0E6
:1026C8000EF0120099EC15F0520E83EC15F0B40ED2
:1026D80083EC15F08FEC15F0530E83EC15F0010E1A
:1026E80029EC14F00F6E0F50126E136A000E29ECCD
:1026F80014F00F6E0F50116E106A12501010126EF7
:1027080013501110136E94EC15F012C00DF013C095
:102718000EF0120099EC15F0520E83EC15F0BA0E7B
:1027280083EC15F08FEC15F0530E83EC15F0010EC9
:1027380029EC14F00F6E0F50126E136A000E29EC7C
:1027480014F00F6E0F50116E106A12501010126EA6
:1027580013501110136E94EC15F012C00DF013C045
:102768000EF01200130E0B6E000E2DEC15F03F0E3E
:102778000D6E550EE82EFED70D2EFCD700F0040E78
:102788000B6E0C0E2DEC15F04FC00BF0040E2DEC5B
:1027980015F050500B6E050E2DEC15F0D5C00BF052
:1027A800060E2DEC15F00001D6510B6E070E2DEC20
:1027B80015F01200130E036E000E3DEC15F03F0EDF
:1027C800056E550EE82EFED7052EFCD700F0040E38
:1027D800036E0C0E3DEC15F04FC003F0040E3DECFB
:1027E80015F05050036E050E3DEC15F0D5C003F002
:1027F800060E3DEC15F00001D651036E070E3DECB8
:1028080015F01200580EF66E2B0EF76E000EF86ECD
:102818000900F5CFD5F00900F5CFD6F001EE00F0AC
:102828008C0EEE6AE806FDE100EE60F03F0EEE6AFF
:10283800E806FDE100EE4FF0080EEE6AE806FDE15D
:1028480057905792000120EF07F00B6EAEEC14F092
:102858000E01DA87AEEC14F0D5CE0CF0AEEC14F025
:102868000B50D8B43AEF14F03EEF14F00A6A0A2A73
:102878003FEF14F00A6A0A3A0A460E01DA510A18BA
:10288800DF0B0A18DA6FDA890C50120009C0D9FF79
:102898000AC0DAFFDF06DF500D6E0D50020DF3CFD0
:1028A8000EF0F4CF0FF00E500B24D96E0F500C2001
:1028B800DA6EDECF10F0DDCF11F010C009F011C0D4
:1028C8000AF0120099EC14F0010E0B6E000E2DECBC
:1028D80015F03F0E0D6E550EE82EFED70D2EFCD7C7
:1028E80000F0030E0B6E000E2DEC15F0D50E0B6EDE
:1028F800010E2DEC15F012000BC0D9FF0CC0DAFF49
:10290800DFCF0FF0010EDF260F50020DF3CF10F0CE
:10291800F4CF11F010500D24D96E11500E20DA6E3C
:1029280009C0DEFF0AC0DDFF12000E01D951F00B0D
:102938000809D96FD98B9F0ED66F848A848CA79B80
:10294800A79D1D0E1D6F1E0E1C6F1C0E6F6F1B0E9C
:10295800706F12000E01D8B5B4EF14F0B6EF14F092
:10296800AEEF14F0DACE09F01F0E0916D8A4BFEFA7
:1029780014F0C1EF14F0AEEF14F012000E01D8B548
:10298800C8EF14F0CAEF14F0C2EF14F0DACE01F079
:102998001F0E0116D8A4D3EF14F0D5EF14F0C2EF30
:1029A80014F0120009500B02F3CF0DF0F4CF0EF023
:1029B80009500C02F3500E260A500B02F3500E2653
:1029C8000DC009F00EC00AF012000E6E09C0D9FF42
:1029D8000AC0DAFFDFCF0DF0010EDF260D500B2401
:1029E800D96E000E0C20DA6E0EC0DFFF120009C08F
:1029F800D9FF0AC0DAFFDF06DF500D6E0D500B2439
:102A0800D96E000E0C20DA6EDF500E6E0E501200DA
:102A18000E0133A312EF15F014EF15F01BEF15F0AC
:102A2800010E0001766F76EC15F00E013393579284
:102A38001100D6501F0B4009D66ED688D650F00B21
:102A48000809D66ED5880B0ED46EDB0ED36ED58EE4
:102A580012000C6E99EC15F0520E83EC15F00C5028
:102A6800800983EC15F00B5083EC15F094EC15F00D
:102A78001200046EA3EC15F0520E89EC15F0045008
:102A8800800989EC15F0035089EC15F09EEC15F0DF
:102A9800120082820E019A9329831F83F292298B56
:102AA8001F9B2D8769EC15F0F28AF28CF28E1200CA
:102AB80087928198869E809688967C9E849E86843E
:102AC80086860E01B495B497120099EC15F0520E53
:102AD80083EC15F0E60E83EC15F094EC15F0B6ECEB
:102AE80013F01200A3EC15F0520E89EC15F0E60E67
:102AF80089EC15F09EEC15F0DEEC13F012000A6E6E
:102B0800AEEC14F00AC0D5FE1200026EC2EC14F04E
:102B180002C0D5FE1200AEEC14F00E01DA831200EA
:102B2800AEEC14F00E01DA851200AEEC14F00E01D2
:102B3800DA811200C2EC14F00E01DA851200C2EC40
:102B480014F00E01DA8112007F8279887E8E1200DD
:022B5800540B1C
:020000040020DA
:10000000FF0FFF0FFF0FFF0FFF0FFF0FFF0FFF0F80
:020000040030CA
:0C000000AAFFFFFF9FFFFFFFFFFFFFFFB5
:00000001FF
