:040000002CEF00F0F1
:06000800578284EF13F0A3
:100018005780D8CF06F0E8CF07F0E0CF08F00E0100
:1000280033AB19EF00F01BEF00F024EF00F0C20E25
:10003800D46EF60ED36E010E0001746F0E01339B61
:1000480008C0E0FF07C0E8FF06C0D8FF57901000BF
:100058004BEF12F0000E0001B06F000E346E000E70
:10006800356EC80E366E420E376E20EE04F0A25181
:10007800D926A351DA22DECFA4F0DDCFA5F020EEF9
:1000880002F0A251D926A351DA22DECFA6F0DDCFA5
:10009800A7F0A2C0D9FFA3C0DAFFDECFA8F0DDCF5A
:1000A800A9F0A651A825AA6FA751A921AB6FA45101
:1000B800AA25AC6FA551AB21AD6FACC009F0ADC09E
:1000C8000AF00B6A0C6A000E3CEC09F009C01BF040
:1000D8000AC01CF00BC01DF00CC01EF0A2C0D9FF56
:1000E800A3C0DAFFDECFAEF0DDCFAFF0AEC009F0CF
:1000F800AFC00AF00B6A0C6A000E3CEC09F009C0AC
:1001080017F00AC018F00BC019F00CC01AF051EC27
:1001180005F017C030F018C031F019C032F01AC01D
:1001280033F03CEC03F030C049F031C04AF032C043
:100138004BF033C04CF0CCEC0AF049500001B16FE1
:10014800000E346E000E356EC80E366E420E376ED7
:1001580020EE04F0A251D926A351DA22DECFA4F072
:10016800DDCFA5F020EE02F0A251D926A351DA2264
:10017800DECFA6F0DDCFA7F0A2C0D9FFA3C0DAFF7B
:10018800DECFA8F0DDCFA9F0A651A825AA6FA75108
:10019800A921AB6FA451AA25AC6FA551AB21AD6FB6
:1001A800ACC009F0ADC00AF00B6A0C6A000E3CEC5A
:1001B80009F009C01BF00AC01CF00BC01DF00CC0F0
:1001C8001EF0000120EE02F0A251D926A351DA2236
:1001D800DECFAEF0DDCFAFF0AEC009F0AFC00AF0B1
:1001E8000B6A0C6A000E3CEC09F009C017F00AC053
:1001F80018F00BC019F00CC01AF051EC05F017C03C
:1002080030F018C031F019C032F01AC033F03CECAD
:1002180003F030C049F031C04AF032C04BF033C06F
:100228004CF0CCEC0AF049500001B26F000E346E6D
:10023800000E356EC80E366E420E376E20EE04F094
:10024800A251D926A351DA22DECFA4F0DDCFA5F042
:1002580020EE02F0A251D926A351DA22DECFA6F071
:10026800DDCFA7F0A2C0D9FFA3C0DAFFDECFA8F088
:10027800DDCFA9F0A651A825AA6FA751A921AB6F78
:10028800A451AA25AC6FA551AB21AD6FACC009F044
:10029800ADC00AF00B6A0C6A000E3CEC09F009C00C
:1002A8001BF00AC01CF00BC01DF00CC01EF00001B2
:1002B80020EE04F0A251D926A351DA22DECFAEF007
:1002C800DDCFAFF0AEC009F0AFC00AF00B6A0C6A20
:1002D800000E3CEC09F009C017F00AC018F00BC07A
:1002E80019F00CC01AF051EC05F017C030F018C026
:1002F80031F019C032F01AC033F03CEC03F030C0D2
:1003080049F031C04AF032C04BF033C04CF0CCEC6D
:100318000AF049500001B36F5550D8B496EF01F078
:1003280098EF01F038EF03F0490EB1659EEF01F048
:10033800A0EF01F0CCEF01F04D0EB161A6EF01F096
:10034800A8EF01F0CCEF01F0090EB265AEEF01F0B5
:10035800B0EF01F0CCEF01F00D0EB261B6EF01F095
:10036800B8EF01F0CCEF01F00C0EB365BEEF01F071
:10037800C0EF01F0CCEF01F0100EB361C6EF01F051
:10038800C8EF01F0CCEF01F0010EB06F38EF03F0C9
:10039800230EB165D2EF01F0D4EF01F000EF02F0C7
:1003A800270EB161DAEF01F0DCEF01F000EF02F0A7
:1003B800280EB265E2EF01F0E4EF01F000EF02F081
:1003C8002C0EB261EAEF01F0ECEF01F000EF02F061
:1003D800130EB365F2EF01F0F4EF01F000EF02F055
:1003E800170EB361FAEF01F0FCEF01F000EF02F035
:1003F800020EB06F38EF03F01C0EB16506EF02F085
:1004080008EF02F034EF02F0230EB1610EEF02F0B4
:1004180010EF02F034EF02F01F0EB26516EF02F093
:1004280018EF02F034EF02F0270EB2611EEF02F06F
:1004380020EF02F034EF02F01E0EB36526EF02F053
:1004480028EF02F034EF02F0260EB3612EEF02F02F
:1004580030EF02F034EF02F0030EB06F38EF03F024
:10046800310EB1653AEF02F03CEF02F068EF02F0AE
:10047800350EB16142EF02F044EF02F068EF02F08E
:100488001D0EB2654AEF02F04CEF02F068EF02F081
:10049800210EB26152EF02F054EF02F068EF02F061
:1004A800100EB3655AEF02F05CEF02F068EF02F04D
:1004B800140EB36162EF02F064EF02F068EF02F02D
:1004C800040EB06F38EF03F02F0EB1656EEF02F037
:1004D80070EF02F09CEF02F0330EB16176EF02F09C
:1004E80078EF02F09CEF02F01B0EB2657EEF02F08F
:1004F80080EF02F09CEF02F01F0EB26186EF02F06F
:1005080088EF02F09CEF02F0140EB3658EEF02F054
:1005180090EF02F09CEF02F0180EB36196EF02F034
:1005280098EF02F09CEF02F0050EB06F38EF03F081
:100538003A0EB165A2EF02F0A4EF02F0D0EF02F09C
:100548003E0EB161AAEF02F0ACEF02F0D0EF02F07C
:10055800150EB265B2EF02F0B4EF02F0D0EF02F080
:10056800190EB261BAEF02F0BCEF02F0D0EF02F060
:100578000F0EB365C2EF02F0C4EF02F0D0EF02F045
:10058800130EB361CAEF02F0CCEF02F0D0EF02F025
:10059800060EB06F38EF03F0200EB165D6EF02F00B
:1005A800D8EF02F004EF03F0240EB161DEEF02F0A1
:1005B800E0EF02F004EF03F0250EB265E6EF02F07B
:1005C800E8EF02F004EF03F0290EB261EEEF02F05B
:1005D800F0EF02F004EF03F0190EB365F6EF02F046
:1005E800F8EF02F004EF03F01D0EB361FEEF02F026
:1005F80000EF03F004EF03F0070EB06F38EF03F0DD
:100608002A0EB1650AEF03F00CEF03F038EF03F0A0
:100618002E0EB16112EF03F014EF03F038EF03F080
:100628001F0EB2651AEF03F01CEF03F038EF03F06A
:10063800230EB26122EF03F024EF03F038EF03F04A
:10064800150EB3652AEF03F02CEF03F038EF03F033
:10065800190EB36132EF03F034EF03F038EF03F013
:10066800080EB06F38EF03F0000E556EB05112004F
:100678003350800B3C6E33503324426E32AE47EF1A
:1006880003F049EF03F04AEF03F042804250D8B438
:1006980050EF03F052EF03F065EF03F04228D8A4BF
:1006A80058EF03F05AEF03F062EF03F0000E306EDC
:1006B800000E316E000E326E000E336E328E6DEF0C
:1006C80003F0000E306E000E316E000E326E000E1A
:1006D800336E3750800B3C1A37503724416E36AE94
:1006E80078EF03F07AEF03F07BEF03F0418041509D
:1006F800D8B481EF03F083EF03F096EF03F04128BD
:10070800D8A489EF03F08BEF03F093EF03F0000E0A
:10071800346E000E356E000E366E000E376E368E55
:100728009EEF03F0000E346E000E356E000E366E2E
:10073800000E376E4150D8B4A4EF03F0A6EF03F0D3
:10074800AEEF03F04250D8A4ACEF03F0AEEF03F0E5
:10075800B8EF03F0000E306E000E316E000E326EF0
:10076800000E336E50EF05F036503002F3CF47F0ED
:10077800F4CF48F047503D6E3E6A3F6A406A4850A1
:10078800436E446A456A466A35503102F3CF47F0F2
:10079800F4CF48F047503D26000E3E223F2240222B
:1007A80048504326000E4422452246223450320245
:1007B800F3CF47F0F4CF48F047503D26000E3E22D5
:1007C8003F22402248504326000E4422452246221A
:1007D8003FC040F03EC03FF03DC03EF03D6A34505F
:1007E8003102F3CF47F0F4CF48F047503D26485048
:1007F8003E22000E3F22000E402235503002F3CF39
:1008080047F0F4CF48F047503D2648503E22000EAE
:100818003F22000E40223FC040F03EC03FF03DC0A6
:100828003EF03D6A34503002F3CF47F0F4CF48F041
:1008380047503D2648503E22000E3F22000E4022DF
:1008480036503102F3CF47F0F4CF48F047504326F3
:1008580048504422000E4522000E462235503202EE
:10086800F3CF47F0F4CF48F047504326485044228E
:10087800000E4522000E462236503202F3CF47F0D2
:10088800F4CF48F04750386E4850396E3A6A3B6AA0
:100898003AC03BF039C03AF038C039F0386A3850BD
:1008A8004326395044223A5045223B5046223DC007
:1008B80038F03EC039F03FC03AF040C03BF0190E66
:1008C8006BEF04F0D8903B323A3239323832E82EA6
:1008D80066EF04F038504326395044223A504522F6
:1008E8003B5046223FC040F03EC03FF03DC03EF086
:1008F8003D6A415042C038F0396A3826000E392224
:10090800820E3824476EFF0E3920486EA1EF04F09E
:10091800D890433644364536463640AE96EF04F016
:1009280098EF04F099EF04F04380D8903D363E36B6
:100938003F3640364706D8A0480645AEA6EF04F035
:10094800A8EF04F08CEF04F0000E416E40AEAFEF5C
:1009580004F0B1EF04F0D5EF04F0FF0E3D14386E4B
:10096800FF0E3E14396EFF0E3F143A6E7F0E401490
:100978003B6E385039103A103B10D8B4C6EF04F02B
:10098800C8EF04F0CCEF04F0010E416ED5EF04F08F
:1009980043A0D1EF04F0D3EF04F0D5EF04F0C8EF93
:1009A80004F04150D8B4DBEF04F0DDEF04F001EFC0
:1009B80005F0010E4326000E44224522462246A099
:1009C800E8EF04F0EAEF04F001EF05F043C038F077
:1009D80044C039F045C03AF046C03BF03B343B32A6
:1009E8003A323932383238C043F039C044F03AC06C
:1009F80045F03BC046F0474A482A48BE0CEF05F090
:100A0800485008E14728D8A00CEF05F00EEF05F094
:100A180018EF05F0000E436E000E446E800E456E12
:100A28007F0E466E46EF05F048BE25EF05F04850AC
:100A380006E14704D8B023EF05F025EF05F031EFC4
:100A480005F0000E436E000E446E000E456E000E5B
:100A5800466E000E3C6E46EF05F047C042F0FF0EB2
:100A68004316FF0E44167F0E4516000E461642A08A
:100A780040EF05F042EF05F043EF05F0458ED890C2
:100A88004230466E3C50461243C030F044C031F00C
:100A980045C032F046C033F012001A50800B276E62
:100AA8001A501A242E6E19AE5CEF05F05EEF05F0B1
:100AB8005FEF05F02E802E50D8B465EF05F067EF94
:100AC80005F07CEF05F02E28D8A46DEF05F06FEF48
:100AD80005F077EF05F0000E176E000E186E000E89
:100AE800196E000E1A6E198E000E1A6E84EF05F03C
:100AF800000E176E000E186E000E196E000E1A6E9C
:100B08001E50800B271A1E501E242F6E1DAE8FEF0D
:100B180005F091EF05F092EF05F02F802F50D8B433
:100B280098EF05F09AEF05F0AFEF05F02F28D8A45D
:100B3800A0EF05F0A2EF05F0AAEF05F0000E1B6E7E
:100B4800000E1C6E000E1D6E000E1E6E1D8E000E19
:100B58001E6EB7EF05F0000E1B6E000E1C6E000E29
:100B68001D6E000E1E6E1B501C101D101E10D8A4EA
:100B7800C0EF05F0C2EF05F0DAEF05F0000E176ED2
:100B8800000E186E000E196E000E1A6E800E1912E5
:100B98007F0E1A1227501A1217C017F018C018F033
:100BA80019C019F01AC01AF01DEF07F02E50D8A47A
:100BB800E0EF05F0E2EF05F0ECEF05F0000E176E40
:100BC800000E186E000E196E000E1A6E1DEF07F05B
:100BD8002F502EC01FF0206A1F5E000E205A7F0E75
:100BE8001F24286E000E2020296E17C023F018C07D
:100BF80024F019C025F01AC026F0000E176E000E5A
:100C0800186E000E196E000E1A6E000E2A6E000E77
:100C18002B6E000E2C6E000E2D6E000E2F6E4DEFFB
:100C280006F02F50D8B41BEF06F01DEF06F034EF96
:100C380006F0D8902336243625362636D89017362F
:100C4800183619361A362DAE2CEF06F02EEF06F0B0
:100C58002FEF06F01780D8902A362B362C362D36F3
:100C68001B50235C1C5024581D5025581E502658D4
:100C7800D8A041EF06F043EF06F04CEF06F02D8CBC
:100C88001B50235E1C50245A1D50255A1E50265AAC
:100C98002F2A190E2F6453EF06F055EF06F015EFC3
:100CA80006F02350241025102610D8B45EEF06F065
:100CB80060EF06F078EF06F02A8078EF06F0D8901B
:100CC8001736183619361A362DAE6DEF06F06FEF57
:100CD80006F070EF06F01780D8902A362B362C369F
:100CE8002D362806D8A0290619AE7DEF06F07FEF2D
:100CF80006F063EF06F0000E2F6E2DAE86EF06F0BD
:100D080088EF06F0ACEF06F0FF0E2A141F6EFF0EF8
:100D18002B14206EFF0E2C14216E7F0E2D14226EC4
:100D28001F50201021102210D8B49DEF06F09FEF1D
:100D380006F0A3EF06F0010E2F6EACEF06F017A039
:100D4800A8EF06F0AAEF06F0ACEF06F09FEF06F06A
:100D58002F50D8B4B2EF06F0B4EF06F0D8EF06F093
:100D6800010E1726000E182219221A221AA0BFEF08
:100D780006F0C1EF06F0D8EF06F017C01FF018C054
:100D880020F019C021F01AC022F022342232213278
:100D980020321F321FC017F020C018F021C019F0F0
:100DA80022C01AF0284A292A29BEE3EF06F0295062
:100DB80008E12828D8A0E3EF06F0E5EF06F0F0EF09
:100DC80006F0000E296E2868000E176E000E186EC9
:100DD800000E196E000E1A6E29BEFDEF06F029509E
:100DE80006E12804D8B0FBEF06F0FDEF06F00BEFA4
:100DF80007F0000E296E000E286E000E176E000E0A
:100E0800186E000E196E000E1A6E000E276E28C09E
:100E18002EF02EA012EF07F014EF07F017EF07F0EF
:100E2800198E18EF07F0199ED8902E301A6ECEEF53
:100E380005F01200000E0001BA6F000EB96F000E27
:100E4800BC6F000EBB6F000EBE6F000EBD6F000EB4
:100E5800C06F000EBF6FBEEC13F0ABEC12F02EECBF
:100E680013F064EC13F0000E0A6E630E096E64EC66
:100E78000EF0000E0001C16F010EC26F010EC36FAC
:100E8800AA0EC66F0F0EC76FA60EC86F0F0EC96FDA
:100E9800BCCFC4F0C56B000ECA6F010ECB6F010E3C
:100EA800CC6F250ECF6F0F0ED06F210ED16F0F0EA6
:100EB800D26FBCCFCDF0CE6BEBEC13F0B90E146E45
:100EC800000E156E78EC10F0B90E0001A26F000E3E
:100ED800A36F2EEC00F00001B86F000EB76F000E84
:100EE800B66F92EF07F0C10E1C6E000E1D6ECA0E93
:100EF8001E6E000E1F6E50EC0BF0B90E146E000E35
:100F0800156E78EC10F0B90E0001A26F000EA36FF9
:100F18002EEC00F00001B86FB64BB72BB851D8B41F
:100F280098EF07F09AEF07F077EF07F0B851D8B4C9
:100F3800A0EF07F0A2EF07F0F8EF07F0080EB819D6
:100F4800D8B4A9EF07F0ABEF07F0F8EF07F0F70E0A
:100F5800B625096EFF0EB7210A6E9D0E0B6E000EA8
:100F68000C6E3C0E0D6E010E0E6EC5EC12F08086F6
:100F7800CCEF07F0C10E1C6E000E1D6ECA0E1E6E61
:100F8800000E1F6EA1EC0DF00001B607D8A0B70740
:100F98000001B651B711D8A4D4EF07F0D6EF07F087
:100FA800BEEF07F0090E0001B56F1E0EB46FE40E18
:100FB800E82EFED7B42FFCD7B52FFAD700F08096CD
:100FC8000001B851B46FB56BB4C02EF0B5C02FF0A6
:100FD800C10E306E000E316ECA0E326E000E336EC8
:100FE80048EC08F062EF07F0080EB819D8A4FFEF34
:100FF80007F001EF08F062EF07F0F70EB625096E6B
:10100800FF0EB7210A6E9D0E0B6E000E0C6E3C0E85
:101018000D6E010E0E6EC5EC12F07C8E22EF08F0FC
:10102800C10E1C6E000E1D6ECA0E1E6E000E1F6EC7
:10103800A1EC0DF00001B607D8A0B7070001B65122
:10104800B711D8A42AEF08F02CEF08F014EF08F035
:10105800090E0001B56F1E0EB46FE40EE82EFED720
:10106800B42FFCD7B52FFAD700F0C10E346E000E9E
:10107800356ECA0E366E000E376E2CEC0DF07C9E67
:1010880062EF07F02CEF00F02E042F10D8A44FEFDA
:1010980008F051EF08F06FEF08F030C027F031C0CA
:1010A80028F032C029F033C02AF0EFEC0EF07CBEF5
:1010B80060EF08F062EF08F03BEF09F0560E096E9A
:1010C800000E0A6E750E0B6E000E0C6E020E41ECD1
:1010D80013F03BEF09F0020E2E182F10D8A477EF6B
:1010E80008F079EF08F097EF08F030C027F031C02A
:1010F80028F032C029F033C02AF0FBEC0FF07CBE98
:1011080088EF08F08AEF08F03BEF09F0560E096EF9
:10111800000E0A6E750E0B6E000E0C6E010E41EC81
:1011280013F03BEF09F0030E2E182F10D8A49FEFF1
:1011380008F0A1EF08F0C1EF08F030C027F031C087
:1011480028F032C029F033C02AF00BEC0EF07CBE38
:10115800B0EF08F0B2EF08F03BEF09F0560E096E59
:10116800000E0A6E750E0B6E000E0C6E030E41EC2F
:1011780013F03BEF09F03BEF09F0040E2E182F1087
:10118800D8A4C9EF08F0CBEF08F0D7EF08F030C0CB
:1011980027F031C028F032C029F033C02AF0ACEC77
:1011A8000EF03BEF09F0050E2E182F10D8A4DFEF34
:1011B80008F0E1EF08F0EDEF08F030C027F031C09B
:1011C80028F032C029F033C02AF032EC0FF03BEFA0
:1011D80009F0060E2E182F10D8A4F5EF08F0F7EF37
:1011E80008F015EF09F030C027F031C028F032C000
:1011F80029F033C02AF075EC0FF07CBE06EF09F039
:1012080008EF09F03BEF09F0560E096E000E0A6E62
:10121800750E0B6E000E0C6E070E41EC13F03BEFD3
:1012280009F0070E2E182F10D8A41DEF09F01FEF94
:1012380009F0BFEF08F030C027F031C028F032C005
:1012480029F033C02AF0B8EC0FF07CBE2EEF09F07D
:1012580030EF09F0BFEF08F0560E096E000E0A6E67
:10126800750E0B6E000E0C6E060E41EC13F012009C
:10127800116E1150D8B443EF09F045EF09F067EF4C
:1012880009F00CBE4CEF09F04AEF09F067EF09F0DE
:1012980009C00DF00AC00EF00BC00FF00CC010F022
:1012A8000D1E0E1E0F1E101E0D2A000E0E220F22DE
:1012B80010220DC013F00EC014F00FC015F010C0AE
:1012C80016F06FEF09F009C013F00AC014F00BC054
:1012D80015F00CC016F009500A100B100C10D8A409
:1012E80078EF09F07AEF09F084EF09F0000E096E43
:1012F800000E0A6E000E0B6E000E0C6E15EF0AF053
:10130800960E126E8EEF09F0122AD8901632153208
:1013180014321332000E13140D6E000E14140E6ED8
:10132800000E15140F6EFE0E1614106E0D500E10D2
:101338000F101010D8A4A3EF09F0A5EF09F088EF5B
:1013480009F0B3EF09F0122A010E1326000E142239
:1013580015221622D8901632153214321332000E86
:1013680013140D6E000E14140E6E000E15140F6E6D
:10137800FF0E1614106E0D500E100F101010D8A47A
:10138800C8EF09F0CAEF09F0A7EF09F0D2EF09F0AA
:101398001206D890133614361536163615BED7EF02
:1013A80009F0D9EF09F0E1EF09F0020E1260DFEF62
:1013B80009F0E1EF09F0CCEF09F012B0E6EF09F01F
:1013C800E8EF09F0E9EF09F0159ED890123212C043
:1013D8000DF00E6A0F6A106A0DC010F00F6A0E6ADF
:1013E8000D6A0D5013120E5014120F501512105092
:1013F80016121150D8B403EF0AF005EF0AF00DEFFA
:101408000AF00CBE0CEF0AF00AEF0AF00DEF0AF032
:10141800168E13C009F014C00AF015C00BF016C0E0
:101428000CF0120020EE02F01650D9261750DA22DE
:10143800DF50D8B422EF0AF024EF0AF058EF0AF090
:1014480016C0D9FF17C0DAFFDF50096E0A6A09BE55
:101458000A0620EE03F01650D9261750DA22DECFFE
:101468000BF0DDCF0CF01BEC13F009C00FF00AC035
:1014780010F0000E126E640E116E3EEC10F020EEAD
:1014880003F01650D9261750DA22DF50186E0F5085
:10149800185C1A6E20EE03F01650D9261750DA227F
:1014A800DF501B6E7BEF0AF0000E1A6E16C0D9FFD4
:1014B80017C0DAFFDF50096E0A6A09BE0A0620EE75
:1014C80003F01650D9261750DA22DECF0BF0DDCF05
:1014D8000CF01BEC13F009C00FF00AC010F0000E5E
:1014E800126E640E116E3EEC10F00F501B6E20EE63
:1014F80001F01650D9261750DA22DF50D8B487EFFA
:101508000AF089EF0AF0ABEF0AF020EE05F016506A
:10151800D9261750DA22DECF18F0DDCF19F018C01F
:10152800D9FF19C0DAFF1AC0DFFF20EE07F0165006
:10153800D9261750DA22DECF18F0DDCF19F018C0FF
:10154800D9FF19C0DAFF1BC0DFFFCBEF0AF020EE8E
:1015580005F01650D9261750DA22DECF18F0DDCF65
:1015680019F018C0D9FF19C0DAFF1BC0DFFF20EE41
:1015780007F01650D9261750DA22DECF18F0DDCF43
:1015880019F018C0D9FF19C0DAFF1AC0DFFF12001E
:101598004B344C344E6E4E50D8A4D5EF0AF0D7EFEA
:1015A8000AF0E1EF0AF0000E496E000E4A6E000ED6
:1015B8004B6E000E4C6E4FEF0BF049C09EF04AC0C8
:1015C8009FF04BC0A0F04CC0A1F0200EF2EF0AF043
:1015D8000001D890A133A0339F339E33E82EECEF5F
:1015E8000AF09E514D6E4B8EFF0E4916FF0E4A169D
:1015F800FF0E4B16000E4C16960E4E5E4EBE09EFB1
:101608000BF007EF0BF01FEF0BF04E50800A970F0F
:10161800D8B011EF0BF013EF0BF015EF0BF0D7EF7D
:101628000AF0D8904C324B324A3249324E3E15EFCE
:101638000BF037EF0BF01F0E4E6425EF0BF027EF82
:101648000BF02FEF0BF0D7EF0AF0D89049364A3657
:101658004B364C364E064E50D8A435EF0BF037EFCC
:101668000BF029EF0BF04D50D8B43DEF0BF03FEFE6
:101678000BF047EF0BF04C1E4B1E4A1E496C000E38
:101688004A224B224C2249C049F04AC04AF04BC07A
:101698004BF04CC04CF0120020EE01F01C50D92643
:1016A8001D50DA22010EDF6E20EE02F01C50D92602
:1016B8001D50DA22000EDF6E20EE01F01E50D926F2
:1016C8001F50DA22010EDF6E20EE02F01E50D926DE
:1016D8001F50DA22000EDF6E1CC0D9FF1DC0DAFFD2
:1016E800DF50800A4D0FD8A07CEF0BF07EEF0BF097
:1016F80084EF0BF01CC0D9FF1DC0DAFF320EDF6E7D
:101708001EC0D9FF1FC0DAFFDF50800A480FD8A0DB
:1017180090EF0BF092EF0BF098EF0BF01EC0D9FF93
:101728001FC0DAFF370EDF6E1CC0D9FF1DC0DAFFFD
:10173800DF50050F1CC0D9FF1DC0DAFFDF6E1EC0C9
:10174800D9FF1FC0DAFFDF500A0F1EC0D9FF1FC024
:10175800DAFFDF6E1CC016F01DC017F016EC0AF099
:101768001EC016F01FC017F016EC0AF0050E216E09
:101778000F0E206EF10EE82EFED7202EFCD7212E5C
:10178800FAD700F0120020EE01F01C50D9261D50A7
:10179800DA22010EDF6E20EE02F01C50D9261D5011
:1017A800DA22000EDF6E20EE01F01E50D9261F50FF
:1017B800DA22000EDF6E20EE02F01E50D9261F50EE
:1017C800DA22000EDF6E1CC0D9FF1DC0DAFFDF5021
:1017D800800A340FD8A0F3EF0BF0F5EF0BF0FBEF16
:1017E8000BF01CC0D9FF1DC0DAFF4B0EDF6E1EC008
:1017F800D9FF1FC0DAFFDF50800A340FD8A007EFE7
:101808000CF009EF0CF00FEF0CF01EC0D9FF1FC051
:10181800DAFF4B0EDF6E1CC0D9FF1DC0DAFFDF50A8
:10182800050F1CC0D9FF1DC0DAFFDF6E1EC0D9FF2F
:101838001FC0DAFFDF50050F1EC0D9FF1FC0DAFF37
:10184800DF6E1CC016F01DC017F016EC0AF01EC0A3
:1018580016F01FC017F016EC0AF0050E216E0F0ED9
:10186800206EF10EE82EFED7202EFCD7212EFAD7B7
:1018780000F0120020EE01F01C50D9261D50DA228B
:10188800000EDF6E20EE02F01C50D9261D50DA2221
:10189800000EDF6E20EE01F01E50D9261F50DA220E
:1018A800010EDF6E20EE02F01E50D9261F50DA22FC
:1018B800000EDF6E1CC0D9FF1DC0DAFFDF50800AA2
:1018C800340FD8A06AEF0CF06CEF0CF072EF0CF04C
:1018D8001CC0D9FF1DC0DAFF4B0EDF6E1EC0D9FF3A
:1018E8001FC0DAFFDF50800A340FD8A07EEF0CF05B
:1018F80080EF0CF086EF0CF01EC0D9FF1FC0DAFF96
:101908004B0EDF6E1CC0D9FF1DC0DAFFDF50050F7C
:101918001CC0D9FF1DC0DAFFDF6E1EC0D9FF1FC073
:10192800DAFFDF50050F1EC0D9FF1FC0DAFFDF6ED8
:101938001CC016F01DC017F016EC0AF01EC016F0F9
:101948001FC017F016EC0AF0050E216E0F0E206E60
:10195800F10EE82EFED7202EFCD7212EFAD700F064
:10196800120020EE01F01C50D9261D50DA22000E7C
:10197800DF6E20EE02F01C50D9261D50DA22000E30
:10198800DF6E20EE01F01E50D9261F50DA22000E1D
:10199800DF6E20EE02F01E50D9261F50DA22000E0C
:1019A800DF6E1CC0D9FF1DC0DAFFDF50800A4D0F63
:1019B800D8A0E1EF0CF0E3EF0CF0E9EF0CF01CC05D
:1019C800D9FF1DC0DAFF320EDF6E1EC0D9FF1FC05F
:1019D800DAFFDF50800A4D0FD8A0F5EF0CF0F7EFD3
:1019E8000CF0FDEF0CF01EC0D9FF1FC0DAFF320E5D
:1019F800DF6E1CC0D9FF1DC0DAFFDF50050F1CC009
:101A0800D9FF1DC0DAFFDF6E1EC0D9FF1FC0DAFF85
:101A1800DF50050F1EC0D9FF1FC0DAFFDF6E1CC0E4
:101A280016F01DC017F016EC0AF01EC016F01FC005
:101A380017F016EC0AF0050E216E0F0E206EF10E4F
:101A4800E82EFED7202EFCD7212EFAD700F0120060
:101A580034C027F035C028F036C029F037C02AF046
:101A68000BEC0EF097EF0DF0000E3E6E000E3D6E83
:101A78009D0E096E000E0A6E3C0E0B6E010E0C6E6A
:101A88008FEC12F009C03AF00AC03BF058EF0DF0A5
:101A980034C01CF035C01DF036C01EF037C01FF032
:101AA80050EC0BF03D4A3E2A3A503D5C3B503E58C4
:101AB800D8A061EF0DF063EF0DF04CEF0DF072EF71
:101AC8000DF034C01CF035C01DF036C01EF037C014
:101AD8001FF0A1EC0DF03D06D8A03E063D503E108B
:101AE800D8A479EF0DF07BEF0DF065EF0DF0560EF1
:101AF800096E000E0A6E750E0B6E000E0C6E53EC1E
:101B080013F03C6E3C50386E396A38C02EF039C03C
:101B18002FF034C030F035C031F036C032F037C065
:101B280033F048EC08F000019D51D8A49EEF0DF069
:101B3800A0EF0DF038EF0DF0120020EE02F01C506F
:101B4800D9261D50DA22010EDF6E20EE02F01E505B
:101B5800D9261F50DA22010EDF6E1CC0D9FF1DC026
:101B6800DAFF000EDBBEBDEF0DF0BBEF0DF0C3EFEB
:101B78000DF01CC0D9FF1DC0DAFF000EDF6E1EC0BD
:101B8800D9FF1FC0DAFF000EDBBECFEF0DF0CDEF9F
:101B98000DF0D5EF0DF01EC0D9FF1FC0DAFF000E03
:101BA800DF6E1CC0D9FF1DC0DAFFDF50FB0F1CC061
:101BB800D9FF1DC0DAFFDF6E1EC0D9FF1FC0DAFFD4
:101BC800DF50FB0F1EC0D9FF1FC0DAFFDF6E1CC03D
:101BD800D9FF1DC0DAFF000EDF6E1EC0D9FF1FC07F
:101BE800DAFF000EDF6E1CC016F01DC017F016ECF1
:101BF8000AF01EC016F01FC017F016EC0AF0D00E3F
:101C0800206ECA0EE82EFED7202EFCD71200000E3A
:101C18002D6E1AEF0EF027C01CF028C01DF029C049
:101C28001EF02AC01FF0B5EC0CF02D2A0E0E2D6404
:101C380020EF0EF022EF0EF00FEF0EF02FEF0EF068
:101C480027C01CF028C01DF029C01EF02AC01FF0B4
:101C5800A1EC0DF02D062D50D8A435EF0EF037EF7E
:101C68000EF024EF0EF0090E2C6E1E0E2B6EE40EF5
:101C7800E82EFED72B2EFCD72C2EFAD700D027C063
:101C880022F028C023F029C024F02AC025F02EEC29
:101C980011F0050E2C6E0F0E2B6EF10EE82EFED7EE
:101CA8002B2EFCD72C2EFAD700F027C022F028C004
:101CB80023F029C024F02AC025F02EEC11F01200E0
:101CC8007D9485947D9885987B9E839E7F9C879C38
:101CD800050E0E01746F060E766F070E696F080EFB
:101CE800886FBD508F0B4009BD6EE00EBE16BF5009
:101CF800F00B0109BF6E09C0BCFFBD8E000EAA6EB5
:101D0800000EA66E000E0F01256F000E216FFC0E4F
:101D1800AD16F30EAD16CF0EAD163F0EAD16AB8851
:101D2800AB50F00B0C09AB6EAB8EA788A750F00B2D
:101D38000C09A76EA78E26892651F00B0C09266F71
:101D4800268F22892251F00B0C09226F228F120054
:101D5800000E2D6EBBEF0EF027C01CF028C01DF042
:101D680029C01EF02AC01FF0B5EC0CF02D2A1B0E5E
:101D78002D64C1EF0EF0C3EF0EF0B0EF0EF0D0EF10
:101D88000EF027C01CF028C01DF029C01EF02AC084
:101D98001FF0A1EC0DF02D062D50D8A4D6EF0EF0B3
:101DA800D8EF0EF0C5EF0EF0090E2C6E1E0E2B6E3E
:101DB800E40EE82EFED72B2EFCD72C2EFAD700D017
:101DC80027C022F028C023F029C024F02AC025F01B
:101DD800A7EC10F01200000E2D6EFEEF0EF027C0DB
:101DE8001CF028C01DF029C01EF02AC01FF0B5EC59
:101DF8000CF02D2A0E0E2D6404EF0FF006EF0FF0F5
:101E0800F3EF0EF013EF0FF027C01CF028C01DF001
:101E180029C01EF02AC01FF0A1EC0DF02D062D5090
:101E2800D8A419EF0FF01BEF0FF008EF0FF0090E11
:101E38002C6E1E0E2B6EE40EE82EFED72B2EFCD732
:101E48002C2EFAD700D027C022F028C023F029C0B2
:101E580024F02AC025F0A7EC10F01200000E2D6E19
:101E680041EF0FF027C01CF028C01DF029C01EF05C
:101E78002AC01FF0B5EC0CF02D2A1B0E2D6447EF7D
:101E88000FF049EF0FF036EF0FF056EF0FF027C0C5
:101E98001CF028C01DF029C01EF02AC01FF0A1ECBC
:101EA8000DF02D062D50D8A45CEF0FF05EEF0FF06B
:101EB8004BEF0FF0090E2C6E1E0E2B6EE40EE82E63
:101EC800FED72B2EFCD72C2EFAD700D027C022F015
:101ED80028C023F029C024F02AC025F02EEC11F0E8
:101EE8001200000E2D6E84EF0FF027C01CF028C0E2
:101EF8001DF029C01EF02AC01FF0B5EC0CF02D2AE9
:101F08000E0E2D648AEF0FF08CEF0FF079EF0FF0C3
:101F180099EF0FF027C01CF028C01DF029C01EF053
:101F28002AC01FF0A1EC0DF02D062D50D8A49FEF6C
:101F38000FF0A1EF0FF08EEF0FF0090E2C6E1E0EB2
:101F48002B6EE40EE82EFED72B2EFCD72C2EFAD7BC
:101F580000D027C022F028C023F029C024F02AC0CE
:101F680025F0D4EC10F01200000E2D6EC7EF0FF024
:101F780027C01CF028C01DF029C01EF02AC01FF081
:101F8800B5EC0CF02D2A0E0E2D64CDEF0FF0CFEF2F
:101F98000FF0BCEF0FF0DCEF0FF027C01CF028C0EB
:101FA8001DF029C01EF02AC01FF0A1EC0DF02D066F
:101FB8002D50D8A4E2EF0FF0E4EF0FF0D1EF0FF0BF
:101FC800090E2C6E1E0E2B6EE40EE82EFED72B2E5D
:101FD800FCD72C2EFAD700D027C022F028C023F037
:101FE80029C024F02AC025F001EC11F01200000EDF
:101FF8002D6E0AEF10F027C01CF028C01DF029C074
:102008001EF02AC01FF0B5EC0CF02D2A0E0E2D6420
:1020180010EF10F012EF10F0FFEF0FF01FEF10F0BD
:1020280027C01CF028C01DF029C01EF02AC01FF0D0
:10203800A1EC0DF02D062D50D8A425EF10F027EFB8
:1020480010F014EF10F0090E2C6E1E0E2B6EE40E1D
:10205800E82EFED72B2EFCD72C2EFAD700D027C07F
:1020680022F028C023F029C024F02AC025F02EEC45
:1020780011F01200000E146E000E136E11501210A3
:10208800D8B449EF10F04BEF10F073EF10F0010ED9
:10209800156E53EF10F0D89011361236152A12AE7D
:1020A80058EF10F05AEF10F04FEF10F0D8901336A9
:1020B800143611500F5C12501058D8A066EF10F06B
:1020C80068EF10F06DEF10F011500F5E1250105ABB
:1020D8001380D89012321132152E5AEF10F013C017
:1020E8000FF014C010F012005BEC11F014C0D9FF0F
:1020F80015C0DAFF0DC0DEFF0EC0DDFF83EC11F066
:1021080020EE02F01450D9261550DA220DC0DEFF59
:102118000EC0DDFFD3EC11F020EE04F01450D926E8
:102128001550DA220DC0DEFF0EC0DDFFABEC11F05A
:1021380020EE06F01450D9261550DA220DC0DEFF25
:102148000EC0DDFF1200000E266EB6EF10F022C0A2
:102158001CF023C01DF024C01EF025C01FF0C7ECE2
:102168000BF0262A120E2664BCEF10F0BEEF10F01A
:10217800ABEF10F0CBEF10F022C01CF023C01DF025
:1021880024C01EF025C01FF0A1EC0DF02606265035
:10219800D8A4D1EF10F0D3EF10F0C0EF10F0120078
:1021A800000E266EE3EF10F022C01CF023C01DF0D5
:1021B80024C01EF025C01FF0C7EC0BF0262A140E11
:1021C8002664E9EF10F0EBEF10F0D8EF10F0F8EF1D
:1021D80010F022C01CF023C01DF024C01EF025C042
:1021E8001FF0A1EC0DF026062650D8A4FEEF10F043
:1021F80000EF11F0EDEF10F01200000E266E10EF58
:1022080011F022C01CF023C01DF024C01EF025C010
:102218001FF03EEC0CF0262A140E266416EF11F07F
:1022280018EF11F005EF11F025EF11F022C01CF0A6
:1022380023C01DF024C01EF025C01FF0A1EC0DF036
:1022480026062650D8A42BEF11F02DEF11F01AEF27
:1022580011F01200000E266E3DEF11F022C01CF0A6
:1022680023C01DF024C01EF025C01FF03EEC0CF06A
:10227800262A120E266443EF11F045EF11F032EFD3
:1022880011F052EF11F022C01CF023C01DF024C041
:102298001EF025C01FF0A1EC0DF026062650D8A48C
:1022A80058EF11F05AEF11F047EF11F01200DCEC83
:1022B80013F0520EC6EC13F0B60EC6EC13F0D2ECC7
:1022C80013F0530EC6EC13F0010E6EEC12F00F6E05
:1022D8000F50126E136A000E6EEC12F00F6E0F5054
:1022E800116E106A12501010126E13501110136EE6
:1022F800D7EC13F012C00DF013C00EF01200DCEC96
:1023080013F0520EC6EC13F0B80EC6EC13F0D2EC74
:1023180013F0530EC6EC13F0010E6EEC12F00F6EB4
:102328000F50126E136A000E6EEC12F00F6E0F5003
:10233800116E106A12501010126E13501110136E95
:10234800D7EC13F012C00DF013C00EF01200DCEC45
:1023580013F0520EC6EC13F0B40EC6EC13F0D2EC28
:1023680013F0530EC6EC13F0010E6EEC12F00F6E64
:102378000F50126E136A000E6EEC12F00F6E0F50B3
:10238800116E106A12501010126E13501110136E45
:10239800D7EC13F012C00DF013C00EF01200DCECF5
:1023A80013F0520EC6EC13F0BA0EC6EC13F0D2ECD2
:1023B80013F0530EC6EC13F0010E6EEC12F00F6E14
:1023C8000F50126E136A000E6EEC12F00F6E0F5063
:1023D800116E106A12501010126E13501110136EF5
:1023E800D7EC13F012C00DF013C00EF01200130E4C
:1023F8000B6E000E74EC13F03F0E0D6E550EE82EAA
:10240800FED70D2EFCD700F0040E0B6E0C0E74ECEC
:1024180013F04FC00BF0040E74EC13F050500B6E19
:10242800050E74EC13F0D3C00BF0060E74EC13F029
:102438000001D4510B6E070E74EC13F01200130E4A
:10244800036E000E94EC13F03F0E056E550EE82E49
:10245800FED7052EFCD700F0040E036E0C0E94EC8C
:1024680013F04FC003F0040E94EC13F05050036EB9
:10247800050E94EC13F0D3C003F0060E94EC13F0A1
:102488000001D451036E070E94EC13F01200DE0E17
:10249800F66E270EF76E000EF86E0900F5CFD3F032
:1024A8000900F5CFD4F001EE00F08C0EEE6AE806D4
:1024B800FDE100EE60F03E0EEE6AE806FDE100EE9A
:1024C8004FF0080EEE6AE806FDE1579057920001BA
:1024D8001EEF07F00B6EF3EC12F00E01DA87F3EC47
:1024E80012F0D5CE0CF0F3EC12F00B50D8B47FEF0D
:1024F80012F083EF12F00A6A0A2A84EF12F00A6ACD
:102508000A3A0A460E01DA510A18DF0B0A18DA6F7E
:10251800DA890C50120009C0D9FF0AC0DAFFDF06B9
:10252800DF500D6E0D50020DF3CF0EF0F4CF0FF00B
:102538000E500B24D96E0F500C20DA6EDECF10F03F
:10254800DDCF11F010C009F011C00AF01200DEEC66
:1025580012F0010E0B6E000E74EC13F03F0E0D6EB0
:10256800550EE82EFED70D2EFCD700F0030E0B6E8D
:10257800000E74EC13F0D50E0B6E010E74EC13F014
:1025880012000BC0D9FF0CC0DAFFDFCF0FF0010E2D
:10259800DF260F50020DF3CF10F0F4CF11F01050DA
:1025A8000D24D96E11500E20DA6E09C0DEFF0AC064
:1025B800DDFF12000E01D951F00B0809D96FD98B34
:1025C8009F0ED66F848A848CA79BA79D1D0E1D6FB6
:1025D8001E0E1C6F1C0E6F6F1B0E706F12000E010B
:1025E800D8B5F9EF12F0FBEF12F0F3EF12F0DACEF4
:1025F80009F01F0E0916D8A404EF13F006EF13F024
:10260800F3EF12F012000E01D8B50DEF13F00FEF33
:1026180013F007EF13F0DACE01F01F0E0116D8A45D
:1026280018EF13F01AEF13F007EF13F01200095028
:102638000B02F3CF0DF0F4CF0EF009500C02F3505B
:102648000E260A500B02F3500E260DC009F00EC0DC
:102658000AF0120082820E019A93090E0D01F16FA1
:102668000E0129831F83F292298B1F9B2D87A4ECCF
:1026780013F0F28AF28CF28E12000E6E09C0D9FFA6
:102688000AC0DAFFDFCF0DF0010EDF260D500B2454
:10269800D96E000E0C20DA6E0EC0DFFF120009C0E2
:1026A800D9FF0AC0DAFFDF06DF500D6E0D500B248C
:1026B800D96E000E0C20DA6EDF500E6E0E5012002E
:1026C800D6501F0B4009D66ED688D650F00B080995
:1026D800D66ED588C20ED46EF60ED36ED58E120085
:1026E8000C6EDCEC13F0520EC6EC13F00C508009A3
:1026F800C6EC13F00B50C6EC13F0D7EC13F0120035
:102708000E0133A38AEF13F08CEF13F092EF13F05E
:10271800010E556EB1EC13F00E0133935792110070
:10272800046EE6EC13F0520ECCEC13F00450800962
:10273800CCEC13F00350CCEC13F0E1EC13F01200E6
:10274800DCEC13F0520EC6EC13F0E60EC6EC13F0F8
:10275800D7EC13F0FBEC11F01200E6EC13F0520E7C
:10276800CCEC13F0E60ECCEC13F0E1EC13F023EC18
:1027780012F0120087928198869E809688967C9E99
:10278800849E12000A6EF3EC12F00AC0D5FE120005
:10279800026E07EC13F002C0D5FE1200F3EC12F043
:1027A8000E01DA831200F3EC12F00E01DA85120042
:1027B800F3EC12F00E01DA81120007EC13F00E01AF
:1027C800DA85120007EC13F00E01DA8112007F821D
:0827D80079887E8E1200C4090D
:020000040020DA
:10000000FF0FFF0FFF0FFF0FFF0FFF0FFF0FFF0F80
:020000040030CA
:0C000000AAFFFFFF9FFFFFFFFFFFFFFFB5
:00000001FF
