:040000002CEF00F0F1
:060008005782A0EF11F089
:100018005780D8CF06F0E8CF07F0E0CF08F00E0100
:1000280033AB19EF00F01BEF00F024EF00F0C20E25
:10003800D46EF60ED36E010E0001B06F0E01339B25
:1000480008C0E0FF07C0E8FF06C0D8FF57901000BF
:1000580006EF11F0000E0001C46F000E346E000EA2
:10006800356EC80E366E420E376E20EE04F0B6516D
:10007800D926B751DA22DECFB8F0DDCFB9F020EEBD
:1000880002F0B651D926B751DA22DECFBAF0DDCF69
:10009800BBF0B6C0D9FFB7C0DAFFDECFBCF0DDCF0A
:1000A800BDF0BA51BC25BE6FBB51BD21BF6FB85161
:1000B800BE25C06FB951BF21C16FC0C009F0C1C012
:1000C8000AF00B6A0C6A000E1EEC07F009C01BF060
:1000D8000AC01CF00BC01DF00CC01EF0B6C0D9FF42
:1000E800B7C0DAFFDECFC2F0DDCFC3F0C2C009F07F
:1000F800C3C00AF00B6A0C6A000E1EEC07F009C0B8
:1001080017F00AC018F00BC019F00CC01AF051EC27
:1001180005F017C030F018C031F019C032F01AC01D
:1001280033F03CEC03F030C049F031C04AF032C043
:100138004BF033C04CF0F5EC09F049500001C56FA5
:10014800000E346E000E356EC80E366E420E376ED7
:1001580020EE04F0B651D926B751DA22DECFB8F036
:10016800DDCFB9F020EE02F0B651D926B751DA2228
:10017800DECFBAF0DDCFBBF0B6C0D9FFB7C0DAFF2B
:10018800DECFBCF0DDCFBDF0BA51BC25BE6FBB5190
:10019800BD21BF6FB851BE25C06FB951BF21C16F16
:1001A800C0C009F0C1C00AF00B6A0C6A000E1EEC50
:1001B80007F009C01BF00AC01CF00BC01DF00CC0F2
:1001C8001EF0000120EE02F0B651D926B751DA220E
:1001D800DECFC2F0DDCFC3F0C2C009F0C3C00AF061
:1001E8000B6A0C6A000E1EEC07F009C017F00AC073
:1001F80018F00BC019F00CC01AF051EC05F017C03C
:1002080030F018C031F019C032F01AC033F03CECAD
:1002180003F030C049F031C04AF032C04BF033C06F
:100228004CF0F5EC09F049500001C66F000E346E31
:10023800000E356EC80E366E420E376E20EE04F094
:10024800B651D926B751DA22DECFB8F0DDCFB9F0F2
:1002580020EE02F0B651D926B751DA22DECFBAF035
:10026800DDCFBBF0B6C0D9FFB7C0DAFFDECFBCF038
:10027800DDCFBDF0BA51BC25BE6FBB51BD21BF6FEC
:10028800B851BE25C06FB951BF21C16FC0C009F0B8
:10029800C1C00AF00B6A0C6A000E1EEC07F009C018
:1002A8001BF00AC01CF00BC01DF00CC01EF00001B2
:1002B80020EE04F0B651D926B751DA22DECFC2F0CB
:1002C800DDCFC3F0C2C009F0C3C00AF00B6A0C6AE4
:1002D800000E1EEC07F009C017F00AC018F00BC09A
:1002E80019F00CC01AF051EC05F017C030F018C026
:1002F80031F019C032F01AC033F03CEC03F030C0D2
:1003080049F031C04AF032C04BF033C04CF0F5EC44
:1003180009F049500001C76FB151D8B496EF01F008
:1003280098EF01F038EF03F0490EC5659EEF01F034
:10033800A0EF01F0CCEF01F04D0EC561A6EF01F082
:10034800A8EF01F0CCEF01F0090EC665AEEF01F0A1
:10035800B0EF01F0CCEF01F00D0EC661B6EF01F081
:10036800B8EF01F0CCEF01F00C0EC765BEEF01F05D
:10037800C0EF01F0CCEF01F0100EC761C6EF01F03D
:10038800C8EF01F0CCEF01F0010EC46F38EF03F0B5
:10039800230EC565D2EF01F0D4EF01F000EF02F0B3
:1003A800270EC561DAEF01F0DCEF01F000EF02F093
:1003B800280EC665E2EF01F0E4EF01F000EF02F06D
:1003C8002C0EC661EAEF01F0ECEF01F000EF02F04D
:1003D800130EC765F2EF01F0F4EF01F000EF02F041
:1003E800170EC761FAEF01F0FCEF01F000EF02F021
:1003F800020EC46F38EF03F01C0EC56506EF02F05D
:1004080008EF02F034EF02F0230EC5610EEF02F0A0
:1004180010EF02F034EF02F01F0EC66516EF02F07F
:1004280018EF02F034EF02F0270EC6611EEF02F05B
:1004380020EF02F034EF02F01E0EC76526EF02F03F
:1004480028EF02F034EF02F0260EC7612EEF02F01B
:1004580030EF02F034EF02F0030EC46F38EF03F010
:10046800310EC5653AEF02F03CEF02F068EF02F09A
:10047800350EC56142EF02F044EF02F068EF02F07A
:100488001D0EC6654AEF02F04CEF02F068EF02F06D
:10049800210EC66152EF02F054EF02F068EF02F04D
:1004A800100EC7655AEF02F05CEF02F068EF02F039
:1004B800140EC76162EF02F064EF02F068EF02F019
:1004C800040EC46F38EF03F02F0EC5656EEF02F00F
:1004D80070EF02F09CEF02F0330EC56176EF02F088
:1004E80078EF02F09CEF02F01B0EC6657EEF02F07B
:1004F80080EF02F09CEF02F01F0EC66186EF02F05B
:1005080088EF02F09CEF02F0140EC7658EEF02F040
:1005180090EF02F09CEF02F0180EC76196EF02F020
:1005280098EF02F09CEF02F0050EC46F38EF03F06D
:100538003A0EC565A2EF02F0A4EF02F0D0EF02F088
:100548003E0EC561AAEF02F0ACEF02F0D0EF02F068
:10055800150EC665B2EF02F0B4EF02F0D0EF02F06C
:10056800190EC661BAEF02F0BCEF02F0D0EF02F04C
:100578000F0EC765C2EF02F0C4EF02F0D0EF02F031
:10058800130EC761CAEF02F0CCEF02F0D0EF02F011
:10059800060EC46F38EF03F0200EC565D6EF02F0E3
:1005A800D8EF02F004EF03F0240EC561DEEF02F08D
:1005B800E0EF02F004EF03F0250EC665E6EF02F067
:1005C800E8EF02F004EF03F0290EC661EEEF02F047
:1005D800F0EF02F004EF03F0190EC765F6EF02F032
:1005E800F8EF02F004EF03F01D0EC761FEEF02F012
:1005F80000EF03F004EF03F0070EC46F38EF03F0C9
:100608002A0EC5650AEF03F00CEF03F038EF03F08C
:100618002E0EC56112EF03F014EF03F038EF03F06C
:100628001F0EC6651AEF03F01CEF03F038EF03F056
:10063800230EC66122EF03F024EF03F038EF03F036
:10064800150EC7652AEF03F02CEF03F038EF03F01F
:10065800190EC76132EF03F034EF03F038EF03F0FF
:10066800080EC46F38EF03F0000EB16FC4511200CA
:100678003350800B3C6E33503324426E32AE47EF1A
:1006880003F049EF03F04AEF03F042804250D8B438
:1006980050EF03F052EF03F065EF03F04228D8A4BF
:1006A80058EF03F05AEF03F062EF03F0000E306EDC
:1006B800000E316E000E326E000E336E328E6DEF0C
:1006C80003F0000E306E000E316E000E326E000E1A
:1006D800336E3750800B3C1A37503724416E36AE94
:1006E80078EF03F07AEF03F07BEF03F0418041509D
:1006F800D8B481EF03F083EF03F096EF03F04128BD
:10070800D8A489EF03F08BEF03F093EF03F0000E0A
:10071800346E000E356E000E366E000E376E368E55
:100728009EEF03F0000E346E000E356E000E366E2E
:10073800000E376E4150D8B4A4EF03F0A6EF03F0D3
:10074800AEEF03F04250D8A4ACEF03F0AEEF03F0E5
:10075800B8EF03F0000E306E000E316E000E326EF0
:10076800000E336E50EF05F036503002F3CF47F0ED
:10077800F4CF48F047503D6E3E6A3F6A406A4850A1
:10078800436E446A456A466A35503102F3CF47F0F2
:10079800F4CF48F047503D26000E3E223F2240222B
:1007A80048504326000E4422452246223450320245
:1007B800F3CF47F0F4CF48F047503D26000E3E22D5
:1007C8003F22402248504326000E4422452246221A
:1007D8003FC040F03EC03FF03DC03EF03D6A34505F
:1007E8003102F3CF47F0F4CF48F047503D26485048
:1007F8003E22000E3F22000E402235503002F3CF39
:1008080047F0F4CF48F047503D2648503E22000EAE
:100818003F22000E40223FC040F03EC03FF03DC0A6
:100828003EF03D6A34503002F3CF47F0F4CF48F041
:1008380047503D2648503E22000E3F22000E4022DF
:1008480036503102F3CF47F0F4CF48F047504326F3
:1008580048504422000E4522000E462235503202EE
:10086800F3CF47F0F4CF48F047504326485044228E
:10087800000E4522000E462236503202F3CF47F0D2
:10088800F4CF48F04750386E4850396E3A6A3B6AA0
:100898003AC03BF039C03AF038C039F0386A3850BD
:1008A8004326395044223A5045223B5046223DC007
:1008B80038F03EC039F03FC03AF040C03BF0190E66
:1008C8006BEF04F0D8903B323A3239323832E82EA6
:1008D80066EF04F038504326395044223A504522F6
:1008E8003B5046223FC040F03EC03FF03DC03EF086
:1008F8003D6A415042C038F0396A3826000E392224
:10090800820E3824476EFF0E3920486EA1EF04F09E
:10091800D890433644364536463640AE96EF04F016
:1009280098EF04F099EF04F04380D8903D363E36B6
:100938003F3640364706D8A0480645AEA6EF04F035
:10094800A8EF04F08CEF04F0000E416E40AEAFEF5C
:1009580004F0B1EF04F0D5EF04F0FF0E3D14386E4B
:10096800FF0E3E14396EFF0E3F143A6E7F0E401490
:100978003B6E385039103A103B10D8B4C6EF04F02B
:10098800C8EF04F0CCEF04F0010E416ED5EF04F08F
:1009980043A0D1EF04F0D3EF04F0D5EF04F0C8EF93
:1009A80004F04150D8B4DBEF04F0DDEF04F001EFC0
:1009B80005F0010E4326000E44224522462246A099
:1009C800E8EF04F0EAEF04F001EF05F043C038F077
:1009D80044C039F045C03AF046C03BF03B343B32A6
:1009E8003A323932383238C043F039C044F03AC06C
:1009F80045F03BC046F0474A482A48BE0CEF05F090
:100A0800485008E14728D8A00CEF05F00EEF05F094
:100A180018EF05F0000E436E000E446E800E456E12
:100A28007F0E466E46EF05F048BE25EF05F04850AC
:100A380006E14704D8B023EF05F025EF05F031EFC4
:100A480005F0000E436E000E446E000E456E000E5B
:100A5800466E000E3C6E46EF05F047C042F0FF0EB2
:100A68004316FF0E44167F0E4516000E461642A08A
:100A780040EF05F042EF05F043EF05F0458ED890C2
:100A88004230466E3C50461243C030F044C031F00C
:100A980045C032F046C033F012001A50800B276E62
:100AA8001A501A242E6E19AE5CEF05F05EEF05F0B1
:100AB8005FEF05F02E802E50D8B465EF05F067EF94
:100AC80005F07CEF05F02E28D8A46DEF05F06FEF48
:100AD80005F077EF05F0000E176E000E186E000E89
:100AE800196E000E1A6E198E000E1A6E84EF05F03C
:100AF800000E176E000E186E000E196E000E1A6E9C
:100B08001E50800B271A1E501E242F6E1DAE8FEF0D
:100B180005F091EF05F092EF05F02F802F50D8B433
:100B280098EF05F09AEF05F0AFEF05F02F28D8A45D
:100B3800A0EF05F0A2EF05F0AAEF05F0000E1B6E7E
:100B4800000E1C6E000E1D6E000E1E6E1D8E000E19
:100B58001E6EB7EF05F0000E1B6E000E1C6E000E29
:100B68001D6E000E1E6E1B501C101D101E10D8A4EA
:100B7800C0EF05F0C2EF05F0DAEF05F0000E176ED2
:100B8800000E186E000E196E000E1A6E800E1912E5
:100B98007F0E1A1227501A1217C017F018C018F033
:100BA80019C019F01AC01AF01DEF07F02E50D8A47A
:100BB800E0EF05F0E2EF05F0ECEF05F0000E176E40
:100BC800000E186E000E196E000E1A6E1DEF07F05B
:100BD8002F502EC01FF0206A1F5E000E205A7F0E75
:100BE8001F24286E000E2020296E17C023F018C07D
:100BF80024F019C025F01AC026F0000E176E000E5A
:100C0800186E000E196E000E1A6E000E2A6E000E77
:100C18002B6E000E2C6E000E2D6E000E2F6E4DEFFB
:100C280006F02F50D8B41BEF06F01DEF06F034EF96
:100C380006F0D8902336243625362636D89017362F
:100C4800183619361A362DAE2CEF06F02EEF06F0B0
:100C58002FEF06F01780D8902A362B362C362D36F3
:100C68001B50235C1C5024581D5025581E502658D4
:100C7800D8A041EF06F043EF06F04CEF06F02D8CBC
:100C88001B50235E1C50245A1D50255A1E50265AAC
:100C98002F2A190E2F6453EF06F055EF06F015EFC3
:100CA80006F02350241025102610D8B45EEF06F065
:100CB80060EF06F078EF06F02A8078EF06F0D8901B
:100CC8001736183619361A362DAE6DEF06F06FEF57
:100CD80006F070EF06F01780D8902A362B362C369F
:100CE8002D362806D8A0290619AE7DEF06F07FEF2D
:100CF80006F063EF06F0000E2F6E2DAE86EF06F0BD
:100D080088EF06F0ACEF06F0FF0E2A141F6EFF0EF8
:100D18002B14206EFF0E2C14216E7F0E2D14226EC4
:100D28001F50201021102210D8B49DEF06F09FEF1D
:100D380006F0A3EF06F0010E2F6EACEF06F017A039
:100D4800A8EF06F0AAEF06F0ACEF06F09FEF06F06A
:100D58002F50D8B4B2EF06F0B4EF06F0D8EF06F093
:100D6800010E1726000E182219221A221AA0BFEF08
:100D780006F0C1EF06F0D8EF06F017C01FF018C054
:100D880020F019C021F01AC022F022342232213278
:100D980020321F321FC017F020C018F021C019F0F0
:100DA80022C01AF0284A292A29BEE3EF06F0295062
:100DB80008E12828D8A0E3EF06F0E5EF06F0F0EF09
:100DC80006F0000E296E2868000E176E000E186EC9
:100DD800000E196E000E1A6E29BEFDEF06F029509E
:100DE80006E12804D8B0FBEF06F0FDEF06F00BEFA4
:100DF80007F0000E296E000E286E000E176E000E0A
:100E0800186E000E196E000E1A6E000E276E28C09E
:100E18002EF02EA012EF07F014EF07F017EF07F0EF
:100E2800198E18EF07F0199ED8902E301A6ECEEF53
:100E380005F01200116E1150D8B425EF07F027EF16
:100E480007F049EF07F00CBE2EEF07F02CEF07F084
:100E580049EF07F009C00DF00AC00EF00BC00FF003
:100E68000CC010F00D1E0E1E0F1E101E0D2A000EB7
:100E78000E220F2210220DC013F00EC014F00FC066
:100E880015F010C016F051EF07F009C013F00AC0B2
:100E980014F00BC015F00CC016F009500A100B1016
:100EA8000C10D8A45AEF07F05CEF07F066EF07F0D4
:100EB800000E096E000E0A6E000E0B6E000E0C6E10
:100EC800F7EF07F0960E126E70EF07F0122AD8901F
:100ED8001632153214321332000E13140D6E000E32
:100EE80014140E6E000E15140F6EFE0E1614106EEE
:100EF8000D500E100F101010D8A485EF07F087EFD3
:100F080007F06AEF07F095EF07F0122A010E132693
:100F1800000E142215221622D890163215321432D9
:100F28001332000E13140D6E000E14140E6E000E04
:100F380015140F6EFF0E1614106E0D500E100F10B4
:100F48001010D8A4AAEF07F0ACEF07F089EF07F06C
:100F5800B4EF07F01206D890133614361536163645
:100F680015BEB9EF07F0BBEF07F0C3EF07F0020EAD
:100F78001260C1EF07F0C3EF07F0AEEF07F012B051
:100F8800C8EF07F0CAEF07F0CBEF07F0159ED8902F
:100F9800123212C00DF00E6A0F6A106A0DC010F0FE
:100FA8000F6A0E6A0D6A0D5013120E5014120F506C
:100FB8001512105016121150D8B4E5EF07F0E7EFEC
:100FC80007F0EFEF07F00CBEEEEF07F0ECEF07F0DD
:100FD800EFEF07F0168E13C009F014C00AF015C021
:100FE8000BF016C00CF0120020EE02F01650D926B5
:100FF8001750DA22DF50D8B404EF08F006EF08F0F3
:101008003AEF08F016C0D9FF17C0DAFFDF50096EB3
:101018000A6A09BE0A0620EE03F01650D9261750B0
:10102800DA22DECF0BF0DDCF0CF07AEC11F009C03C
:101038000FF00AC010F0000E126E640E116EDAEC9A
:101048000EF020EE03F01650D9261750DA22DF50A2
:10105800186E0F50185C1A6E20EE03F01650D92641
:101068001750DA22DF501B6E5DEF08F0000E1A6E83
:1010780016C0D9FF17C0DAFFDF50096E0A6A09BE29
:101088000A0620EE03F01650D9261750DA22DECFD2
:101098000BF0DDCF0CF07AEC11F009C00FF00AC0AC
:1010A80010F0000E126E640E116EDAEC0EF00F5096
:1010B8001B6E20EE01F01650D9261750DA22DF50A9
:1010C800D8B469EF08F06BEF08F08DEF08F020EE68
:1010D80005F01650D9261750DA22DECF18F0DDCFEA
:1010E80019F018C0D9FF19C0DAFF1AC0DFFF20EEC7
:1010F80007F01650D9261750DA22DECF18F0DDCFC8
:1011080019F018C0D9FF19C0DAFF1BC0DFFFADEF17
:1011180008F020EE05F01650D9261750DA22DECF57
:1011280018F0DDCF19F018C0D9FF19C0DAFF1BC0BD
:10113800DFFF20EE07F01650D9261750DA22DECF4F
:1011480018F0DDCF19F018C0D9FF19C0DAFF1AC09E
:10115800DFFF1200000E0001CD6F000ECC6F000EF5
:10116800CF6F000ECE6F000ED16F000ED06F000E45
:10117800D36F000ED26FFBEC11F023EC11F08DEC65
:1011880011F0B1EC11F0000E0A6E630E096E00EC5E
:101198000DF0000E0001D46F010ED56F010ED66F51
:1011A800AA0ED96F0F0EDA6FA60EDB6F0F0EDC6F6B
:1011B800BCCFD7F0D86B000EDD6F010EDE6F010ECD
:1011C800DF6F250EE26F0F0EE36F210EE46F0F0E37
:1011D800E56FBCCFE0F0E16B26EC12F0CC0E146E9C
:1011E800000E156E14EC0FF0CC0E0001B66F000E59
:1011F800B76F2EEC00F00001CB6F000ECA6FCB5119
:10120800D8A409EF09F00BEF09F019EF09F0D40E93
:101218001C6E000E1D6EDD0E1E6E000E1F6E67EC3E
:101228000BF00001CA2BF2EF08F0CB51D8B41FEF36
:1012380009F021EF09F0F2EF08F0808630EF09F0AD
:10124800D40E1C6E000E1D6EDD0E1E6E000E1F6E7F
:101258003DEC0CF00001CA07CA51D8A436EF09F0DA
:1012680038EF09F024EF09F0290E0001C96F960E36
:10127800C86F7F0EE82EFED7C82FFCD7C92FFAD724
:1012880080960001CB51C86FC96BC8C02EF0C9C089
:101298002FF0D40E306E000E316EDD0E326E000E61
:1012A800336E5BEC09F0F2EF08F02CEF00F02E043F
:1012B8002F10D8A462EF09F064EF09F070EF09F07D
:1012C80030C027F031C028F032C029F033C02AF0EE
:1012D8008BEC0DF0F4EF09F0020E2E182F10D8A4A5
:1012E80078EF09F07AEF09F086EF09F030C027F0BF
:1012F80031C028F032C029F033C02AF097EC0EF044
:10130800F4EF09F0030E2E182F10D8A48EEF09F071
:1013180090EF09F09CEF09F030C027F031C028F0B9
:1013280032C029F033C02AF0A7EC0CF0F4EF09F032
:10133800040E2E182F10D8A4A4EF09F0A6EF09F078
:10134800B2EF09F030C027F031C028F032C029F0E0
:1013580033C02AF048EC0DF0F4EF09F0050E2E1812
:101368002F10D8A4BAEF09F0BCEF09F0C8EF09F0C4
:1013780030C027F031C028F032C029F033C02AF03D
:10138800CEEC0DF0F4EF09F0060E2E182F10D8A4AD
:10139800D0EF09F0D2EF09F0DEEF09F030C027F006
:1013A80031C028F032C029F033C02AF011EC0EF019
:1013B800F4EF09F0070E2E182F10D8A4E6EF09F065
:1013C800E8EF09F0F4EF09F030C027F031C028F059
:1013D80032C029F033C02AF054EC0EF0F4EF09F0D3
:1013E80012004B344C344E6E4E50D8A4FEEF09F028
:1013F80000EF0AF00AEF0AF0000E496E000E4A6E7E
:10140800000E4B6E000E4C6E78EF0AF049C0B2F039
:101418004AC0B3F04BC0B4F04CC0B5F0200E1BEF7F
:101428000AF00001D890B533B433B333B233E82EA1
:1014380015EF0AF0B2514D6E4B8EFF0E4916FF0E96
:101448004A16FF0E4B16000E4C16960E4E5E4EBEFA
:1014580032EF0AF030EF0AF048EF0AF04E50800AF7
:10146800970FD8B03AEF0AF03CEF0AF03EEF0AF0D7
:1014780000EF0AF0D8904C324B324A3249324E3E95
:101488003EEF0AF060EF0AF01F0E4E644EEF0AF0CE
:1014980050EF0AF058EF0AF000EF0AF0D8904936FA
:1014A8004A364B364C364E064E50D8A45EEF0AF0FC
:1014B80060EF0AF052EF0AF04D50D8B466EF0AF028
:1014C80068EF0AF070EF0AF04C1E4B1E4A1E496C7A
:1014D800000E4A224B224C2249C049F04AC04AF029
:1014E8004BC04BF04CC04CF0120020EE01F01C50E9
:1014F800D9261D50DA22010EDF6E20EE02F01C50B4
:10150800D9261D50DA22000EDF6E20EE01F01E50A3
:10151800D9261F50DA22000EDF6E20EE02F01E5090
:10152800D9261F50DA22000EDF6E1CC0D9FF1DC05D
:10153800DAFFDF50800A340FD8A0A5EF0AF0A7EF32
:101548000AF0ADEF0AF01CC0D9FF1DC0DAFF4B0E40
:10155800DF6E1EC0D9FF1FC0DAFFDF50800A340FCC
:10156800D8A0B9EF0AF0BBEF0AF0C1EF0AF01EC02D
:10157800D9FF1FC0DAFF4B0EDF6E1CC0D9FF1DC09C
:10158800DAFFDF50050F1CC0D9FF1DC0DAFFDF6E80
:101598001EC0D9FF1FC0DAFFDF50050F1EC0D9FFDC
:1015A8001FC0DAFFDF6E1CC016F01DC017F0F8EC84
:1015B80007F01EC016F01FC017F0F8EC07F0050E74
:1015C800216E0F0E206EF10EE82EFED7202EFCD7CE
:1015D800212EFAD700F0120020EE01F01C50D92677
:1015E8001D50DA22000EDF6E20EE02F01C50D926C4
:1015F8001D50DA22000EDF6E20EE01F01E50D926B3
:101608001F50DA22010EDF6E20EE02F01E50D9269E
:101618001F50DA22000EDF6E1CC0D9FF1DC0DAFF92
:10162800DF50800A340FD8A01CEF0BF01EEF0BF030
:1016380024EF0BF01CC0D9FF1DC0DAFF4B0EDF6E84
:101648001EC0D9FF1FC0DAFFDF50800A340FD8A0B0
:1016580030EF0BF032EF0BF038EF0BF01EC0D9FF74
:101668001FC0DAFF4B0EDF6E1CC0D9FF1DC0DAFFAA
:10167800DF50050F1CC0D9FF1DC0DAFFDF6E1EC08A
:10168800D9FF1FC0DAFFDF50050F1EC0D9FF1FC0EA
:10169800DAFFDF6E1CC016F01DC017F0F8EC07F07B
:1016A8001EC016F01FC017F0F8EC07F0050E216EEB
:1016B8000F0E206EF10EE82EFED7202EFCD7212E1D
:1016C800FAD700F0120020EE01F01C50D9261D5068
:1016D800DA22010EDF6E20EE02F01C50D9261D50D2
:1016E800DA22000EDF6E20EE01F01E50D9261F50C0
:1016F800DA22010EDF6E20EE02F01E50D9261F50AE
:10170800DA22000EDF6E1CC0D9FF1DC0DAFFDF50E1
:10171800800A4D0FD8A093EF0BF095EF0BF09BEFDD
:101728000BF01CC0D9FF1DC0DAFF320EDF6E1EC0E1
:10173800D9FF1FC0DAFFDF50800A4D0FD8A0A7EFEE
:101748000BF0A9EF0BF0AFEF0BF01EC0D9FF1FC0D5
:10175800DAFF320EDF6E1CC0D9FF1DC0DAFFDF2AA8
:101768001EC0D9FF1FC0DAFFDF2A1CC016F01DC03B
:1017780017F0F8EC07F01EC016F01FC017F0F8ECD1
:1017880007F0050E216E0F0E206EF10EE82EFED723
:10179800202EFCD7212EFAD700F0120020EE01F0FF
:1017A8001C50D9261D50DA22000EDF6E20EE02F002
:1017B8001C50D9261D50DA22000EDF6E20EE01F0F3
:1017C8001E50D9261F50DA22000EDF6E20EE02F0DE
:1017D8001E50D9261F50DA22000EDF6E1CC0D9FF1A
:1017E8001DC0DAFFDF50800A4D0FD8A0FEEF0BF0C6
:1017F80000EF0CF006EF0CF01CC0D9FF1DC0DAFF9B
:10180800320EDF6E1EC0D9FF1FC0DAFFDF50800A1C
:101818004D0FD8A012EF0CF014EF0CF01AEF0CF0EB
:101828001EC0D9FF1FC0DAFF320EDF6E1CC0D9FF01
:101838001DC0DAFFDF2A1EC0D9FF1FC0DAFFDF2A6A
:101848001CC016F01DC017F0F8EC07F01EC016F00B
:101858001FC017F0F8EC07F0050E216E0F0E206E72
:10186800F10EE82EFED7202EFCD7212EFAD700F055
:10187800120020EE02F01C50D9261D50DA22010E6B
:10188800DF6E20EE02F01E50D9261F50DA22010E1C
:10189800DF6E1CC0D9FF1DC0DAFF000EDBBE59EF9A
:1018A8000CF057EF0CF05FEF0CF01CC0D9FF1DC017
:1018B800DAFF000EDF6E1EC0D9FF1FC0DAFF000E70
:1018C800DBBE6BEF0CF069EF0CF071EF0CF01EC093
:1018D800D9FF1FC0DAFF000EDF6E1CC0D9FF1DC084
:1018E800DAFFDF50FB0F1CC0D9FF1DC0DAFFDF6E27
:1018F8001EC0D9FF1FC0DAFFDF50FB0F1EC0D9FF83
:101908001FC0DAFFDF6E1CC0D9FF1DC0DAFF000E52
:10191800DF6E1EC0D9FF1FC0DAFF000EDF6E1CC0CD
:1019280016F01DC017F0F8EC07F01EC016F01FC027
:1019380017F0F8EC07F0D00E206ECA0EE82EFED78E
:10194800202EFCD71200000E2D6EB6EF0CF027C02B
:101958001CF028C01DF029C01EF02AC01FF0D2ECD0
:101968000BF02D2A070E2D64BCEF0CF0BEEF0CF027
:10197800ABEF0CF0CBEF0CF027C01CF028C01DF02B
:1019880029C01EF02AC01FF03DEC0CF02D062D508A
:10199800D8A4D1EF0CF0D3EF0CF0C0EF0CF0290E67
:1019A8002C6E960E2B6E7F0EE82EFED72B2EFCD7B4
:1019B8002C2EFAD700F027C022F028C023F029C027
:1019C80024F02AC025F0CAEC0FF0050E2C6E0F0E7D
:1019D8002B6EF10EE82EFED72B2EFCD72C2EFAD725
:1019E80000F027C022F028C023F029C024F02AC024
:1019F80025F0CAEC0FF012007D9485947D988598A7
:101A08007B9E839E7F9C879C050E0E01746F060E3D
:101A1800766F070E696F080E886FBD508F0B4009EF
:101A2800BD6EE00EBE16BF50F00B0109BF6E09C0B7
:101A3800BCFFBD8E000EAA6E000EA66E000E0F0132
:101A4800256F000E216FFC0EAD16F30EAD16CF0EEE
:101A5800AD163F0EAD16AB88AB50F00B0C09AB6E54
:101A6800AB8EA788A750F00B0C09A76EA78E268906
:101A78002651F00B0C09266F268F22892251F00B74
:101A88000C09226F228F1200000E2D6E57EF0DF0F9
:101A980027C01CF028C01DF029C01EF02AC01FF066
:101AA800D2EC0BF02D2A130E2D645DEF0DF05FEFD5
:101AB8000DF04CEF0DF06CEF0DF027C01CF028C0B6
:101AC8001DF029C01EF02AC01FF03DEC0CF02D06B9
:101AD8002D50D8A472EF0DF074EF0DF061EF0DF0FA
:101AE800290E2C6E960E2B6E7F0EE82EFED72B2E0F
:101AF800FCD72C2EFAD700F027C022F028C023F0FC
:101B080029C024F02AC025F043EC0FF01200000E83
:101B18002D6E9AEF0DF027C01CF028C01DF029C0CB
:101B28001EF02AC01FF0D2EC0BF02D2A070E2D64F0
:101B3800A0EF0DF0A2EF0DF08FEF0DF0AFEF0DF06D
:101B480027C01CF028C01DF029C01EF02AC01FF0B5
:101B58003DEC0CF02D062D50D8A4B5EF0DF0B7EFE5
:101B68000DF0A4EF0DF0150E2C6E4B0E2B6EBE0E65
:101B7800E82EFED72B2EFCD72C2EFAD700D027C064
:101B880022F028C023F029C024F02AC025F043EC15
:101B98000FF01200000E2D6EDDEF0DF027C01CF0C7
:101BA80028C01DF029C01EF02AC01FF0D2EC0BF08F
:101BB8002D2A130E2D64E3EF0DF0E5EF0DF0D2EFB3
:101BC8000DF0F2EF0DF027C01CF028C01DF029C061
:101BD8001EF02AC01FF03DEC0CF02D062D50D8A4A5
:101BE800F8EF0DF0FAEF0DF0E7EF0DF0290E2C6E7F
:101BF800960E2B6E7F0EE82EFED72B2EFCD72C2EA2
:101C0800FAD700F027C022F028C023F029C024F01A
:101C18002AC025F0CAEC0FF01200000E2D6E20EF3E
:101C28000EF027C01CF028C01DF029C01EF02AC0E5
:101C38001FF0D2EC0BF02D2A1D0E2D6426EF0EF0AE
:101C480028EF0EF015EF0EF035EF0EF027C01CF060
:101C580028C01DF029C01EF02AC01FF03DEC0CF072
:101C68002D062D50D8A43BEF0EF03DEF0EF02AEFD5
:101C78000EF0290E2C6E960E2B6E7F0EE82EFED7D8
:101C88002B2EFCD72C2EFAD700F027C022F028C024
:101C980023F029C024F02AC025F070EC0FF01200C0
:101CA800000E2D6E63EF0EF027C01CF028C01DF04B
:101CB80029C01EF02AC01FF0D2EC0BF02D2A1D0EF1
:101CC8002D6469EF0EF06BEF0EF058EF0EF078EF21
:101CD8000EF027C01CF028C01DF029C01EF02AC035
:101CE8001FF03DEC0CF02D062D50D8A47EEF0EF021
:101CF80080EF0EF06DEF0EF0290E2C6E960E2B6E07
:101D08007F0EE82EFED72B2EFCD72C2EFAD700F00C
:101D180027C022F028C023F029C024F02AC025F0CB
:101D28009DEC0FF01200000E2D6EA6EF0EF027C0EE
:101D38001CF028C01DF029C01EF02AC01FF0D2ECEC
:101D48000BF02D2A070E2D64ACEF0EF0AEEF0EF05F
:101D58009BEF0EF0BBEF0EF027C01CF028C01DF063
:101D680029C01EF02AC01FF03DEC0CF02D062D50A6
:101D7800D8A4C1EF0EF0C3EF0EF0B0EF0EF0150EC1
:101D88002C6E4B0E2B6EBE0EE82EFED72B2EFCD7DC
:101D98002C2EFAD700D027C022F028C023F029C063
:101DA80024F02AC025F0CAEC0FF01200000E146EC1
:101DB800000E136E11501210D8B4E5EF0EF0E7EFD5
:101DC8000EF00FEF0FF0010E156EEFEF0EF0D8903A
:101DD80011361236152A12AEF4EF0EF0F6EF0EF0A9
:101DE800EBEF0EF0D8901336143611500F5C1250EA
:101DF8001058D8A002EF0FF004EF0FF009EF0FF022
:101E080011500F5E1250105A1380D89012321132AE
:101E1800152EF6EF0EF013C00FF014C010F01200DC
:101E2800F7EC0FF014C0D9FF15C0DAFF0DC0DEFFC4
:101E38000EC0DDFF1FEC10F020EE02F01450D92682
:101E48001550DA220DC0DEFF0EC0DDFF6FEC10F07A
:101E580020EE04F01450D9261550DA220DC0DEFF0A
:101E68000EC0DDFF47EC10F020EE06F01450D92626
:101E78001550DA220DC0DEFF0EC0DDFF1200000E85
:101E8800266E52EF0FF022C01CF023C01DF024C0B4
:101E98001EF025C01FF079EC0AF0262A120E2664DF
:101EA80058EF0FF05AEF0FF047EF0FF067EF0FF012
:101EB80022C01CF023C01DF024C01EF025C01FF056
:101EC8003DEC0CF026062650D8A46DEF0FF06FEF0E
:101ED8000FF05CEF0FF01200000E266E7FEF0FF090
:101EE80022C01CF023C01DF024C01EF025C01FF026
:101EF80079EC0AF0262A440E266485EF0FF087EF66
:101F08000FF074EF0FF094EF0FF022C01CF023C015
:101F18001DF024C01EF025C01FF03DEC0CF0260675
:101F28002650D8A49AEF0FF09CEF0FF089EF0FF02E
:101F38001200000E266EACEF0FF022C01CF023C07A
:101F48001DF024C01EF025C01FF0F0EC0AF0262A70
:101F5800440E2664B2EF0FF0B4EF0FF0A1EF0FF0CC
:101F6800C1EF0FF022C01CF023C01DF024C01EF0EA
:101F780025C01FF03DEC0CF026062650D8A4C7EF6C
:101F88000FF0C9EF0FF0B6EF0FF01200000E266E3B
:101F9800D9EF0FF022C01CF023C01DF024C01EF0A2
:101FA80025C01FF0F0EC0AF0262A120E2664DFEF97
:101FB8000FF0E1EF0FF0CEEF0FF0EEEF0FF022C0D1
:101FC8001CF023C01DF024C01EF025C01FF03DECFE
:101FD8000CF026062650D8A4F4EF0FF0F6EF0FF019
:101FE800E3EF0FF0120017EC12F0520E01EC12F0B2
:101FF800B60E01EC12F00DEC12F0530E01EC12F0DB
:10200800010EE5EC10F00F6E0F50126E136A000E01
:10201800E5EC10F00F6E0F50116E106A1250101090
:10202800126E13501110136E12EC12F012C00DF054
:1020380013C00EF0120017EC12F0520E01EC12F061
:10204800B80E01EC12F00DEC12F0530E01EC12F088
:10205800010EE5EC10F00F6E0F50126E136A000EB1
:10206800E5EC10F00F6E0F50116E106A1250101040
:10207800126E13501110136E12EC12F012C00DF004
:1020880013C00EF0120017EC12F0520E01EC12F011
:10209800B40E01EC12F00DEC12F0530E01EC12F03C
:1020A800010EE5EC10F00F6E0F50126E136A000E61
:1020B800E5EC10F00F6E0F50116E106A12501010F0
:1020C800126E13501110136E12EC12F012C00DF0B4
:1020D80013C00EF0120017EC12F0520E01EC12F0C1
:1020E800BA0E01EC12F00DEC12F0530E01EC12F0E6
:1020F800010EE5EC10F00F6E0F50126E136A000E11
:10210800E5EC10F00F6E0F50116E106A125010109F
:10211800126E13501110136E12EC12F012C00DF063
:1021280013C00EF01200130E0B6E000EC1EC11F06E
:102138003F0E0D6E550EE82EFED70D2EFCD700F083
:10214800040E0B6E0C0EC1EC11F04FC00BF0040E18
:10215800C1EC11F050500B6E050EC1EC11F055C0DA
:102168000BF0060EC1EC11F056500B6E070EC1ECC9
:1021780011F01200130E036E000ED1EC11F03F0E99
:10218800056E550EE82EFED7052EFCD700F0040E7E
:10219800036E0C0ED1EC11F04FC003F0040ED1EC1D
:1021A80011F05050036E050ED1EC11F055C003F03C
:1021B800060ED1EC11F05650036E070ED1EC11F05B
:1021C80012000B6E52EC11F00E01DA8752EC11F08E
:1021D800D5CE0CF052EC11F00B50D8B4F6EF10F04D
:1021E800FAEF10F00A6A0A2AFBEF10F00A6A0A3AB4
:1021F8000A460E01DA510A18DF0B0A18DA6FDA8973
:102208000C501200540EF66E240EF76E000EF86E87
:102218000900F5CF55F00900F5CF56F000EE60F053
:10222800520EEE6AE806FDE1546A536A526A516A30
:10223800506A4F6A579057920001AEEF08F03DEC94
:1022480011F0010E0B6E000EC1EC11F03F0E0D6E79
:10225800550EE82EFED70D2EFCD700F0030E0B6EA0
:10226800000EC1EC11F0D50E0B6E010EC1EC11F091
:1022780012000E01D951F00B0809D96FD98B9F0EA6
:10228800D66F848A848CA79BA79D1D0E1D6F1E0E7A
:102298001C6F1C0E6F6F1B0E706F12000E01D8B5ED
:1022A80058EF11F05AEF11F052EF11F0DACE09F0B1
:1022B8001F0E0916D8A463EF11F065EF11F052EF65
:1022C80011F012000E01D8B56CEF11F06EEF11F09D
:1022D80066EF11F0DACE01F01F0E0116D8A477EFE1
:1022E80011F079EF11F066EF11F0120009500B02AE
:1022F800F3CF0DF0F4CF0EF009500C02F3500E2678
:102308000A500B02F3500E260DC009F00EC00AF059
:10231800120082820E019A93090E0D01F16F0E01CF
:1023280029831F83F292298B1F9B2D87E1EC11F0E3
:10233800F28AF28CF28E12000E0133A3A6EF11F08E
:10234800A8EF11F0AFEF11F0010E0001B16FEEEC44
:1023580011F00E01339357921100D6501F0B40090C
:10236800D66ED688D650F00B0809D66ED588C20E20
:10237800D46EF60ED36ED58E12000C6E17EC12F0DA
:10238800520E01EC12F00C50800901EC12F00B50C7
:1023980001EC12F012EC12F01200046E21EC12F0B3
:1023A800520E07EC12F00450800907EC12F00350AB
:1023B80007EC12F01CEC12F0120017EC12F0520E9F
:1023C80001EC12F0E60E01EC12F012EC12F097ECB0
:1023D80010F0120021EC12F0520E07EC12F0E60E8B
:1023E80007EC12F01CEC12F0BEEC10F01200879211
:1023F8008198869E8096889612000A6E52EC11F09B
:102408000AC0D5FE1200026E66EC11F002C0D5FEBD
:10241800120052EC11F00E01DA83120052EC11F0A6
:102428000E01DA85120052EC11F00E01DA81120069
:1024380066EC11F00E01DA85120066EC11F00E015F
:0E244800DA8112007F8279887E8E1200C4092C
:020000040020DA
:10000000FF0FFF0FFF0FFF0FFF0FFF0FFF0FFF0F80
:020000040030CA
:0C000000AAFFFFFF9FFFFFFFFFFFFFFFB5
:00000001FF
