:040000003DEF00F0E0
:060008004982D8EF03F06D
:100018004980D8CF07F0E8CF08F0E0CF09F00E010B
:1000280033AB19EF00F01BEF00F035EF00F080A6BE
:1000380020EF00F024EF00F0066A062A25EF00F012
:10004800066A06460646064680500618F70B061846
:10005800806EC20ED46EF60ED36E010E446E0E0183
:10006800339B09C0E0FF08C0E8FF07C0D8FF4990EC
:10007800100093EF04F020EE01F01D50D9261E5019
:10008800DA22DE04D8A44BEF00F04DEF00F0ACEF1D
:1000980000F020EE01F01F50D9262050DA22DE04AD
:1000A800D8A459EF00F05BEF00F0ACEF00F020EEC1
:1000B80002F01D50D9261E50DA22010EDF6E20EE06
:1000C80002F01F50D9262050DA22010EDF6E1DC023
:1000D800D9FF1EC0DAFF000EDBBE77EF00F075EF28
:1000E80000F07DEF00F01DC0D9FF1EC0DAFF000E42
:1000F800DF6E1FC0D9FF20C0DAFF000EDBBE89EF1C
:1001080000F087EF00F08FEF00F01FC0D9FF20C08C
:10011800DAFF000EDF6E1DC0D9FF1EC0DAFFDF0652
:100128001FC0D9FF20C0DAFFDF061DC017F01EC0B0
:1001380018F087EC01F01FC017F020C018F087EC0A
:1001480001F0D00E216ECA0EE82EFED7212EFCD764
:1001580020EE01F01D50D9261E50DA22DE04D8A464
:10016800B8EF00F0BAEF00F019EF01F020EE01F05F
:100178001F50D9262050DA22DF50D8A4C6EF00F04D
:10018800C8EF00F019EF01F020EE02F01D50D9265B
:100198001E50DA22010EDF6E20EE02F01F50D92623
:1001A8002050DA22010EDF6E1DC0D9FF1EC0DAFF13
:1001B800000EDBBEE4EF00F0E2EF00F0EAEF00F043
:1001C8001DC0D9FF1EC0DAFF000EDF6E1FC0D9FFA9
:1001D80020C0DAFF000EDBBEF6EF00F0F4EF00F00F
:1001E800FCEF00F01FC0D9FF20C0DAFF000EDF6E61
:1001F8001DC0D9FF1EC0DAFFDF061FC0D9FF20C00F
:10020800DAFFDF061DC017F01EC018F087EC01F0FA
:100218001FC017F020C018F087EC01F0D00E216E37
:10022800CA0EE82EFED7212EFCD720EE01F01D5075
:10023800D9261E50DA22DF50D8A425EF01F027EF87
:1002480001F086EF01F020EE01F01F50D926205072
:10025800DA22DE04D8A433EF01F035EF01F086EF9F
:1002680001F020EE02F01D50D9261E50DA22010EB0
:10027800DF6E20EE02F01F50D9262050DA22010E40
:10028800DF6E1DC0D9FF1EC0DAFF000EDBBE51EFC6
:1002980001F04FEF01F057EF01F01DC0D9FF1EC06C
:1002A800DAFF000EDF6E1FC0D9FF20C0DAFF000E94
:1002B800DBBE63EF01F061EF01F069EF01F01FC0F1
:1002C800D9FF20C0DAFF000EDF6E1DC0D9FF1EC0A7
:1002D800DAFFDF061FC0D9FF20C0DAFFDF061DC026
:1002E80017F01EC018F087EC01F01FC017F020C0EF
:1002F80018F087EC01F0D00E216ECA0EE82EFED75A
:10030800212EFCD7120020EE02F01750D9261850E3
:10031800DA22DF50D8B493EF01F095EF01F0C9EF7E
:1003280001F017C0D9FF18C0DAFFDF500A6E0B6A58
:100338000ABE0B0620EE03F01750D9261850DA2211
:10034800DECF0CF0DDCF0DF080EC04F00AC010F029
:100358000BC011F0000E136E640E126E9EEC03F0CB
:1003680020EE03F01750D9261850DA22DF50196E04
:100378001050195C1B6E20EE03F01750D926185048
:10038800DA22DF501C6EECEF01F0000E1B6E17C076
:10039800D9FF18C0DAFFDF500A6E0B6A0ABE0B06D7
:1003A80020EE03F01750D9261850DA22DECF0CF0D1
:1003B800DDCF0DF080EC04F00AC010F00BC011F096
:1003C800000E136E640E126E9EEC03F010501C6E3D
:1003D80020EE01F01750D9261850DA22DF50D8B491
:1003E800F8EF01F0FAEF01F01CEF02F020EE05F053
:1003F8001750D9261850DA22DECF19F0DDCF1AF0BF
:1004080019C0D9FF1AC0DAFF1BC0DFFF20EE07F0C2
:100418001750D9261850DA22DECF19F0DDCF1AF09E
:1004280019C0D9FF1AC0DAFF1CC0DFFF3CEF02F089
:1004380020EE05F01750D9261850DA22DECF19F031
:10044800DDCF1AF019C0D9FF1AC0DAFF1CC0DFFFD0
:1004580020EE07F01750D9261850DA22DECF19F00F
:10046800DDCF1AF019C0D9FF1AC0DAFF1BC0DFFFB1
:10047800120020EE01F01D50D9261E50DA22000E7F
:10048800DF6E20EE02F01D50D9261E50DA22000E33
:10049800DF6E20EE01F01F50D9262050DA22010E1F
:1004A800DF6E20EE02F01F50D9262050DA22000E0F
:1004B800DF6E1DC0D9FF1EC0DAFFDF50800A340F7F
:1004C800D8A069EF02F06BEF02F071EF02F01DC0E7
:1004D800D9FF1EC0DAFF4B0EDF6E1FC0D9FF20C048
:1004E800DAFFDF50800A340FD8A07DEF02F07FEFEB
:1004F80002F085EF02F01FC0D9FF20C0DAFF4B0ED3
:10050800DF6E1DC0D9FF1EC0DAFFDF2A1FC0D9FF6A
:1005180020C0DAFFDF2A1DC017F01EC018F087ECD4
:1005280001F01FC017F020C018F087EC01F0050E8D
:10053800226E0F0E216EF10EE82EFED7212EFCD76B
:10054800222EFAD700F0120020EE01F01D50D92615
:100558001E50DA22000EDF6E20EE02F01D50D92662
:100568001E50DA22000EDF6E20EE01F01F50D92651
:100578002050DA22000EDF6E20EE02F01F50D9263E
:100588002050DA22000EDF6E1DC0D9FF1EC0DAFF30
:10059800DF50800A340FD8A0D4EF02F0D6EF02F073
:1005A800DCEF02F01DC0D9FF1EC0DAFF4B0EDF6E74
:1005B8001FC0D9FF20C0DAFFDF50800A340FD8A04F
:1005C800E8EF02F0EAEF02F0F0EF02F01FC0D9FF07
:1005D80020C0DAFF4B0EDF6E1DC0D9FF1EC0DAFF48
:1005E800DF2A1FC0D9FF20C0DAFFDF2A1DC017F09D
:1005F8001EC018F087EC01F01FC017F020C018F0DB
:1006080087EC01F0050E226E0F0E216EF10EE82E1A
:10061800FED7212EFCD7222EFAD700F012007D94A7
:1006280085947D9885987B9E839E7F9C879C050EEC
:100638000E01746F060E766F070E696F080E886FCD
:10064800BD508F0B4009BD6EE00EBE16BF50F00BBB
:100658000109BF6E0AC0BCFFBD8E000EAA6E000E57
:10066800A66E000E0F01256F000E216FFC0EAD1651
:10067800F30EAD16CF0EAD163F0EAD16AB88AB50D0
:10068800F00B0C09AB6EAB8EA788A750F00B0C09CA
:10069800A76EA78E26892651F00B0C09266F268F88
:1006A80022892251F00B0C09226F228F1200000EB2
:1006B8000B6E630E0A6E13EC03F0000E00019C6FC4
:1006C800010E9D6F010E9E6FAA0EA16F0F0EA26FF5
:1006D800A60EA36F0F0EA46FBCCF9FF0A06B000EE9
:1006E800A56F010EA66F010EA76F250EAA6F0F0E3C
:1006F800AB6F210EAC6F0F0EAD6FBCCFA8F0A96B1E
:100708009C0E286E000E296EA50E2A6E000E2B6E0A
:1007180034EC04F0290E2F6E960E2E6E7F0EE82E06
:10072800FED72E2EFCD72F2EFAD700F084EF03F039
:100738003DEF00F0000E166E000E156E12501310ED
:10074800D8B4A9EF03F0ABEF03F0D3EF03F0010E39
:10075800146EB3EF03F0D89012361336142A13AE82
:10076800B8EF03F0BAEF03F0AFEF03F0D890153607
:1007780016361250105C13501158D8A0C6EF03F06B
:10078800C8EF03F0CDEF03F01250105E1350115A6A
:100798001580D89013321232142EBAEF03F015C018
:1007A80010F016C011F01200D9CF03F0DACF04F020
:1007B8000E0137A7E2EF03F0E4EF03F0E9EF03F0EF
:1007C800E3CE05F005506BEC04F0A4EC04F000094E
:1007D800D8A4F1EF03F0F3EF03F0F5EF03F00E0107
:1007E8002D950E0137A5FBEF03F0FDEF03F001EFA8
:1007F80004F055EC04F00E01E46F04C0DAFF03C006
:10080800D9FF49921100000E276E16EF04F023C09D
:100818001DF024C01EF025C01FF026C020F03DECBE
:1008280002F0272A3B0E27641CEF04F01EEF04F0A9
:100838000BEF04F02BEF04F023C01DF024C01EF0D2
:1008480025C01FF026C020F03FEC00F027062750F7
:10085800D8A431EF04F033EF04F020EF04F01200D5
:1008680028C01DF029C01EF02AC01FF02BC020F0A0
:10087800A8EC02F0290E2D6E960E2C6E7F0EE82E37
:10088800FED72C2EFCD72D2EFAD700F028C023F047
:1008980029C024F02AC025F02BC026F007EC04F06C
:1008A80012003B0E45645BEF04F05DEF04F05FEF70
:1008B80004F0000E456E452A4504016E026A600E7A
:1008C8000124D96E000E0220DA6EDF501200016E8C
:1008D800130E486472EF04F074EF04F076EF04F03E
:1008E800000E486E300E4824D96EDA6A000EDA22FD
:1008F80001C0DFFF482A12000A500C02F3CF0EF0A5
:10090800F4CF0FF00A500D02F3500F260B500C02D3
:10091800F3500F260EC00AF00FC00BF0120000EEC5
:1009280060F03C0EEE6AE806FDE100EE30F0190ECC
:10093800EE6AE806FDE14990499200015BEF03F099
:1009480045504618D8A4ABEF04F0AEEF04F0010E02
:08095800AFEF04F0000E1200E5
:020000040020DA
:10000000FF0FFF0FFF0FFF0FFF0FFF0FFF0FFF0F80
:020000040030CA
:0C000000AAFFFFFF9FFFFFFFFFFFFFFFB5
:00000001FF
