:040000002CEF00F0F1
:060008005782B8EF11F071
:100018005780D8CF06F0E8CF07F0E0CF08F00E0100
:1000280033AB19EF00F01BEF00F024EF00F0C20E25
:10003800D46EF60ED36E010E0001B06F0E01339B25
:1000480008C0E0FF07C0E8FF06C0D8FF57901000BF
:100058001EEF11F0000E0001C46F000E346E000E8A
:10006800356EC80E366E420E376E20EE04F0B6516D
:10007800D926B751DA22DECFB8F0DDCFB9F020EEBD
:1000880002F0B651D926B751DA22DECFBAF0DDCF69
:10009800BBF0B6C0D9FFB7C0DAFFDECFBCF0DDCF0A
:1000A800BDF0BA51BC25BE6FBB51BD21BF6FB85161
:1000B800BE25C06FB951BF21C16FC0C009F0C1C012
:1000C8000AF00B6A0C6A000E2BEC07F009C01BF053
:1000D8000AC01CF00BC01DF00CC01EF0B6C0D9FF42
:1000E800B7C0DAFFDECFC2F0DDCFC3F0C2C009F07F
:1000F800C3C00AF00B6A0C6A000E2BEC07F009C0AB
:1001080017F00AC018F00BC019F00CC01AF05EEC1A
:1001180005F017C030F018C031F019C032F01AC01D
:1001280033F049EC03F030C049F031C04AF032C036
:100138004BF033C04CF0F6EC09F049500001C56FA4
:10014800000E346E000E356EC80E366E420E376ED7
:1001580020EE04F0B651D926B751DA22DECFB8F036
:10016800DDCFB9F020EE02F0B651D926B751DA2228
:10017800DECFBAF0DDCFBBF0B6C0D9FFB7C0DAFF2B
:10018800DECFBCF0DDCFBDF0BA51BC25BE6FBB5190
:10019800BD21BF6FB851BE25C06FB951BF21C16F16
:1001A800C0C009F0C1C00AF00B6A0C6A000E2BEC43
:1001B80007F009C01BF00AC01CF00BC01DF00CC0F2
:1001C8001EF0000120EE02F0B651D926B751DA220E
:1001D800DECFC2F0DDCFC3F0C2C009F0C3C00AF061
:1001E8000B6A0C6A000E2BEC07F009C017F00AC066
:1001F80018F00BC019F00CC01AF05EEC05F017C02F
:1002080030F018C031F019C032F01AC033F049ECA0
:1002180003F030C049F031C04AF032C04BF033C06F
:100228004CF0F6EC09F049500001C66F000E346E30
:10023800000E356EC80E366E420E376E20EE04F094
:10024800B651D926B751DA22DECFB8F0DDCFB9F0F2
:1002580020EE02F0B651D926B751DA22DECFBAF035
:10026800DDCFBBF0B6C0D9FFB7C0DAFFDECFBCF038
:10027800DDCFBDF0BA51BC25BE6FBB51BD21BF6FEC
:10028800B851BE25C06FB951BF21C16FC0C009F0B8
:10029800C1C00AF00B6A0C6A000E2BEC07F009C00B
:1002A8001BF00AC01CF00BC01DF00CC01EF00001B2
:1002B80020EE04F0B651D926B751DA22DECFC2F0CB
:1002C800DDCFC3F0C2C009F0C3C00AF00B6A0C6AE4
:1002D800000E2BEC07F009C017F00AC018F00BC08D
:1002E80019F00CC01AF05EEC05F017C030F018C019
:1002F80031F019C032F01AC033F049EC03F030C0C5
:1003080049F031C04AF032C04BF033C04CF0F6EC43
:1003180009F049500001C76FB151D8B496EF01F008
:1003280098EF01F047EF03F0290E0001B96F960E20
:10033800B86F7F0EE82EFED7B82FFCD7B92FFAD7A3
:10034800490E0001C565ABEF01F0ADEF01F0D9EF43
:1003580001F04D0EC561B3EF01F0B5EF01F0D9EF33
:1003680001F0090EC665BBEF01F0BDEF01F0D9EF52
:1003780001F00D0EC661C3EF01F0C5EF01F0D9EF32
:1003880001F00C0EC765CBEF01F0CDEF01F0D9EF0E
:1003980001F0100EC761D3EF01F0D5EF01F0D9EFEE
:1003A80001F0010EC46F45EF03F0230EC565DFEFC2
:1003B80001F0E1EF01F00DEF02F0270EC561E7EF64
:1003C80001F0E9EF01F00DEF02F0280EC665EFEF3E
:1003D80001F0F1EF01F00DEF02F02C0EC661F7EF1E
:1003E80001F0F9EF01F00DEF02F0130EC765FFEF12
:1003F80001F001EF02F00DEF02F0170EC76107EFF1
:1004080002F009EF02F00DEF02F0020EC46F45EFA3
:1004180003F01D0EC56513EF02F015EF02F041EF72
:1004280002F0210EC5611BEF02F01DEF02F041EF53
:1004380002F0210EC66523EF02F025EF02F041EF2E
:1004480002F0250EC6612BEF02F02DEF02F041EF0E
:1004580002F0200EC76533EF02F035EF02F041EFEE
:1004680002F0240EC7613BEF02F03DEF02F041EFCE
:1004780002F0030EC46F45EF03F0310EC56547EF78
:1004880002F049EF02F075EF02F0350EC5614FEF4B
:1004980002F051EF02F075EF02F01D0EC66557EF3E
:1004A80002F059EF02F075EF02F0210EC6615FEF1E
:1004B80002F061EF02F075EF02F0100EC76567EF0A
:1004C80002F069EF02F075EF02F0140EC7616FEFEA
:1004D80002F071EF02F075EF02F0040EC46F45EF01
:1004E80003F02F0EC5657BEF02F07DEF02F0A9EF58
:1004F80002F0330EC56183EF02F085EF02F0A9EF39
:1005080002F01B0EC6658BEF02F08DEF02F0A9EF2B
:1005180002F01F0EC66193EF02F095EF02F0A9EF0B
:1005280002F0140EC7659BEF02F09DEF02F0A9EFF1
:1005380002F0180EC761A3EF02F0A5EF02F0A9EFD1
:1005480002F0050EC46F45EF03F03A0EC565AFEF34
:1005580002F0B1EF02F0DDEF02F03E0EC561B7EF39
:1005680002F0B9EF02F0DDEF02F0150EC665BFEF3D
:1005780002F0C1EF02F0DDEF02F0190EC661C7EF1D
:1005880002F0C9EF02F0DDEF02F00F0EC765CFEF02
:1005980002F0D1EF02F0DDEF02F0130EC761D7EFE2
:1005A80002F0D9EF02F0DDEF02F0060EC46F45EF5E
:1005B80003F0200EC565E3EF02F0E5EF02F011EF5E
:1005C80003F0240EC561EBEF02F0EDEF02F011EF3E
:1005D80003F0250EC665F3EF02F0F5EF02F011EF18
:1005E80003F0290EC661FBEF02F0FDEF02F011EFF8
:1005F80003F0190EC76503EF03F005EF03F011EFE1
:1006080003F01D0EC7610BEF03F00DEF03F011EFC0
:1006180003F0070EC46F45EF03F02A0EC56517EF08
:1006280003F019EF03F045EF03F02E0EC5611FEF3D
:1006380003F021EF03F045EF03F01F0EC66527EF27
:1006480003F029EF03F045EF03F0230EC6612FEF07
:1006580003F031EF03F045EF03F0150EC76537EFF0
:1006680003F039EF03F045EF03F0190EC7613FEFD0
:1006780003F041EF03F045EF03F0080EC46F45EFB8
:1006880003F0000EB16FC45112003350800B3C6E62
:1006980033503324426E32AE54EF03F056EF03F07A
:1006A80057EF03F042804250D8B45DEF03F05FEF9C
:1006B80003F072EF03F04228D8A465EF03F067EF68
:1006C80003F06FEF03F0000E306E000E316E000E77
:1006D800326E000E336E328E7AEF03F0000E306EFB
:1006E800000E316E000E326E000E336E3750800BE6
:1006F8003C1A37503724416E36AE85EF03F087EF4A
:1007080003F088EF03F041804150D8B48EEF03F036
:1007180090EF03F0A3EF03F04128D8A496EF03F07D
:1007280098EF03F0A0EF03F0000E346E000E356E64
:10073800000E366E000E376E368EABEF03F0000EED
:10074800346E000E356E000E366E000E376E415058
:10075800D8B4B1EF03F0B3EF03F0BBEF03F04250AE
:10076800D8A4B9EF03F0BBEF03F0C5EF03F0000E18
:10077800306E000E316E000E326E000E336E5DEF7D
:1007880005F036503002F3CF47F0F4CF48F0475029
:100798003D6E3E6A3F6A406A4850436E446A456A05
:1007A800466A35503102F3CF47F0F4CF48F047504E
:1007B8003D26000E3E223F22402248504326000E8E
:1007C80044224522462234503202F3CF47F0F4CF78
:1007D80048F047503D26000E3E223F224022485016
:1007E8004326000E4422452246223FC040F03EC028
:1007F8003FF03DC03EF03D6A34503102F3CF47F040
:10080800F4CF48F047503D2648503E22000E3F2284
:10081800000E402235503002F3CF47F0F4CF48F0B5
:1008280047503D2648503E22000E3F22000E4022EF
:100838003FC040F03EC03FF03DC03EF03D6A3450FE
:100848003002F3CF47F0F4CF48F047503D264850E8
:100858003E22000E3F22000E402236503102F3CFD6
:1008680047F0F4CF48F04750432648504422000E42
:100878004522000E462235503202F3CF47F0F4CF1E
:1008880048F04750432648504422000E4522000EA7
:10089800462236503202F3CF47F0F4CF48F04750A3
:1008A800386E4850396E3A6A3B6A3AC03BF039C0F4
:1008B8003AF038C039F0386A385043263950442263
:1008C8003A5045223B5046223DC038F03EC039F0F0
:1008D8003FC03AF040C03BF0190E78EF04F0D890D2
:1008E8003B323A3239323832E82E73EF04F038505E
:1008F8004326395044223A5045223B5046223FC0B5
:1009080040F03EC03FF03DC03EF03D6A415042C01D
:1009180038F0396A3826000E3922820E3824476E9C
:10092800FF0E3920486EAEEF04F0D89043364436B7
:100938004536463640AEA3EF04F0A5EF04F0A6EF27
:1009480004F04380D8903D363E363F364036470661
:10095800D8A0480645AEB3EF04F0B5EF04F099EF20
:1009680004F0000E416E40AEBCEF04F0BEEF04F0A0
:10097800E2EF04F0FF0E3D14386EFF0E3E14396EA0
:10098800FF0E3F143A6E7F0E40143B6E38503910FC
:100998003A103B10D8B4D3EF04F0D5EF04F0D9EFF8
:1009A80004F0010E416EE2EF04F043A0DEEF04F024
:1009B800E0EF04F0E2EF04F0D5EF04F04150D8B4D2
:1009C800E8EF04F0EAEF04F00EEF05F0010E43261D
:1009D800000E44224522462246A0F5EF04F0F7EF28
:1009E80004F00EEF05F043C038F044C039F045C0BC
:1009F8003AF046C03BF03B343B323A323932383277
:100A080038C043F039C044F03AC045F03BC046F026
:100A1800474A482A48BE19EF05F0485008E14728D8
:100A2800D8A019EF05F01BEF05F025EF05F0000E33
:100A3800436E000E446E800E456E7F0E466E53EF79
:100A480005F048BE32EF05F0485006E14704D8B03B
:100A580030EF05F032EF05F03EEF05F0000E436E83
:100A6800000E446E000E456E000E466E000E3C6E83
:100A780053EF05F047C042F0FF0E4316FF0E441631
:100A88007F0E4516000E461642A04DEF05F04FEFBB
:100A980005F050EF05F0458ED8904230466E3C5038
:100AA800461243C030F044C031F045C032F046C071
:100AB80033F012001A50800B276E1A501A242E6E2B
:100AC80019AE69EF05F06BEF05F06CEF05F02E80BD
:100AD8002E50D8B472EF05F074EF05F089EF05F0E9
:100AE8002E28D8A47AEF05F07CEF05F084EF05F006
:100AF800000E176E000E186E000E196E000E1A6E9C
:100B0800198E000E1A6E91EF05F0000E176E000E8A
:100B1800186E000E196E000E1A6E1E50800B271AE2
:100B28001E501E242F6E1DAE9CEF05F09EEF05F0A3
:100B38009FEF05F02F802F50D8B4A5EF05F0A7EF51
:100B480005F0BCEF05F02F28D8A4ADEF05F0AFEF06
:100B580005F0B7EF05F0000E1B6E000E1C6E000EC0
:100B68001D6E000E1E6E1D8E000E1E6EC4EF05F06B
:100B7800000E1B6E000E1C6E000E1D6E000E1E6E0B
:100B88001B501C101D101E10D8A4CDEF05F0CFEF80
:100B980005F0E7EF05F0000E176E000E186E000E58
:100BA800196E000E1A6E800E19127F0E1A12275037
:100BB8001A1217C017F018C018F019C019F01AC087
:100BC8001AF02AEF07F02E50D8A4EDEF05F0EFEF5A
:100BD80005F0F9EF05F0000E176E000E186E000E06
:100BE800196E000E1A6E2AEF07F02F502EC01FF054
:100BF800206A1F5E000E205A7F0E1F24286E000EEA
:100C08002020296E17C023F018C024F019C025F041
:100C18001AC026F0000E176E000E186E000E196E20
:100C2800000E1A6E000E2A6E000E2B6E000E2C6E31
:100C3800000E2D6E000E2F6E5AEF06F02F50D8B40E
:100C480028EF06F02AEF06F041EF06F0D890233699
:100C5800243625362636D8901736183619361A36D9
:100C68002DAE39EF06F03BEF06F03CEF06F01780AB
:100C7800D8902A362B362C362D361B50235C1C5028
:100C880024581D5025581E502658D8A04EEF06F05F
:100C980050EF06F059EF06F02D8C1B50235E1C50C8
:100CA800245A1D50255A1E50265A2F2A190E2F64D1
:100CB80060EF06F062EF06F022EF06F023502410F2
:100CC80025102610D8B46BEF06F06DEF06F085EF0F
:100CD80006F02A8085EF06F0D890173618361936B0
:100CE8001A362DAE7AEF06F07CEF06F07DEF06F0AF
:100CF8001780D8902A362B362C362D362806D8A0C1
:100D0800290619AE8AEF06F08CEF06F070EF06F0B0
:100D1800000E2F6E2DAE93EF06F095EF06F0B9EFAB
:100D280006F0FF0E2A141F6EFF0E2B14206EFF0E06
:100D38002C14216E7F0E2D14226E1F5020102110AE
:100D48002210D8B4AAEF06F0ACEF06F0B0EF06F028
:100D5800010E2F6EB9EF06F017A0B5EF06F0B7EF4A
:100D680006F0B9EF06F0ACEF06F02F50D8B4BFEF9D
:100D780006F0C1EF06F0E5EF06F0010E1726000EAB
:100D8800182219221A221AA0CCEF06F0CEEF06F08C
:100D9800E5EF06F017C01FF018C020F019C021F0C9
:100DA8001AC022F022342232213220321F321FC0D0
:100DB80017F020C018F021C019F022C01AF0284AF4
:100DC800292A29BEF0EF06F0295008E12828D8A0E2
:100DD800F0EF06F0F2EF06F0FDEF06F0000E296ED8
:100DE8002868000E176E000E186E000E196E000EA1
:100DF8001A6E29BE0AEF07F0295006E12804D8B078
:100E080008EF07F00AEF07F018EF07F0000E296E59
:100E1800000E286E000E176E000E186E000E196E6A
:100E2800000E1A6E000E276E28C02EF02EA01FEF9F
:100E380007F021EF07F024EF07F0198E25EF07F0F0
:100E4800199ED8902E301A6EDBEF05F01200116E45
:100E58001150D8B432EF07F034EF07F056EF07F02F
:100E68000CBE3BEF07F039EF07F056EF07F009C06B
:100E78000DF00AC00EF00BC00FF00CC010F00D1EE4
:100E88000E1E0F1E101E0D2A000E0E220F221022FB
:100E98000DC013F00EC014F00FC015F010C016F0FE
:100EA8005EEF07F009C013F00AC014F00BC015F08C
:100EB8000CC016F009500A100B100C10D8A467EFDC
:100EC80007F069EF07F073EF07F0000E096E000EE8
:100ED8000A6E000E0B6E000E0C6E04EF08F0960EF4
:100EE800126E7DEF07F0122AD8901632153214329E
:100EF8001332000E13140D6E000E14140E6E000E35
:100F080015140F6EFE0E1614106E0D500E100F10E5
:100F18001010D8A492EF07F094EF07F077EF07F0DE
:100F2800A2EF07F0122A010E1326000E1422152232
:100F38001622D8901632153214321332000E1314BA
:100F48000D6E000E14140E6E000E15140F6EFF0EAB
:100F58001614106E0D500E100F101010D8A4B7EF05
:100F680007F0B9EF07F096EF07F0C1EF07F01206A8
:100F7800D890133614361536163615BEC6EF07F058
:100F8800C8EF07F0D0EF07F0020E1260CEEF07F0BF
:100F9800D0EF07F0BBEF07F012B0D5EF07F0D7EFAF
:100FA80007F0D8EF07F0159ED890123212C00DF056
:100FB8000E6A0F6A106A0DC010F00F6A0E6A0D6A89
:100FC8000D5013120E5014120F5015121050161205
:100FD8001150D8B4F2EF07F0F4EF07F0FCEF07F088
:100FE8000CBEFBEF07F0F9EF07F0FCEF07F0168EE9
:100FF80013C009F014C00AF015C00BF016C00CF0AD
:10100800120020EE02F01650D9261750DA22DF50CF
:10101800D8B411EF08F013EF08F047EF08F016C046
:10102800D9FF17C0DAFFDF50096E0A6A09BE0A063F
:1010380020EE03F01650D9261750DA22DECF0BF037
:10104800DDCF0CF092EC11F009C00FF00AC010F0DF
:10105800000E126E640E116EC5EC0EF020EE03F059
:101068001650D9261750DA22DF50186E0F50185C28
:101078001A6E20EE03F01650D9261750DA22DF50E8
:101088001B6E6AEF08F0000E1A6E16C0D9FF17C063
:10109800DAFFDF50096E0A6A09BE0A0620EE03F07D
:1010A8001650D9261750DA22DECF0BF0DDCF0CF020
:1010B80092EC11F009C00FF00AC010F0000E126E89
:1010C800640E116EC5EC0EF00F501B6E20EE01F091
:1010D8001650D9261750DA22DF50D8B476EF08F028
:1010E80078EF08F09AEF08F020EE05F01650D926B0
:1010F8001750DA22DECF18F0DDCF19F018C0D9FF6B
:1011080019C0DAFF1AC0DFFF20EE07F01650D92603
:101118001750DA22DECF18F0DDCF19F018C0D9FF4A
:1011280019C0DAFF1BC0DFFFBAEF08F020EE05F0A8
:101138001650D9261750DA22DECF18F0DDCF19F075
:1011480018C0D9FF19C0DAFF1BC0DFFF20EE07F077
:101158001650D9261750DA22DECF18F0DDCF19F055
:1011680018C0D9FF19C0DAFF1AC0DFFF1200000E3D
:101178000001CD6F000ECC6F000ECF6F000ECE6F4A
:10118800000ED16F000ED06F000ED36F000ED26F1D
:1011980013EC12F03BEC11F0A5EC11F0C9EC11F0D6
:1011A800000E0A6E630E096EA8EC0CF0000E00012A
:1011B800D46F010ED56F010ED66FAA0ED96F0F0E20
:1011C800DA6FA60EDB6F0F0EDC6FBCCFD7F0D86BD3
:1011D800000EDD6F010EDE6F010EDF6F250EE26F70
:1011E8000F0EE36F210EE46F0F0EE56FBCCFE0F03A
:1011F800E16B3EEC12F0CC0E146E000E156EFFEC97
:101208000EF0CC0E0001B66F000EB76F2EEC00F09A
:101218000001CB6F000ECA6FCB51D8A416EF09F0AE
:1012280018EF09F026EF09F0D40E1C6E000E1D6EA3
:10123800DD0E1E6E000E1F6E68EC0BF00001CA2B4F
:10124800FDEF08F0CB51D8B42CEF09F02EEF09F0E0
:10125800FDEF08F080863DEF09F0D40E1C6E000EFD
:101268001D6EDD0E1E6E000E1F6E3EEC0CF00001B2
:10127800CA07CA51D8A443EF09F045EF09F031EF86
:1012880009F0290E0001C96F960EC86F7F0EE82E6F
:10129800FED7C82FFCD7C92FFAD78096D40E2E6E4A
:1012A800000E2F6EDD0E306E000E316E0001CB5138
:1012B80062EC09F0FDEF08F02CEF00F0326E32041A
:1012C800D8A469EF09F06BEF09F077EF09F02EC0A9
:1012D80027F02FC028F030C029F031C02AF033ECB5
:1012E8000DF0F5EF09F0020E3218D8A47EEF09F0E0
:1012F80080EF09F08CEF09F02EC027F02FC028F0FE
:1013080030C029F031C02AF03FEC0EF0F5EF09F0BB
:10131800030E3218D8A493EF09F095EF09F0A1EF66
:1013280009F02EC027F02FC028F030C029F031C0B6
:101338002AF082EC0EF0F5EF09F0040E3218D8A46A
:10134800A8EF09F0AAEF09F0B6EF09F02EC027F0D0
:101358002FC028F030C029F031C02AF0F0EC0CF092
:10136800F5EF09F0050E3218D8A4BDEF09F0BFEF6C
:1013780009F0CBEF09F02EC027F02FC028F030C0BD
:1013880029F031C02AF076EC0DF0F5EF09F0060EE1
:101398003218D8A4D2EF09F0D4EF09F0E0EF09F041
:1013A8002EC027F02FC028F030C029F031C02AF015
:1013B800B9EC0DF0F5EF09F0070E3218D8A4E7EFF5
:1013C80009F0E9EF09F0F5EF09F02EC027F02FC07A
:1013D80028F030C029F031C02AF0FCEC0DF0F5EF10
:1013E80009F012004B344C344E6E4E50D8A4FFEF27
:1013F80009F001EF0AF00BEF0AF0000E496E000E3B
:101408004A6E000E4B6E000E4C6E79EF0AF049C022
:10141800B2F04AC0B3F04BC0B4F04CC0B5F0200EE7
:101428001CEF0AF00001D890B533B433B333B233AC
:10143800E82E16EF0AF0B2514D6E4B8EFF0E49168C
:10144800FF0E4A16FF0E4B16000E4C16960E4E5EF9
:101458004EBE33EF0AF031EF0AF049EF0AF04E5072
:10146800800A970FD8B03BEF0AF03DEF0AF03FEF44
:101478000AF001EF0AF0D8904C324B324A32493226
:101488004E3E3FEF0AF061EF0AF01F0E4E644FEF39
:101498000AF051EF0AF059EF0AF001EF0AF0D8907C
:1014A80049364A364B364C364E064E50D8A45FEF76
:1014B8000AF061EF0AF053EF0AF04D50D8B467EF25
:1014C8000AF069EF0AF071EF0AF04C1E4B1E4A1E33
:1014D800496C000E4A224B224C2249C049F04AC0AE
:1014E8004AF04BC04BF04CC04CF0120020EE01F01B
:1014F8001C50D9261D50DA22000EDF6E20EE02F0B5
:101508001C50D9261D50DA22000EDF6E20EE01F0A5
:101518001E50D9261F50DA22010EDF6E20EE02F08F
:101528001E50D9261F50DA22000EDF6E1CC0D9FFCC
:101538001DC0DAFFDF50800A340FD8A0A6EF0AF0EA
:10154800A8EF0AF0AEEF0AF01CC0D9FF1DC0DAFF01
:101558004B0EDF6E1EC0D9FF1FC0DAFFDF50800AB6
:10156800340FD8A0BAEF0AF0BCEF0AF0C2EF0AF0C5
:101578001EC0D9FF1FC0DAFF4B0EDF6E1CC0D9FF9B
:101588001DC0DAFFDF50050F1CC0D9FF1DC0DAFFF0
:10159800DF6E1EC0D9FF1FC0DAFFDF50050F1EC067
:1015A800D9FF1FC0DAFFDF6E1CC016F01DC017F090
:1015B80005EC08F01EC016F01FC017F005EC08F087
:1015C800050E216E0F0E206EF10EE82EFED7202E8E
:1015D800FCD7212EFAD700F0120020EE01F01C50A3
:1015E800D9261D50DA22010EDF6E20EE02F01C50C3
:1015F800D9261D50DA22000EDF6E20EE01F01E50B3
:10160800D9261F50DA22000EDF6E20EE02F01E509F
:10161800D9261F50DA22000EDF6E1CC0D9FF1DC06C
:10162800DAFFDF50800A340FD8A01DEF0BF01FEF50
:101638000BF025EF0BF01CC0D9FF1DC0DAFF4B0ED5
:10164800DF6E1EC0D9FF1FC0DAFFDF50800A340FDB
:10165800D8A031EF0BF033EF0BF039EF0BF01EC0D1
:10166800D9FF1FC0DAFF4B0EDF6E1CC0D9FF1DC0AB
:10167800DAFFDF50050F1CC0D9FF1DC0DAFFDF6E8F
:101688001EC0D9FF1FC0DAFFDF50050F1EC0D9FFEB
:101698001FC0DAFFDF6E1CC016F01DC017F005EC86
:1016A80008F01EC016F01FC017F005EC08F0050E74
:1016B800216E0F0E206EF10EE82EFED7202EFCD7DD
:1016C800212EFAD700F0120020EE01F01C50D92686
:1016D8001D50DA22010EDF6E20EE02F01C50D926D2
:1016E8001D50DA22000EDF6E20EE01F01E50D926C2
:1016F8001F50DA22010EDF6E20EE02F01E50D926AE
:101708001F50DA22000EDF6E1CC0D9FF1DC0DAFFA1
:10171800DF50800A4D0FD8A094EF0BF096EF0BF036
:101728009CEF0BF01CC0D9FF1DC0DAFF320EDF6E34
:101738001EC0D9FF1FC0DAFFDF50800A4D0FD8A0A6
:10174800A8EF0BF0AAEF0BF0B0EF0BF01EC0D9FF1B
:101758001FC0DAFF320EDF6E1CC0D9FF1DC0DAFFD2
:10176800DF2A1EC0D9FF1FC0DAFFDF2A1CC016F00F
:101778001DC017F005EC08F01EC016F01FC017F0CA
:1017880005EC08F0050E216E0F0E206EF10EE82E06
:10179800FED7202EFCD7212EFAD700F0120020EE1B
:1017A80001F01C50D9261D50DA22000EDF6E20EE03
:1017B80002F01C50D9261D50DA22000EDF6E20EEF2
:1017C80001F01E50D9261F50DA22000EDF6E20EEDF
:1017D80002F01E50D9261F50DA22000EDF6E1CC000
:1017E800D9FF1DC0DAFFDF50800A4D0FD8A0FFEFE8
:1017F8000BF001EF0CF007EF0CF01CC0D9FF1DC077
:10180800DAFF320EDF6E1EC0D9FF1FC0DAFFDF50CD
:10181800800A4D0FD8A013EF0CF015EF0CF01BEF5A
:101828000CF01EC0D9FF1FC0DAFF320EDF6E1CC0DD
:10183800D9FF1DC0DAFFDF2A1EC0D9FF1FC0DAFF9B
:10184800DF2A1CC016F01DC017F005EC08F01EC0FA
:1018580016F01FC017F005EC08F0050E216E0F0EEC
:10186800206EF10EE82EFED7202EFCD7212EFAD7B7
:1018780000F0120020EE02F01C50D9261D50DA228A
:10188800010EDF6E20EE02F01E50D9261F50DA221C
:10189800010EDF6E1CC0D9FF1DC0DAFF000EDBBED3
:1018A8005AEF0CF058EF0CF060EF0CF01CC0D9FFA9
:1018B8001DC0DAFF000EDF6E1EC0D9FF1FC0DAFFA1
:1018C800000EDBBE6CEF0CF06AEF0CF072EF0CF060
:1018D8001EC0D9FF1FC0DAFF000EDF6E1CC0D9FF83
:1018E8001DC0DAFFDF50FB0F1CC0D9FF1DC0DAFF97
:1018F800DF6E1EC0D9FF1FC0DAFFDF50FB0F1EC00E
:10190800D9FF1FC0DAFFDF6E1CC0D9FF1DC0DAFF88
:10191800000EDF6E1EC0D9FF1FC0DAFF000EDF6E9B
:101928001CC016F01DC017F005EC08F01EC016F01C
:101938001FC017F005EC08F0D00E206ECA0EE82E76
:10194800FED7202EFCD712007D9485947D9885982B
:101958007B9E839E7F9C879C050E0E01746F060EEE
:10196800766F070E696F080E886FBD508F0B4009A0
:10197800BD6EE00EBE16BF50F00B0109BF6E09C068
:10198800BCFFBD8E000EAA6E000EA66E000E0F01E3
:10199800256F000E216FFC0EAD16F30EAD16CF0E9F
:1019A800AD163F0EAD16AB88AB50F00B0C09AB6E05
:1019B800AB8EA788A750F00B0C09A76EA78E2689B7
:1019C8002651F00B0C09266F268F22892251F00B25
:1019D8000C09226F228F1200000E2D6EFFEF0CF003
:1019E80027C01CF028C01DF029C01EF02AC01FF017
:1019F800D3EC0BF02D2A130E2D6405EF0DF007EF35
:101A08000DF0F4EF0CF014EF0DF027C01CF028C017
:101A18001DF029C01EF02AC01FF03EEC0CF02D0668
:101A28002D50D8A41AEF0DF01CEF0DF009EF0DF0B2
:101A3800290E2C6E960E2B6E7F0EE82EFED72B2EBF
:101A4800FCD72C2EFAD700F027C022F028C023F0AC
:101A580029C024F02AC025F02EEC0FF01200000E49
:101A68002D6E42EF0DF027C01CF028C01DF029C0D4
:101A78001EF02AC01FF0D3EC0BF02D2A070E2D64A0
:101A880048EF0DF04AEF0DF037EF0DF057EF0DF07E
:101A980027C01CF028C01DF029C01EF02AC01FF066
:101AA8003EEC0CF02D062D50D8A45DEF0DF05FEF45
:101AB8000DF04CEF0DF0150E2C6E4B0E2B6EBE0E6E
:101AC800E82EFED72B2EFCD72C2EFAD700D027C015
:101AD80022F028C023F029C024F02AC025F02EECDB
:101AE8000FF01200000E2D6E85EF0DF027C01CF0D0
:101AF80028C01DF029C01EF02AC01FF0D3EC0BF03F
:101B08002D2A130E2D648BEF0DF08DEF0DF07AEF6B
:101B18000DF09AEF0DF027C01CF028C01DF029C069
:101B28001EF02AC01FF03EEC0CF02D062D50D8A454
:101B3800A0EF0DF0A2EF0DF08FEF0DF0290E2C6E37
:101B4800960E2B6E7F0EE82EFED72B2EFCD72C2E52
:101B5800FAD700F027C022F028C023F029C024F0CB
:101B68002AC025F0B5EC0FF01200000E2D6EC8EF5C
:101B78000DF027C01CF028C01DF029C01EF02AC097
:101B88001FF0D3EC0BF02D2A1D0E2D64CEEF0DF0B7
:101B9800D0EF0DF0BDEF0DF0DDEF0DF027C01CF01C
:101BA80028C01DF029C01EF02AC01FF03EEC0CF022
:101BB8002D062D50D8A4E3EF0DF0E5EF0DF0D2EF90
:101BC8000DF0290E2C6E960E2B6E7F0EE82EFED78A
:101BD8002B2EFCD72C2EFAD700F027C022F028C0D5
:101BE80023F029C024F02AC025F05BEC0FF0120086
:101BF800000E2D6E0BEF0EF027C01CF028C01DF054
:101C080029C01EF02AC01FF0D3EC0BF02D2A1D0EA0
:101C18002D6411EF0EF013EF0EF000EF0EF020EF31
:101C28000EF027C01CF028C01DF029C01EF02AC0E5
:101C38001FF03EEC0CF02D062D50D8A426EF0EF028
:101C480028EF0EF015EF0EF0290E2C6E960E2B6E67
:101C58007F0EE82EFED72B2EFCD72C2EFAD700F0BD
:101C680027C022F028C023F029C024F02AC025F07C
:101C780088EC0FF01200000E2D6E4EEF0EF027C00C
:101C88001CF028C01DF029C01EF02AC01FF0D3EC9C
:101C98000BF02D2A070E2D6454EF0EF056EF0EF0C0
:101CA80043EF0EF063EF0EF027C01CF028C01DF0C4
:101CB80029C01EF02AC01FF03EEC0CF02D062D5056
:101CC800D8A469EF0EF06BEF0EF058EF0EF0150E7A
:101CD8002C6E4B0E2B6EBE0EE82EFED72B2EFCD78D
:101CE8002C2EFAD700D027C022F028C023F029C014
:101CF80024F02AC025F0B5EC0FF01200000E2D6E6E
:101D080091EF0EF027C01CF028C01DF029C01EF06E
:101D18002AC01FF0D3EC0BF02D2A010E2D6497EF8B
:101D28000EF099EF0EF086EF0EF0A6EF0EF027C03A
:101D38001CF028C01DF029C01EF02AC01FF03EEC80
:101D48000CF02D062D50D8A4ACEF0EF0AEEF0EF02F
:101D58009BEF0EF0290E2C6E960E2B6E7F0EE82E42
:101D6800FED72B2EFCD72C2EFAD700F027C022F056
:101D780028C023F029C024F02AC025F0E2EC0FF097
:101D88001200000E146E000E136E11501210D8B40B
:101D9800D0EF0EF0D2EF0EF0FAEF0EF0010E156E46
:101DA800DAEF0EF0D89011361236152A12AEDFEFA0
:101DB8000EF0E1EF0EF0D6EF0EF0D8901336143691
:101DC80011500F5C12501058D8A0EDEF0EF0EFEF45
:101DD8000EF0F4EF0EF011500F5E1250105A1380EF
:101DE800D89012321132152EE1EF0EF013C00FF019
:101DF80014C010F012000FEC10F014C0D9FF15C079
:101E0800DAFF0DC0DEFF0EC0DDFF37EC10F020EE6C
:101E180002F01450D9261550DA220DC0DEFF0EC08C
:101E2800DDFF87EC10F020EE04F01450D926155091
:101E3800DA220DC0DEFF0EC0DDFF5FEC10F020EEF1
:101E480006F01450D9261550DA220DC0DEFF0EC058
:101E5800DDFF1200000E266E3DEF0FF022C01CF0D1
:101E680023C01DF024C01EF025C01FF0F1EC0AF0BD
:101E7800262A120E266443EF0FF045EF0FF032EFDB
:101E88000FF052EF0FF022C01CF023C01DF024C049
:101E98001EF025C01FF03EEC0CF026062650D8A4F4
:101EA80058EF0FF05AEF0FF047EF0FF01200000E47
:101EB800266E6AEF0FF022C01CF023C01DF024C06C
:101EC8001EF025C01FF0F1EC0AF0262A440E266405
:101ED80070EF0FF072EF0FF05FEF0FF07FEF0FF082
:101EE80022C01CF023C01DF024C01EF025C01FF026
:101EF8003EEC0CF026062650D8A485EF0FF087EFAD
:101F08000FF074EF0FF01200000E266E97EF0FF02F
:101F180022C01CF023C01DF024C01EF025C01FF0F5
:101F28007AEC0AF0262A440E26649DEF0FF09FEF04
:101F38000FF08CEF0FF0ACEF0FF022C01CF023C0B5
:101F48001DF024C01EF025C01FF03EEC0CF0260644
:101F58002650D8A4B2EF0FF0B4EF0FF0A1EF0FF0B6
:101F68001200000E266EC4EF0FF022C01CF023C032
:101F78001DF024C01EF025C01FF07AEC0AF0262AB6
:101F8800120E2664CAEF0FF0CCEF0FF0B9EF0FF086
:101F9800D9EF0FF022C01CF023C01DF024C01EF0A2
:101FA80025C01FF03EEC0CF026062650D8A4DFEF23
:101FB8000FF0E1EF0FF0CEEF0FF01200000E266EDB
:101FC800F1EF0FF022C01CF023C01DF024C01EF05A
:101FD80025C01FF0F1EC0AF0262A100E2664F7EF50
:101FE8000FF0F9EF0FF0E6EF0FF006EF10F022C058
:101FF8001CF023C01DF024C01EF025C01FF03EECCD
:102008000CF026062650D8A40CEF10F00EEF10F0B6
:10201800FBEF0FF012002FEC12F0520E19EC12F039
:10202800B60E19EC12F025EC12F0530E19EC12F062
:10203800010EFDEC10F00F6E0F50126E136A000EB9
:10204800FDEC10F00F6E0F50116E106A1250101048
:10205800126E13501110136E2AEC12F012C00DF00C
:1020680013C00EF012002FEC12F0520E19EC12F001
:10207800B80E19EC12F025EC12F0530E19EC12F010
:10208800010EFDEC10F00F6E0F50126E136A000E69
:10209800FDEC10F00F6E0F50116E106A12501010F8
:1020A800126E13501110136E2AEC12F012C00DF0BC
:1020B80013C00EF012002FEC12F0520E19EC12F0B1
:1020C800B40E19EC12F025EC12F0530E19EC12F0C4
:1020D800010EFDEC10F00F6E0F50126E136A000E19
:1020E800FDEC10F00F6E0F50116E106A12501010A8
:1020F800126E13501110136E2AEC12F012C00DF06C
:1021080013C00EF012002FEC12F0520E19EC12F060
:10211800BA0E19EC12F025EC12F0530E19EC12F06D
:10212800010EFDEC10F00F6E0F50126E136A000EC8
:10213800FDEC10F00F6E0F50116E106A1250101057
:10214800126E13501110136E2AEC12F012C00DF01B
:1021580013C00EF01200130E0B6E000ED9EC11F026
:102168003F0E0D6E550EE82EFED70D2EFCD700F053
:10217800040E0B6E0C0ED9EC11F04FC00BF0040ED0
:10218800D9EC11F050500B6E050ED9EC11F055C07A
:102198000BF0060ED9EC11F056500B6E070ED9EC69
:1021A80011F01200130E036E000EE9EC11F03F0E51
:1021B800056E550EE82EFED7052EFCD700F0040E4E
:1021C800036E0C0EE9EC11F04FC003F0040EE9ECBD
:1021D80011F05050036E050EE9EC11F055C003F0F4
:1021E800060EE9EC11F05650036E070EE9EC11F0FB
:1021F80012000B6E6AEC11F00E01DA876AEC11F02E
:10220800D5CE0CF06AEC11F00B50D8B40EEF11F0EB
:1022180012EF11F00A6A0A2A13EF11F00A6A0A3A51
:102228000A460E01DA510A18DF0B0A18DA6FDA8942
:102238000C501200840EF66E240EF76E000EF86E27
:102248000900F5CF55F00900F5CF56F000EE60F023
:10225800520EEE6AE806FDE1546A536A526A516A00
:10226800506A4F6A579057920001BBEF08F055EC3F
:1022780011F0010E0B6E000ED9EC11F03F0E0D6E31
:10228800550EE82EFED70D2EFCD700F0030E0B6E70
:10229800000ED9EC11F0D50E0B6E010ED9EC11F031
:1022A80012000E01D951F00B0809D96FD98B9F0E76
:1022B800D66F848A848CA79BA79D1D0E1D6F1E0E4A
:1022C8001C6F1C0E6F6F1B0E706F12000E01D8B5BD
:1022D80070EF11F072EF11F06AEF11F0DACE09F039
:1022E8001F0E0916D8A47BEF11F07DEF11F06AEFED
:1022F80011F012000E01D8B584EF11F086EF11F03D
:102308007EEF11F0DACE01F01F0E0116D8A48FEF80
:1023180011F091EF11F07EEF11F0120009500B024D
:10232800F3CF0DF0F4CF0EF009500C02F3500E2647
:102338000A500B02F3500E260DC009F00EC00AF029
:10234800120082820E019A93090E0D01F16F0E019F
:1023580029831F83F292298B1F9B2D87F9EC11F09B
:10236800F28AF28CF28E12000E0133A3BEEF11F046
:10237800C0EF11F0C7EF11F0010E0001B16F06ECCC
:1023880012F00E01339357921100D6501F0B4009DB
:10239800D66ED688D650F00B0809D66ED588C20EF0
:1023A800D46EF60ED36ED58E12000C6E2FEC12F092
:1023B800520E19EC12F00C50800919EC12F00B5067
:1023C80019EC12F02AEC12F01200046E39EC12F03B
:1023D800520E1FEC12F0045080091FEC12F003504B
:1023E8001FEC12F034EC12F012002FEC12F0520E27
:1023F80019EC12F0E60E19EC12F02AEC12F0AFEC20
:1024080010F0120039EC12F0520E1FEC12F0E60E2A
:102418001FEC12F034EC12F0D6EC10F01200879298
:102428008198869E8096889612000A6E6AEC11F052
:102438000AC0D5FE1200026E7EEC11F002C0D5FE75
:1024480012006AEC11F00E01DA8312006AEC11F046
:102458000E01DA8512006AEC11F00E01DA81120021
:102468007EEC11F00E01DA8512007EEC11F00E01FF
:0E247800DA8112007F8279887E8E1200C409FC
:020000040020DA
:10000000FF0FFF0FFF0FFF0FFF0FFF0FFF0FFF0F80
:020000040030CA
:0C000000AAFFFFFF9FFFFFFFFFFFFFFFB5
:00000001FF
