:040000002CEF00F0F1
:060008005782D7EF14F04F
:100018005780D8CF06F0E8CF07F0E0CF08F00E0100
:1000280033AB19EF00F01BEF00F024EF00F0C20E25
:10003800D46EF60ED36E010E0001746F0E01339B61
:1000480008C0E0FF07C0E8FF06C0D8FF57901000BF
:10005800B1EF13F0000E0001B06F000E346E000E09
:10006800356EC80E366E420E376E20EE04F0A25181
:10007800D926A351DA22DECFA4F0DDCFA5F020EEF9
:1000880002F0A251D926A351DA22DECFA6F0DDCFA5
:10009800A7F0A2C0D9FFA3C0DAFFDECFA8F0DDCF5A
:1000A800A9F0A651A825AA6FA751A921AB6FA45101
:1000B800AA25AC6FA551AB21AD6FACC009F0ADC09E
:1000C8000AF00B6A0C6A000E88EC09F009C01BF0F4
:1000D8000AC01CF00BC01DF00CC01EF0A2C0D9FF56
:1000E800A3C0DAFFDECFAEF0DDCFAFF0AEC009F0CF
:1000F800AFC00AF00B6A0C6A000E88EC09F009C060
:1001080017F00AC018F00BC019F00CC01AF053EC25
:1001180005F017C030F018C031F019C032F01AC01D
:1001280033F03EEC03F030C049F031C04AF032C041
:100138004BF033C04CF018EC0BF049500001B16F94
:10014800000E346E000E356EC80E366E420E376ED7
:1001580020EE04F0A251D926A351DA22DECFA4F072
:10016800DDCFA5F020EE02F0A251D926A351DA2264
:10017800DECFA6F0DDCFA7F0A2C0D9FFA3C0DAFF7B
:10018800DECFA8F0DDCFA9F0A651A825AA6FA75108
:10019800A921AB6FA451AA25AC6FA551AB21AD6FB6
:1001A800ACC009F0ADC00AF00B6A0C6A000E88EC0E
:1001B80009F009C01BF00AC01CF00BC01DF00CC0F0
:1001C8001EF0000120EE02F0A251D926A351DA2236
:1001D800DECFAEF0DDCFAFF0AEC009F0AFC00AF0B1
:1001E8000B6A0C6A000E88EC09F009C017F00AC007
:1001F80018F00BC019F00CC01AF053EC05F017C03A
:1002080030F018C031F019C032F01AC033F03EECAB
:1002180003F030C049F031C04AF032C04BF033C06F
:100228004CF018EC0BF049500001B26F000E346E20
:10023800000E356EC80E366E420E376E20EE04F094
:10024800A251D926A351DA22DECFA4F0DDCFA5F042
:1002580020EE02F0A251D926A351DA22DECFA6F071
:10026800DDCFA7F0A2C0D9FFA3C0DAFFDECFA8F088
:10027800DDCFA9F0A651A825AA6FA751A921AB6F78
:10028800A451AA25AC6FA551AB21AD6FACC009F044
:10029800ADC00AF00B6A0C6A000E88EC09F009C0C0
:1002A8001BF00AC01CF00BC01DF00CC01EF00001B2
:1002B80020EE04F0A251D926A351DA22DECFAEF007
:1002C800DDCFAFF0AEC009F0AFC00AF00B6A0C6A20
:1002D800000E88EC09F009C017F00AC018F00BC02E
:1002E80019F00CC01AF053EC05F017C030F018C024
:1002F80031F019C032F01AC033F03EEC03F030C0D0
:1003080049F031C04AF032C04BF033C04CF018EC21
:100318000BF049500001B36F5550D8B496EF01F077
:1003280098EF01F03AEF03F0490EB1659EEF01F046
:10033800A0EF01F0CCEF01F04D0EB161A6EF01F096
:10034800A8EF01F0CCEF01F0090EB265AEEF01F0B5
:10035800B0EF01F0CCEF01F00D0EB261B6EF01F095
:10036800B8EF01F0CCEF01F00C0EB365BEEF01F071
:10037800C0EF01F0CCEF01F0100EB361C6EF01F051
:10038800C8EF01F0CCEF01F0010EB06F3AEF03F0C7
:10039800230EB165D2EF01F0D4EF01F000EF02F0C7
:1003A800270EB161DAEF01F0DCEF01F000EF02F0A7
:1003B800280EB265E2EF01F0E4EF01F000EF02F081
:1003C8002C0EB261EAEF01F0ECEF01F000EF02F061
:1003D800130EB365F2EF01F0F4EF01F000EF02F055
:1003E800170EB361FAEF01F0FCEF01F000EF02F035
:1003F800020EB06F3AEF03F01C0EB16506EF02F083
:1004080008EF02F034EF02F0230EB1610EEF02F0B4
:1004180010EF02F034EF02F01F0EB26516EF02F093
:1004280018EF02F034EF02F0270EB2611EEF02F06F
:1004380020EF02F034EF02F01E0EB36526EF02F053
:1004480028EF02F034EF02F0260EB3612EEF02F02F
:1004580030EF02F034EF02F0030EB06F3AEF03F022
:10046800310EB1653AEF02F03CEF02F068EF02F0AE
:10047800350EB16142EF02F044EF02F068EF02F08E
:100488001D0EB2654AEF02F04CEF02F068EF02F081
:10049800210EB26152EF02F054EF02F068EF02F061
:1004A800100EB3655AEF02F05CEF02F068EF02F04D
:1004B800140EB36162EF02F064EF02F068EF02F02D
:1004C800040EB06F3AEF03F02F0EB1656EEF02F035
:1004D80070EF02F09CEF02F0330EB16176EF02F09C
:1004E80078EF02F09CEF02F01B0EB2657EEF02F08F
:1004F80080EF02F09CEF02F01F0EB26186EF02F06F
:1005080088EF02F09CEF02F0140EB3658EEF02F054
:1005180090EF02F09CEF02F0180EB36196EF02F034
:1005280098EF02F09CEF02F0050EB06F3AEF03F07F
:100538003A0EB165A2EF02F0A4EF02F0D0EF02F09C
:100548003E0EB161AAEF02F0ACEF02F0D0EF02F07C
:10055800150EB265B2EF02F0B4EF02F0D0EF02F080
:10056800190EB261BAEF02F0BCEF02F0D0EF02F060
:100578000F0EB365C2EF02F0C4EF02F0D0EF02F045
:10058800130EB361CAEF02F0CCEF02F0D0EF02F025
:10059800060EB06F3AEF03F0200EB165D6EF02F009
:1005A800D8EF02F004EF03F0240EB161DEEF02F0A1
:1005B800E0EF02F004EF03F0250EB265E6EF02F07B
:1005C800E8EF02F004EF03F0290EB261EEEF02F05B
:1005D800F0EF02F004EF03F0190EB365F6EF02F046
:1005E800F8EF02F004EF03F01D0EB361FEEF02F026
:1005F80000EF03F004EF03F0070EB06F3AEF03F0DB
:100608002A0EB1650AEF03F00CEF03F038EF03F0A0
:100618002E0EB16112EF03F014EF03F038EF03F080
:100628001F0EB2651AEF03F01CEF03F038EF03F06A
:10063800230EB26122EF03F024EF03F038EF03F04A
:10064800150EB3652AEF03F02CEF03F038EF03F033
:10065800190EB36132EF03F034EF03F038EF03F013
:10066800080EB06F3AEF03F0000EB06F000E556E33
:10067800B05112003350800B3C6E33503324426E1D
:1006880032AE49EF03F04BEF03F04CEF03F042803A
:100698004250D8B452EF03F054EF03F067EF03F081
:1006A8004228D8A45AEF03F05CEF03F064EF03F09C
:1006B800000E306E000E316E000E326E000E336E7C
:1006C800328E6FEF03F0000E306E000E316E000EAA
:1006D800326E000E336E3750800B3C1A3750372479
:1006E800416E36AE7AEF03F07CEF03F07DEF03F056
:1006F80041804150D8B483EF03F085EF03F098EFC1
:1007080003F04128D8A48BEF03F08DEF03F095EFA9
:1007180003F0000E346E000E356E000E366E000EBD
:10072800376E368EA0EF03F0000E346E000E356E75
:10073800000E366E000E376E4150D8B4A6EF03F0A7
:10074800A8EF03F0B0EF03F04250D8A4AEEF03F0E7
:10075800B0EF03F0BAEF03F0000E306E000E316E0A
:10076800000E326E000E336E52EF05F03650300236
:10077800F3CF47F0F4CF48F047503D6E3E6A3F6AEA
:10078800406A4850436E446A456A466A35503102A9
:10079800F3CF47F0F4CF48F047503D26000E3E22F5
:1007A8003F22402248504326000E4422452246223A
:1007B80034503202F3CF47F0F4CF48F047503D268B
:1007C800000E3E223F22402248504326000E44227B
:1007D800452246223FC040F03EC03FF03DC03EF0BB
:1007E8003D6A34503102F3CF47F0F4CF48F0475018
:1007F8003D2648503E22000E3F22000E4022355032
:100808003002F3CF47F0F4CF48F047503D26485028
:100818003E22000E3F22000E40223FC040F03EC064
:100828003FF03DC03EF03D6A34503002F3CF47F010
:10083800F4CF48F047503D2648503E22000E3F2254
:10084800000E402236503102F3CF47F0F4CF48F083
:100858004750432648504422000E4522000E4622A7
:1008680035503202F3CF47F0F4CF48F047504326D3
:1008780048504422000E4522000E462236503202CD
:10088800F3CF47F0F4CF48F04750386E4850396EF0
:100898003A6A3B6A3AC03BF039C03AF038C039F09E
:1008A800386A38504326395044223A5045223B5042
:1008B80046223DC038F03EC039F03FC03AF040C053
:1008C8003BF0190E6DEF04F0D8903B323A323932D2
:1008D8003832E82E68EF04F0385043263950442265
:1008E8003A5045223B5046223FC040F03EC03FF0C0
:1008F8003DC03EF03D6A415042C038F0396A382662
:10090800000E3922820E3824476EFF0E3920486EB9
:10091800A3EF04F0D890433644364536463640AE09
:1009280098EF04F09AEF04F09BEF04F04380D8901E
:100938003D363E363F3640364706D8A0480645AED7
:10094800A8EF04F0AAEF04F08EEF04F0000E416E59
:1009580040AEB1EF04F0B3EF04F0D7EF04F0FF0EB0
:100968003D14386EFF0E3E14396EFF0E3F143A6E7A
:100978007F0E40143B6E385039103A103B10D8B4F3
:10098800C8EF04F0CAEF04F0CEEF04F0010E416E98
:10099800D7EF04F043A0D3EF04F0D5EF04F0D7EF7E
:1009A80004F0CAEF04F04150D8B4DDEF04F0DFEFF3
:1009B80004F003EF05F0010E4326000E4422452201
:1009C800462246A0EAEF04F0ECEF04F003EF05F04E
:1009D80043C038F044C039F045C03AF046C03BF057
:1009E8003B343B323A323932383238C043F039C0BE
:1009F80044F03AC045F03BC046F0474A482A48BE52
:100A08000EEF05F0485008E14728D8A00EEF05F092
:100A180010EF05F01AEF05F0000E436E000E446E5D
:100A2800800E456E7F0E466E48EF05F048BE27EFF4
:100A380005F0485006E14704D8B025EF05F027EF48
:100A480005F033EF05F0000E436E000E446E000E05
:100A5800456E000E466E000E3C6E48EF05F047C02E
:100A680042F0FF0E4316FF0E44167F0E4516000E89
:100A7800461642A042EF05F044EF05F045EF05F0B9
:100A8800458ED8904230466E3C50461243C030F0F6
:100A980044C031F045C032F046C033F012001A505D
:100AA800800B276E1A501A242E6E19AE5EEF05F0D1
:100AB80060EF05F061EF05F02E802E50D8B467EF97
:100AC80005F069EF05F07EEF05F02E28D8A46FEF4A
:100AD80005F071EF05F079EF05F0000E176E000EC6
:100AE800186E000E196E000E1A6E198E000E1A6E10
:100AF80086EF05F0000E176E000E186E000E196EC8
:100B0800000E1A6E1E50800B271A1E501E242F6EC0
:100B18001DAE91EF05F093EF05F094EF05F02F80EF
:100B28002F50D8B49AEF05F09CEF05F0B1EF05F01F
:100B38002F28D8A4A2EF05F0A4EF05F0ACEF05F03C
:100B4800000E1B6E000E1C6E000E1D6E000E1E6E3B
:100B58001D8E000E1E6EB9EF05F0000E1B6E000E06
:100B68001C6E000E1D6E000E1E6E1B501C101D10FC
:100B78001E10D8A4C2EF05F0C4EF05F0DCEF05F0B5
:100B8800000E176E000E186E000E196E000E1A6E0B
:100B9800800E19127F0E1A1227501A1217C017F05A
:100BA80018C018F019C019F01AC01AF01FEF07F092
:100BB8002E50D8A4E2EF05F0E4EF05F0EEEF05F0D3
:100BC800000E176E000E186E000E196E000E1A6ECB
:100BD8001FEF07F02F502EC01FF0206A1F5E000E77
:100BE800205A7F0E1F24286E000E2020296E17C061
:100BF80023F018C024F019C025F01AC026F0000E02
:100C0800176E000E186E000E196E000E1A6E000E8A
:100C18002A6E000E2B6E000E2C6E000E2D6E000E2E
:100C28002F6E4FEF06F02F50D8B41DEF06F01FEFD0
:100C380006F036EF06F0D8902336243625362636C9
:100C4800D8901736183619361A362DAE2EEF06F00C
:100C580030EF06F031EF06F01780D8902A362B36A1
:100C68002C362D361B50235C1C5024581D502558FB
:100C78001E502658D8A043EF06F045EF06F04EEF79
:100C880006F02D8C1B50235E1C50245A1D50255AEB
:100C98001E50265A2F2A190E2F6455EF06F057EFCB
:100CA80006F017EF06F02350241025102610D8B4AC
:100CB80060EF06F062EF06F07AEF06F02A807AEF2E
:100CC80006F0D8901736183619361A362DAE6FEF4B
:100CD80006F071EF06F072EF06F01780D8902A360A
:100CE8002B362C362D362806D8A0290619AE7FEFCC
:100CF80006F081EF06F065EF06F0000E2F6E2DAEC0
:100D080088EF06F08AEF06F0AEEF06F0FF0E2A1421
:100D18001F6EFF0E2B14206EFF0E2C14216E7F0EFB
:100D28002D14226E1F50201021102210D8B49FEFCE
:100D380006F0A1EF06F0A5EF06F0010E2F6EAEEF5C
:100D480006F017A0AAEF06F0ACEF06F0AEEF06F03B
:100D5800A1EF06F02F50D8B4B4EF06F0B6EF06F0C6
:100D6800DAEF06F0010E1726000E182219221A22B1
:100D78001AA0C1EF06F0C3EF06F0DAEF06F017C0CD
:100D88001FF018C020F019C021F01AC022F0223438
:100D98002232213220321F321FC017F020C018F033
:100DA80021C019F022C01AF0284A292A29BEE5EFE5
:100DB80006F0295008E12828D8A0E5EF06F0E7EF6B
:100DC80006F0F2EF06F0000E296E2868000E176E86
:100DD800000E186E000E196E000E1A6E29BEFFEF77
:100DE80006F0295006E12804D8B0FDEF06F0FFEF21
:100DF80006F00DEF07F0000E296E000E286E000EAB
:100E0800176E000E186E000E196E000E1A6E000E88
:100E1800276E28C02EF02EA014EF07F016EF07F06B
:100E280019EF07F0198E1AEF07F0199ED8902E3097
:100E38001A6ED0EF05F0120035043610D8A427EF4B
:100E480007F029EF07F047EF07F037C027F038C061
:100E580028F039C029F03AC02AF064EC11F07CBEC1
:100E680038EF07F03AEF07F061EF08F0560E096E19
:100E7800000E0A6E750E0B6E000E0C6E020E94ECD0
:100E880014F061EF08F0020E35183610D8A44FEFB1
:100E980007F051EF07F06FEF07F037C027F038C0C1
:100EA80028F039C029F03AC02AF0A7EC11F07CBE2E
:100EB80060EF07F062EF07F061EF08F0560E096E79
:100EC800000E0A6E750E0B6E000E0C6E010E94EC81
:100ED80014F061EF08F0030E35183610D8A477EF38
:100EE80007F079EF07F097EF07F037C027F038C021
:100EF80028F039C029F03AC02AF009EC0FF07CBE7E
:100F080088EF07F08AEF07F061EF08F0560E096ED8
:100F1800000E0A6E750E0B6E000E0C6E030E94EC2E
:100F280014F061EF08F0040E35183610D8A49FEFBE
:100F380007F0A1EF07F0BFEF07F037C027F038C080
:100F480028F039C029F03AC02AF058EC10F07CBEDD
:100F5800B0EF07F0B2EF07F061EF08F0560E096E38
:100F6800000E0A6E750E0B6E000E0C6E090E94ECD8
:100F780014F061EF08F0050E35183610D8A4C7EF45
:100F880007F0C9EF07F0E7EF07F037C027F038C0E0
:100F980028F039C029F03AC02AF09BEC10F07CBE4A
:100FA800D8EF07F0DAEF07F061EF08F0560E096E98
:100FB800000E0A6E750E0B6E000E0C6E0A0E94EC87
:100FC80014F061EF08F0060E35183610D8A4EFEFCC
:100FD80007F0F1EF07F00FEF08F037C02CF038C03A
:100FE8002DF039C02EF03AC02FF0DEEC10F07CBEA8
:100FF80000EF08F002EF08F061EF08F0560E096EF6
:10100800000E0A6E750E0B6E000E0C6E070E94EC39
:1010180014F061EF08F0070E35183610D8A417EF52
:1010280008F019EF08F037EF08F037C02CF038C097
:101038002DF039C02EF03AC02FF021EC11F07CBE13
:1010480028EF08F02AEF08F061EF08F0560E096E55
:10105800000E0A6E750E0B6E000E0C6E060E94ECEA
:1010680014F061EF08F0090E35183610D8A43FEFD8
:1010780008F041EF08F04DEF08F037C02EF038C007
:101088002FF039C030F03AC031F057EC0EF061EF74
:1010980008F00A0E35183610D8A455EF08F057EFA7
:1010A80008F061EF08F037C02EF038C02FF039C0D3
:1010B80030F03AC031F0B0EC0EF01200000E000132
:1010C800BA6F000EB96F000EBC6F000EBB6F000E3A
:1010D800BE6F000EBD6F000EC06F000EBF6F20EC1C
:1010E80015F011EC14F0F7EC14F0B7EC14F0000E56
:1010F8000A6E630E096E10EC10F0000E0001C16F4D
:10110800010EC26F010EC36FAA0EC66F0F0EC76F16
:10111800A60EC86F0F0EC96FBCCFC4F0C56B000E0A
:10112800CA6F010ECB6F010ECC6F250ECF6F0F0E5D
:10113800D06F210ED16F0F0ED26FBCCFCDF0CE6B1A
:10114800000EB86F4DEC15F0000E0001B76F000EE1
:10115800B66FCAEF08F0C10E1C6E000E1D6ECA0EE7
:101168001E6E000E1F6E13EC0CF0B90E146E000EFE
:10117800156E92EC12F0B90E0001A26F000EA36F6B
:101188002EEC00F00001B86FB64BB72BB851D8B4AD
:10119800D0EF08F0D2EF08F0AFEF08F0B851D8B4AC
:1011A800D8EF08F0DAEF08F035EF09F0080EB819B3
:1011B800D8B4E1EF08F0E3EF08F035EF09F0F70EE7
:1011C800B625096EFF0EB7210A6E9D0E0B6E000E36
:1011D8000C6E3C0E0D6E010E0E6E2BEC14F080861C
:1011E80004EF09F0C10E1C6E000E1D6ECA0E1E6EB5
:1011F800000E1F6EEDEC0DF00001B607D8A0B70782
:101208000001B651B711D8A40CEF09F00EEF09F0A0
:10121800F6EF08F0090E0001B56F1E0EB46FE40E6C
:10122800E82EFED7B42FFCD7B52FFAD700F080965A
:101238000001B851B46FB56BB4C035F0B5C036F025
:10124800C10E376E000E386ECA0E396E000E3A6E39
:1012580020EC07F0000E0001B86F000E556EA8EFE5
:1012680008F0080EB819D8A43CEF09F03EEF09F0D1
:10127800A8EF08F0F70EB625096EFF0EB7210A6E23
:101288009D0E0B6E000E0C6E3C0E0D6E010E0E6E5A
:101298002BEC14F07C8E5FEF09F0C10E1C6E000E73
:1012A8001D6ECA0E1E6E000E1F6EEDEC0DF00001D5
:1012B800B607D8A0B7070001B651B711D8A467EF91
:1012C80009F069EF09F051EF09F0090E0001B56F57
:1012D8001E0EB46FE40EE82EFED7B42FFCD7B52F40
:1012E800FAD700F0C10E3B6E000E3C6ECA0E3D6E82
:1012F800000E3E6E78EC0DF07C9E000E0001B86F7B
:10130800A8EF08F02CEF00F0116E1150D8B48FEF51
:1013180009F091EF09F0B3EF09F00CBE98EF09F06E
:1013280096EF09F0B3EF09F009C00DF00AC00EF00E
:101338000BC00FF00CC010F00D1E0E1E0F1E101E5D
:101348000D2A000E0E220F2210220DC013F00EC01F
:1013580014F00FC015F010C016F0BBEF09F009C06B
:1013680013F00AC014F00BC015F00CC016F00950A9
:101378000A100B100C10D8A4C4EF09F0C6EF09F03E
:10138800D0EF09F0000E096E000E0A6E000E0B6E0B
:10139800000E0C6E61EF0AF0960E126EDAEF09F08D
:1013A800122AD8901632153214321332000E131442
:1013B8000D6E000E14140E6E000E15140F6EFE0E38
:1013C8001614106E0D500E100F101010D8A4EFEF59
:1013D80009F0F1EF09F0D4EF09F0FFEF09F0122A54
:1013E800010E1326000E142215221622D89016324A
:1013F800153214321332000E13140D6E000E14142D
:101408000E6E000E15140F6EFF0E1614106E0D5092
:101418000E100F101010D8A414EF0AF016EF0AF0EF
:10142800F3EF09F01EEF0AF01206D89013361436BF
:101438001536163615BE23EF0AF025EF0AF02DEF04
:101448000AF0020E12602BEF0AF02DEF0AF018EFE7
:101458000AF012B032EF0AF034EF0AF035EF0AF072
:10146800159ED890123212C00DF00E6A0F6A106ADB
:101478000DC010F00F6A0E6A0D6A0D5013120E504F
:1014880014120F501512105016121150D8B44FEFF5
:101498000AF051EF0AF059EF0AF00CBE58EF0AF0C3
:1014A80056EF0AF059EF0AF0168E13C009F014C06F
:1014B8000AF015C00BF016C00CF0120020EE02F076
:1014C8001650D9261750DA22DF50D8B46EEF0AF03A
:1014D80070EF0AF0A4EF0AF016C0D9FF17C0DAFFC0
:1014E800DF50096E0A6A09BE0A0620EE03F016509C
:1014F800D9261750DA22DECF0BF0DDCF0CF081ECC5
:1015080014F009C00FF00AC010F0000E126E640E3D
:10151800116EEAEC11F020EE03F01650D9261750A0
:10152800DA22DF50186E0F50185C1A6E20EE03F0A6
:101538001650D9261750DA22DF501B6EC7EF0AF073
:10154800000E1A6E16C0D9FF17C0DAFFDF50096EF9
:101558000A6A09BE0A0620EE03F01650D92617506B
:10156800DA22DECF0BF0DDCF0CF081EC14F009C0ED
:101578000FF00AC010F0000E126E640E116EEAEC45
:1015880011F00F501B6E20EE01F01650D92617509F
:10159800DA22DF50D8B4D3EF0AF0D5EF0AF0F7EF2C
:1015A8000AF020EE05F01650D9261750DA22DECFC1
:1015B80018F0DDCF19F018C0D9FF19C0DAFF1AC02A
:1015C800DFFF20EE07F01650D9261750DA22DECFBB
:1015D80018F0DDCF19F018C0D9FF19C0DAFF1BC009
:1015E800DFFF17EF0BF020EE05F01650D926175045
:1015F800DA22DECF18F0DDCF19F018C0D9FF19C0F4
:10160800DAFF1BC0DFFF20EE07F01650D92617506F
:10161800DA22DECF18F0DDCF19F018C0D9FF19C0D3
:10162800DAFF1AC0DFFF12004B344C344E6E4E50B6
:10163800D8A421EF0BF023EF0BF02DEF0BF0000EE9
:10164800496E000E4A6E000E4B6E000E4C6E9BEFFC
:101658000BF049C09EF04AC09FF04BC0A0F04CC0B0
:10166800A1F0200E3EEF0BF00001D890A133A0337B
:101678009F339E33E82E38EF0BF09E514D6E4B8E04
:10168800FF0E4916FF0E4A16FF0E4B16000E4C169B
:10169800960E4E5E4EBE55EF0BF053EF0BF06BEF10
:1016A8000BF04E50800A970FD8B05DEF0BF05FEF4C
:1016B8000BF061EF0BF023EF0BF0D8904C324B326C
:1016C8004A3249324E3E61EF0BF083EF0BF01F0EAA
:1016D8004E6471EF0BF073EF0BF07BEF0BF023EF21
:1016E8000BF0D89049364A364B364C364E064E509B
:1016F800D8A481EF0BF083EF0BF075EF0BF04D5092
:10170800D8B489EF0BF08BEF0BF093EF0BF04C1E76
:101718004B1E4A1E496C000E4A224B224C2249C0DD
:1017280049F04AC04AF04BC04BF04CC04CF0120094
:1017380020EE01F01C50D9261D50DA22010EDF6E72
:1017480020EE02F01C50D9261D50DA22000EDF6E62
:1017580020EE01F01E50D9261F50DA22000EDF6E4F
:1017680020EE02F01E50D9261F50DA22000EDF6E3E
:101778001CC0D9FF1DC0DAFFDF50800A410FD8A076
:10178800C8EF0BF0CAEF0BF0D0EF0BF01CC0D9FF7D
:101798001DC0DAFF3E0EDF6E1EC0D9FF1FC0DAFF84
:1017A800DF50800A410FD8A0DCEF0BF0DEEF0BF022
:1017B800E4EF0BF01EC0D9FF1FC0DAFF3E0EDF6E4C
:1017C8001CC0D9FF1DC0DAFFDF500A0F1CC0D9FFAB
:1017D8001DC0DAFFDF6E1EC0D9FF1FC0DAFFDF5061
:1017E8000A0F1EC0D9FF1FC0DAFFDF6E1CC016F03B
:1017F8001DC017F062EC0AF01EC016F01FC017F0EB
:1018080062EC0AF0020E216EA00E206E920EE82EF7
:10181800FED7202EFCD7212EFAD700D0120020EEBA
:1018280001F01C50D9261D50DA22010EDF6E20EE81
:1018380002F01C50D9261D50DA22000EDF6E20EE71
:1018480001F01E50D9261F50DA22010EDF6E20EE5D
:1018580002F01E50D9261F50DA22000EDF6E1CC07F
:10186800D9FF1DC0DAFFDF50800A570FD8A03FEF1D
:101878000CF041EF0CF047EF0CF01CC0D9FF1DC075
:10188800DAFF280EDF6E1EC0D9FF1FC0DAFFDF5057
:10189800800A540FD8A053EF0CF055EF0CF05BEF13
:1018A8000CF01EC0D9FF1FC0DAFF2B0EDF6E1CC064
:1018B800D9FF1DC0DAFFDF50050F1CC0D9FF1DC0BE
:1018C800DAFFDF6E1EC0D9FF1FC0DAFFDF50070F37
:1018D8001EC0D9FF1FC0DAFFDF6E1CC016F01DC086
:1018E80017F062EC0AF01EC016F01FC017F062EC89
:1018F8000AF0050E216E0F0E206EF10EE82EFED7AF
:10190800202EFCD7212EFAD700F0120020EE01F08D
:101918001C50D9261D50DA22000EDF6E20EE02F090
:101928001C50D9261D50DA22000EDF6E20EE01F081
:101938001E50D9261F50DA22010EDF6E20EE02F06B
:101948001E50D9261F50DA22000EDF6E1CC0D9FFA8
:101958001DC0DAFFDF50800A410FD8A0B6EF0CF0A7
:10196800B8EF0CF0BEEF0CF01CC0D9FF1DC0DAFFB9
:101978003E0EDF6E1EC0D9FF1FC0DAFFDF50800A9F
:10198800410FD8A0CAEF0CF0CCEF0CF0D2EF0CF05E
:101998001EC0D9FF1FC0DAFF3E0EDF6E1CC0D9FF84
:1019A8001DC0DAFFDF500A0F1CC0D9FF1DC0DAFFC7
:1019B800DF6E1EC0D9FF1FC0DAFFDF500A0F1EC03E
:1019C800D9FF1FC0DAFFDF6E1CC016F01DC017F06C
:1019D80062EC0AF01EC016F01FC017F062EC0AF0A5
:1019E800020E216EA00E206E920EE82EFED7202E3B
:1019F800FCD7212EFAD700D0120020EE01F01C509F
:101A0800D9261D50DA22000EDF6E20EE02F01C509F
:101A1800D9261D50DA22000EDF6E20EE01F01E508E
:101A2800D9261F50DA22000EDF6E20EE02F01E507B
:101A3800D9261F50DA22000EDF6E1CC0D9FF1DC048
:101A4800DAFFDF50800A590FD8A02DEF0DF02FEFE5
:101A58000DF035EF0DF01CC0D9FF1DC0DAFF260EC2
:101A6800DF6E1EC0D9FF1FC0DAFFDF50800A510F9A
:101A7800D8A041EF0DF043EF0DF049EF0DF01EC077
:101A8800D9FF1FC0DAFF2E0EDF6E1CC0D9FF1DC0A4
:101A9800DAFFDF50050F1CC0D9FF1DC0DAFFDF6E6B
:101AA8001EC0D9FF1FC0DAFFDF50080F1EC0D9FFC4
:101AB8001FC0DAFFDF6E1CC016F01DC017F062EC05
:101AC8000AF01EC016F01FC017F062EC0AF0050EEF
:101AD800216E0F0E206EF10EE82EFED7202EFCD7B9
:101AE800212EFAD700F012003BC027F03CC028F0A6
:101AF8003DC029F03EC02AF009EC0FF0E3EF0DF0ED
:101B0800000E456E000E446E9D0E096E000E0A6EA4
:101B18003C0E0B6E010E0C6EF5EC13F009C041F093
:101B28000AC042F0A4EF0DF03BC01CF03CC01DF011
:101B38003DC01EF03EC01FF013EC0CF0444A452A8D
:101B48004150445C42504558D8A0ADEF0DF0AFEF7E
:101B58000DF098EF0DF0BEEF0DF03BC01CF03CC04F
:101B68001DF03DC01EF03EC01FF0EDEC0DF0440628
:101B7800D8A0450644504510D8A4C5EF0DF0C7EFCE
:101B88000DF0B1EF0DF0560E096E000E0A6E750ECF
:101B98000B6E000E0C6EA6EC14F0436E43503F6EB5
:101BA800406A3FC035F040C036F03BC037F03CC01B
:101BB80038F03DC039F03EC03AF020EC07F00001A3
:101BC8009D51D8A4EAEF0DF0ECEF0DF084EF0DF085
:101BD800120020EE02F01C50D9261D50DA22010E08
:101BE800DF6E20EE02F01E50D9261F50DA22010EB9
:101BF800DF6E1CC0D9FF1DC0DAFF000EDBBE09EF87
:101C08000EF007EF0EF00FEF0EF01CC0D9FF1DC04D
:101C1800DAFF000EDF6E1EC0D9FF1FC0DAFF000E0C
:101C2800DBBE1BEF0EF019EF0EF021EF0EF01EC019
:101C3800D9FF1FC0DAFF000EDF6E1CC0D9FF1DC020
:101C4800DAFFDF50FB0F1CC0D9FF1DC0DAFFDF6EC3
:101C58001EC0D9FF1FC0DAFFDF50FB0F1EC0D9FF1F
:101C68001FC0DAFFDF6E1CC0D9FF1DC0DAFF000EEF
:101C7800DF6E1EC0D9FF1FC0DAFF000EDF6E1CC06A
:101C880016F01DC017F062EC0AF01EC016F01FC057
:101C980017F062EC0AF0D00E206ECA0EE82EFED7BE
:101CA800202EFCD71200000E346E2EC027F02FC055
:101CB80028F030C029F031C02AF064EC11F0050E8C
:101CC800336E0F0E326EF10EE82EFED7322EFCD791
:101CD800332EFAD700F07CEF0EF02EC01CF02FC088
:101CE8001DF030C01EF031C01FF013EC0CF0342A88
:101CF8002C0E346482EF0EF084EF0EF071EF0EF0CC
:101D080091EF0EF02EC01CF02FC01DF030C01EF059
:101D180031C01FF0EDEC0DF034063450D8A497EF25
:101D28000EF099EF0EF086EF0EF0050E336E0F0EE3
:101D3800326EF10EE82EFED7322EFCD7332EFAD7AC
:101D480000F02EC027F02FC028F030C029F031C095
:101D58002AF009EC0FF01200000E346E2EC027F0A6
:101D68002FC028F030C029F031C02AF0A7EC11F0BC
:101D7800050E336E0F0E326EF10EE82EFED7322EA0
:101D8800FCD7332EFAD700F0D5EF0EF02EC01CF09A
:101D98002FC01DF030C01EF031C01FF013EC0CF046
:101DA800342A2C0E3464DBEF0EF0DDEF0EF0CAEFB0
:101DB8000EF0EAEF0EF02EC01CF02FC01DF030C060
:101DC8001EF031C01FF0EDEC0DF034063450D8A4ED
:101DD800F0EF0EF0F2EF0EF0DFEF0EF0050E336EBF
:101DE8000F0E326EF10EE82EFED7322EFCD7332EB0
:101DF800FAD700F02EC027F02FC028F030C029F005
:101E080031C02AF009EC0FF01200000E2D6E18EF09
:101E18000FF027C01CF028C01DF029C01EF02AC0F2
:101E28001FF001EC0DF02D2A0F0E2D641EEF0FF0A0
:101E380020EF0FF00DEF0FF02DEF0FF027C01CF083
:101E480028C01DF029C01EF02AC01FF0EDEC0DF0CF
:101E58002D062D50D8A433EF0FF035EF0FF022EFF9
:101E68000FF0050E2C6E0F0E2B6EF10EE82EFED71E
:101E78002B2EFCD72C2EFAD700F027C022F028C032
:101E880023F029C024F02AC025F0B9EC0FF0050E84
:101E98002C6E0F0E2B6EF10EE82EFED72B2EFCD7D4
:101EA8002C2EFAD700F027C022F028C023F029C032
:101EB80024F02AC025F0B9EC0FF01200000E266EAF
:101EC80071EF0FF022C01CF023C01DF024C01EF0DB
:101ED80025C01FF09CEC0BF0262A0E0E266477EF27
:101EE8000FF079EF0FF066EF0FF086EF0FF022C0DA
:101EF8001CF023C01DF024C01EF025C01FF0EDEC1F
:101F08000DF026062650D8A48CEF0FF08EEF0FF0B8
:101F18007BEF0FF09BEF0FF022C01CF023C01DF0E9
:101F280024C01EF025C01FF09CEC0BF0262A0E0ED4
:101F38002664A1EF0FF0A3EF0FF090EF0FF0B0EFD2
:101F48000FF022C01CF023C01DF024C01EF025C0D5
:101F58001FF0EDEC0DF026062650D8A4B6EF0FF0D2
:101F6800B8EF0FF0A5EF0FF01200000E266EC8EFC5
:101F78000FF022C01CF023C01DF024C01EF025C0A5
:101F88001FF08AEC0CF0262A0F0E2664CEEF0FF015
:101F9800D0EF0FF0BDEF0FF0DDEF0FF022C01CF017
:101FA80023C01DF024C01EF025C01FF0EDEC0DF07D
:101FB80026062650D8A4E3EF0FF0E5EF0FF0D2EF96
:101FC8000FF0F2EF0FF022C01CF023C01DF024C068
:101FD8001EF025C01FF08AEC0CF0262A0E0E26648F
:101FE800F8EF0FF0FAEF0FF0E7EF0FF007EF10F050
:101FF80022C01CF023C01DF024C01EF025C01FF015
:10200800EDEC0DF026062650D8A40DEF10F00FEFDA
:1020180010F0FCEF0FF012007D9485947D98859860
:102028007B9E839E7F9C879C050E0E01746F060E17
:10203800766F070E696F080E886FBD508F0B4009C9
:10204800BD6EE00EBE16BF50F00B0109BF6E09C091
:10205800BCFFBD8E000EAA6E000EA66E000E0F010C
:10206800256F000E216FFC0EAD16F30EAD16CF0EC8
:10207800AD163F0EAD16AB88AB50F00B0C09AB6E2E
:10208800AB8EA788A750F00B0C09A76EA78E2689E0
:102098002651F00B0C09266F268F22892251F00B4E
:1020A8000C09226F228F1200000E2D6E67EF10F0C0
:1020B80027C01CF028C01DF029C01EF02AC01FF040
:1020C80001EC0DF02D2A2C0E2D646DEF10F06FEF42
:1020D80010F05CEF10F07CEF10F027C01CF028C067
:1020E8001DF029C01EF02AC01FF0EDEC0DF02D06E2
:1020F8002D50D8A482EF10F084EF10F071EF10F09B
:10210800050E2C6E0F0E2B6EF10EE82EFED72B2E21
:10211800FCD72C2EFAD700F027C022F028C023F0D5
:1021280029C024F02AC025F062EC0FF01200000E3E
:102138002D6EAAEF10F027C01CF028C01DF029C092
:102148001EF02AC01FF001EC0DF02D2A2C0E2D6474
:10215800B0EF10F0B2EF10F09FEF10F0BFEF10F0FB
:1021680027C01CF028C01DF029C01EF02AC01FF08F
:10217800EDEC0DF02D062D50D8A4C5EF10F0C7EFEB
:1021880010F0B4EF10F0050E2C6E0F0E2B6EF10E42
:10219800E82EFED72B2EFCD72C2EFAD700F027C01E
:1021A80022F028C023F029C024F02AC025F0B9EC79
:1021B8000FF01200000E326EEDEF10F02CC01CF084
:1021C8002DC01DF02EC01EF02FC01FF001EC0DF029
:1021D800322A0F0E3264F3EF10F0F5EF10F0E2EF51
:1021E80010F002EF11F02CC01CF02DC01DF02EC015
:1021F8001EF02FC01FF0EDEC0DF032063250D8A4BF
:1022080008EF11F00AEF11F0F7EF10F0050E316E3C
:102218000F0E306EF10EE82EFED7302EFCD7312E81
:10222800FAD700F02CC027F02DC028F02EC029F0D6
:102238002FC02AF024EC12F01200000E326E30EF9C
:1022480011F02CC01CF02DC01DF02EC01EF02FC0A8
:102258001FF001EC0DF0322A0F0E326436EF11F048
:1022680038EF11F025EF11F045EF11F02CC01CF0FC
:102278002DC01DF02EC01EF02FC01FF0EDEC0DF08C
:1022880032063250D8A44BEF11F04DEF11F03AEF6F
:1022980011F0050E316E0F0E306EF10EE82EFED7DE
:1022A800302EFCD7312EFAD700F02CC027F02DC0E5
:1022B80028F02EC029F02FC02AF05BEC12F0120093
:1022C800000E2D6E73EF11F027C01CF028C01DF012
:1022D80029C01EF02AC01FF001EC0DF02D2A0F0EA8
:1022E8002D6479EF11F07BEF11F068EF11F088EFB2
:1022F80011F027C01CF028C01DF029C01EF02AC00C
:102308001FF0EDEC0DF02D062D50D8A48EEF11F036
:1023180090EF11F07DEF11F0050E2C6E0F0E2B6E65
:10232800F10EE82EFED72B2EFCD72C2EFAD700F074
:1023380027C022F028C023F029C024F02AC025F0A5
:1023480062EC0FF01200000E2D6EB6EF11F027C0F0
:102358001CF028C01DF029C01EF02AC01FF001EC97
:102368000DF02D2A0F0E2D64BCEF11F0BEEF11F009
:10237800ABEF11F0CBEF11F027C01CF028C01DF017
:1023880029C01EF02AC01FF0EDEC0DF02D062D50CF
:10239800D8A4D1EF11F0D3EF11F0C0EF11F0050E72
:1023A8002C6E0F0E2B6EF10EE82EFED72B2EFCD7BF
:1023B8002C2EFAD700F027C022F028C023F029C01D
:1023C80024F02AC025F0B9EC0FF01200000E146EAC
:1023D800000E136E11501210D8B4F5EF11F0F7EF8C
:1023E80011F01FEF12F0010E156EFFEF11F0D890EB
:1023F80011361236152A12AE04EF12F006EF12F05B
:10240800FBEF11F0D8901336143611500F5C1250B0
:102418001058D8A012EF12F014EF12F019EF12F0C2
:1024280011500F5E1250105A1380D8901232113288
:10243800152E06EF12F013C00FF014C010F01200A2
:1024480027C022F028C023F029C024F02AC025F094
:1024580062EC0FF0000E2B6E3DEF12F027C01CF05F
:1024680028C01DF029C01EF02AC01FF09CEC0BF0FC
:102478002B2A0E0E2B6443EF12F045EF12F032EFC9
:1024880012F052EF12F027C01CF028C01DF029C02E
:102498001EF02AC01FF0EDEC0DF02B062B50D8A42F
:1024A80058EF12F05AEF12F047EF12F0120027C05F
:1024B80022F028C023F029C024F02AC025F0B9EC66
:1024C8000FF0000E2B6E74EF12F027C01CF028C01E
:1024D8001DF029C01EF02AC01FF08AEC0CF02B2A30
:1024E8000F0E2B647AEF12F07CEF12F069EF12F006
:1024F80089EF12F027C01CF028C01DF029C01EF07B
:102508002AC01FF0EDEC0DF02B062B50D8A48FEF4E
:1025180012F091EF12F07EEF12F01200C1EC12F0FF
:1025280014C0D9FF15C0DAFF0DC0DEFF0EC0DDFFF5
:10253800E9EC12F020EE02F01450D9261550DA22F8
:102548000DC0DEFF0EC0DDFF39EC13F020EE04F005
:102558001450D9261550DA220DC0DEFF0EC0DDFF5B
:1025680011EC13F020EE06F01450D9261550DA229B
:102578000DC0DEFF0EC0DDFF12003EEC15F0520E5E
:1025880028EC15F0B60E28EC15F034EC15F0530EC7
:1025980028EC15F0010ED4EC13F00F6E0F50126EEC
:1025A800136A000ED4EC13F00F6E0F50116E106A00
:1025B80012501010126E13501110136E39EC15F0E2
:1025C80012C00DF013C00EF012003EEC15F0520EC2
:1025D80028EC15F0B80E28EC15F034EC15F0530E75
:1025E80028EC15F0010ED4EC13F00F6E0F50126E9C
:1025F800136A000ED4EC13F00F6E0F50116E106AB0
:1026080012501010126E13501110136E39EC15F091
:1026180012C00DF013C00EF012003EEC15F0520E71
:1026280028EC15F0B40E28EC15F034EC15F0530E28
:1026380028EC15F0010ED4EC13F00F6E0F50126E4B
:10264800136A000ED4EC13F00F6E0F50116E106A5F
:1026580012501010126E13501110136E39EC15F041
:1026680012C00DF013C00EF012003EEC15F0520E21
:1026780028EC15F0BA0E28EC15F034EC15F0530ED2
:1026880028EC15F0010ED4EC13F00F6E0F50126EFB
:10269800136A000ED4EC13F00F6E0F50116E106A0F
:1026A80012501010126E13501110136E39EC15F0F1
:1026B80012C00DF013C00EF01200130E0B6E000EB8
:1026C800C7EC14F03F0E0D6E550EE82EFED70D2EFA
:1026D800FCD700F0040E0B6E0C0EC7EC14F04FC0C4
:1026E8000BF0040EC7EC14F050500B6E050EC7EC3F
:1026F80014F0D3C00BF0060EC7EC14F00001D4514F
:102708000B6E070EC7EC14F01200130E036E000ECA
:10271800E7EC14F03F0E056E550EE82EFED7052E99
:10272800FCD700F0040E036E0C0EE7EC14F04FC05B
:1027380003F0040EE7EC14F05050036E050EE7ECBE
:1027480014F0D3C003F0060EE7EC14F00001D451E6
:10275800036E070EE7EC14F01200A20EF66E2A0EB6
:10276800F76E000EF86E0900F5CFD3F00900F5CF2B
:10277800D4F001EE00F08C0EEE6AE806FDE100EE02
:1027880060F03E0EEE6AE806FDE100EE4FF0080E3E
:10279800EE6AE806FDE157905792000162EF08F0F3
:1027A8000B6E59EC14F00E01DA8759EC14F0D5CE03
:1027B8000CF059EC14F00B50D8B4E5EF13F0E9EF36
:1027C80013F00A6A0A2AEAEF13F00A6A0A3A0A4672
:1027D8000E01DA510A18DF0B0A18DA6FDA890C5081
:1027E800120009C0D9FF0AC0DAFFDF06DF500D6EFC
:1027F8000D50020DF3CF0EF0F4CF0FF00E500B2456
:10280800D96E0F500C20DA6EDECF10F0DDCF11F04C
:1028180010C009F011C00AF0120044EC14F0010EC7
:102828000B6E000EC7EC14F03F0E0D6E550EE82E21
:10283800FED70D2EFCD700F0030E0B6E000EC7EC72
:1028480014F0D50E0B6E010EC7EC14F012000BC07D
:10285800D9FF0CC0DAFFDFCF0FF0010EDF260F50D3
:10286800020DF3CF10F0F4CF11F010500D24D96EF3
:1028780011500E20DA6E09C0DEFF0AC0DDFF12001B
:102888000E01D951F00B0809D96FD98B9F0ED66F5D
:10289800848A848CA79BA79D1D0E1D6F1E0E1C6F1E
:1028A8001C0E6F6F1B0E706F12000E01D8B55FEF14
:1028B80014F061EF14F059EF14F0DACE09F01F0E9E
:1028C8000916D8A46AEF14F06CEF14F059EF14F05D
:1028D80012000E01D8B573EF14F075EF14F06DEF18
:1028E80014F0DACE01F01F0E0116D8A47EEF14F012
:1028F80080EF14F06DEF14F0120009500B02F3CFC3
:102908000DF0F4CF0EF009500C02F3500E260A50C9
:102918000B02F3500E260DC009F00EC00AF012008B
:102928000E6E09C0D9FF0AC0DAFFDFCF0DF0010E25
:10293800DF260D500B24D96E000E0C20DA6E0EC067
:10294800DFFF120009C0D9FF0AC0DAFFDF06DF5037
:102958000D6E0D500B24D96E000E0C20DA6EDF5070
:102968000E6E0E501200D6501F0B4009D66ED68838
:10297800D650F00B0809D66ED588C20ED46EF60E66
:10298800D36ED58E12000C6E3EEC15F0520E28EC6C
:1029980015F00C50800928EC15F00B5028EC15F0B8
:1029A80039EC15F012000E0133A3DDEF14F0DFEF60
:1029B80014F0E5EF14F0010E556E13EC15F00E014E
:1029C800339357921100046E48EC15F0520E2EEC1A
:1029D80015F0045080092EEC15F003502EEC15F07C
:1029E80043EC15F0120082820E019A9329831F830B
:1029F800F292298B1F9B2D8706EC15F0F28AF28C38
:102A0800F28E12003EEC15F0520E28EC15F0E60E90
:102A180028EC15F039EC15F061EC13F0120048ECD5
:102A280015F0520E2EEC15F0E60E2EEC15F043ECD8
:102A380015F089EC13F0120087928198869E809693
:102A480088967C9E849E12000A6E59EC14F00AC087
:102A5800D5FE1200026E6DEC14F002C0D5FE120015
:102A680059EC14F00E01DA83120059EC14F00E013F
:102A7800DA85120059EC14F00E01DA8112006DECBF
:102A880014F00E01DA8512006DEC14F00E01DA81F3
:0C2A980012007F8279887E8E1200540BA1
:020000040020DA
:10000000FF0FFF0FFF0FFF0FFF0FFF0FFF0FFF0F80
:020000040030CA
:0C000000AAFFFFFF9FFFFFFFFFFFFFFFB5
:00000001FF
