:040000002CEF00F0F1
:0600080057820FEF15F016
:100018005780D8CF06F0E8CF07F0E0CF08F00E0100
:1000280033AB19EF00F01BEF00F024EF00F00B0EDC
:10003800D46EDB0ED36E010E0001756F0E01339B7B
:1000480008C0E0FF07C0E8FF06C0D8FF57901000BF
:10005800E9EF13F0000E0001B36F000E346E000ECE
:10006800356EC80E366E420E376E20EE04F0A35180
:10007800D926A451DA22DECFA7F0DDCFA8F020EEF2
:1000880002F0A351D926A451DA22DECFA9F0DDCFA0
:10009800AAF0A3C0D9FFA4C0DAFFDECFABF0DDCF52
:1000A800ACF0A951AB25AD6FAA51AC21AE6FA751E9
:1000B800AD25AF6FA851AE21B06FAFC009F0B0C089
:1000C8000AF00B6A0C6A000EC0EC09F009C01BF0BC
:1000D8000AC01CF00BC01DF00CC01EF0A3C0D9FF55
:1000E800A4C0DAFFDECFB1F0DDCFB2F0B1C009F0C5
:1000F800B2C00AF00B6A0C6A000EC0EC09F009C025
:1001080017F00AC018F00BC019F00CC01AF056EC22
:1001180005F017C030F018C031F019C032F01AC01D
:1001280033F041EC03F030C049F031C04AF032C03E
:100138004BF033C04CF050EC0BF049500001B46F59
:10014800000E346E000E356EC80E366E420E376ED7
:1001580020EE04F0A351D926A451DA22DECFA7F06D
:10016800DDCFA8F020EE02F0A351D926A451DA225F
:10017800DECFA9F0DDCFAAF0A3C0D9FFA4C0DAFF73
:10018800DECFABF0DDCFACF0A951AB25AD6FAA51F6
:10019800AC21AE6FA751AD25AF6FA851AE21B06F9E
:1001A800AFC009F0B0C00AF00B6A0C6A000EC0ECD0
:1001B80009F009C01BF00AC01CF00BC01DF00CC0F0
:1001C8001EF0000120EE02F0A351D926A451DA2234
:1001D800DECFB1F0DDCFB2F0B1C009F0B2C00AF0A5
:1001E8000B6A0C6A000EC0EC09F009C017F00AC0CF
:1001F80018F00BC019F00CC01AF056EC05F017C037
:1002080030F018C031F019C032F01AC033F041ECA8
:1002180003F030C049F031C04AF032C04BF033C06F
:100228004CF050EC0BF049500001B56F000E346EE5
:10023800000E356EC80E366E420E376E20EE04F094
:10024800A351D926A451DA22DECFA7F0DDCFA8F03A
:1002580020EE02F0A351D926A451DA22DECFA9F06C
:10026800DDCFAAF0A3C0D9FFA4C0DAFFDECFABF080
:10027800DDCFACF0A951AB25AD6FAA51AC21AE6F63
:10028800A751AD25AF6FA851AE21B06FAFC009F02F
:10029800B0C00AF00B6A0C6A000EC0EC09F009C085
:1002A8001BF00AC01CF00BC01DF00CC01EF00001B2
:1002B80020EE04F0A351D926A451DA22DECFB1F002
:1002C800DDCFB2F0B1C009F0B2C00AF00B6A0C6A17
:1002D800000EC0EC09F009C017F00AC018F00BC0F6
:1002E80019F00CC01AF056EC05F017C030F018C021
:1002F80031F019C032F01AC033F041EC03F030C0CD
:1003080049F031C04AF032C04BF033C04CF050ECE9
:100318000BF049500001B66F5550D8B496EF01F074
:1003280098EF01F03DEF03F0490EB4659EEF01F040
:10033800A0EF01F0CCEF01F04D0EB461A6EF01F093
:10034800A8EF01F0CCEF01F0090EB565AEEF01F0B2
:10035800B0EF01F0CCEF01F00D0EB561B6EF01F092
:10036800B8EF01F0CCEF01F00C0EB665BEEF01F06E
:10037800C0EF01F0CCEF01F0100EB661C6EF01F04E
:10038800C8EF01F0CCEF01F0010EB36F3DEF03F0C1
:10039800230EB465D2EF01F0D4EF01F000EF02F0C4
:1003A800270EB461DAEF01F0DCEF01F000EF02F0A4
:1003B800280EB565E2EF01F0E4EF01F000EF02F07E
:1003C8002C0EB561EAEF01F0ECEF01F000EF02F05E
:1003D800130EB665F2EF01F0F4EF01F000EF02F052
:1003E800170EB661FAEF01F0FCEF01F000EF02F032
:1003F800020EB36F3DEF03F01C0EB46506EF02F07A
:1004080008EF02F034EF02F0230EB4610EEF02F0B1
:1004180010EF02F034EF02F01F0EB56516EF02F090
:1004280018EF02F034EF02F0270EB5611EEF02F06C
:1004380020EF02F034EF02F01E0EB66526EF02F050
:1004480028EF02F034EF02F0260EB6612EEF02F02C
:1004580030EF02F034EF02F0030EB36F3DEF03F01C
:10046800310EB4653AEF02F03CEF02F068EF02F0AB
:10047800350EB46142EF02F044EF02F068EF02F08B
:100488001D0EB5654AEF02F04CEF02F068EF02F07E
:10049800210EB56152EF02F054EF02F068EF02F05E
:1004A800100EB6655AEF02F05CEF02F068EF02F04A
:1004B800140EB66162EF02F064EF02F068EF02F02A
:1004C800040EB36F3DEF03F02F0EB4656EEF02F02C
:1004D80070EF02F09CEF02F0330EB46176EF02F099
:1004E80078EF02F09CEF02F01B0EB5657EEF02F08C
:1004F80080EF02F09CEF02F01F0EB56186EF02F06C
:1005080088EF02F09CEF02F0140EB6658EEF02F051
:1005180090EF02F09CEF02F0180EB66196EF02F031
:1005280098EF02F09CEF02F0050EB36F3DEF03F079
:100538003A0EB465A2EF02F0A4EF02F0D0EF02F099
:100548003E0EB461AAEF02F0ACEF02F0D0EF02F079
:10055800150EB565B2EF02F0B4EF02F0D0EF02F07D
:10056800190EB561BAEF02F0BCEF02F0D0EF02F05D
:100578000F0EB665C2EF02F0C4EF02F0D0EF02F042
:10058800130EB661CAEF02F0CCEF02F0D0EF02F022
:10059800060EB36F3DEF03F0200EB465D6EF02F000
:1005A800D8EF02F004EF03F0240EB461DEEF02F09E
:1005B800E0EF02F004EF03F0250EB565E6EF02F078
:1005C800E8EF02F004EF03F0290EB561EEEF02F058
:1005D800F0EF02F004EF03F0190EB665F6EF02F043
:1005E800F8EF02F004EF03F01D0EB661FEEF02F023
:1005F80000EF03F004EF03F0070EB36F3DEF03F0D5
:100608002A0EB4650AEF03F00CEF03F038EF03F09D
:100618002E0EB46112EF03F014EF03F038EF03F07D
:100628001F0EB5651AEF03F01CEF03F038EF03F067
:10063800230EB56122EF03F024EF03F038EF03F047
:10064800150EB6652AEF03F02CEF03F038EF03F030
:10065800190EB66132EF03F034EF03F038EF03F010
:10066800080EB36F3DEF03F08086000EB36FA54B05
:10067800A62B000E556EB35112003350800B3C6E02
:1006880033503324426E32AE4CEF03F04EEF03F09A
:100698004FEF03F042804250D8B455EF03F057EFC4
:1006A80003F06AEF03F04228D8A45DEF03F05FEF90
:1006B80003F067EF03F0000E306E000E316E000E8F
:1006C800326E000E336E328E72EF03F0000E306E13
:1006D800000E316E000E326E000E336E3750800BF6
:1006E8003C1A37503724416E36AE7DEF03F07FEF6A
:1006F80003F080EF03F041804150D8B486EF03F057
:1007080088EF03F09BEF03F04128D8A48EEF03F0A5
:1007180090EF03F098EF03F0000E346E000E356E84
:10072800000E366E000E376E368EA3EF03F0000E05
:10073800346E000E356E000E366E000E376E415068
:10074800D8B4A9EF03F0ABEF03F0B3EF03F04250D6
:10075800D8A4B1EF03F0B3EF03F0BDEF03F0000E40
:10076800306E000E316E000E326E000E336E55EF95
:1007780005F036503002F3CF47F0F4CF48F0475039
:100788003D6E3E6A3F6A406A4850436E446A456A15
:10079800466A35503102F3CF47F0F4CF48F047505E
:1007A8003D26000E3E223F22402248504326000E9E
:1007B80044224522462234503202F3CF47F0F4CF88
:1007C80048F047503D26000E3E223F224022485026
:1007D8004326000E4422452246223FC040F03EC038
:1007E8003FF03DC03EF03D6A34503102F3CF47F050
:1007F800F4CF48F047503D2648503E22000E3F2295
:10080800000E402235503002F3CF47F0F4CF48F0C5
:1008180047503D2648503E22000E3F22000E4022FF
:100828003FC040F03EC03FF03DC03EF03D6A34500E
:100838003002F3CF47F0F4CF48F047503D264850F8
:100848003E22000E3F22000E402236503102F3CFE6
:1008580047F0F4CF48F04750432648504422000E52
:100868004522000E462235503202F3CF47F0F4CF2E
:1008780048F04750432648504422000E4522000EB7
:10088800462236503202F3CF47F0F4CF48F04750B3
:10089800386E4850396E3A6A3B6A3AC03BF039C004
:1008A8003AF038C039F0386A385043263950442273
:1008B8003A5045223B5046223DC038F03EC039F000
:1008C8003FC03AF040C03BF0190E70EF04F0D890EA
:1008D8003B323A3239323832E82E6BEF04F0385076
:1008E8004326395044223A5045223B5046223FC0C5
:1008F80040F03EC03FF03DC03EF03D6A415042C02E
:1009080038F0396A3826000E3922820E3824476EAC
:10091800FF0E3920486EA6EF04F0D89043364436CF
:100928004536463640AE9BEF04F09DEF04F09EEF4F
:1009380004F04380D8903D363E363F364036470671
:10094800D8A0480645AEABEF04F0ADEF04F091EF48
:1009580004F0000E416E40AEB4EF04F0B6EF04F0C0
:10096800DAEF04F0FF0E3D14386EFF0E3E14396EB8
:10097800FF0E3F143A6E7F0E40143B6E385039100C
:100988003A103B10D8B4CBEF04F0CDEF04F0D1EF20
:1009980004F0010E416EDAEF04F043A0D6EF04F044
:1009A800D8EF04F0DAEF04F0CDEF04F04150D8B4FA
:1009B800E0EF04F0E2EF04F006EF05F0010E432645
:1009C800000E44224522462246A0EDEF04F0EFEF48
:1009D80004F006EF05F043C038F044C039F045C0D4
:1009E8003AF046C03BF03B343B323A323932383287
:1009F80038C043F039C044F03AC045F03BC046F037
:100A0800474A482A48BE11EF05F0485008E14728F0
:100A1800D8A011EF05F013EF05F01DEF05F0000E5B
:100A2800436E000E446E800E456E7F0E466E4BEF91
:100A380005F048BE2AEF05F0485006E14704D8B053
:100A480028EF05F02AEF05F036EF05F0000E436EAB
:100A5800000E446E000E456E000E466E000E3C6E93
:100A68004BEF05F047C042F0FF0E4316FF0E441649
:100A78007F0E4516000E461642A045EF05F047EFDB
:100A880005F048EF05F0458ED8904230466E3C5050
:100A9800461243C030F044C031F045C032F046C081
:100AA80033F012001A50800B276E1A501A242E6E3B
:100AB80019AE61EF05F063EF05F064EF05F02E80E5
:100AC8002E50D8B46AEF05F06CEF05F081EF05F011
:100AD8002E28D8A472EF05F074EF05F07CEF05F02E
:100AE800000E176E000E186E000E196E000E1A6EAC
:100AF800198E000E1A6E89EF05F0000E176E000EA3
:100B0800186E000E196E000E1A6E1E50800B271AF2
:100B18001E501E242F6E1DAE94EF05F096EF05F0C3
:100B280097EF05F02F802F50D8B49DEF05F09FEF79
:100B380005F0B4EF05F02F28D8A4A5EF05F0A7EF2E
:100B480005F0AFEF05F0000E1B6E000E1C6E000ED8
:100B58001D6E000E1E6E1D8E000E1E6EBCEF05F083
:100B6800000E1B6E000E1C6E000E1D6E000E1E6E1B
:100B78001B501C101D101E10D8A4C5EF05F0C7EFA0
:100B880005F0DFEF05F0000E176E000E186E000E70
:100B9800196E000E1A6E800E19127F0E1A12275047
:100BA8001A1217C017F018C018F019C019F01AC097
:100BB8001AF022EF07F02E50D8A4E5EF05F0E7EF82
:100BC80005F0F1EF05F0000E176E000E186E000E1E
:100BD800196E000E1A6E22EF07F02F502EC01FF06C
:100BE800206A1F5E000E205A7F0E1F24286E000EFA
:100BF8002020296E17C023F018C024F019C025F052
:100C08001AC026F0000E176E000E186E000E196E30
:100C1800000E1A6E000E2A6E000E2B6E000E2C6E41
:100C2800000E2D6E000E2F6E52EF06F02F50D8B426
:100C380020EF06F022EF06F039EF06F0D8902336C1
:100C4800243625362636D8901736183619361A36E9
:100C58002DAE31EF06F033EF06F034EF06F01780D3
:100C6800D8902A362B362C362D361B50235C1C5038
:100C780024581D5025581E502658D8A046EF06F077
:100C880048EF06F051EF06F02D8C1B50235E1C50E8
:100C9800245A1D50255A1E50265A2F2A190E2F64E1
:100CA80058EF06F05AEF06F01AEF06F0235024101A
:100CB80025102610D8B463EF06F065EF06F07DEF37
:100CC80006F02A807DEF06F0D890173618361936C8
:100CD8001A362DAE72EF06F074EF06F075EF06F0D7
:100CE8001780D8902A362B362C362D362806D8A0D1
:100CF800290619AE82EF06F084EF06F068EF06F0D9
:100D0800000E2F6E2DAE8BEF06F08DEF06F0B1EFD3
:100D180006F0FF0E2A141F6EFF0E2B14206EFF0E16
:100D28002C14216E7F0E2D14226E1F5020102110BE
:100D38002210D8B4A2EF06F0A4EF06F0A8EF06F050
:100D4800010E2F6EB1EF06F017A0ADEF06F0AFEF72
:100D580006F0B1EF06F0A4EF06F02F50D8B4B7EFC5
:100D680006F0B9EF06F0DDEF06F0010E1726000ECB
:100D7800182219221A221AA0C4EF06F0C6EF06F0AC
:100D8800DDEF06F017C01FF018C020F019C021F0E1
:100D98001AC022F022342232213220321F321FC0E0
:100DA80017F020C018F021C019F022C01AF0284A04
:100DB800292A29BEE8EF06F0295008E12828D8A0FA
:100DC800E8EF06F0EAEF06F0F5EF06F0000E296E00
:100DD8002868000E176E000E186E000E196E000EB1
:100DE8001A6E29BE02EF07F0295006E12804D8B090
:100DF80000EF07F002EF07F010EF07F0000E296E82
:100E0800000E286E000E176E000E186E000E196E7A
:100E1800000E1A6E000E276E28C02EF02EA017EFB7
:100E280007F019EF07F01CEF07F0198E1DEF07F018
:100E3800199ED8902E301A6ED3EF05F01200000ECE
:100E48000001BE6F000EBD6F000EC06F000EBF6FB9
:100E5800000EC26F000EC16F000EC46F000EC36F8C
:100E680058EC15F049EC14F02FEC15F0EFEC14F0F9
:100E7800000E0A6E630E096E48EC10F0000E0001B9
:100E8800C56F010EC66F010EC76FAA0ECA6F0F0E8F
:100E9800CB6FA60ECC6F0F0ECD6FBCCFC8F0C96B51
:100EA800000ECE6F010ECF6F010ED06F250ED36FDF
:100EB8000F0ED46F210ED56F0F0ED66FBCCFD1F0A9
:100EC800D26B000EBC6F000EB96F85EC15F0000EEA
:100ED8000001BB6F000EBA6FA0EF07F0C50E1C6EC5
:100EE800000E1D6ECE0E1E6E000E1F6E4BEC0CF02B
:100EF800BD0E146E000E156ECAEC12F0BD0E000188
:100F0800A36F000EA46FB951B76FB86BB7C0A5F047
:100F1800B8C0A6F02EEC00F00001BC6FBA4BBB2B9A
:100F2800090EB9659AEF07F09CEF07F0A0EF07F0FC
:100F3800080EBC6F010E746FBC51D8B4A6EF07F051
:100F4800A8EF07F072EF07F0BC51D8B4AEEF07F086
:100F5800B0EF07F00DEF08F0080EBC19D8B4B7EFE2
:100F680007F0B9EF07F00DEF08F0FA0EBA25096E91
:100F7800FF0EBB210A6E9E0E0B6E000E0C6E3C0E11
:100F88000D6E010E0E6E63EC14F08086DAEF07F03A
:100F9800C50E1C6E000E1D6ECE0E1E6E000E1F6E50
:100FA80025EC0EF00001BA07D8A0BB070001BA5122
:100FB800BB11D8A4E2EF07F0E4EF07F0CCEF07F09D
:100FC800090E0001B86F1E0EB76FE40EE82EFED7AB
:100FD800B72FFCD7B82FFAD700F080960001BC5184
:100FE800B76FB86BB7C035F0B8C036F0C50E376EFE
:100FF800000E386ECE0E396E000E3A6E7EEC08F09A
:10100800000E0001BC6F000E556E000EB96F6BEF3D
:1010180007F0080EBC19D8A414EF08F016EF08F072
:101028006BEF07F07451D8B41CEF08F01EEF08F00E
:1010380031EF08F0B951BA5D096EBB51D8A0BB05B4
:101048000A6E9E0E0B6E000E0C6E3C0E0D6E010E9F
:101058000E6E63EC14F041EF08F0FA0EBA25096E33
:10106800FF0EBB210A6E9E0E0B6E000E0C6E3C0E20
:101078000D6E010E0E6E63EC14F07C8E52EF08F0CC
:10108800C50E1C6E000E1D6ECE0E1E6E000E1F6E5F
:1010980025EC0EF00001BA07D8A0BB070001BA5131
:1010A800BB11D8A45AEF08F05CEF08F044EF08F041
:1010B800090E0001B86F1E0EB76FE40EE82EFED7BA
:1010C800B72FFCD7B82FFAD700F0C50E3B6E000E2D
:1010D8003C6ECE0E3D6E000E3E6EB0EC0DF07C9E6A
:1010E800000E0001BC6F000EB96F03006BEF07F034
:1010F8002CEF00F035043610D8A485EF08F087EF00
:1011080008F0A5EF08F037C027F038C028F039C03C
:1011180029F03AC02AF09CEC11F07CBE96EF08F05A
:1011280098EF08F0BFEF09F0560E096E000E0A6E30
:10113800760E0B6E000E0C6E020ECCEC14F0BFEFA8
:1011480009F0020E35183610D8A4ADEF08F0AFEF4D
:1011580008F0CDEF08F037C027F038C028F039C0C4
:1011680029F03AC02AF0DFEC11F07CBEBEEF08F09F
:10117800C0EF08F0BFEF09F0560E096E000E0A6EB8
:10118800760E0B6E000E0C6E010ECCEC14F0BFEF59
:1011980009F0030E35183610D8A4D5EF08F0D7EFAC
:1011A80008F0F5EF08F037C027F038C028F039C04C
:1011B80029F03AC02AF041EC0FF07CBEE6EF08F0C7
:1011C800E8EF08F0BFEF09F0560E096E000E0A6E40
:1011D800760E0B6E000E0C6E030ECCEC14F0BFEF07
:1011E80009F0040E35183610D8A4FDEF08F0FFEF0B
:1011F80008F01DEF09F037C027F038C028F039C0D3
:1012080029F03AC02AF090EC10F07CBE0EEF09F0FD
:1012180010EF09F0BFEF09F0560E096E000E0A6EC6
:10122800760E0B6E000E0C6E090ECCEC14F0BFEFB0
:1012380009F0050E35183610D8A425EF09F027EF68
:1012480009F045EF09F037C027F038C028F039C059
:1012580029F03AC02AF0D3EC10F07CBE36EF09F042
:1012680038EF09F0BFEF09F0560E096E000E0A6E4E
:10127800760E0B6E000E0C6E0A0ECCEC14F0BFEF5F
:1012880009F0060E35183610D8A44DEF09F04FEFC7
:1012980009F06DEF09F037C02CF038C02DF039C0D7
:1012A8002EF03AC02FF016EC11F07CBE5EEF09F07C
:1012B80060EF09F0BFEF09F0560E096E000E0A6ED6
:1012C800760E0B6E000E0C6E070ECCEC14F0BFEF12
:1012D80009F0070E35183610D8A475EF09F077EF26
:1012E80009F095EF09F037C02CF038C02DF039C05F
:1012F8002EF03AC02FF059EC11F07CBE86EF09F0C1
:1013080088EF09F0BFEF09F0560E096E000E0A6E5D
:10131800760E0B6E000E0C6E060ECCEC14F0BFEFC2
:1013280009F0090E35183610D8A49DEF09F09FEF83
:1013380009F0ABEF09F037C02EF038C02FF039C0F4
:1013480030F03AC031F08FEC0EF0BFEF09F00A0E22
:1013580035183610D8A4B3EF09F0B5EF09F0BFEF90
:1013680009F037C02EF038C02FF039C030F03AC03D
:1013780031F0E8EC0EF01200116E1150D8B4C7EF3E
:1013880009F0C9EF09F0EBEF09F00CBED0EF09F056
:10139800CEEF09F0EBEF09F009C00DF00AC00EF02E
:1013A8000BC00FF00CC010F00D1E0E1E0F1E101EED
:1013B8000D2A000E0E220F2210220DC013F00EC0AF
:1013C80014F00FC015F010C016F0F3EF09F009C0C3
:1013D80013F00AC014F00BC015F00CC016F0095039
:1013E8000A100B100C10D8A4FCEF09F0FEEF09F05E
:1013F80008EF0AF0000E096E000E0A6E000E0B6E62
:10140800000E0C6E99EF0AF0960E126E12EF0AF0AB
:10141800122AD8901632153214321332000E1314D1
:101428000D6E000E14140E6E000E15140F6EFE0EC7
:101438001614106E0D500E100F101010D8A427EFB0
:101448000AF029EF0AF00CEF0AF037EF0AF0122A37
:10145800010E1326000E142215221622D8901632D9
:10146800153214321332000E13140D6E000E1414BC
:101478000E6E000E15140F6EFF0E1614106E0D5022
:101488000E100F101010D8A44CEF0AF04EEF0AF00F
:101498002BEF0AF056EF0AF01206D89013361436DE
:1014A8001536163615BE5BEF0AF05DEF0AF065EFEC
:1014B8000AF0020E126063EF0AF065EF0AF050EFCF
:1014C8000AF012B06AEF0AF06CEF0AF06DEF0AF05A
:1014D800159ED890123212C00DF00E6A0F6A106A6B
:1014E8000DC010F00F6A0E6A0D6A0D5013120E50DF
:1014F80014120F501512105016121150D8B487EF4D
:101508000AF089EF0AF091EF0AF00CBE90EF0AF0AA
:101518008EEF0AF091EF0AF0168E13C009F014C08E
:101528000AF015C00BF016C00CF0120020EE02F005
:101538001650D9261750DA22DF50D8B4A6EF0AF091
:10154800A8EF0AF0DCEF0AF016C0D9FF17C0DAFFDF
:10155800DF50096E0A6A09BE0A0620EE03F016502B
:10156800D9261750DA22DECF0BF0DDCF0CF0B9EC1C
:1015780014F009C00FF00AC010F0000E126E640ECD
:10158800116E22EC12F020EE03F01650D9261750F7
:10159800DA22DF50186E0F50185C1A6E20EE03F036
:1015A8001650D9261750DA22DF501B6EFFEF0AF0CB
:1015B800000E1A6E16C0D9FF17C0DAFFDF50096E89
:1015C8000A6A09BE0A0620EE03F01650D9261750FB
:1015D800DA22DECF0BF0DDCF0CF0B9EC14F009C045
:1015E8000FF00AC010F0000E126E640E116E22EC9D
:1015F80012F00F501B6E20EE01F01650D92617502E
:10160800DA22DF50D8B40BEF0BF00DEF0BF02FEF11
:101618000BF020EE05F01650D9261750DA22DECF4F
:1016280018F0DDCF19F018C0D9FF19C0DAFF1AC0B9
:10163800DFFF20EE07F01650D9261750DA22DECF4A
:1016480018F0DDCF19F018C0D9FF19C0DAFF1BC098
:10165800DFFF4FEF0BF020EE05F01650D92617509C
:10166800DA22DECF18F0DDCF19F018C0D9FF19C083
:10167800DAFF1BC0DFFF20EE07F01650D9261750FF
:10168800DA22DECF18F0DDCF19F018C0D9FF19C063
:10169800DAFF1AC0DFFF12004B344C344E6E4E5046
:1016A800D8A459EF0BF05BEF0BF065EF0BF0000ED1
:1016B800496E000E4A6E000E4B6E000E4C6ED3EF54
:1016C8000BF049C09FF04AC0A0F04BC0A1F04CC03D
:1016D800A2F0200E76EF0BF00001D890A233A133D0
:1016E800A0339F33E82E70EF0BF09F514D6E4B8E59
:1016F800FF0E4916FF0E4A16FF0E4B16000E4C162B
:10170800960E4E5E4EBE8DEF0BF08BEF0BF0A3EFF7
:101718000BF04E50800A970FD8B095EF0BF097EF6B
:101728000BF099EF0BF05BEF0BF0D8904C324B328B
:101738004A3249324E3E99EF0BF0BBEF0BF01F0EC9
:101748004E64A9EF0BF0ABEF0BF0B3EF0BF05BEFD0
:101758000BF0D89049364A364B364C364E064E502A
:10176800D8A4B9EF0BF0BBEF0BF0ADEF0BF04D5079
:10177800D8B4C1EF0BF0C3EF0BF0CBEF0BF04C1E5E
:101788004B1E4A1E496C000E4A224B224C2249C06D
:1017980049F04AC04AF04BC04BF04CC04CF0120024
:1017A80020EE01F01C50D9261D50DA22010EDF6E02
:1017B80020EE02F01C50D9261D50DA22000EDF6EF2
:1017C80020EE01F01E50D9261F50DA22000EDF6EDF
:1017D80020EE02F01E50D9261F50DA22000EDF6ECE
:1017E8001CC0D9FF1DC0DAFFDF50800A410FD8A006
:1017F80000EF0CF002EF0CF008EF0CF01CC0D9FF62
:101808001DC0DAFF3E0EDF6E1EC0D9FF1FC0DAFF13
:10181800DF50800A410FD8A014EF0CF016EF0CF03F
:101828001CEF0CF01EC0D9FF1FC0DAFF3E0EDF6EA2
:101838001CC0D9FF1DC0DAFFDF500A0F1CC0D9FF3A
:101848001DC0DAFFDF6E1EC0D9FF1FC0DAFFDF50F0
:101858000A0F1EC0D9FF1FC0DAFFDF6E1CC016F0CA
:101868001DC017F09AEC0AF01EC016F01FC017F042
:101878009AEC0AF0020E216EA00E206E920EE82E4F
:10188800FED7202EFCD7212EFAD700D0120020EE4A
:1018980001F01C50D9261D50DA22010EDF6E20EE11
:1018A80002F01C50D9261D50DA22000EDF6E20EE01
:1018B80001F01E50D9261F50DA22010EDF6E20EEED
:1018C80002F01E50D9261F50DA22000EDF6E1CC00F
:1018D800D9FF1DC0DAFFDF50800A570FD8A077EF75
:1018E8000CF079EF0CF07FEF0CF01CC0D9FF1DC095
:1018F800DAFF280EDF6E1EC0D9FF1FC0DAFFDF50E7
:10190800800A540FD8A08BEF0CF08DEF0CF093EFFA
:101918000CF01EC0D9FF1FC0DAFF2B0EDF6E1CC0F3
:10192800D9FF1DC0DAFFDF50050F1CC0D9FF1DC04D
:10193800DAFFDF6E1EC0D9FF1FC0DAFFDF50070FC6
:101948001EC0D9FF1FC0DAFFDF6E1CC016F01DC015
:1019580017F09AEC0AF01EC016F01FC017F09AECA8
:101968000AF0050E216E0F0E206EF10EE82EFED73E
:10197800202EFCD7212EFAD700F0120020EE01F01D
:101988001C50D9261D50DA22000EDF6E20EE02F020
:101998001C50D9261D50DA22000EDF6E20EE01F011
:1019A8001E50D9261F50DA22010EDF6E20EE02F0FB
:1019B8001E50D9261F50DA22000EDF6E1CC0D9FF38
:1019C8001DC0DAFFDF50800A410FD8A0EEEF0CF0FF
:1019D800F0EF0CF0F6EF0CF01CC0D9FF1DC0DAFFD9
:1019E8003E0EDF6E1EC0D9FF1FC0DAFFDF50800A2F
:1019F800410FD8A002EF0DF004EF0DF00AEF0DF043
:101A08001EC0D9FF1FC0DAFF3E0EDF6E1CC0D9FF13
:101A18001DC0DAFFDF500A0F1CC0D9FF1DC0DAFF56
:101A2800DF6E1EC0D9FF1FC0DAFFDF500A0F1EC0CD
:101A3800D9FF1FC0DAFFDF6E1CC016F01DC017F0FB
:101A48009AEC0AF01EC016F01FC017F09AEC0AF0C4
:101A5800020E216EA00E206E920EE82EFED7202ECA
:101A6800FCD7212EFAD700D0120020EE01F01C502E
:101A7800D9261D50DA22000EDF6E20EE02F01C502F
:101A8800D9261D50DA22000EDF6E20EE01F01E501E
:101A9800D9261F50DA22000EDF6E20EE02F01E500B
:101AA800D9261F50DA22000EDF6E1CC0D9FF1DC0D8
:101AB800DAFFDF50800A590FD8A065EF0DF067EF05
:101AC8000DF06DEF0DF01CC0D9FF1DC0DAFF260E1A
:101AD800DF6E1EC0D9FF1FC0DAFFDF50800A510F2A
:101AE800D8A079EF0DF07BEF0DF081EF0DF01EC05F
:101AF800D9FF1FC0DAFF2E0EDF6E1CC0D9FF1DC034
:101B0800DAFFDF50050F1CC0D9FF1DC0DAFFDF6EFA
:101B18001EC0D9FF1FC0DAFFDF50080F1EC0D9FF53
:101B28001FC0DAFFDF6E1CC016F01DC017F09AEC5C
:101B38000AF01EC016F01FC017F09AEC0AF0050E46
:101B4800216E0F0E206EF10EE82EFED7202EFCD748
:101B5800212EFAD700F012003BC027F03CC028F035
:101B68003DC029F03EC02AF041EC0FF01BEF0EF00B
:101B7800000E456E000E446E9E0E096E000E0A6E33
:101B88003C0E0B6E010E0C6E2DEC14F009C041F0EA
:101B98000AC042F0DCEF0DF03BC01CF03CC01DF069
:101BA8003DC01EF03EC01FF04BEC0CF0444A452AE5
:101BB8004150445C42504558D8A0E5EF0DF0E7EF9E
:101BC8000DF0D0EF0DF0F6EF0DF03BC01CF03CC06F
:101BD8001DF03DC01EF03EC01FF025EC0EF044067F
:101BE800D8A0450644504510D8A4FDEF0DF0FFEFEE
:101BF8000DF0E9EF0DF0560E096E000E0A6E760E26
:101C08000B6E000E0C6EDEEC14F0436E43503F6E0C
:101C1800406A3FC035F040C036F03BC037F03CC0AA
:101C280038F03DC039F03EC03AF07EEC08F00001D3
:101C38009E51D8A422EF0EF024EF0EF0BCEF0DF069
:101C4800120020EE02F01C50D9261D50DA22010E97
:101C5800DF6E20EE02F01E50D9261F50DA22010E48
:101C6800DF6E1CC0D9FF1DC0DAFF000EDBBE41EFDE
:101C78000EF03FEF0EF047EF0EF01CC0D9FF1DC06D
:101C8800DAFF000EDF6E1EC0D9FF1FC0DAFF000E9C
:101C9800DBBE53EF0EF051EF0EF059EF0EF01EC001
:101CA800D9FF1FC0DAFF000EDF6E1CC0D9FF1DC0B0
:101CB800DAFFDF50FB0F1CC0D9FF1DC0DAFFDF6E53
:101CC8001EC0D9FF1FC0DAFFDF50FB0F1EC0D9FFAF
:101CD8001FC0DAFFDF6E1CC0D9FF1DC0DAFF000E7F
:101CE800DF6E1EC0D9FF1FC0DAFF000EDF6E1CC0FA
:101CF80016F01DC017F09AEC0AF01EC016F01FC0AF
:101D080017F09AEC0AF0D00E206ECA0EE82EFED715
:101D1800202EFCD71200000E346E2EC027F02FC0E4
:101D280028F030C029F031C02AF09CEC11F0050EE3
:101D3800336E0F0E326EF10EE82EFED7322EFCD720
:101D4800332EFAD700F0B4EF0EF02EC01CF02FC0DF
:101D58001DF030C01EF031C01FF04BEC0CF0342ADF
:101D68002C0E3464BAEF0EF0BCEF0EF0A9EF0EF0B3
:101D7800C9EF0EF02EC01CF02FC01DF030C01EF0B1
:101D880031C01FF025EC0EF034063450D8A4CFEF44
:101D98000EF0D1EF0EF0BEEF0EF0050E336E0F0E03
:101DA800326EF10EE82EFED7322EFCD7332EFAD73C
:101DB80000F02EC027F02FC028F030C029F031C025
:101DC8002AF041EC0FF01200000E346E2EC027F0FE
:101DD8002FC028F030C029F031C02AF0DFEC11F014
:101DE800050E336E0F0E326EF10EE82EFED7322E30
:101DF800FCD7332EFAD700F00DEF0FF02EC01CF0F1
:101E08002FC01DF030C01EF031C01FF04BEC0CF09D
:101E1800342A2C0E346413EF0FF015EF0FF002EF95
:101E28000FF022EF0FF02EC01CF02FC01DF030C0B5
:101E38001EF031C01FF025EC0EF034063450D8A443
:101E480028EF0FF02AEF0FF017EF0FF0050E336EA3
:101E58000F0E326EF10EE82EFED7322EFCD7332E3F
:101E6800FAD700F02EC027F02FC028F030C029F094
:101E780031C02AF041EC0FF01200000E2D6E50EF29
:101E88000FF027C01CF028C01DF029C01EF02AC082
:101E98001FF039EC0DF02D2A0F0E2D6456EF0FF0C0
:101EA80058EF0FF045EF0FF065EF0FF027C01CF06B
:101EB80028C01DF029C01EF02AC01FF025EC0EF026
:101EC8002D062D50D8A46BEF0FF06DEF0FF05AEFE1
:101ED8000FF0050E2C6E0F0E2B6EF10EE82EFED7AE
:101EE8002B2EFCD72C2EFAD700F027C022F028C0C2
:101EF80023F029C024F02AC025F0F1EC0FF0050EDC
:101F08002C6E0F0E2B6EF10EE82EFED72B2EFCD763
:101F18002C2EFAD700F027C022F028C023F029C0C1
:101F280024F02AC025F0F1EC0FF01200000E266E06
:101F3800A9EF0FF022C01CF023C01DF024C01EF032
:101F480025C01FF0D4EC0BF0262A0E0E2664AFEF46
:101F58000FF0B1EF0FF09EEF0FF0BEEF0FF022C0C1
:101F68001CF023C01DF024C01EF025C01FF025EC76
:101F78000EF026062650D8A4C4EF0FF0C6EF0FF0D7
:101F8800B3EF0FF0D3EF0FF022C01CF023C01DF009
:101F980024C01EF025C01FF0D4EC0BF0262A0E0E2C
:101FA8002664D9EF0FF0DBEF0FF0C8EF0FF0E8EF82
:101FB8000FF022C01CF023C01DF024C01EF025C065
:101FC8001FF025EC0EF026062650D8A4EEEF0FF0F1
:101FD800F0EF0FF0DDEF0FF01200000E266E00EFAD
:101FE80010F022C01CF023C01DF024C01EF025C034
:101FF8001FF0C2EC0CF0262A0F0E266406EF10F034
:1020080008EF10F0F5EF0FF015EF10F022C01CF0FC
:1020180023C01DF024C01EF025C01FF025EC0EF0D3
:1020280026062650D8A41BEF10F01DEF10F00AEF7B
:1020380010F02AEF10F022C01CF023C01DF024C0BD
:102048001EF025C01FF0C2EC0CF0262A0E0E2664E6
:1020580030EF10F032EF10F01FEF10F03FEF10F0FC
:1020680022C01CF023C01DF024C01EF025C01FF0A4
:1020780025EC0EF026062650D8A445EF10F047EFC1
:1020880010F034EF10F012007D9485947D988598B7
:102098007B9E839E7F9C879C050E0E01746F060EA7
:1020A800766F070E696F080E886FBD508F0B400959
:1020B800BD6EE00EBE16BF50F00B0109BF6E09C021
:1020C800BCFFBD8E000EAA6E000EA66E000E0F019C
:1020D800256F000E216FFC0EAD16F30EAD16CF0E58
:1020E800AD163F0EAD16AB88AB50F00B0C09AB6EBE
:1020F800AB8EA788A750F00B0C09A76EA78E268970
:102108002651F00B0C09266F268F22892251F00BDD
:102118000C09226F228F1200000E2D6E9FEF10F017
:1021280027C01CF028C01DF029C01EF02AC01FF0CF
:1021380039EC0DF02D2A2C0E2D64A5EF10F0A7EF29
:1021480010F094EF10F0B4EF10F027C01CF028C086
:102158001DF029C01EF02AC01FF025EC0EF02D0638
:102168002D50D8A4BAEF10F0BCEF10F0A9EF10F082
:10217800050E2C6E0F0E2B6EF10EE82EFED72B2EB1
:10218800FCD72C2EFAD700F027C022F028C023F065
:1021980029C024F02AC025F09AEC0FF01200000E96
:1021A8002D6EE2EF10F027C01CF028C01DF029C0EA
:1021B8001EF02AC01FF039EC0DF02D2A2C0E2D64CC
:1021C800E8EF10F0EAEF10F0D7EF10F0F7EF10F0AB
:1021D80027C01CF028C01DF029C01EF02AC01FF01F
:1021E80025EC0EF02D062D50D8A4FDEF10F0FFEFD2
:1021F80010F0ECEF10F0050E2C6E0F0E2B6EF10E9A
:10220800E82EFED72B2EFCD72C2EFAD700F027C0AD
:1022180022F028C023F029C024F02AC025F0F1ECD0
:102228000FF01200000E326E25EF11F02CC01CF0DA
:102238002DC01DF02EC01EF02FC01FF039EC0DF080
:10224800322A0F0E32642BEF11F02DEF11F01AEF36
:1022580011F03AEF11F02CC01CF02DC01DF02EC06B
:102268001EF02FC01FF025EC0EF032063250D8A415
:1022780040EF11F042EF11F02FEF11F0050E316E23
:102288000F0E306EF10EE82EFED7302EFCD7312E11
:10229800FAD700F02CC027F02DC028F02EC029F066
:1022A8002FC02AF05CEC12F01200000E326E68EFBC
:1022B80011F02CC01CF02DC01DF02EC01EF02FC038
:1022C8001FF039EC0DF0322A0F0E32646EEF11F068
:1022D80070EF11F05DEF11F07DEF11F02CC01CF0E4
:1022E8002DC01DF02EC01EF02FC01FF025EC0EF0E3
:1022F80032063250D8A483EF11F085EF11F072EF57
:1023080011F0050E316E0F0E306EF10EE82EFED76D
:10231800302EFCD7312EFAD700F02CC027F02DC074
:1023280028F02EC029F02FC02AF093EC12F01200EA
:10233800000E2D6EABEF11F027C01CF028C01DF069
:1023480029C01EF02AC01FF039EC0DF02D2A0F0EFF
:102358002D64B1EF11F0B3EF11F0A0EF11F0C0EF61
:1023680011F027C01CF028C01DF029C01EF02AC09B
:102378001FF025EC0EF02D062D50D8A4C6EF11F055
:10238800C8EF11F0B5EF11F0050E2C6E0F0E2B6E85
:10239800F10EE82EFED72B2EFCD72C2EFAD700F004
:1023A80027C022F028C023F029C024F02AC025F035
:1023B8009AEC0FF01200000E2D6EEEEF11F027C010
:1023C8001CF028C01DF029C01EF02AC01FF039ECEF
:1023D8000DF02D2A0F0E2D64F4EF11F0F6EF11F029
:1023E800E3EF11F003EF12F027C01CF028C01DF036
:1023F80029C01EF02AC01FF025EC0EF02D062D5026
:10240800D8A409EF12F00BEF12F0F8EF11F0050E57
:102418002C6E0F0E2B6EF10EE82EFED72B2EFCD74E
:102428002C2EFAD700F027C022F028C023F029C0AC
:1024380024F02AC025F0F1EC0FF01200000E146E03
:10244800000E136E11501210D8B42DEF12F02FEFAA
:1024580012F057EF12F0010E156E37EF12F0D89008
:1024680011361236152A12AE3CEF12F03EEF12F07A
:1024780033EF12F0D8901336143611500F5C125007
:102488001058D8A04AEF12F04CEF12F051EF12F0AA
:1024980011500F5E1250105A1380D8901232113218
:1024A800152E3EEF12F013C00FF014C010F01200FA
:1024B80027C022F028C023F029C024F02AC025F024
:1024C8009AEC0FF0000E2B6E75EF12F027C01CF07F
:1024D80028C01DF029C01EF02AC01FF0D4EC0BF054
:1024E8002B2A0E0E2B647BEF12F07DEF12F06AEFB1
:1024F80012F08AEF12F027C01CF028C01DF029C086
:102508001EF02AC01FF025EC0EF02B062B50D8A485
:1025180090EF12F092EF12F07FEF12F0120027C046
:1025280022F028C023F029C024F02AC025F0F1ECBD
:102538000FF0000E2B6EACEF12F027C01CF028C075
:102548001DF029C01EF02AC01FF0C2EC0CF02B2A87
:102558000F0E2B64B2EF12F0B4EF12F0A1EF12F0ED
:10256800C1EF12F027C01CF028C01DF029C01EF0D2
:102578002AC01FF025EC0EF02B062B50D8A4C7EF6D
:1025880012F0C9EF12F0B6EF12F01200F9EC12F0E7
:1025980014C0D9FF15C0DAFF0DC0DEFF0EC0DDFF85
:1025A80021EC13F020EE02F01450D9261550DA224F
:1025B8000DC0DEFF0EC0DDFF71EC13F020EE04F05D
:1025C8001450D9261550DA220DC0DEFF0EC0DDFFEB
:1025D80049EC13F020EE06F01450D9261550DA22F3
:1025E8000DC0DEFF0EC0DDFF120076EC15F0520EB6
:1025F80060EC15F0B60E60EC15F06CEC15F0530EAF
:1026080060EC15F0010E0CEC14F00F6E0F50126E0A
:10261800136A000E0CEC14F00F6E0F50116E106A56
:1026280012501010126E13501110136E71EC15F039
:1026380012C00DF013C00EF0120076EC15F0520E19
:1026480060EC15F0B80E60EC15F06CEC15F0530E5C
:1026580060EC15F0010E0CEC14F00F6E0F50126EBA
:10266800136A000E0CEC14F00F6E0F50116E106A06
:1026780012501010126E13501110136E71EC15F0E9
:1026880012C00DF013C00EF0120076EC15F0520EC9
:1026980060EC15F0B40E60EC15F06CEC15F0530E10
:1026A80060EC15F0010E0CEC14F00F6E0F50126E6A
:1026B800136A000E0CEC14F00F6E0F50116E106AB6
:1026C80012501010126E13501110136E71EC15F099
:1026D80012C00DF013C00EF0120076EC15F0520E79
:1026E80060EC15F0BA0E60EC15F06CEC15F0530EBA
:1026F80060EC15F0010E0CEC14F00F6E0F50126E1A
:10270800136A000E0CEC14F00F6E0F50116E106A65
:1027180012501010126E13501110136E71EC15F048
:1027280012C00DF013C00EF01200130E0B6E000E47
:10273800FFEC14F03F0E0D6E550EE82EFED70D2E51
:10274800FCD700F0040E0B6E0C0EFFEC14F04FC01B
:102758000BF0040EFFEC14F050500B6E050EFFEC5E
:1027680014F0D7C00BF0060EFFEC14F00001D8519E
:102778000B6E070EFFEC14F01200130E036E000E22
:102788001FEC15F03F0E056E550EE82EFED7052EF0
:10279800FCD700F0040E036E0C0E1FEC15F04FC0B2
:1027A80003F0040E1FEC15F05050036E050E1FECDD
:1027B80015F0D7C003F0060E1FEC15F00001D85134
:1027C800036E070E1FEC15F01200120EF66E2B0E9C
:1027D800F76E000EF86E0900F5CFD7F00900F5CFB7
:1027E800D8F001EE00F08C0EEE6AE806FDE100EE8E
:1027F80060F03F0EEE6AE806FDE100EE4FF0080ECD
:10280800EE6AE806FDE157905792000123EF07F0C2
:102818000B6E91EC14F00E01DA8791EC14F0D5CE22
:102828000CF091EC14F00B50D8B41DEF14F021EF1C
:1028380014F00A6A0A2A22EF14F00A6A0A3A0A46C7
:102848000E01DA510A18DF0B0A18DA6FDA890C5010
:10285800120009C0D9FF0AC0DAFFDF06DF500D6E8B
:102868000D50020DF3CF0EF0F4CF0FF00E500B24E5
:10287800D96E0F500C20DA6EDECF10F0DDCF11F0DC
:1028880010C009F011C00AF012007CEC14F0010E1F
:102898000B6E000EFFEC14F03F0E0D6E550EE82E79
:1028A800FED70D2EFCD700F0030E0B6E000EFFECCA
:1028B80014F0D50E0B6E010EFFEC14F012000BC0D5
:1028C800D9FF0CC0DAFFDFCF0FF0010EDF260F5063
:1028D800020DF3CF10F0F4CF11F010500D24D96E83
:1028E80011500E20DA6E09C0DEFF0AC0DDFF1200AB
:1028F8000E01D951F00B0809D96FD98B9F0ED66FED
:10290800848A848CA79BA79D1D0E1D6F1E0E1C6FAD
:102918001C0E6F6F1B0E706F12000E01D8B597EF6B
:1029280014F099EF14F091EF14F0DACE09F01F0EBD
:102938000916D8A4A2EF14F0A4EF14F091EF14F044
:1029480012000E01D8B5ABEF14F0ADEF14F0A5EFFF
:1029580014F0DACE01F01F0E0116D8A4B6EF14F069
:10296800B8EF14F0A5EF14F0120009500B02F3CFE2
:102978000DF0F4CF0EF009500C02F3500E260A5059
:102988000B02F3500E260DC009F00EC00AF012001B
:102998000E6E09C0D9FF0AC0DAFFDFCF0DF0010EB5
:1029A800DF260D500B24D96E000E0C20DA6E0EC0F7
:1029B800DFFF120009C0D9FF0AC0DAFFDF06DF50C7
:1029C8000D6E0D500B24D96E000E0C20DA6EDF5000
:1029D8000E6E0E501200D6501F0B4009D66ED688C8
:1029E800D650F00B0809D66ED5880B0ED46EDB0EC8
:1029F800D36ED58E12000C6E76EC15F0520E60EC8C
:102A080015F00C50800960EC15F00B5060EC15F0D7
:102A180071EC15F012000E0133A315EF15F017EF46
:102A280015F01DEF15F0010E556E4BEC15F00E016B
:102A3800339357921100046E80EC15F0520E66EC39
:102A480015F00450800966EC15F0035066EC15F09B
:102A58007BEC15F0120082820E019A9329831F8362
:102A6800F292298B1F9B2D873EEC15F0F28AF28C8F
:102A7800F28E120076EC15F0520E60EC15F0E60EB0
:102A880060EC15F071EC15F099EC13F0120080EC85
:102A980015F0520E66EC15F0E60E66EC15F07BECC0
:102AA80015F0C1EC13F0120087928198869E8096EB
:102AB80088967C9E849E12000A6E91EC14F00AC0DF
:102AC800D5FE1200026EA5EC14F002C0D5FE12006D
:102AD80091EC14F00E01DA83120091EC14F00E015F
:102AE800DA85120091EC14F00E01DA811200A5ECDF
:102AF80014F00E01DA851200A5EC14F00E01DA814B
:0C2B080012007F8279887E8E1200540B30
:020000040020DA
:10000000FF0FFF0FFF0FFF0FFF0FFF0FFF0FFF0F80
:020000040030CA
:0C000000AAFFFFFF9FFFFFFFFFFFFFFFB5
:00000001FF
