:040000003EEF00F0DF
:060008005382BCEF0DF075
:100018005380D8CF0AF0E8CF0BF0E0CF0CF00E01F8
:1000280033AB19EF00F01BEF00F036EF00F080A6BD
:1000380020EF00F024EF00F0096A092A25EF00F00C
:10004800096A09460946094680500918F70B091834
:10005800806EC20ED46EF60ED36E010E0001F96FDB
:100068000E01339B0CC0E0FF0BC0E8FF0AC0D8FFAD
:08007800539010001AEF0FF085
:100E0000000A2530356420253035642025303564CE
:100E100020253035640A00003CC0D9FF3DC0DAFF10
:100E2000DECFF6FFDDCFF7FF000EF86E0800F550BD
:100E3000250AD8A41EEF07F020EF07F052EF08F0C4
:100E40003CC0D9FF3DC0DAFFDE2A000EDD22000ED5
:100E50000001F86F000EF76FF7C04BF04768486865
:100E6000000E7A6F000E796F62EF07F04B823CC084
:100E7000D9FF3DC0DAFFDE2A000EDD2262EF07F067
:100E8000000E7A6F010E796F62EF07F03CC0D9FF58
:100E90003DC0DAFFDECFF6FFDDCFF7FF000EF86EC4
:100EA0000800F550406E416A4150000AD8B45BEF2B
:100EB00007F040EF07F04050300AD8B436EF07F0A3
:100EC00040EF07F079517A11D8B469EF07F06BEF72
:100ED00007F046EF07F03CC0D9FF3DC0DAFFDECF98
:100EE000F6FFDDCFF7FF000EF86E0800F5502A0A76
:100EF000D8A47DEF07F07FEF07F0A8EF07F03CC024
:100F0000D9FF3DC0DAFFDE2A000EDD223EC0D9FF48
:100F10003FC0DAFFDFCF40F0020EDE26DFCF41F028
:100F2000000EDD2240C0D9FF41C0DAFFDECFF7F06E
:100F3000DDCFF8F0F8BFA1EF07F09FEF07F0DDEF8E
:100F400007F04B80F76DF81FD8B0F82BDDEF07F0F6
:100F50003CC0D9FF3DC0DAFFDECF13F0DDCF14F087
:100F600053EC0CF013C0F7F014C0F8F0BFEF07F02B
:100F70003CC0D9FF3DC0DAFFDE2A000EDD223CC0B6
:100F8000D9FF3DC0DAFFDECFF6FFDDCFF7FF000E61
:100F9000F86E0800F5CF40F0D00E4024416E426A52
:100FA000FF0E4222425009E10A0E415CD8A0DBEF5D
:100FB00007F0DDEF07F0B8EF07F03CC0D9FF3DC008
:100FC000DAFFDECF7BF0DDCF7CF07BC0F6FF7CC0AC
:100FD000F7FF000EF86E0800F550640AD8B4F3EF7E
:100FE00007F0F5EF07F005EF08F07BC0F6FF7CC0D7
:100FF000F7FF000EF86E0800F550690AD8A403EF59
:1010000008F005EF08F049EF08F03EC0D9FF3FC0F7
:10101000DAFFDFCF40F0020EDE26DFCF41F0000E18
:10102000DD2240C0D9FF41C0DAFFDECF71F0DDCF55
:1010300072F00001000E72BFFF0E736F746F756F58
:10104000766F776F786F010E7B25406E000E7C21E6
:10105000416E3CC0D9FF3DC0DAFF40C0DEFF41C059
:10106000DDFF3AC028F03BC029F071C02AF072C001
:101070002BF073C02CF074C02DF075C02EF076C02C
:101080002FF077C030F078C031F069EC08F068EFED
:1010900008F03CC0D9FF3DC0DAFFDE2A000EDD2299
:1010A00068EF08F03CC0D9FF3DC0DAFFDECFF6FFA5
:1010B000DDCFF7FF000EF86E0800F5500D6E0E6ADA
:1010C0003AC00FF03BC010F002EC0DF049EF08F011
:1010D00012002AC066F02BC067F02CC068F02DC04B
:1010E00069F02EC06AF02FC06BF030C06CF031C0D8
:1010F0006DF000016DBF7FEF08F082EF08F0010E88
:1011000083EF08F0000E6E6F6E51D8B48AEF08F0CE
:101110008CEF08F09CEF08F06D1F6C1F6B1F6A1FAF
:10112000691F681F671F666D000E672368236923A8
:101130006A236B236C236D2348BEA1EF08F0A3EF55
:1011400008F0A4EF08F04B9248BEB1EF08F0485009
:1011500006E14704D8B0AFEF08F0B1EF08F0B7EF01
:1011600008F0000E636F010E626FBBEF08F047C01E
:1011700062F048C063F0F7C064F0F8C065F06E51EB
:10118000D8B4C5EF08F0C7EF08F0DEEF08F0640749
:10119000D8A065076E51D8A4D0EF08F0D2EF08F0C0
:1011A000D8EF08F0000E616F2B0E606FDCEF08F0D7
:1011B000000E616F2D0E606F60C06EF0000E706FDC
:1011C0001F0E6F6F000E0101FB6F64EF09F06F07D8
:1011D000D8A07007DC0E6F25D96E010E7021DA6E73
:1011E00066C00DF067C00EF068C00FF069C010F067
:1011F0006AC011F06BC012F06CC013F06DC014F037
:101200000A0E156E000E166E000E176E000E186E8A
:10121000000E196E000E1A6E000E1B6E000E1C6E74
:10122000A1EC0BF00DC032F00EC033F00FC034F063
:1012300010C035F011C036F012C037F013C038F0CE
:1012400014C039F032C01FF033C020F0F5EC0FF0BD
:101250001F50300FDF6E00016207D8A063076407DC
:10126000D8A0650766C00DF067C00EF068C00FF02B
:1012700069C010F06AC011F06BC012F06CC013F0BE
:101280006DC014F00A0E156E000E166E000E176E6D
:10129000000E186E000E196E000E1A6E000E1B6EF8
:1012A000000E1C6EDDEC0AF00DC066F00EC067F09B
:1012B0000FC068F010C069F011C06AF012C06BF086
:1012C00013C06CF014C06DF0000170BF70EF09F036
:1012D000705108E16F05D8A070EF09F072EF09F0C6
:1012E000A2EF09F066516711681169116A116B115B
:1012F0006C116D11D8A47FEF09F081EF09F0E7EFD1
:1013000008F063BF8EEF09F0635106E16205D8B0C3
:101310008CEF09F08EEF09F0E7EF08F065BF99EF69
:1013200009F0655108E16405D8A099EF09F09BEF39
:1013300009F0A2EF09F04BB2A0EF09F0A2EF09F01B
:10134000E7EF08F06E51D8B4A8EF09F0AAEF09F062
:10135000B5EF09F06F07D8A07007DC0E6F25D96EC6
:10136000010E7021DA6E6EC0DFFF28C01DF029C0AB
:101370001EF0DC0E6F251F6E010E7021206E64C002
:1013800021F065C022F067EC0DF01200000E0001A4
:10139000F06F000EEF6F000EF26F000EF16F000E97
:1013A000F46F000EF36F000EF66F000EF56FC5ECD4
:1013B00011F015EC10F042EC11F033EC11F003ECED
:1013C00011F0000E0001EE6FC1EC11F0EF0E186E7F
:1013D000000E196EF8EC0DF021EF0AF0EE51020D3F
:1013E000000EF324D96E010EF420DA6EEFC0DEFF9A
:1013F000F0C0DDFFEE51020D000EF324D96E020E97
:10140000F420DA6EF1C0DEFFF2C0DDFFEE51020D16
:10141000000EF324D96E030EF420DA6EF3C0DEFF63
:10142000F4C0DDFFEE51020D000EF324D96E040E60
:10143000F420DA6EF5C0DEFFF6C0DDFFEE2B000E05
:10144000F96F0001F905D8A428EF0AF02AEF0AF095
:1014500032EF0AF0630EEE6530EF0AF032EF0AF079
:10146000EEEF09F0000EEC6F3AEF0AF05DEC10F0D1
:101470000001EC6F84EC11F00009D8A442EF0AF0EF
:1014800044EF0AF036EF0AF0100E0001EC19D8A470
:101490004CEF0AF04EEF0AF0AFEF0AF0000EED6FDE
:1014A000A2EF0AF09C0E836F000E846F010E856F11
:1014B0000E0E866FED51020D000EF324D96E010E53
:1014C000F420DA6EDECF87F0DDCF88F0ED51020D2B
:1014D000000EF324D96E020EF420DA6EDECF89F00E
:1014E000DDCF8AF0ED51020D000EF324D96E030E0C
:1014F000F420DA6EDECF8BF0DDCF8CF0ED51020DF3
:10150000000EF324D96E040EF420DA6EDECF8DF0D7
:10151000DDCF8EF051EC0EF09C0E0E6E000E0F6EB5
:101520002FEC10F051EC11F0150E466E4B0E456E7F
:10153000BE0EE82EFED7452EFCD7462EFAD700D099
:101540000001ED2BEE51ED5DD8A0A9EF0AF0ABEF55
:101550000AF052EF0AF0000EEC6F000EEE6FEC0591
:10156000D8A4B5EF0AF0B7EF0AF0E4EF09F0C40E23
:10157000836F000E846F010E856F0E0E866FEFC0B5
:1015800087F0F0C088F0F1C089F0F2C08AF0F3C0B3
:101590008BF0F4C08CF0F5C08DF0F6C08EF051ECFD
:1015A0000EF0C40E0E6E000E0F6E2FEC10F051EC0C
:1015B00011F0E1EF09F03EEF00F0000E1E6E1CBED0
:1015C000E6EF0AF0E4EF0AF0F8EF0AF01C1E1B1E2B
:1015D0001A1E191E181E171E161E156C000E162236
:1015E0001722182219221A221B221C22010E1E6EFB
:1015F00014BEFFEF0AF0FDEF0AF011EF0BF0141E1E
:10160000131E121E111E101E0F1E0E1E0D6C000E3C
:101610000E220F2210221122122213221422010E56
:101620001E1A20EE1FF0070EDE6AE806FDE21550D6
:1016300016101710181019101A101B101C10D8B4FF
:1016400024EF0BF026EF0BF078EF0BF0010E1D6E80
:1016500034EF0BF0D8901536163617361836193683
:101660001A361B361C361D2A1CAE39EF0BF03BEF29
:101670000BF02AEF0BF0D8901F3620362136223699
:10168000233624362536263615500D5C16500E5856
:1016900017500F5818501058195011581A50125806
:1016A0001B5013581C501458D8A059EF0BF05BEF87
:1016B0000BF06CEF0BF015500D5E16500E5A1750D4
:1016C0000F5A1850105A1950115A1A50125A1B50CA
:1016D000135A1C50145A1F80D8901C321B321A32D5
:1016E000193218321732163215321D2E3BEF0BF01D
:1016F0001E50D8B47EEF0BF080EF0BF090EF0BF0A4
:10170000261E251E241E231E221E211E201E1F6C87
:10171000000E2022212222222322242225222622D8
:101720001FC00DF020C00EF021C00FF022C010F03D
:1017300023C011F024C012F025C013F026C014F00D
:101740001200000E1E6E14BEAAEF0BF0A8EF0BF0F5
:10175000BCEF0BF0141E131E121E111E101E0F1EC6
:101760000E1E0D6C000E0E220F22102211221222CC
:1017700013221422010E1E6E1CBEC3EF0BF0C1EF2C
:101780000BF0D3EF0BF01C1E1B1E1A1E191E181E89
:10179000171E161E156C000E16221722182219226B
:1017A0001A221B221C22155016101710181019107F
:1017B0001A101B101C10D8B4E0EF0BF0E2EF0BF086
:1017C0002AEF0CF0010E1D6EF0EF0BF0D8901536DD
:1017D00016361736183619361A361B361C361D2A99
:1017E0001CAEF5EF0BF0F7EF0BF0E6EF0BF015503A
:1017F0000D5C16500E5817500F58185010581950AD
:1018000011581A5012581B5013581C501458D8A075
:101810000CEF0CF00EEF0CF01EEF0CF015500D5EFF
:1018200016500E5A17500F5A1850105A1950115A74
:101830001A50125A1B50135A1C50145AD8901C326A
:101840001B321A32193218321732163215321D2E47
:10185000F7EF0BF01E50D8B430EF0CF032EF0CF075
:1018600042EF0CF0141E131E121E111E101E0F1E2E
:101870000E1E0D6C000E0E220F22102211221222BB
:10188000132214220DC00DF00EC00EF00FC00FF089
:1018900010C010F011C011F012C012F013C013F0FC
:1018A00014C014F01200000E1B6E000E1A6E000E13
:1018B000196E000E186E5FEF0CF0134A142A13C055
:1018C000F6FF14C0F7FF000EF86E0800F550200A6E
:1018D000D8B46DEF0CF06FEF0CF05DEF0CF013C0AF
:1018E000F6FF14C0F7FF000EF86E0800F5CF15F0F4
:1018F000F70E1524166E176AFF0E1722175009E10E
:10190000050E165CD8A087EF0CF089EF0CF05DEFA8
:101910000CF093EF0CF0000E196E010E186E134AC6
:10192000142ACCEF0CF013C0F6FF14C0F7FF000E22
:10193000F86E0800F550156E166A1650000AD8B4F5
:10194000A4EF0CF0CCEF0CF015502B0AD8B48FEFAD
:101950000CF0060AD8B48BEF0CF0CCEF0CF01AC0E8
:101960000DF01BC00EF0000E106E0A0E0F6EF0ECA4
:1019700010F013C0F6FF14C0F7FF000EF86E080059
:10198000F5500D5E000E0E5A300E0D241A6E000E2C
:101990000E201B6E8FEF0CF013C0F6FF14C0F7FF84
:1019A000000EF86E0800F5CF15F0D00E1524166E57
:1019B000176AFF0E1722175009E10A0E165CD8A00D
:1019C000E4EF0CF0E6EF0CF0AFEF0CF0185019104C
:1019D000D8A4EDEF0CF0EFEF0CF0FDEF0CF01AC017
:1019E00015F01BC016F0151E161E154A162A15C036
:1019F00013F016C014F001EF0DF01AC013F01BC065
:101A000014F012000F501010D8B409EF0DF00BEFC6
:101A10000DF014EF0DF00F501010D8A412EF0DF0D0
:101A200014EF0DF019EF0DF00D50CAEC11F066EF48
:101A30000DF020EE09F00F50D9261050DA22DE50BA
:101A4000DE10D8B426EF0DF028EF0DF043EF0DF0C7
:101A500020EE09F00F50D9261050DA2210EE03F0D4
:101A60000F50E1261050E222DE50E65CE650800A7C
:101A7000156EDE50800A1558D8B041EF0DF043EFD7
:101A80000DF066EF0DF020EE03F00F50D926105048
:101A9000DA22DECF11F0DDCF12F00FC0D9FF10C077
:101AA000DAFFDECF13F0DDCF14F011501324D96E1E
:101AB00012501420DA6E0DC0DFFF20EE03F00F503D
:101AC000D9261050DA22DE2A000EDD2212004BA0A9
:101AD0006CEF0DF06EEF0DF078EF0DF01FC016F00B
:101AE00020C017F01DC018F01EC019F0B2EC0FF0A6
:101AF00022BE7DEF0DF07FEF0DF085EF0DF021C0E0
:101B000026F022C027F089EF0DF0000E276E000EA0
:101B1000266E000E256E000E246E9BEF0DF0000E5B
:101B20000E6E200E0D6E1DC00FF01EC010F002ECE8
:101B30000DF0244A252A2650245C2550800A236E65
:101B40002750800A2358D8A0A8EF0DF0AAEF0DF077
:101B50008FEF0DF04BB0AFEF0DF0B1EF0DF0BBEF2D
:101B60000DF01FC016F020C017F01DC018F01EC0E9
:101B700019F0B2EC0FF01200D9CF06F0DACF07F06F
:101B80000E0137A7C6EF0DF0C8EF0DF0CDEF0DF049
:101B9000E3CE08F00850B3EC10F090EC11F000091F
:101BA000D8A4D5EF0DF0D7EF0DF0D9EF0DF00E0161
:101BB0002D950E0137A5DFEF0DF0E1EF0DF0E5EF0C
:101BC0000DF073EC10F00E01E46F33A3EAEF0DF0AB
:101BD000ECEF0DF0F2EF0DF0010E4C6E6BEC11F02E
:101BE0000E01339307C0DAFF06C0D9FF53921100EC
:101BF0007AEC0EF018C0D9FF19C0DAFF11C0DEFF71
:101C000012C0DDFFA2EC0EF020EE02F01850D92633
:101C10001950DA2211C0DEFF12C0DDFFF2EC0EF027
:101C200020EE04F01850D9261950DA2211C0DEFF38
:101C300012C0DDFFCAEC0EF020EE06F01850D926D7
:101C40001950DA2211C0DEFF12C0DDFF12007FC082
:101C500043F080C044F03BEF0EF07DC03AF07EC010
:101C60003BF0430E3C6E000E3D6E81C03EF082C0E4
:101C70003FF00CEC07F043C0F6FF44C0F7FF000E46
:101C8000F86E0800F5500009D8A449EF0EF04BEFAC
:101C90000EF02DEF0EF0000E00017E6F000E7D6F36
:101CA0001200870E00018F6F000E906F83C091F0BD
:101CB00084C092F0000E956F000E946F000E9B6F23
:101CC000000E9A6F910E7D6F000E7E6F85C07FF0C3
:101CD00086C080F08F0E816F000E826F27EC0EF0B1
:101CE000000194518325D96E95518421DA6E000E3E
:101CF000DF6E1200B2EC11F0520E9CEC11F0B60E39
:101D00009CEC11F0A8EC11F0530E9CEC11F0010EBC
:101D1000D4EC0FF0136E1350166E176A000ED4EC4D
:101D20000FF0136E1350156E146A16501410166EC1
:101D300017501510176EADEC11F016C011F017C04A
:101D400012F01200B2EC11F0520E9CEC11F0B80E31
:101D50009CEC11F0A8EC11F0530E9CEC11F0010E6C
:101D6000D4EC0FF0136E1350166E176A000ED4ECFD
:101D70000FF0136E1350156E146A16501410166E71
:101D800017501510176EADEC11F016C011F017C0FA
:101D900012F01200B2EC11F0520E9CEC11F0B40EE5
:101DA0009CEC11F0A8EC11F0530E9CEC11F0010E1C
:101DB000D4EC0FF0136E1350166E176A000ED4ECAD
:101DC0000FF0136E1350156E146A16501410166E21
:101DD00017501510176EADEC11F016C011F017C0AA
:101DE00012F01200B2EC11F0520E9CEC11F0BA0E8F
:101DF0009CEC11F0A8EC11F0530E9CEC11F0010ECC
:101E0000D4EC0FF0136E1350166E176A000ED4EC5C
:101E10000FF0136E1350156E146A16501410166ED0
:101E200017501510176EADEC11F016C011F017C059
:101E300012F01200920EF66E230EF76E000EF86E80
:101E40000900F5CF51F00900F5CF52F005EE00F092
:101E50003C0EEE6AE806FDE101EEC8F0340EEE6AD3
:101E6000E806FDE10001F96BF86BF76B00EE47F057
:101E70000A0EEE6AE806FDE1539053920001C6EFA8
:101E800009F0130E0F6E000E13EC11F03F0E116EE1
:101E9000550EE82EFED7112EFCD700F0040E0F6E63
:101EA0000C0E13EC11F049C00FF0040E13EC11F0FE
:101EB0004A500F6E050E13EC11F051C00FF0060ED4
:101EC00013EC11F052500F6E070E13EC11F01200CC
:101ED000130E036E000E23EC11F03F0E056E550E2F
:101EE000E82EFED7052EFCD700F0040E036E0C0E74
:101EF00023EC11F049C003F0040E23EC11F04A501A
:101F0000036E050E23EC11F051C003F0060E23EC16
:101F100011F05250036E070E23EC11F01200010E67
:101F2000116E200E0D180E10D8B499EF0FF09BEF24
:101F30000FF0AEEF0FF0F70E0D240F6EFF0E0E2018
:101F4000106E105009E1050E0F5CD8A0AAEF0FF03B
:101F5000ACEF0FF0AEEF0FF0000E116E11C00DF0F0
:101F60000E6A1200000E1C6E000E1B6EC3EF0FF007
:101F70001AC00DF00E6A18C00FF019C010F002EC74
:101F80000DF01B4A1C2A1B501624D96E1C5017201A
:101F9000DA6EDF501A6E1A50D8A4D1EF0FF0D3EFDB
:101FA0000FF0B8EF0FF012000F6EC8EC10F00E013A
:101FB000DA87C8EC10F0D5CE10F0C8EC10F00F5056
:101FC000D8B4E5EF0FF0E9EF0FF00E6A0E2AEAEF52
:101FD0000FF00E6A0E3A0E460E01DA510E18DF0BA4
:101FE0000E18DA6FDA891050120020BE02EF10F0DE
:101FF000205006E11F04D8B000EF10F002EF10F0FF
:1020000010EF10F01FC021F020C022F0211E221E70
:10201000214A222A21C01FF022C020F014EF10F024
:102020001FC01FF020C020F0120089EC10F0010E3C
:102030000F6E000E13EC11F03F0E116E550EE82ED0
:10204000FED7112EFCD700F0030E0F6E000E13EC1E
:1020500011F0D50E0F6E010E13EC11F012003AEFD5
:1020600010F00EC0D9FF0FC0DAFFDF509EEC10F069
:102070000E4A0F2A0EC0D9FF0FC0DAFFDF50D8A4D6
:1020800044EF10F046EF10F031EF10F01200D00ED8
:102090000D240F6EFF0E0E20106E10500AE10A0E76
:1020A0000F5CD8A056EF10F059EF10F0010E5AEF68
:1020B00010F0000E0D6E0E6A1200130E4F6463EFE7
:1020C00010F065EF10F067EF10F0000E4F6E4F2A22
:1020D0004F040D6E0E6AC80E0D24D96E010E0E202F
:1020E000DA6EDF5012003B0E4D6479EF10F07BEF9B
:1020F00010F07DEF10F0000E4D6E4D2A4D04016E74
:10210000026A000E0124D96E050E0220DA6EDF503D
:1021100012000E01D951F00B0809D96FD98B9F0E0F
:10212000D66F848A848CA79BA79D1D0E1D6F1E0EE3
:102130001C6F1C0E6F6F1B0E706F12000D6E3B0E2E
:102140004E64A5EF10F0A7EF10F0A9EF10F0000E0D
:102150004E6E000E4E24D96EDA6A050EDA220DC0DC
:10216000DFFF4E2A1200016E130E5064BAEF10F01A
:10217000BCEF10F0BEEF10F0000E506EC80E5024F1
:10218000D96EDA6A010EDA2201C0DFFF502A12008E
:102190000E01D8B5CEEF10F0D0EF10F0C8EF10F070
:1021A000DACE0DF01F0E0D16D8A4D9EF10F0DBEF2C
:1021B00010F0C8EF10F012000E01D8B5E2EF10F0E9
:1021C000E4EF10F0DCEF10F0DACE01F01F0E011694
:1021D000D8A4EDEF10F0EFEF10F0DCEF10F01200EC
:1021E0000D500F02F3CF11F0F4CF12F00D5010028A
:1021F000F35012260E500F02F350122611C00DF0AC
:1022000012C00EF01200D6501F0B4009D66ED688B1
:10221000D650F00B0809D66ED588C20ED46EF60ED5
:10222000D36ED58E1200106EB2EC11F0520E9CECF3
:1022300011F0105080099CEC11F00F509CEC11F043
:10224000ADEC11F01200046EBCEC11F0520EA2ECD9
:1022500011F004508009A2EC11F00350A2EC11F02F
:10226000B7EC11F01200120E0E01626F110E156F15
:10227000E997E895330EE56F000EE66FE789E88B86
:10228000E78F120082820E019A9329831F83F292B4
:10229000298B1F9B2D875EEC11F0F28AF28CF28E57
:1022A000120078EC11F00009D8B459EF11F05BEF8F
:1022B00011F05DEF11F00E012D851200B2EC11F05E
:1022C000520E9CEC11F0E60E9CEC11F0ADEC11F00E
:1022D00041EC0FF01200BCEC11F0520EA2EC11F028
:1022E000E60EA2EC11F0B7EC11F068EC0FF0120062
:1022F0004D504E18D8A47FEF11F082EF11F0010E6F
:1023000083EF11F0000E12004F505018D8A48BEF3D
:1023100011F08EEF11F0010E8FEF11F0000E120090
:102320004D504E18D8A497EF11F09AEF11F0010E0E
:102330009BEF11F0000E12000E6EC8EC10F00EC0F4
:10234000D5FE1200026EDCEC10F002C0D5FE1200C9
:10235000C8EC10F00E01DA831200C8EC10F00E0188
:10236000DA851200C8EC10F00E01DA811200DCEC04
:1023700010F00E01DA851200DCEC10F00E01DA81AB
:1023800012007F8279887E8E120087928198869EC5
:062390001200B20C120065
:020000040020DA
:10000000FF0FFF0FFF0FFF0FFF0FFF0FFF0FFF0F80
:020000040030CA
:0C000000AAFFFFFF9FFFFFFFFFFFFFFFB5
:00000001FF
