:040000002CEF00F0F1
:06000800548282EF15F0A6
:100018005480D8CF09F0E8CF0AF0E0CF0BF00E01FA
:1000280033AB19EF00F01BEF00F024EF00F0C20E25
:10003800D46EF60ED36E010E0001B46F0E01339B21
:100048000BC0E0FF0AC0E8FF09C0D8FF54901000B9
:040058002FEF17F07F
:100E0000000A436F6C6F7220446574656374656497
:100E1000203D2025303264202530356420253035B2
:090E20006420253035640A00004D
:100E2A00000E00017B6F000E376E000E386EC80E82
:100E3A00396E420E3A6E20EE04F06D51D9266E518B
:100E4A00DA22DECF6FF0DDCF70F020EE02F06D51C6
:100E5A00D9266E51DA22DECF71F0DDCF72F06DC085
:100E6A00D9FF6EC0DAFFDECF73F0DDCF74F07151B7
:100E7A007325756F72517421766F6F517525776F6F
:100E8A0070517621786F77C00CF078C00DF00E6A39
:100E9A000F6A000ECCEC10F00CC01EF00DC01FF053
:100EAA000EC020F00FC021F06DC0D9FF6EC0DAFF6E
:100EBA00DECF79F0DDCF7AF079C00CF07AC00DF090
:100ECA000E6A0F6A000ECCEC10F00CC01AF00DC0BE
:100EDA001BF00EC01CF00FC01DF046EC0CF01AC03F
:100EEA0033F01BC034F01CC035F01DC036F030ECB6
:100EFA000AF033C03FF034C040F035C041F036C08C
:100F0A0042F0CBEC13F03F5000017C6F000E376EBD
:100F1A00000E386EC80E396E420E3A6E20EE04F09C
:100F2A006D51D9266E51DA22DECF6FF0DDCF70F027
:100F3A0020EE02F06D51D9266E51DA22DECF71F021
:100F4A00DDCF72F06DC0D9FF6EC0DAFFDECF73F06D
:100F5A00DDCF74F071517325756F72517421766FFC
:100F6A006F517525776F70517621786F77C00CF0C5
:100F7A0078C00DF00E6A0F6A000ECCEC10F00CC0AF
:100F8A001EF00DC01FF00EC020F00FC021F00001AE
:100F9A0020EE02F06D51D9266E51DA22DECF79F0B9
:100FAA00DDCF7AF079C00CF07AC00DF00E6A0F6AC4
:100FBA00000ECCEC10F00CC01AF00DC01BF00EC0E5
:100FCA001CF00FC01DF046EC0CF01AC033F01BC029
:100FDA0034F01CC035F01DC036F030EC0AF033C0D6
:100FEA003FF034C040F035C041F036C042F0CBEC9F
:100FFA0013F03F5000017D6F000E376E000E386E01
:10100A00C80E396E420E3A6E20EE04F06D51D926A2
:10101A006E51DA22DECF6FF0DDCF70F020EE02F0F3
:10102A006D51D9266E51DA22DECF71F0DDCF72F022
:10103A006DC0D9FF6EC0DAFFDECF73F0DDCF74F07A
:10104A0071517325756F72517421766F6F517525C1
:10105A00776F70517621786F77C00CF078C00DF0F9
:10106A000E6A0F6A000ECCEC10F00CC01EF00DC018
:10107A001FF00EC020F00FC021F0000120EE04F096
:10108A006D51D9266E51DA22DECF79F0DDCF7AF0B2
:10109A0079C00CF07AC00DF00E6A0F6A000ECCEC23
:1010AA0010F00CC01AF00DC01BF00EC01CF00FC0DF
:1010BA001DF046EC0CF01AC033F01BC034F01CC013
:1010CA0035F01DC036F030EC0AF033C03FF034C0C2
:1010DA0040F035C041F036C042F0CBEC13F03F503F
:1010EA0000017E6FB551D8B47DEF08F07FEF08F0AC
:1010FA002FEF0AF0290E0001706F960E6F6F7F0EA8
:10110A00E82EFED76F2FFCD7702FFAD7470E0001B3
:10111A007C6592EF08F094EF08F0C0EF08F04F0EEC
:10112A007C619AEF08F09CEF08F0C0EF08F0070E18
:10113A007D65A2EF08F0A4EF08F0C0EF08F00F0EEB
:10114A007D61AAEF08F0ACEF08F0C0EF08F00A0ED4
:10115A007E65B2EF08F0B4EF08F0C0EF08F0120EA7
:10116A007E61BAEF08F0BCEF08F0C0EF08F0010E9C
:10117A007B6F2CEF0AF0210E7C65C6EF08F0C8EFF2
:10118A0008F0F4EF08F0290E7C61CEEF08F0D0EFFA
:10119A0008F0F4EF08F0260E7D65D6EF08F0D8EFD8
:1011AA0008F0F4EF08F02E0E7D61DEEF08F0E0EFB4
:1011BA0008F0F4EF08F0110E7E65E6EF08F0E8EFAC
:1011CA0008F0F4EF08F0190E7E61EEEF08F0F0EF88
:1011DA0008F0F4EF08F0020E7B6F2CEF0AF01B0EFA
:1011EA007C65FAEF08F0FCEF08F028EF09F0230E0F
:1011FA007C6102EF09F004EF09F028EF09F01F0EF5
:10120A007D650AEF09F00CEF09F028EF09F0270EC7
:10121A007D6112EF09F014EF09F028EF09F01E0EB4
:10122A007E651AEF09F01CEF09F028EF09F0260E87
:10123A007E6122EF09F024EF09F028EF09F0030E8E
:10124A007B6F2CEF0AF0310E7C652EEF09F030EF40
:10125A0009F05CEF09F0350E7C6136EF09F038EFE2
:10126A0009F05CEF09F01D0E7D653EEF09F040EFD5
:10127A0009F05CEF09F0210E7D6146EF09F048EFB5
:10128A0009F05CEF09F0100E7E654EEF09F050EFA1
:10129A0009F05CEF09F0140E7E6156EF09F058EF81
:1012AA0009F05CEF09F0040E7B6F2CEF0AF02F0EA9
:1012BA007C6562EF09F064EF09F090EF09F0330EF4
:1012CA007C616AEF09F06CEF09F090EF09F01B0EF0
:1012DA007D6572EF09F074EF09F090EF09F01F0EC7
:1012EA007D617AEF09F07CEF09F090EF09F0140EB6
:1012FA007E6582EF09F084EF09F090EF09F0180E8D
:10130A007E618AEF09F08CEF09F090EF09F0050E83
:10131A007B6F2CEF0AF0380E7C6596EF09F098EF98
:10132A0009F0C4EF09F0400E7C619EEF09F0A0EFCE
:10133A0009F0C4EF09F0130E7D65A6EF09F0A8EFD6
:10134A0009F0C4EF09F01B0E7D61AEEF09F0B0EFB2
:10135A0009F0C4EF09F00D0E7E65B6EF09F0B8EF9B
:10136A0009F0C4EF09F0150E7E61BEEF09F0C0EF77
:10137A0009F0C4EF09F0060E7B6F2CEF0AF01E0E7F
:10138A007C65CAEF09F0CCEF09F0F8EF09F0260EF8
:10139A007C61D2EF09F0D4EF09F0F8EF09F0230EDF
:1013AA007D65DAEF09F0DCEF09F0F8EF09F02B0EB2
:1013BA007D61E2EF09F0E4EF09F0F8EF09F0170EAA
:1013CA007E65EAEF09F0ECEF09F0F8EF09F01F0E7D
:1013DA007E61F2EF09F0F4EF09F0F8EF09F0070E79
:1013EA007B6F2CEF0AF0280E7C65FEEF09F000EF08
:1013FA000AF02CEF0AF0300E7C6106EF0AF008EFD3
:10140A000AF02CEF0AF01D0E7D650EEF0AF010EFC0
:10141A000AF02CEF0AF0250E7D6116EF0AF018EF9C
:10142A000AF02CEF0AF0130E7E651EEF0AF020EF89
:10143A000AF02CEF0AF01B0E7E6126EF0AF028EF65
:10144A000AF02CEF0AF0080E7B6F2CEF0AF0000E60
:10145A00B56F7B5112003650800B0001606F365019
:10146A003624666F35AE3CEF0AF03EEF0AF03FEFE6
:10147A000AF066816651D8B445EF0AF047EF0AF0E0
:10148A005AEF0AF06629D8A44DEF0AF04FEF0AF096
:10149A0057EF0AF0000E336E000E346E000E356EF2
:1014AA00000E366E358E62EF0AF0000E336E000EB5
:1014BA00346E000E356E000E366E3A50800B601B8D
:1014CA003A503A24616F39AE6DEF0AF06FEF0AF0C5
:1014DA0070EF0AF061816151D8B476EF0AF078EFC3
:1014EA000AF08BEF0AF06129D8A47EEF0AF080EFA8
:1014FA000AF088EF0AF0000E376E000E386E000E02
:10150A00396E000E3A6E398E93EF0AF0000E376E7E
:10151A00000E386E000E396E000E3A6E6151D8B464
:10152A0099EF0AF09BEF0AF0A3EF0AF06651D8A4EC
:10153A00A1EF0AF0A3EF0AF0ADEF0AF0000E336E46
:10154A00000E346E000E356E000E366E45EF0CF04E
:10155A0039503302F3CF6BF0F4CF6CF06B51626FFA
:10156A00636B646B656B6C51676F686B696B6A6BF5
:10157A0038503402F3CF6BF0F4CF6CF06B51622722
:10158A00000E6323642365236C516727000E6823CA
:10159A0069236A2337503502F3CF6BF0F4CF6CF02E
:1015AA006B516227000E6323642365236C516727FE
:1015BA00000E682369236A2364C065F063C064F07F
:1015CA0062C063F0626B37503402F3CF6BF0F4CF32
:1015DA006CF06B5162276C516323000E6423000E7A
:1015EA00652338503302F3CF6BF0F4CF6CF06B51B4
:1015FA0062276C516323000E6423000E652364C0C6
:10160A0065F063C064F062C063F0626B3750330206
:10161A00F3CF6BF0F4CF6CF06B5162276C516323FC
:10162A00000E6423000E652339503402F3CF6BF0A9
:10163A00F4CF6CF06B5167276C516823000E692355
:10164A00000E6A2338503502F3CF6BF0F4CF6CF0FA
:10165A006B5167276C516823000E6923000E6A23B9
:10166A0039503502F3CF6BF0F4CF6CF06B513B6E0F
:10167A006C513C6E3D6A3E6A3DC03EF03CC03DF056
:10168A003BC03CF03B6A3B5067273C5068233D50C7
:10169A0069233E506A2362C03BF063C03CF064C0D9
:1016AA003DF065C03EF0190E60EF0BF0D8903E3267
:1016BA003D323C323B32E82E5BEF0BF03B50672762
:1016CA003C5068233D5069233E506A2364C065F04C
:1016DA0063C064F062C063F0626B615166C03BF044
:1016EA003C6A3B26000E3C22820E3B246B6FFF0EA7
:1016FA003C206C6F96EF0BF0D890673768376937E4
:10170A006A3765AF8BEF0BF08DEF0BF08EEF0BF0B6
:10171A006781D89062376337643765376B07D8A01B
:10172A006C0769AF9BEF0BF09DEF0BF081EF0BF0AD
:10173A00000E616F65AFA4EF0BF0A6EF0BF0CAEFD6
:10174A000BF0FF0E62153B6EFF0E63153C6EFF0E2B
:10175A0064153D6E7F0E65153E6E3B503C103D1084
:10176A003E10D8B4BBEF0BF0BDEF0BF0C1EF0BF09E
:10177A00010E616FCAEF0BF067A1C6EF0BF0C8EF5D
:10178A000BF0CAEF0BF0BDEF0BF06151D8B4D0EFFC
:10179A000BF0D2EF0BF0F6EF0BF0010E6727000EFD
:1017AA00682369236A236AA1DDEF0BF0DFEF0BF0F0
:1017BA00F6EF0BF067C03BF068C03CF069C03DF043
:1017CA006AC03EF03E343E323D323C323B323BC090
:1017DA0067F03CC068F03DC069F03EC06AF06B4BF0
:1017EA006C2B6CBF01EF0CF06C5108E16B29D8A08F
:1017FA0001EF0CF003EF0CF00DEF0CF0000E676F29
:10180A00000E686F800E696F7F0E6A6F3BEF0CF0F7
:10181A006CBF1AEF0CF06C5106E16B05D8B018EFEB
:10182A000CF01AEF0CF026EF0CF0000E676F000EAA
:10183A00686F000E696F000E6A6F000E606F3BEFF3
:10184A000CF06BC066F0FF0E6717FF0E68177F0E6D
:10185A006917000E6A1766A135EF0CF037EF0CF026
:10186A0038EF0CF0698FD89066316A6F60516A134D
:10187A0067C033F068C034F069C035F06AC036F02A
:10188A0012001D50800B2A6E1D501D24316E1CAE95
:10189A0051EF0CF053EF0CF054EF0CF03180315053
:1018AA00D8B45AEF0CF05CEF0CF071EF0CF0312861
:1018BA00D8A462EF0CF064EF0CF06CEF0CF0000EA1
:1018CA001A6E000E1B6E000E1C6E000E1D6E1C8E14
:1018DA00000E1D6E79EF0CF0000E1A6E000E1B6ED4
:1018EA00000E1C6E000E1D6E2150800B2A1A21500C
:1018FA002124326E20AE84EF0CF086EF0CF087EFD5
:10190A000CF032803250D8B48DEF0CF08FEF0CF01F
:10191A00A4EF0CF03228D8A495EF0CF097EF0CF056
:10192A009FEF0CF0000E1E6E000E1F6E000E206E52
:10193A00000E216E208E000E216EACEF0CF0000E10
:10194A001E6E000E1F6E000E206E000E216E1E50BF
:10195A001F1020102110D8A4B5EF0CF0B7EF0CF02F
:10196A00CFEF0CF0000E1A6E000E1B6E000E1C6EEE
:10197A00000E1D6E800E1C127F0E1D122A501D12A3
:10198A001AC01AF01BC01BF01CC01CF01DC01DF0B1
:10199A0012EF0EF03150D8A4D5EF0CF0D7EF0CF0BF
:1019AA00E1EF0CF0000E1A6E000E1B6E000E1C6E9C
:1019BA00000E1D6E12EF0EF0325031C022F0236A73
:1019CA00225E000E235A7F0E22242B6E000E232045
:1019DA002C6E1AC026F01BC027F01CC028F01DC0B0
:1019EA0029F0000E1A6E000E1B6E000E1C6E000E01
:1019FA001D6E000E2D6E000E2E6E000E2F6E000E46
:101A0A00306E000E326E42EF0DF03250D8B410EF45
:101A1A000DF012EF0DF029EF0DF0D890263627368B
:101A2A0028362936D8901A361B361C361D3630AE63
:101A3A0021EF0DF023EF0DF024EF0DF01A80D8906E
:101A4A002D362E362F3630361E50265C1F5027581C
:101A5A002050285821502958D8A036EF0DF038EFD9
:101A6A000DF041EF0DF0308C1E50265E1F50275AA4
:101A7A002050285A2150295A322A190E326448EF26
:101A8A000DF04AEF0DF00AEF0DF02650271028103E
:101A9A002910D8B453EF0DF055EF0DF06DEF0DF09E
:101AAA002D806DEF0DF0D8901A361B361C361D3678
:101ABA0030AE62EF0DF064EF0DF065EF0DF01A80B5
:101ACA00D8902D362E362F3630362B06D8A02C0637
:101ADA001CAE72EF0DF074EF0DF058EF0DF0000E22
:101AEA00326E30AE7BEF0DF07DEF0DF0A1EF0DF011
:101AFA00FF0E2D14226EFF0E2E14236EFF0E2F14CE
:101B0A00246E7F0E3014256E2250231024102510C7
:101B1A00D8B492EF0DF094EF0DF098EF0DF0010E9E
:101B2A00326EA1EF0DF01AA09DEF0DF09FEF0DF0B0
:101B3A00A1EF0DF094EF0DF03250D8B4A7EF0DF0ED
:101B4A00A9EF0DF0CDEF0DF0010E1A26000E1B22A3
:101B5A001C221D221DA0B4EF0DF0B6EF0DF0CDEF43
:101B6A000DF01AC022F01BC023F01CC024F01DC0C7
:101B7A0025F02534253224322332223222C01AF0AB
:101B8A0023C01BF024C01CF025C01DF02B4A2C2AB0
:101B9A002CBED8EF0DF02C5008E12B28D8A0D8EF96
:101BAA000DF0DAEF0DF0E5EF0DF0000E2C6E2B685C
:101BBA00000E1A6E000E1B6E000E1C6E000E1D6EBD
:101BCA002CBEF2EF0DF02C5006E12B04D8B0F0EF4A
:101BDA000DF0F2EF0DF000EF0EF0000E2C6E000E7D
:101BEA002B6E000E1A6E000E1B6E000E1C6E000E7F
:101BFA001D6E000E2A6E2BC031F031A007EF0EF0D9
:101C0A0009EF0EF00CEF0EF01C8E0DEF0EF01C9E7D
:101C1A00D89031301D6EC3EF0CF012003BC0D9FFD3
:101C2A003CC0DAFFDECFF6FFDDCFF7FF000EF86E1D
:101C3A000800F550250AD8A425EF0EF027EF0EF07C
:101C4A0059EF0FF03BC0D9FF3CC0DAFFDE2A000E85
:101C5A00DD22000E0001B36F000EB26FB2C04DF06C
:101C6A0049684A68000E7A6F000E796F69EF0EF0C4
:101C7A004D823BC0D9FF3CC0DAFFDE2A000EDD22CE
:101C8A0069EF0EF0000E7A6F010E796F69EF0EF0B0
:101C9A003BC0D9FF3CC0DAFFDECFF6FFDDCFF7FF4E
:101CAA00000EF86E0800F5503F6E406A4050000A78
:101CBA00D8B462EF0EF047EF0EF03F50300AD8B4B6
:101CCA003DEF0EF047EF0EF079517A11D8B470EF6C
:101CDA000EF072EF0EF04DEF0EF03BC0D9FF3CC094
:101CEA00DAFFDECFF6FFDDCFF7FF000EF86E080051
:101CFA00F5502A0AD8A484EF0EF086EF0EF0AFEF63
:101D0A000EF03BC0D9FF3CC0DAFFDE2A000EDD220E
:101D1A003DC0D9FF3EC0DAFFDFCF3FF0020EDE261C
:101D2A00DFCF40F0000EDD223FC0D9FF40C0DAFF0E
:101D3A00DECFB2F0DDCFB3F0B3BFA8EF0EF0A6EF5F
:101D4A000EF0E4EF0EF04D80B26DB31FD8B0B32B96
:101D5A00E4EF0EF03BC0D9FF3CC0DAFFDECF12F051
:101D6A00DDCF13F01CEC13F012C0B2F013C0B3F0C5
:101D7A00C6EF0EF03BC0D9FF3CC0DAFFDE2A000EE8
:101D8A00DD223BC0D9FF3CC0DAFFDECFF6FFDDCF54
:101D9A00F7FF000EF86E0800F5CF3FF0D00E3F2493
:101DAA00406E416AFF0E4122415009E10A0E405C31
:101DBA00D8A0E2EF0EF0E4EF0EF0BFEF0EF03BC05A
:101DCA00D9FF3CC0DAFFDECF7BF0DDCF7CF07BC0F1
:101DDA00F6FF7CC0F7FF000EF86E0800F550640AA3
:101DEA00D8B4FAEF0EF0FCEF0EF00CEF0FF07BC058
:101DFA00F6FF7CC0F7FF000EF86E0800F550690A7E
:101E0A00D8A40AEF0FF00CEF0FF050EF0FF03DC01F
:101E1A00D9FF3EC0DAFFDFCF3FF0020EDE26DFCF6A
:101E2A0040F0000EDD223FC0D9FF40C0DAFFDECF0E
:101E3A0071F0DDCF72F00001000E72BFFF0E736FFA
:101E4A00746F756F766F776F786F010E7B253F6EB3
:101E5A00000E7C21406E3BC0D9FF3CC0DAFF3FC078
:101E6A00DEFF40C0DDFF39C027F03AC028F071C05C
:101E7A0029F072C02AF073C02BF074C02CF075C020
:101E8A002DF076C02EF077C02FF078C030F070ECCD
:101E9A000FF06FEF0FF03BC0D9FF3CC0DAFFDE2A2C
:101EAA00000EDD226FEF0FF03BC0D9FF3CC0DAFF16
:101EBA00DECFF6FFDDCFF7FF000EF86E0800F55013
:101ECA000C6E0D6A39C00EF03AC00FF0C8EC14F06F
:101EDA0050EF0FF0120029C066F02AC067F02BC03D
:101EEA0068F02CC069F02DC06AF02EC06BF02FC0CC
:101EFA006CF030C06DF000016DBF86EF0FF089EF16
:101F0A000FF0010E8AEF0FF0000E6E6F6E51D8B40B
:101F1A0091EF0FF093EF0FF0A3EF0FF06D1F6C1F0F
:101F2A006B1F6A1F691F681F671F666D000E672394
:101F3A00682369236A236B236C236D234ABEA8EFA7
:101F4A000FF0AAEF0FF0ABEF0FF04D924ABEB8EFC9
:101F5A000FF04A5006E14904D8B0B6EF0FF0B8EFD7
:101F6A000FF0BEEF0FF0000E636F010E626FC2EF4B
:101F7A000FF049C062F04AC063F0B2C064F0B3C067
:101F8A0065F06E51D8B4CCEF0FF0CEEF0FF0E5EF5D
:101F9A000FF06407D8A065076E51D8A4D7EF0FF0E9
:101FAA00D9EF0FF0DFEF0FF0000E616F2B0E606FAD
:101FBA00E3EF0FF0000E616F2D0E606F60C06EF0E0
:101FCA00000E706F1F0E6F6F000ED56F6AEF10F064
:101FDA006F07D8A07007B60E6F25D96E000E702154
:101FEA00DA6E66C00CF067C00DF068C00EF069C00A
:101FFA000FF06AC010F06BC011F06CC012F06DC027
:10200A0013F00A0E146E000E156E000E166E000EF8
:10201A00176E000E186E000E196E000E1A6E000E64
:10202A001B6E6AEC12F00CC031F00DC032F00EC01B
:10203A0033F00FC034F010C035F011C036F012C0C2
:10204A0037F013C038F031C01EF032C01FF0B8ECC0
:10205A0017F01E50300FDF6E00016207D8A0630729
:10206A006407D8A0650766C00CF067C00DF068C0A9
:10207A000EF069C00FF06AC010F06BC011F06CC0AE
:10208A0012F06DC013F00A0E146E000E156E000EDB
:10209A00166E000E176E000E186E000E196E000EE8
:1020AA001A6E000E1B6EA6EC11F00CC066F00DC085
:1020BA0067F00EC068F00FC069F010C06AF011C076
:1020CA006BF012C06CF013C06DF0000170BF76EFB8
:1020DA0010F0705108E16F05D8A076EF10F078EF94
:1020EA0010F0A8EF10F066516711681169116A11B2
:1020FA006B116C116D11D8A485EF10F087EF10F0F9
:10210A00EDEF0FF063BF94EF10F0635106E1620543
:10211A00D8B092EF10F094EF10F0EDEF0FF065BF2A
:10212A009FEF10F0655108E16405D8A09FEF10F009
:10213A00A1EF10F0A8EF10F04DB2A6EF10F0A8EF43
:10214A0010F0EDEF0FF06E51D8B4AEEF10F0B0EF23
:10215A0010F0BBEF10F06F07D8A07007B60E6F250E
:10216A00D96E000E7021DA6E6EC0DFFF27C01CF038
:10217A0028C01DF0B60E6F251E6E000E70211F6E50
:10218A0064C020F065C021F02DEC15F01200146E29
:10219A001450D8B4D3EF10F0D5EF10F0F7EF10F0D9
:1021AA000FBEDCEF10F0DAEF10F0F7EF10F00CC012
:1021BA0010F00DC011F00EC012F00FC013F0101E77
:1021CA00111E121E131E102A000E11221222132291
:1021DA0010C016F011C017F012C018F013C019F091
:1021EA00FFEF10F00CC016F00DC017F00EC018F07B
:1021FA000FC019F00C500D100E100F10D8A408EFD4
:10220A0011F00AEF11F014EF11F0000E0C6E000E2F
:10221A000D6E000E0E6E000E0F6EA5EF11F0960EEB
:10222A00156E1EEF11F0152AD8901932183217328E
:10223A001632000E1614106E000E1714116E000ED0
:10224A001814126EFE0E1914136E1050111012107B
:10225A001310D8A433EF11F035EF11F018EF11F085
:10226A0043EF11F0152A010E1626000E1722182226
:10227A001922D8901932183217321632000E161453
:10228A00106E000E1714116E000E1814126EFF0E47
:10229A001914136E1050111012101310D8A458EFFD
:1022AA0011F05AEF11F037EF11F062EF11F0150645
:1022BA00D890163617361836193618BE67EF11F049
:1022CA0069EF11F071EF11F0020E15606FEF11F066
:1022DA0071EF11F05CEF11F015B076EF11F078EFB5
:1022EA0011F079EF11F0189ED890153215C010F040
:1022FA00116A126A136A10C013F0126A116A106A1C
:10230A001050161211501712125018121350191297
:10231A001450D8B493EF11F095EF11F09DEF11F02E
:10232A000FBE9CEF11F09AEF11F09DEF11F0198E8C
:10233A0016C00CF017C00DF018C00EF019C00FF03F
:10234A001200000E1D6E1BBEAFEF11F0ADEF11F0C3
:10235A00C1EF11F01B1E1A1E191E181E171E161E7B
:10236A00151E146C000E1522162217221822192285
:10237A001A221B22010E1D6E13BEC8EF11F0C6EF02
:10238A0011F0DAEF11F0131E121E111E101E0F1E8D
:10239A000E1E0D1E0C6C000E0D220E220F22102294
:1023AA00112212221322010E1D1A20EE1EF0070E10
:1023BA00DE6AE806FDE21450151016101710181000
:1023CA0019101A101B10D8B4EDEF11F0EFEF11F03D
:1023DA0041EF12F0010E1C6EFDEF11F0D890143689
:1023EA00153616361736183619361A361B361C2A7B
:1023FA001BAE02EF12F004EF12F0F3EF11F0D890D7
:10240A001E361F3620362136223623362436253606
:10241A0014500C5C15500D5816500E5817500F5882
:10242A0018501058195011581A5012581B50135856
:10243A00D8A022EF12F024EF12F035EF12F0145068
:10244A000C5E15500D5A16500E5A17500F5A185046
:10245A00105A1950115A1A50125A1B50135A1E80E8
:10246A00D8901B321A3219321832173216321532F4
:10247A0014321C2E04EF12F01D50D8B447EF12F09C
:10248A0049EF12F059EF12F0251E241E231E221EB8
:10249A00211E201E1F1E1E6C000E1F22202221221A
:1024AA0022222322242225221EC00CF01FC00DF056
:1024BA0020C00EF021C00FF022C010F023C011F08E
:1024CA0024C012F025C013F01200000E1D6E13BEB8
:1024DA0073EF12F071EF12F085EF12F0131E121E55
:1024EA00111E101E0F1E0E1E0D1E0C6C000E0D224C
:1024FA000E220F221022112212221322010E1D6E09
:10250A001BBE8CEF12F08AEF12F09CEF12F01B1E2A
:10251A001A1E191E181E171E161E151E146C000EE2
:10252A00152216221722182219221A221B221450A7
:10253A00151016101710181019101A101B10D8B4ED
:10254A00A9EF12F0ABEF12F0F3EF12F0010E1C6ECE
:10255A00B9EF12F0D89014361536163617361836E3
:10256A0019361A361B361C2A1BAEBEEF12F0C0EF04
:10257A0012F0AFEF12F014500C5C15500D581650B3
:10258A000E5817500F5818501058195011581A5001
:10259A0012581B501358D8A0D5EF12F0D7EF12F0EB
:1025AA00E7EF12F014500C5E15500D5A16500E5AE1
:1025BA0017500F5A1850105A1950115A1A50125AC5
:1025CA001B50135AD8901B321A321932183217324A
:1025DA001632153214321C2EC0EF12F01D50D8B428
:1025EA00F9EF12F0FBEF12F00BEF13F0131E121EAD
:1025FA00111E101E0F1E0E1E0D1E0C6C000E0D223B
:10260A000E220F2210221122122213220CC00CF0C9
:10261A000DC00DF00EC00EF00FC00FF010C010F07C
:10262A0011C011F012C012F013C013F01200000E04
:10263A001A6E000E196E000E186E000E176E28EF35
:10264A0013F0124A132A12C0F6FF13C0F7FF000E46
:10265A00F86E0800F550200AD8B436EF13F038EFB8
:10266A0013F026EF13F012C0F6FF13C0F7FF000EA7
:10267A00F86E0800F5CF14F0F70E1424156E166ADA
:10268A00FF0E1622165009E1050E155CD8A050EF70
:10269A0013F052EF13F026EF13F05CEF13F0000E75
:1026AA00186E010E176E124A132A95EF13F012C014
:1026BA00F6FF13C0F7FF000EF86E0800F550146E0F
:1026CA00156A1550000AD8B46DEF13F095EF13F0A0
:1026DA0014502B0AD8B458EF13F0060AD8B454EFA2
:1026EA0013F095EF13F019C00CF01AC00DF0000E9C
:1026FA000F6E0A0E0E6EB3EC18F012C0F6FF13C07E
:10270A00F7FF000EF86E0800F5500C5E000E0D5A29
:10271A00300E0C24196E000E0D201A6E58EF13F0AD
:10272A0012C0F6FF13C0F7FF000EF86E0800F5CFCF
:10273A0014F0D00E1424156E166AFF0E16221650C7
:10274A0009E10A0E155CD8A0ADEF13F0AFEF13F054
:10275A0078EF13F017501810D8A4B6EF13F0B8EFAB
:10276A0013F0C6EF13F019C014F01AC015F0141EB6
:10277A00151E144A152A14C012F015C013F0CAEF18
:10278A0013F019C012F01AC013F012004134423487
:10279A00486E4850D8A4D4EF13F0D6EF13F0E0EF08
:1027AA0013F0000E3F6E000E406E000E416E000EDA
:1027BA00426E4DEF14F03FC043F040C044F041C0B8
:1027CA0045F042C046F0200EF0EF13F0D8904632A2
:1027DA00453244324332E82EEBEF13F04350476E52
:1027EA00418EFF0E3F16FF0E4016FF0E4116000ED9
:1027FA004216960E485E48BE07EF14F005EF14F035
:10280A001DEF14F04850800A970FD8B00FEF14F05C
:10281A0011EF14F013EF14F0D6EF13F0D890423200
:10282A00413240323F32483E13EF14F035EF14F094
:10283A001F0E486423EF14F025EF14F02DEF14F067
:10284A00D6EF13F0D8903F36403641364236480626
:10285A004850D8A433EF14F035EF14F027EF14F0F2
:10286A004750D8B43BEF14F03DEF14F045EF14F0A5
:10287A00421E411E401E3F6C000E4022412242224F
:10288A003FC03FF040C040F041C041F042C042F07A
:10289A001200000E0101676F000E666F000E696F6D
:1028AA00000E686F000E6B6F000E6A6F000E6D6F80
:1028BA00000E6C6F63EC19F0D8EC17F0C6EC18F048
:1028CA0009EC19F0D9EC18F08EEC19F0660E176EB7
:1028DA00010E186EBFEC15F0660E00016D6F010E49
:1028EA006E6F15EC07F00101646F000E656F82EFE1
:1028FA0014F020EC18F00101656F4BEC19F0000997
:10290A00D8A48AEF14F08CEF14F07EEF14F00101D2
:10291A006505D8A493EF14F095EF14F0B7EF14F00F
:10292A003C0E0001836F010E846F010E856F0E0E3F
:10293A00866F64C187F0886B66C189F067C18AF0C7
:10294A0068C18BF069C18CF06AC18DF06BC18EF0E1
:10295A0018EC16F03C0E0D6E010E0E6EF2EC17F02E
:10296A0018EC19F0090E00019D6F1E0E9C6FE40E03
:10297A00E82EFED79C2FFCD79D2FFAD700F069EFDF
:10298A0014F02CEF00F00E500F10D8B4CFEF14F063
:10299A00D1EF14F0DAEF14F00E500F10D8A4D8EFDC
:1029AA0014F0DAEF14F0DFEF14F00C5093EC19F096
:1029BA002CEF15F020EE09F00E50D9260F50DA222E
:1029CA00DE50DE10D8B4ECEF14F0EEEF14F009EF9D
:1029DA0015F020EE09F00E50D9260F50DA2210EE2B
:1029EA0003F00E50E1260F50E222DE50E65CE6507C
:1029FA00800A146EDE50800A1458D8B007EF15F01A
:102A0A0009EF15F02CEF15F020EE03F00E50D92641
:102A1A000F50DA22DECF10F0DDCF11F00EC0D9FF51
:102A2A000FC0DAFFDECF12F0DDCF13F01050122400
:102A3A00D96E11501320DA6E0CC0DFFF20EE03F0BE
:102A4A000E50D9260F50DA22DE2A000EDD2212009D
:102A5A004DA032EF15F034EF15F03EEF15F01EC021
:102A6A0015F01FC016F01CC017F01DC018F075EC49
:102A7A0017F021BE43EF15F045EF15F04BEF15F0B7
:102A8A0020C025F021C026F04FEF15F0000E266E6B
:102A9A00000E256E000E246E000E236E61EF15F0F7
:102AAA00000E0D6E200E0C6E1CC00EF01DC00FF035
:102ABA00C8EC14F0234A242A2550235C2450800AA7
:102ACA00226E2650800A2258D8A06EEF15F070EFB9
:102ADA0015F055EF15F04DB075EF15F077EF15F0CD
:102AEA0081EF15F01EC015F01FC016F01CC017F0BC
:102AFA001DC018F075EC17F01200D9CF06F0DACF26
:102B0A0007F00E0137A78CEF15F08EEF15F093EF53
:102B1A0015F0E3CE08F0085076EC18F057EC19F0EF
:102B2A000009D8A49BEF15F09DEF15F09FEF15F063
:102B3A000E012D950E0137A5A5EF15F0A7EF15F09B
:102B4A00ABEF15F036EC18F00E01E46F33A3B0EFDB
:102B5A0015F0B2EF15F0B9EF15F0010E0001B56FDF
:102B6A0032EC19F00E01339307C0DAFF06C0D9FF21
:102B7A005492110041EC16F017C0D9FF18C0DAFFC1
:102B8A0010C0DEFF11C0DDFF69EC16F020EE02F086
:102B9A001750D9261850DA2210C0DEFF11C0DDFF07
:102BAA00B9EC16F020EE04F01750D9261850DA22A4
:102BBA0010C0DEFF11C0DDFF91EC16F020EE06F02A
:102BCA001750D9261850DA2210C0DEFF11C0DDFFD7
:102BDA0012007FC042F080C043F002EF16F07DC0C1
:102BEA0039F07EC03AF0420E3B6E000E3C6E81C058
:102BFA003DF082C03EF013EC0EF042C0F6FF43C037
:102C0A00F7FF000EF86E0800F5500009D8A410EF7F
:102C1A0016F012EF16F0F4EF15F0000E00017E6FB9
:102C2A00000E7D6F1200870E00018F6F000E906FED
:102C3A0083C091F084C092F0000E956F000E946FDD
:102C4A00000E9B6F000E9A6F910E7D6F000E7E6FC5
:102C5A0085C07FF086C080F08F0E816F000E826F74
:102C6A00EEEC15F0000194518325D96E955184211B
:102C7A00DA6E000EDF6E12007FEC19F0520E69EC6C
:102C8A0019F0B60E69EC19F075EC19F0530E69ECEF
:102C9A0019F0010E97EC17F0126E1250156E166AA3
:102CAA00000E97EC17F0126E1250146E136A15503C
:102CBA001310156E16501410166E7AEC19F015C012
:102CCA0010F016C011F012007FEC19F0520E69ECE8
:102CDA0019F0B80E69EC19F075EC19F0530E69EC9D
:102CEA0019F0010E97EC17F0126E1250156E166A53
:102CFA00000E97EC17F0126E1250146E136A1550EC
:102D0A001310156E16501410166E7AEC19F015C0C1
:102D1A0010F016C011F012007FEC19F0520E69EC97
:102D2A0019F0B40E69EC19F075EC19F0530E69EC50
:102D3A0019F0010E97EC17F0126E1250156E166A02
:102D4A00000E97EC17F0126E1250146E136A15509B
:102D5A001310156E16501410166E7AEC19F015C071
:102D6A0010F016C011F012007FEC19F0520E69EC47
:102D7A0019F0BA0E69EC19F075EC19F0530E69ECFA
:102D8A0019F0010E97EC17F0126E1250156E166AB2
:102D9A00000E97EC17F0126E1250146E136A15504B
:102DAA001310156E16501410166E7AEC19F015C021
:102DBA0010F016C011F01200130E0E6E000EE9ECA0
:102DCA0018F03F0E106E550EE82EFED7102EFCD7C7
:102DDA0000F0040E0E6E0C0EE9EC18F04BC00EF06B
:102DEA00040EE9EC18F04C500E6E050EE9EC18F0E2
:102DFA0052C00EF0060EE9EC18F053500E6E070E94
:102E0A00E9EC18F01200130E036E000EF9EC18F03C
:102E1A003F0E056E550EE82EFED7052EFCD700F0A4
:102E2A00040E036E0C0EF9EC18F04BC003F0040EFE
:102E3A00F9EC18F04C50036E050EF9EC18F052C07C
:102E4A0003F0060EF9EC18F05350036E070EF9EC76
:102E5A0018F01200240EF66E330EF76E000EF86E9E
:102E6A000900F5CF52F00900F5CF53F001EE00F05A
:102E7A003C0EEE6AE806FDE100EE9EF0380EEE6AC0
:102E8A00E806FDE100EE49F0090EEE6AE806FDE10A
:102E9A005490549200014EEF14F0010E106E200E61
:102EAA000C180D10D8B45CEF17F05EEF17F071EF45
:102EBA0017F0F70E0C240E6EFF0E0D200F6E0F503A
:102ECA0009E1050E0E5CD8A06DEF17F06FEF17F051
:102EDA0071EF17F0000E106E10C00CF00D6A1200A0
:102EEA00000E1B6E000E1A6E86EF17F019C00CF05A
:102EFA000D6A17C00EF018C00FF0C8EC14F01A4A89
:102F0A001B2A1A501524D96E1B501620DA6EDF5070
:102F1A00196E1950D8A494EF17F096EF17F07BEFBB
:102F2A0017F012000E6E8BEC18F00E01DA878BEC9C
:102F3A0018F0D5CE0FF08BEC18F00E50D8B4A8EFDD
:102F4A0017F0ACEF17F00D6A0D2AADEF17F00D6A06
:102F5A000D3A0D460E01DA510D18DF0B0D18DA6F16
:102F6A00DA890F5012001FBEC5EF17F01F5006E195
:102F7A001E04D8B0C3EF17F0C5EF17F0D3EF17F060
:102F8A001EC020F01FC021F0201E211E204A212A27
:102F9A0020C01EF021C01FF0D7EF17F01EC01EF090
:102FAA001FC01FF012004CEC18F0010E0E6E000E3E
:102FBA00E9EC18F03F0E106E550EE82EFED7102ED3
:102FCA00FCD700F0030E0E6E000EE9EC18F0D50ED9
:102FDA000E6E010EE9EC18F01200FDEF17F00DC0AD
:102FEA00D9FF0EC0DAFFDF5061EC18F00D4A0E2A45
:102FFA000DC0D9FF0EC0DAFFDF50D8A407EF18F0D2
:10300A0009EF18F0F4EF17F01200D00E0C240E6E30
:10301A00FF0E0D200F6E0F500AE10A0E0E5CD8A0AB
:10302A0019EF18F01CEF18F0010E1DEF18F0000E42
:10303A000C6E0D6A1200130E506426EF18F028EF7A
:10304A0018F02AEF18F0000E506E502A50040C6E39
:10305A000D6A9E0E0C24D96E000E0D20DA6EDF501A
:10306A0012003B0E4E643CEF18F03EEF18F040EFB2
:10307A0018F0000E4E6E4E2A4E04016E026A000EC1
:10308A000124D96E010E0220DA6EDF5012000E0101
:10309A00D951F00B0809D96FD98B9F0ED66F848A44
:1030AA00848CA79BA79D1D0E1D6F1E0E1C6F1C0EE8
:1030BA006F6F1B0E706F12000C6E3B0E4F6468EF41
:1030CA0018F06AEF18F06CEF18F0000E4F6E000E51
:1030DA004F24D96EDA6A010EDA220CC0DFFF4F2ABA
:1030EA001200016E130E51647DEF18F07FEF18F095
:1030FA0081EF18F0000E516E9E0E5124D96EDA6AD5
:10310A00000EDA2201C0DFFF512A12000E01D8B5E3
:10311A0091EF18F093EF18F08BEF18F0DACE0CF06D
:10312A001F0E0C16D8A49CEF18F09EEF18F08BEF28
:10313A0018F012000E01D8B5A5EF18F0A7EF18F095
:10314A009FEF18F0DACE01F01F0E0116D8A4B0EFE7
:10315A0018F0B2EF18F09FEF18F012000C500E02A0
:10316A00F3CF10F0F4CF11F00C500F02F3501126E8
:10317A000D500E02F350112610C00CF011C00DF0C4
:10318A00120082820E019A93090E0D01F16F0E014F
:10319A0029831F83F292298B1F9B2D8725EC19F017
:1031AA00F28AF28CF28E1200D6501F0B4009D66EAC
:1031BA00D688D650F00B0809D66ED588C20ED46EC2
:1031CA00F60ED36ED58E12000F6E7FEC19F0520EEA
:1031DA0069EC19F00F50800969EC19F00E5069EC8E
:1031EA0019F07AEC19F01200046E89EC19F0520EFB
:1031FA006FEC19F0045080096FEC19F003506FEC72
:10320A0019F084EC19F01200120E0E01626F110E01
:10321A00156FE997E895330EE56F000EE66FE789BB
:10322A00E88BE78F12003FEC19F00009D8B420EFC1
:10323A0019F022EF19F024EF19F00E012D85120072
:10324A007FEC19F0520E69EC19F0E60E69EC19F0F0
:10325A007AEC19F0E1EC16F0120089EC19F0520E32
:10326A006FEC19F0E60E6FEC19F084EC19F008EC2B
:10327A0017F012004E504F18D8A446EF19F049EF34
:10328A0019F0010E4AEF19F0000E120050505118B1
:10329A00D8A452EF19F055EF19F0010E56EF19F0B4
:1032AA00000E12004E504F18D8A45EEF19F061EFCD
:1032BA0019F0010E62EF19F0000E12008792819840
:1032CA00869E8096889612000D6E8BEC18F00DC0C3
:1032DA00D5FE1200026E9FEC18F002C0D5FE120055
:1032EA008BEC18F00E01DA8312008BEC18F00E0149
:1032FA00DA8512008BEC18F00E01DA8112009FECCD
:10330A0018F00E01DA8512009FEC18F00E01DA812E
:0E331A0012007F8279887E8E1200C409120094
:020000040020DA
:10000000FF0FFF0FFF0FFF0FFF0FFF0FFF0FFF0F80
:020000040030CA
:0C000000AAFFFFFF9FFFFFFFFFFFFFFFB5
:00000001FF
