:040000003EEF00F0DF
:060008005682EDEF0DF041
:100018005680D8CF07F0E8CF08F0E0CF09F00E01FE
:1000280033AB19EF00F01BEF00F036EF00F080A6BD
:1000380020EF00F024EF00F0066A062A25EF00F012
:10004800066A06460646064680500618F70B061846
:10005800806EC20ED46EF60ED36E010E0001FA6FDA
:100068000E01339B09C0E0FF08C0E8FF07C0D8FFB6
:080078005690100096EF0FF006
:100E0000000A52474243203D2025303564202530DA
:0F0E10003564202530356420253035640A000014
:100E200062C0D9FF63C0DAFFDECFF6FFDDCFF7FF88
:100E3000000EF86E0800F550250AD8A422EF07F03E
:100E400024EF07F056EF08F062C0D9FF63C0DAFF65
:100E5000DE2A000EDD22000E4E6E000E4D6E4DC0DD
:100E600051F04F685068000E00016F6F000E6E6FFA
:100E700066EF07F0518262C0D9FF63C0DAFFDE2A55
:100E8000000EDD2266EF07F0000E6F6F010E6E6F31
:100E900066EF07F062C0D9FF63C0DAFFDECFF6FF6E
:100EA000DDCFF7FF000EF86E0800F550486E496A76
:100EB0004950000AD8B45FEF07F044EF07F04850FC
:100EC000300AD8B43AEF07F044EF07F06E516F11D3
:100ED000D8B46DEF07F06FEF07F04AEF07F062C08C
:100EE000D9FF63C0DAFFDECFF6FFDDCFF7FF000EDC
:100EF000F86E0800F5502A0AD8A481EF07F083EFB6
:100F000007F0ACEF07F062C0D9FF63C0DAFFDE2A5A
:100F1000000EDD2264C0D9FF65C0DAFFDFCF48F0E4
:100F2000020EDE26DFCF49F0000EDD2248C0D9FFD9
:100F300049C0DAFFDECF4DF0DDCF4EF04EBEA5EF5B
:100F400007F0A3EF07F0E1EF07F051804D6C4E1E64
:100F5000D8B04E2AE1EF07F062C0D9FF63C0DAFFD4
:100F6000DECF10F0DDCF11F055EC0CF010C04DF0DD
:100F700011C04EF0C3EF07F062C0D9FF63C0DAFFC3
:100F8000DE2A000EDD2262C0D9FF63C0DAFFDECFA9
:100F9000F6FFDDCFF7FF000EF86E0800F5CF48F042
:100FA000D00E4824496E4A6AFF0E4A224A5009E18F
:100FB0000A0E495CD8A0DFEF07F0E1EF07F0BCEFC5
:100FC00007F062C0D9FF63C0DAFFDECF70F0DDCF7B
:100FD00071F070C0F6FF71C0F7FF000EF86E0800E8
:100FE000F550640AD8B4F7EF07F0F9EF07F009EF0E
:100FF00008F070C0F6FF71C0F7FF000EF86E080031
:10100000F550690AD8A407EF08F009EF08F04DEF92
:1010100008F064C0D9FF65C0DAFFDFCF48F0020EE8
:10102000DE26DFCF49F0000EDD2248C0D9FF49C0DF
:10103000DAFFDECF66F0DDCF67F00001000E67BF9C
:10104000FF0E686F696F6A6F6B6F6C6F6D6F010E6B
:101050007025486E000E7121496E62C0D9FF63C0D1
:10106000DAFF48C0DEFF49C0DDFF60C025F061C087
:1010700026F066C027F067C028F068C029F069C074
:101080002AF06AC02BF06BC02CF06CC02DF06DC044
:101090002EF06DEC08F06CEF08F062C0D9FF63C071
:1010A000DAFFDE2A000EDD226CEF08F062C0D9FF05
:1010B00063C0DAFFDECFF6FFDDCFF7FF000EF86E7C
:1010C0000800F5500A6E0B6A60C00CF061C00DF0AC
:1010D00004EC0DF04DEF08F0120027C03DF028C0E1
:1010E0003EF029C03FF02AC040F02BC041F02CC098
:1010F00042F02DC043F02EC044F044BE82EF08F011
:1011000085EF08F0010E86EF08F0000E456E4550A1
:10111000D8B48DEF08F08FEF08F09FEF08F0441E71
:10112000431E421E411E401E3F1E3E1E3D6C000ED1
:101130003E223F224022412242224322442250BEEC
:10114000A4EF08F0A6EF08F0A7EF08F0519250BE08
:10115000B4EF08F0505006E14F04D8B0B2EF08F0F9
:10116000B4EF08F0BAEF08F0000E3A6E010E396ED7
:10117000BEEF08F04FC039F050C03AF04DC03BF020
:101180004EC03CF04550D8B4C8EF08F0CAEF08F0A4
:10119000E1EF08F03B06D8A03C064550D8A4D3EFB9
:1011A00008F0D5EF08F0DBEF08F0000E386E2B0EDC
:1011B000376EDFEF08F0000E386E2D0E376E37C039
:1011C00045F0000E476E1F0E466E000E0101EF6FD8
:1011D00066EF09F04606D8A04706D00E4624D96E21
:1011E000010E4720DA6E3DC00AF03EC00BF03FC052
:1011F0000CF040C00DF041C00EF042C00FF043C0F3
:1012000010F044C011F00A0E126E000E136E000EA4
:10121000146E000E156E000E166E000E176E000E88
:10122000186E000E196EA3EC0BF00AC02FF00BC065
:1012300030F00CC031F00DC032F00EC033F00FC0F2
:1012400034F010C035F011C036F02FC01CF030C0A3
:101250001DF076EC0FF01C50300FDF6E3906D8A071
:101260003A063B06D8A03C063DC00AF03EC00BF053
:101270003FC00CF040C00DF041C00EF042C00FF076
:1012800043C010F044C011F00A0E126E000E136E2F
:10129000000E146E000E156E000E166E000E176E08
:1012A000000E186E000E196EDFEC0AF00AC03DF059
:1012B0000BC03EF00CC03FF00DC040F00EC041F03E
:1012C0000FC042F010C043F011C044F047BE71EFB0
:1012D00009F0475008E14604D8A071EF09F073EF18
:1012E00009F0A3EF09F03D503E103F1040104110AF
:1012F000421043104410D8A480EF09F082EF09F0A7
:10130000EAEF08F03ABE8FEF09F03A5006E13904EF
:10131000D8B08DEF09F08FEF09F0EAEF08F03CBE8E
:101320009AEF09F03C5008E13B04D8A09AEF09F08D
:101330009CEF09F0A3EF09F051B2A1EF09F0A3EF80
:1013400009F0EAEF08F04550D8B4A9EF09F0ABEF87
:1013500009F0B6EF09F04606D8A04706D00E46249D
:10136000D96E010E4720DA6E45C0DFFF25C01AF0A6
:1013700026C01BF0D00E46241C6E010E47201D6EA9
:101380003BC01EF03CC01FF069EC0DF01200000ED7
:101390000101C96F000EC86F000ECB6F000ECA6F3F
:1013A000000ECD6F000ECC6F000ECF6F000ECE6F13
:1013B0000EEC11F0B3EC0FF0EDEC10F0ADEC10F022
:1013C0009DEC10F0000E0001E56F0AEC11F0C80E64
:1013D000156E010E166EBEEC0DF022EF0AF0E5510F
:1013E000020D000EF324D96E010EF420DA6EC8C18E
:1013F000DEFFC9C1DDFFE551020D000EF324D96EF9
:10140000020EF420DA6ECAC1DEFFCBC1DDFFE5516A
:10141000020D000EF324D96E030EF420DA6ECCC157
:10142000DEFFCDC1DDFFE551020D000EF324D96EC4
:10143000040EF420DA6ECEC1DEFFCFC1DDFFE52B56
:10144000000EFA6F0001FA05D8A429EF0AF02BEF7D
:101450000AF033EF0AF0630EE56531EF0AF033EF7F
:101460000AF0EFEF09F0000EE36F3BEF0AF0FBEC40
:101470000FF00001E36FD5EC10F00009D8A443EFA2
:101480000AF045EF0AF037EF0AF0100E0001E319F9
:10149000D8A44DEF0AF04FEF0AF0B1EF0AF0000EBA
:1014A000E46FA4EF0AF0930E786F000E796F010ECF
:1014B0007A6F0E0E7B6FE451020D000EF324D96E8D
:1014C000010EF420DA6EDECF7CF0DDCF7DF0E4514A
:1014D000020D000EF324D96E020EF420DA6EDECF78
:1014E0007EF0DDCF7FF0E451020D000EF324D96EC3
:1014F000030EF420DA6EDECF80F0DDCF81F0E45110
:10150000020D000EF324D96E040EF420DA6EDECF45
:1015100082F0DDCF83F047EC0EF0930E0B6E000EE1
:101520000C6ECDEC0FF0BCEC10F0150E0001926FBC
:101530004B0E916FBE0EE82EFED7912FFCD7922F47
:10154000FAD700F00001E42BE551E45DD8A0ABEF41
:101550000AF0ADEF0AF053EF0AF0000EE36F000E51
:10156000E56FE305D8A4B7EF0AF0B9EF0AF0E5EFAD
:1015700009F0BB0E786F000E796F010E7A6F0E0EB8
:101580007B6FC8C17CF0C9C17DF0CAC17EF0CBC100
:101590007FF0CCC180F0CDC181F0CEC182F0CFC14F
:1015A00083F047EC0EF0BB0E0B6E000E0C6ECDEC14
:1015B0000FF0BCEC10F0E5EF09F03EEF00F0000E8C
:1015C0001B6E19BEE8EF0AF0E6EF0AF0FAEF0AF038
:1015D000191E181E171E161E151E141E131E126C21
:1015E000000E132214221522162217221822192265
:1015F000010E1B6E11BE01EF0BF0FFEF0AF013EFAF
:101600000BF0111E101E0F1E0E1E0D1E0C1E0B1EAB
:101610000A6C000E0B220C220D220E220F22102229
:101620001122010E1B1A20EE1CF0070EDE6AE806DE
:10163000FDE2125013101410151016101710181088
:101640001910D8B426EF0BF028EF0BF07AEF0BF05F
:10165000010E1A6E36EF0BF0D89012361336143690
:10166000153616361736183619361A2A19AE3BEFC4
:101670000BF03DEF0BF02CEF0BF0D8901C361D3625
:101680001E361F36203621362236233612500A5C8B
:1016900013500B5814500C5815500D5816500E5826
:1016A00017500F581850105819501158D8A05BEF08
:1016B0000BF05DEF0BF06EEF0BF012500A5E135063
:1016C0000B5A14500C5A15500D5A16500E5A1750EA
:1016D0000F5A1850105A1950115A1C80D8901932AC
:1016E00018321732163215321432133212321A2EC1
:1016F0003DEF0BF01B50D8B480EF0BF082EF0BF0F6
:1017000092EF0BF0231E221E211E201E1F1E1E1EE6
:101710001D1E1C6C000E1D221E221F2220222122B3
:10172000222223221CC00AF01DC00BF01EC00CF0A8
:101730001FC00DF020C00EF021C00FF022C010F02D
:1017400023C011F01200000E1B6E11BEACEF0BF0A7
:10175000AAEF0BF0BEEF0BF0111E101E0F1E0E1E97
:101760000D1E0C1E0B1E0A6C000E0B220C220D22ED
:101770000E220F2210221122010E1B6E19BEC5EF80
:101780000BF0C3EF0BF0D5EF0BF0191E181E171E50
:10179000161E151E141E131E126C000E1322142288
:1017A0001522162217221822192212501310141073
:1017B00015101610171018101910D8B4E2EF0BF00E
:1017C000E4EF0BF02CEF0CF0010E1A6EF2EF0BF0C1
:1017D000D890123613361436153616361736183694
:1017E00019361A2A19AEF7EF0BF0F9EF0BF0E8EF04
:1017F0000BF012500A5C13500B5814500C58155033
:101800000D5816500E5817500F58185010581950A0
:101810001158D8A00EEF0CF010EF0CF020EF0CF0E8
:1018200012500A5E13500B5A14500C5A15500D5A90
:1018300016500E5A17500F5A1850105A1950115A64
:10184000D890193218321732163215321432133238
:1018500012321A2EF9EF0BF01B50D8B432EF0CF005
:1018600034EF0CF044EF0CF0111E101E0F1E0E1E74
:101870000D1E0C1E0B1E0A6C000E0B220C220D22DC
:101880000E220F22102211220AC00AF00BC00BF008
:101890000CC00CF00DC00DF00EC00EF00FC00FF01C
:1018A00010C010F011C011F01200000E186E000EE2
:1018B000176E000E166E000E156E61EF0CF0104ADA
:1018C000112A10C0F6FF11C0F7FF000EF86E0800D5
:1018D000F550200AD8B46FEF0CF071EF0CF05FEF09
:1018E0000CF010C0F6FF11C0F7FF000EF86E0800F4
:1018F000F5CF12F0F70E1224136E146AFF0E1422A5
:10190000145009E1050E135CD8A089EF0CF08BEFA1
:101910000CF05FEF0CF095EF0CF0000E166E010E60
:10192000156E104A112ACEEF0CF010C0F6FF11C050
:10193000F7FF000EF86E0800F550126E136A135090
:10194000000AD8B4A6EF0CF0CEEF0CF012502B0A20
:10195000D8B491EF0CF0060AD8B48DEF0CF0CEEFAE
:101960000CF017C00AF018C00BF0000E0D6E0A0E36
:101970000C6E7AEC10F010C0F6FF11C0F7FF000EED
:10198000F86E0800F5500A5E000E0B5A300E0A245D
:10199000176E000E0B20186E91EF0CF010C0F6FFC2
:1019A00011C0F7FF000EF86E0800F5CF12F0D00E50
:1019B0001224136E146AFF0E1422145009E10A0E49
:1019C000135CD8A0E6EF0CF0E8EF0CF0B1EF0CF0F0
:1019D00015501610D8A4EFEF0CF0F1EF0CF0FFEF5C
:1019E0000CF017C012F018C013F0121E131E124A8A
:1019F000132A12C010F013C011F003EF0DF017C03E
:101A000010F018C011F012000C500D10D8B40BEFEC
:101A10000DF00DEF0DF016EF0DF00C500D10D8A4D9
:101A200014EF0DF016EF0DF01BEF0DF00A5012EC55
:101A300011F068EF0DF020EE09F00C50D9260D5092
:101A4000DA22DE50DE10D8B428EF0DF02AEF0DF0C8
:101A500045EF0DF020EE09F00C50D9260D50DA229A
:101A600010EE03F00C50E1260D50E222DE50E65C51
:101A7000E650800A126EDE50800A1258D8B043EF4A
:101A80000DF045EF0DF068EF0DF020EE03F00C5077
:101A9000D9260D50DA22DECF0EF0DDCF0FF00CC0CC
:101AA000D9FF0DC0DAFFDECF10F0DDCF11F00E5000
:101AB0001024D96E0F501120DA6E0AC0DFFF20EE1D
:101AC00003F00C50D9260D50DA22DE2A000EDD225A
:101AD000120051A06EEF0DF070EF0DF07AEF0DF0E7
:101AE0001CC013F01DC014F01AC015F01BC016F076
:101AF00033EC0FF01FBE7FEF0DF081EF0DF087EF9D
:101B00000DF01EC023F01FC024F08BEF0DF0000E6F
:101B1000246E000E236E000E226E000E216E9DEFCD
:101B20000DF0000E0B6E200E0A6E1AC00CF01BC0DA
:101B30000DF004EC0DF0214A222A2350215C2250A2
:101B4000800A206E2450800A2058D8A0AAEF0DF0F9
:101B5000ACEF0DF091EF0DF051B0B1EF0DF0B3EF30
:101B60000DF0BDEF0DF01CC013F01DC014F01AC035
:101B700015F01BC016F033EC0FF0120070EC0EF0F5
:101B800015C0D9FF16C0DAFF0EC0DEFF0FC0DDFFA3
:101B900098EC0EF020EE02F01550D9261650DA22FD
:101BA0000EC0DEFF0FC0DDFFE8EC0EF020EE04F00B
:101BB0001550D9261650DA220EC0DEFF0FC0DDFF09
:101BC000C0EC0EF020EE06F01550D9261650DA22A1
:101BD0000EC0DEFF0FC0DDFF1200D9CF03F0DACF59
:101BE00004F00E0137A7F7EF0DF0F9EF0DF0FEEF5F
:101BF0000DF0E3CE05F0055051EC10F0E1EC10F0E3
:101C00000009D8A406EF0EF008EF0EF00AEF0EF070
:101C10000E012D950E0137A510EF0EF012EF0EF00C
:101C200016EF0EF011EC10F00E01E46F04C0DAFFB5
:101C300003C0D9FF5692110074C04BF075C04CF030
:101C400031EF0EF072C060F073C061F04B0E000116
:101C5000626F000E636F76C064F077C065F010ECC1
:101C600007F04BC0F6FF4CC0F7FF000EF86E0800FF
:101C7000F5500009D8A43FEF0EF041EF0EF022EF2F
:101C80000EF0000E0001736F000E726F12007C0EDA
:101C90000001846F000E856F78C086F079C087F0F0
:101CA000000E8A6F000E896F000E906F000E8F6F0E
:101CB000860E726F000E736F7AC074F07BC075F081
:101CC000840E766F000E776F1CEC0EF000018951C8
:101CD0007825D96E8A517921DA6E000EDF6E1200F6
:101CE00000EC11F0520EF5EC10F0B60EF5EC10F021
:101CF00005EC11F0530EF5EC10F0010E55EC0FF061
:101D0000106E1050136E146A000E55EC0FF0106E2A
:101D10001050126E116A13501110136E14501210DD
:101D2000146EFBEC10F013C00EF014C00FF0120094
:101D300000EC11F0520EF5EC10F0B80EF5EC10F0CE
:101D400005EC11F0530EF5EC10F0010E55EC0FF010
:101D5000106E1050136E146A000E55EC0FF0106EDA
:101D60001050126E116A13501110136E145012108D
:101D7000146EFBEC10F013C00EF014C00FF0120044
:101D800000EC11F0520EF5EC10F0B40EF5EC10F082
:101D900005EC11F0530EF5EC10F0010E55EC0FF0C0
:101DA000106E1050136E146A000E55EC0FF0106E8A
:101DB0001050126E116A13501110136E145012103D
:101DC000146EFBEC10F013C00EF014C00FF01200F4
:101DD00000EC11F0520EF5EC10F0BA0EF5EC10F02C
:101DE00005EC11F0530EF5EC10F0010E55EC0FF070
:101DF000106E1050136E146A000E55EC0FF0106E3A
:101E00001050126E116A13501110136E14501210EC
:101E1000146EFBEC10F013C00EF014C00FF01200A3
:101E2000010E0E6E200E0A180B10D8B41AEF0FF028
:101E30001CEF0FF02FEF0FF0F70E0A240C6EFF0EC1
:101E40000B200D6E0D5009E1050E0C5CD8A02BEF98
:101E50000FF02DEF0FF02FEF0FF0000E0E6E0EC0F3
:101E60000AF00B6A1200000E196E000E186E44EF95
:101E70000FF017C00AF00B6A15C00CF016C00DF079
:101E800004EC0DF0184A192A18501324D96E195071
:101E90001420DA6EDF50176E1750D8A452EF0FF0EF
:101EA00054EF0FF039EF0FF012000C6E66EC10F0EB
:101EB0000E01DA8766EC10F0D5CE0DF066EC10F06E
:101EC0000C50D8B466EF0FF06AEF0FF00B6A0B2AD4
:101ED0006BEF0FF00B6A0B3A0B460E01DA510B1841
:101EE000DF0B0B18DA6FDA890D5012001DBE83EF7D
:101EF0000FF01D5006E11C04D8B081EF0FF083EF06
:101F00000FF091EF0FF01CC01EF01DC01FF01E1E41
:101F10001F1E1E4A1F2A1EC01CF01FC01DF095EF79
:101F20000FF01CC01CF01DC01DF0120005EE00F0EB
:101F30003C0EEE6AE806FDE101EED0F0200EEE6AFE
:101F4000E806FDE100EEE6F0150EEE6AE806FDE1BA
:101F500000EE4DF0090EEE6AE806FDE1569056924D
:101F60000001C7EF09F027EC10F0010E0C6E000E17
:101F70008DEC10F03F0E0E6E550EE82EFED70E2E95
:101F8000FCD700F0030E0C6E000E8DEC10F0D50E99
:101F90000C6E010E8DEC10F01200D8EF0FF00BC09C
:101FA000D9FF0CC0DAFFDF503CEC10F00B4A0C2AD2
:101FB0000BC0D9FF0CC0DAFFDF50D8A4E2EF0FF05E
:101FC000E4EF0FF0CFEF0FF01200D00E0A240C6EEA
:101FD000FF0E0B200D6E0D500AE10A0E0C5CD8A00E
:101FE000F4EF0FF0F7EF0FF0010EF8EF0FF0000E27
:101FF0000A6E0B6A1200130E546401EF10F003EF27
:1020000010F005EF10F0000E546E542A54040A6EBE
:102010000B6AE60E0A24D96E000E0B20DA6EDF5032
:1020200012003B0E526417EF10F019EF10F01BEF87
:1020300010F0000E526E522A5204016E026A000E17
:102040000124D96E050E0220DA6EDF5012000E0157
:10205000D951F00B0809D96FD98B9F0ED66F848A9E
:10206000848CA79BA79D1D0E1D6F1E0E1C6F1C0E42
:102070006F6F1B0E706F12000A6E3B0E536443EFBE
:1020800010F045EF10F047EF10F0000E536E000E09
:102090005324D96EDA6A050EDA220AC0DFFF532A0A
:1020A0001200016E130E556458EF10F05AEF10F045
:1020B0005CEF10F0000E556EE60E5524D96EDA6A0C
:1020C000000EDA2201C0DFFF552A12000E01D8B53A
:1020D0006CEF10F06EEF10F066EF10F0DACE0AF051
:1020E0001F0E0A16D8A477EF10F079EF10F066EF04
:1020F00010F012000A500C02F3CF0EF0F4CF0FF0E4
:102100000A500D02F3500F260B500C02F3500F260D
:102110000EC00AF00FC00BF012000D6E00EC11F0B3
:10212000520EF5EC10F00D508009F5EC10F00C504B
:10213000F5EC10F0FBEC10F01200D6501F0B40092C
:10214000D66ED688D650F00B0809D66ED588C20E4A
:10215000D46EF60ED36ED58E1200120E0E01626F83
:10216000110E156FE997E895330EE56F000EE66FD7
:10217000E789E88BE78F1200C9EC10F00009D8B4AA
:10218000C4EF10F0C6EF10F0C8EF10F00E012D856F
:10219000120052505318D8A4D0EF10F0D3EF10F023
:1021A000010ED4EF10F0000E120054505518D8A4B0
:1021B000DCEF10F0DFEF10F0010EE0EF10F0000E9A
:1021C000120052505318D8A4E8EF10F0EBEF10F0C3
:1021D000010EECEF10F0000E12000E01298B1F9B78
:1021E0002D87F28AF28CF28E12000B6E66EC10F0E4
:1021F0000BC0D5FE120066EC10F00E01DA8512005D
:1022000066EC10F00E01DA81120066EC10F00E019F
:10221000DA8312007F8279887E8E120087928198FD
:06222000869E1200120070
:020000040020DA
:10000000FF0FFF0FFF0FFF0FFF0FFF0FFF0FFF0F80
:020000040030CA
:0C000000AAFFFFFF9FFFFFFFFFFFFFFFB5
:00000001FF
