:040000002CEF00F0F1
:06000800578209EF15F01C
:100018005780D8CF06F0E8CF07F0E0CF08F00E0100
:1000280033AB19EF00F01BEF00F024EF00F00B0EDC
:10003800D46EDB0ED36E010E0001756F0E01339B7B
:1000480008C0E0FF07C0E8FF06C0D8FF57901000BF
:1000580003EF14F0000E0001B16F000E346E000EB5
:10006800356EC80E366E420E376E20EE04F0A35180
:10007800D926A451DA22DECFA5F0DDCFA6F020EEF6
:1000880002F0A351D926A451DA22DECFA7F0DDCFA2
:10009800A8F0A3C0D9FFA4C0DAFFDECFA9F0DDCF56
:1000A800AAF0A751A925AB6FA851AA21AC6FA551F9
:1000B800AB25AD6FA651AC21AE6FADC009F0AEC097
:1000C8000AF00B6A0C6A000ED9EC09F009C01BF0A3
:1000D8000AC01CF00BC01DF00CC01EF0A3C0D9FF55
:1000E800A4C0DAFFDECFAFF0DDCFB0F0AFC009F0CB
:1000F800B0C00AF00B6A0C6A000ED9EC09F009C00E
:1001080017F00AC018F00BC019F00CC01AF053EC25
:1001180005F017C030F018C031F019C032F01AC01D
:1001280033F03EEC03F030C049F031C04AF032C041
:100138004BF033C04CF069EC0BF049500001B26F42
:10014800000E346E000E356EC80E366E420E376ED7
:1001580020EE04F0A351D926A451DA22DECFA5F06F
:10016800DDCFA6F020EE02F0A351D926A451DA2261
:10017800DECFA7F0DDCFA8F0A3C0D9FFA4C0DAFF77
:10018800DECFA9F0DDCFAAF0A751A925AB6FA85102
:10019800AA21AC6FA551AB25AD6FA651AC21AE6FAE
:1001A800ADC009F0AEC00AF00B6A0C6A000ED9ECBB
:1001B80009F009C01BF00AC01CF00BC01DF00CC0F0
:1001C8001EF0000120EE02F0A351D926A451DA2234
:1001D800DECFAFF0DDCFB0F0AFC009F0B0C00AF0AD
:1001E8000B6A0C6A000ED9EC09F009C017F00AC0B6
:1001F80018F00BC019F00CC01AF053EC05F017C03A
:1002080030F018C031F019C032F01AC033F03EECAB
:1002180003F030C049F031C04AF032C04BF033C06F
:100228004CF069EC0BF049500001B36F000E346ECE
:10023800000E356EC80E366E420E376E20EE04F094
:10024800A351D926A451DA22DECFA5F0DDCFA6F03E
:1002580020EE02F0A351D926A451DA22DECFA7F06E
:10026800DDCFA8F0A3C0D9FFA4C0DAFFDECFA9F084
:10027800DDCFAAF0A751A925AB6FA851AA21AC6F71
:10028800A551AB25AD6FA651AC21AE6FADC009F03D
:10029800AEC00AF00B6A0C6A000ED9EC09F009C06E
:1002A8001BF00AC01CF00BC01DF00CC01EF00001B2
:1002B80020EE04F0A351D926A451DA22DECFAFF004
:1002C800DDCFB0F0AFC009F0B0C00AF00B6A0C6A1D
:1002D800000ED9EC09F009C017F00AC018F00BC0DD
:1002E80019F00CC01AF053EC05F017C030F018C024
:1002F80031F019C032F01AC033F03EEC03F030C0D0
:1003080049F031C04AF032C04BF033C04CF069ECD0
:100318000BF049500001B46F7651D8B496EF01F054
:1003280098EF01F03AEF03F0490EB2659EEF01F045
:10033800A0EF01F0CCEF01F04D0EB261A6EF01F095
:10034800A8EF01F0CCEF01F0090EB365AEEF01F0B4
:10035800B0EF01F0CCEF01F00D0EB361B6EF01F094
:10036800B8EF01F0CCEF01F00C0EB465BEEF01F070
:10037800C0EF01F0CCEF01F0100EB461C6EF01F050
:10038800C8EF01F0CCEF01F0010EB16F3AEF03F0C6
:10039800230EB265D2EF01F0D4EF01F000EF02F0C6
:1003A800270EB261DAEF01F0DCEF01F000EF02F0A6
:1003B800280EB365E2EF01F0E4EF01F000EF02F080
:1003C8002C0EB361EAEF01F0ECEF01F000EF02F060
:1003D800130EB465F2EF01F0F4EF01F000EF02F054
:1003E800170EB461FAEF01F0FCEF01F000EF02F034
:1003F800020EB16F3AEF03F01C0EB26506EF02F081
:1004080008EF02F034EF02F0230EB2610EEF02F0B3
:1004180010EF02F034EF02F01F0EB36516EF02F092
:1004280018EF02F034EF02F0270EB3611EEF02F06E
:1004380020EF02F034EF02F01E0EB46526EF02F052
:1004480028EF02F034EF02F0260EB4612EEF02F02E
:1004580030EF02F034EF02F0030EB16F3AEF03F021
:10046800310EB2653AEF02F03CEF02F068EF02F0AD
:10047800350EB26142EF02F044EF02F068EF02F08D
:100488001D0EB3654AEF02F04CEF02F068EF02F080
:10049800210EB36152EF02F054EF02F068EF02F060
:1004A800100EB4655AEF02F05CEF02F068EF02F04C
:1004B800140EB46162EF02F064EF02F068EF02F02C
:1004C800040EB16F3AEF03F02F0EB2656EEF02F033
:1004D80070EF02F09CEF02F0330EB26176EF02F09B
:1004E80078EF02F09CEF02F01B0EB3657EEF02F08E
:1004F80080EF02F09CEF02F01F0EB36186EF02F06E
:1005080088EF02F09CEF02F0140EB4658EEF02F053
:1005180090EF02F09CEF02F0180EB46196EF02F033
:1005280098EF02F09CEF02F0050EB16F3AEF03F07E
:100538003A0EB265A2EF02F0A4EF02F0D0EF02F09B
:100548003E0EB261AAEF02F0ACEF02F0D0EF02F07B
:10055800150EB365B2EF02F0B4EF02F0D0EF02F07F
:10056800190EB361BAEF02F0BCEF02F0D0EF02F05F
:100578000F0EB465C2EF02F0C4EF02F0D0EF02F044
:10058800130EB461CAEF02F0CCEF02F0D0EF02F024
:10059800060EB16F3AEF03F0200EB265D6EF02F007
:1005A800D8EF02F004EF03F0240EB261DEEF02F0A0
:1005B800E0EF02F004EF03F0250EB365E6EF02F07A
:1005C800E8EF02F004EF03F0290EB361EEEF02F05A
:1005D800F0EF02F004EF03F0190EB465F6EF02F045
:1005E800F8EF02F004EF03F01D0EB461FEEF02F025
:1005F80000EF03F004EF03F0070EB16F3AEF03F0DA
:100608002A0EB2650AEF03F00CEF03F038EF03F09F
:100618002E0EB26112EF03F014EF03F038EF03F07F
:100628001F0EB3651AEF03F01CEF03F038EF03F069
:10063800230EB36122EF03F024EF03F038EF03F049
:10064800150EB4652AEF03F02CEF03F038EF03F032
:10065800190EB46132EF03F034EF03F038EF03F012
:10066800080EB16F3AEF03F0000EB16F000E766F0F
:10067800B15112003350800B3C6E33503324426E1C
:1006880032AE49EF03F04BEF03F04CEF03F042803A
:100698004250D8B452EF03F054EF03F067EF03F081
:1006A8004228D8A45AEF03F05CEF03F064EF03F09C
:1006B800000E306E000E316E000E326E000E336E7C
:1006C800328E6FEF03F0000E306E000E316E000EAA
:1006D800326E000E336E3750800B3C1A3750372479
:1006E800416E36AE7AEF03F07CEF03F07DEF03F056
:1006F80041804150D8B483EF03F085EF03F098EFC1
:1007080003F04128D8A48BEF03F08DEF03F095EFA9
:1007180003F0000E346E000E356E000E366E000EBD
:10072800376E368EA0EF03F0000E346E000E356E75
:10073800000E366E000E376E4150D8B4A6EF03F0A7
:10074800A8EF03F0B0EF03F04250D8A4AEEF03F0E7
:10075800B0EF03F0BAEF03F0000E306E000E316E0A
:10076800000E326E000E336E52EF05F03650300236
:10077800F3CF47F0F4CF48F047503D6E3E6A3F6AEA
:10078800406A4850436E446A456A466A35503102A9
:10079800F3CF47F0F4CF48F047503D26000E3E22F5
:1007A8003F22402248504326000E4422452246223A
:1007B80034503202F3CF47F0F4CF48F047503D268B
:1007C800000E3E223F22402248504326000E44227B
:1007D800452246223FC040F03EC03FF03DC03EF0BB
:1007E8003D6A34503102F3CF47F0F4CF48F0475018
:1007F8003D2648503E22000E3F22000E4022355032
:100808003002F3CF47F0F4CF48F047503D26485028
:100818003E22000E3F22000E40223FC040F03EC064
:100828003FF03DC03EF03D6A34503002F3CF47F010
:10083800F4CF48F047503D2648503E22000E3F2254
:10084800000E402236503102F3CF47F0F4CF48F083
:100858004750432648504422000E4522000E4622A7
:1008680035503202F3CF47F0F4CF48F047504326D3
:1008780048504422000E4522000E462236503202CD
:10088800F3CF47F0F4CF48F04750386E4850396EF0
:100898003A6A3B6A3AC03BF039C03AF038C039F09E
:1008A800386A38504326395044223A5045223B5042
:1008B80046223DC038F03EC039F03FC03AF040C053
:1008C8003BF0190E6DEF04F0D8903B323A323932D2
:1008D8003832E82E68EF04F0385043263950442265
:1008E8003A5045223B5046223FC040F03EC03FF0C0
:1008F8003DC03EF03D6A415042C038F0396A382662
:10090800000E3922820E3824476EFF0E3920486EB9
:10091800A3EF04F0D890433644364536463640AE09
:1009280098EF04F09AEF04F09BEF04F04380D8901E
:100938003D363E363F3640364706D8A0480645AED7
:10094800A8EF04F0AAEF04F08EEF04F0000E416E59
:1009580040AEB1EF04F0B3EF04F0D7EF04F0FF0EB0
:100968003D14386EFF0E3E14396EFF0E3F143A6E7A
:100978007F0E40143B6E385039103A103B10D8B4F3
:10098800C8EF04F0CAEF04F0CEEF04F0010E416E98
:10099800D7EF04F043A0D3EF04F0D5EF04F0D7EF7E
:1009A80004F0CAEF04F04150D8B4DDEF04F0DFEFF3
:1009B80004F003EF05F0010E4326000E4422452201
:1009C800462246A0EAEF04F0ECEF04F003EF05F04E
:1009D80043C038F044C039F045C03AF046C03BF057
:1009E8003B343B323A323932383238C043F039C0BE
:1009F80044F03AC045F03BC046F0474A482A48BE52
:100A08000EEF05F0485008E14728D8A00EEF05F092
:100A180010EF05F01AEF05F0000E436E000E446E5D
:100A2800800E456E7F0E466E48EF05F048BE27EFF4
:100A380005F0485006E14704D8B025EF05F027EF48
:100A480005F033EF05F0000E436E000E446E000E05
:100A5800456E000E466E000E3C6E48EF05F047C02E
:100A680042F0FF0E4316FF0E44167F0E4516000E89
:100A7800461642A042EF05F044EF05F045EF05F0B9
:100A8800458ED8904230466E3C50461243C030F0F6
:100A980044C031F045C032F046C033F012001A505D
:100AA800800B276E1A501A242E6E19AE5EEF05F0D1
:100AB80060EF05F061EF05F02E802E50D8B467EF97
:100AC80005F069EF05F07EEF05F02E28D8A46FEF4A
:100AD80005F071EF05F079EF05F0000E176E000EC6
:100AE800186E000E196E000E1A6E198E000E1A6E10
:100AF80086EF05F0000E176E000E186E000E196EC8
:100B0800000E1A6E1E50800B271A1E501E242F6EC0
:100B18001DAE91EF05F093EF05F094EF05F02F80EF
:100B28002F50D8B49AEF05F09CEF05F0B1EF05F01F
:100B38002F28D8A4A2EF05F0A4EF05F0ACEF05F03C
:100B4800000E1B6E000E1C6E000E1D6E000E1E6E3B
:100B58001D8E000E1E6EB9EF05F0000E1B6E000E06
:100B68001C6E000E1D6E000E1E6E1B501C101D10FC
:100B78001E10D8A4C2EF05F0C4EF05F0DCEF05F0B5
:100B8800000E176E000E186E000E196E000E1A6E0B
:100B9800800E19127F0E1A1227501A1217C017F05A
:100BA80018C018F019C019F01AC01AF01FEF07F092
:100BB8002E50D8A4E2EF05F0E4EF05F0EEEF05F0D3
:100BC800000E176E000E186E000E196E000E1A6ECB
:100BD8001FEF07F02F502EC01FF0206A1F5E000E77
:100BE800205A7F0E1F24286E000E2020296E17C061
:100BF80023F018C024F019C025F01AC026F0000E02
:100C0800176E000E186E000E196E000E1A6E000E8A
:100C18002A6E000E2B6E000E2C6E000E2D6E000E2E
:100C28002F6E4FEF06F02F50D8B41DEF06F01FEFD0
:100C380006F036EF06F0D8902336243625362636C9
:100C4800D8901736183619361A362DAE2EEF06F00C
:100C580030EF06F031EF06F01780D8902A362B36A1
:100C68002C362D361B50235C1C5024581D502558FB
:100C78001E502658D8A043EF06F045EF06F04EEF79
:100C880006F02D8C1B50235E1C50245A1D50255AEB
:100C98001E50265A2F2A190E2F6455EF06F057EFCB
:100CA80006F017EF06F02350241025102610D8B4AC
:100CB80060EF06F062EF06F07AEF06F02A807AEF2E
:100CC80006F0D8901736183619361A362DAE6FEF4B
:100CD80006F071EF06F072EF06F01780D8902A360A
:100CE8002B362C362D362806D8A0290619AE7FEFCC
:100CF80006F081EF06F065EF06F0000E2F6E2DAEC0
:100D080088EF06F08AEF06F0AEEF06F0FF0E2A1421
:100D18001F6EFF0E2B14206EFF0E2C14216E7F0EFB
:100D28002D14226E1F50201021102210D8B49FEFCE
:100D380006F0A1EF06F0A5EF06F0010E2F6EAEEF5C
:100D480006F017A0AAEF06F0ACEF06F0AEEF06F03B
:100D5800A1EF06F02F50D8B4B4EF06F0B6EF06F0C6
:100D6800DAEF06F0010E1726000E182219221A22B1
:100D78001AA0C1EF06F0C3EF06F0DAEF06F017C0CD
:100D88001FF018C020F019C021F01AC022F0223438
:100D98002232213220321F321FC017F020C018F033
:100DA80021C019F022C01AF0284A292A29BEE5EFE5
:100DB80006F0295008E12828D8A0E5EF06F0E7EF6B
:100DC80006F0F2EF06F0000E296E2868000E176E86
:100DD800000E186E000E196E000E1A6E29BEFFEF77
:100DE80006F0295006E12804D8B0FDEF06F0FFEF21
:100DF80006F00DEF07F0000E296E000E286E000EAB
:100E0800176E000E186E000E196E000E1A6E000E88
:100E1800276E28C02EF02EA014EF07F016EF07F06B
:100E280019EF07F0198E1AEF07F0199ED8902E3097
:100E38001A6ED0EF05F01200000E0001BC6F000E14
:100E4800BB6F000EBE6F000EBD6F000EC06F000EB0
:100E5800BF6F000EC26F000EC16F59EC15F063EC46
:100E680014F04AEC15F01AEC15F0000E0A6E630E39
:100E7800096E62EC10F0000E0001C36F010EC46F22
:100E8800010EC56FAA0EC86F0F0EC96FA60ECA6FE6
:100E98000F0ECB6FBCCFC6F0C76B000ECC6F010E28
:100EA800CD6F010ECE6F250ED16F0F0ED26F210EB2
:100EB800D36F0F0ED46FBCCFCFF0D06B000EBA6FCC
:100EC800000EB76F8EB46BEF07F06DEF07F066EFAB
:100ED80007F0A5EC15F0000E0001B96F000EB86F11
:100EE800B4EF07F0C30E1C6E000E1D6ECC0E1E6E06
:100EF800000E1F6E64EC0CF0BB0E146E000E156E27
:100F0800E4EC12F0BB0E0001A36F000EA46F2EECF0
:100F180000F00001BA6FB84BB92B410EC15D060E47
:100F2800C259D8A09AEF07F09CEF07F0A8EF07F096
:100F3800D00EC15D070EC259D8B0A5EF07F0A7EFD4
:100F480007F0A8EF07F0B72B640EB765AEEF07F010
:100F5800B0EF07F0B4EF07F0010E746F080EBA6F28
:100F6800BA51D8B4BAEF07F0BCEF07F076EF07F044
:100F7800BA51D8B4C2EF07F0C4EF07F021EF08F078
:100F8800080EBA19D8B4CBEF07F0CDEF07F021EF70
:100F980008F0FA0EB825096EFF0EB9210A6E560E32
:100FA8000B6E000E0C6E3C0E0D6E010E0E6E7DEC7F
:100FB80014F08086EEEF07F0C30E1C6E000E1D6E57
:100FC800CC0E1E6E000E1F6E3FEC0EF00001B8072F
:100FD800D8A0B9070001B851B911D8A4F6EF07F0A5
:100FE800F8EF07F0E0EF07F0090E0001B66F1E0EEC
:100FF800B56FE40EE82EFED7B52FFCD7B62FFAD77B
:1010080000F080960001BA51B56FB66BB5C035F0E7
:10101800B6C036F0C30E376E000E386ECC0E396E81
:10102800000E3A6E97EC08F0000E0001BA6F000E41
:10103800766F000EB76F6FEF07F0080EBA19D8A4D5
:1010480028EF08F02AEF08F06FEF07F07451D8B4D2
:1010580030EF08F032EF08F04AEF08F0B751B85D0A
:10106800B56F000EB959B66FFA0EB525096EFF0EA9
:10107800B6210A6E560E0B6E000E0C6E3C0E0D6EEF
:10108800010E0E6E7DEC14F05AEF08F0FA0EB8253A
:10109800096EFF0EB9210A6E560E0B6E000E0C6E0D
:1010A8003C0E0D6E010E0E6E7DEC14F07C8E6BEF17
:1010B80008F0C30E1C6E000E1D6ECC0E1E6E000EC8
:1010C8001F6E3FEC0EF00001B807D8A0B907000169
:1010D800B851B911D8A473EF08F075EF08F05DEFB7
:1010E80008F0090E0001B66F1E0EB56FE40EE82E6B
:1010F800FED7B52FFCD7B62FFAD700F0C30E3B6E3C
:10110800000E3C6ECC0E3D6E000E3E6EC9EC0DF02E
:101118007C9E000E0001BA6F000EB76F03006FEFE0
:1011280007F02CEF00F035043610D8A49EEF08F035
:10113800A0EF08F0BEEF08F037C027F038C028F05D
:1011480039C029F03AC02AF0B6EC11F07CBEAFEFF6
:1011580008F0B1EF08F0D8EF09F0550E096E000E4F
:101168000A6E770E0B6E000E0C6E020EE6EC14F093
:10117800D8EF09F0020E35183610D8A4C6EF08F0DB
:10118800C8EF08F0E6EF08F037C027F038C028F0BD
:1011980039C029F03AC02AF0F9EC11F07CBED7EF3B
:1011A80008F0D9EF08F0D8EF09F0550E096E000ED7
:1011B8000A6E770E0B6E000E0C6E010EE6EC14F044
:1011C800D8EF09F0030E35183610D8A4EEEF08F062
:1011D800F0EF08F00EEF09F037C027F038C028F01C
:1011E80039C029F03AC02AF05BEC0FF07CBEFFEF63
:1011F80008F001EF09F0D8EF09F0550E096E000E5E
:101208000A6E770E0B6E000E0C6E030EE6EC14F0F1
:10121800D8EF09F0040E35183610D8A416EF09F0E7
:1012280018EF09F036EF09F037C027F038C028F07A
:1012380039C029F03AC02AF0AAEC10F07CBE27EF9A
:1012480009F029EF09F0D8EF09F0550E096E000EE4
:101258000A6E770E0B6E000E0C6E090EE6EC14F09B
:10126800D8EF09F0050E35183610D8A43EEF09F06E
:1012780040EF09F05EEF09F037C027F038C028F0DA
:1012880039C029F03AC02AF0EDEC10F07CBE4FEFDF
:1012980009F051EF09F0D8EF09F0550E096E000E6C
:1012A8000A6E770E0B6E000E0C6E0A0EE6EC14F04A
:1012B800D8EF09F0060E35183610D8A466EF09F0F5
:1012C80068EF09F086EF09F037C02CF038C02DF030
:1012D80039C02EF03AC02FF030EC11F07CBE77EF19
:1012E80009F079EF09F0D8EF09F0550E096E000EF4
:1012F8000A6E770E0B6E000E0C6E070EE6EC14F0FD
:10130800D8EF09F0070E35183610D8A48EEF09F07B
:1013180090EF09F0AEEF09F037C02CF038C02DF08F
:1013280039C02EF03AC02FF073EC11F07CBE9FEF5D
:1013380009F0A1EF09F0D8EF09F0550E096E000E7B
:101348000A6E770E0B6E000E0C6E060EE6EC14F0AD
:10135800D8EF09F0090E35183610D8A4B6EF09F001
:10136800B8EF09F0C4EF09F037C02EF038C02FF0FD
:1013780039C030F03AC031F0A9EC0EF0D8EF09F0DE
:101388000A0E35183610D8A4CCEF09F0CEEF09F0C4
:10139800D8EF09F037C02EF038C02FF039C030F040
:1013A8003AC031F002EC0FF01200116E1150D8B4AF
:1013B800E0EF09F0E2EF09F004EF0AF00CBEE9EF04
:1013C80009F0E7EF09F004EF0AF009C00DF00AC0D0
:1013D8000EF00BC00FF00CC010F00D1E0E1E0F1EED
:1013E800101E0D2A000E0E220F2210220DC013F01F
:1013F8000EC014F00FC015F010C016F00CEF0AF074
:1014080009C013F00AC014F00BC015F00CC016F098
:1014180009500A100B100C10D8A415EF0AF017EF9A
:101428000AF021EF0AF0000E096E000E0A6E000E97
:101438000B6E000E0C6EB2EF0AF0960E126E2BEFCA
:101448000AF0122AD8901632153214321332000ECE
:1014580013140D6E000E14140E6E000E15140F6E7C
:10146800FE0E1614106E0D500E100F101010D8A48A
:1014780040EF0AF042EF0AF025EF0AF050EF0AF0C9
:10148800122A010E1326000E142215221622D890B5
:101498001632153214321332000E13140D6E000E6C
:1014A80014140E6E000E15140F6EFF0E1614106E27
:1014B8000D500E100F101010D8A465EF0AF067EF4A
:1014C8000AF044EF0AF06FEF0AF01206D8901336CC
:1014D80014361536163615BE74EF0AF076EF0AF094
:1014E8007EEF0AF0020E12607CEF0AF07EEF0AF03F
:1014F80069EF0AF012B083EF0AF085EF0AF086EF81
:101508000AF0159ED890123212C00DF00E6A0F6ABA
:10151800106A0DC010F00F6A0E6A0D6A0D50131292
:101528000E5014120F501512105016121150D8B434
:10153800A0EF0AF0A2EF0AF0AAEF0AF00CBEA9EF9A
:101548000AF0A7EF0AF0AAEF0AF0168E13C009F006
:1015580014C00AF015C00BF016C00CF0120020EEF3
:1015680002F01650D9261750DA22DF50D8B4BFEF50
:101578000AF0C1EF0AF0F5EF0AF016C0D9FF17C05C
:10158800DAFFDF50096E0A6A09BE0A0620EE03F088
:101598001650D9261750DA22DECF0BF0DDCF0CF02B
:1015A800D3EC14F009C00FF00AC010F0000E126E50
:1015B800640E116E3CEC12F020EE03F01650D926A2
:1015C8001750DA22DF50186E0F50185C1A6E20EE92
:1015D80003F01650D9261750DA22DF501B6E18EF89
:1015E8000BF0000E1A6E16C0D9FF17C0DAFFDF50D5
:1015F800096E0A6A09BE0A0620EE03F01650D926BB
:101608001750DA22DECF0BF0DDCF0CF0D3EC14F05C
:1016180009C00FF00AC010F0000E126E640E116EB1
:101628003CEC12F00F501B6E20EE01F01650D9263C
:101638001750DA22DF50D8B424EF0BF026EF0BF066
:1016480048EF0BF020EE05F01650D9261750DA2295
:10165800DECF18F0DDCF19F018C0D9FF19C0DAFFB6
:101668001AC0DFFF20EE07F01650D9261750DA22ED
:10167800DECF18F0DDCF19F018C0D9FF19C0DAFF96
:101688001BC0DFFF68EF0BF020EE05F01650D926DF
:101698001750DA22DECF18F0DDCF19F018C0D9FFC5
:1016A80019C0DAFF1BC0DFFF20EE07F01650D9265D
:1016B8001750DA22DECF18F0DDCF19F018C0D9FFA5
:1016C80019C0DAFF1AC0DFFF12004B344C344E6EDB
:1016D8004E50D8A472EF0BF074EF0BF07EEF0BF0C6
:1016E800000E496E000E4A6E000E4B6E000E4C6ED8
:1016F800ECEF0BF049C09FF04AC0A0F04BC0A1F03E
:101708004CC0A2F0200E8FEF0BF00001D890A2334E
:10171800A133A0339F33E82E89EF0BF09F514D6E14
:101728004B8EFF0E4916FF0E4A16FF0E4B16000E83
:101738004C16960E4E5E4EBEA6EF0BF0A4EF0BF0C5
:10174800BCEF0BF04E50800A970FD8B0AEEF0BF0FD
:10175800B0EF0BF0B2EF0BF074EF0BF0D8904C3207
:101768004B324A3249324E3EB2EF0BF0D4EF0BF017
:101778001F0E4E64C2EF0BF0C4EF0BF0CCEF0BF072
:1017880074EF0BF0D89049364A364B364C364E0635
:101798004E50D8A4D2EF0BF0D4EF0BF0C6EF0BF0FD
:1017A8004D50D8B4DAEF0BF0DCEF0BF0E4EF0BF0B0
:1017B8004C1E4B1E4A1E496C000E4A224B224C22DC
:1017C80049C049F04AC04AF04BC04BF04CC04CF0FD
:1017D800120020EE01F01C50D9261D50DA22010E0D
:1017E800DF6E20EE02F01C50D9261D50DA22000EC2
:1017F800DF6E20EE01F01E50D9261F50DA22000EAF
:10180800DF6E20EE02F01E50D9261F50DA22000E9D
:10181800DF6E1CC0D9FF1DC0DAFFDF50800A410F00
:10182800D8A019EF0CF01BEF0CF021EF0CF01CC046
:10183800D9FF1DC0DAFF3E0EDF6E1EC0D9FF1FC0E4
:10184800DAFFDF50800A410FD8A02DEF0CF02FEF00
:101858000CF035EF0CF01EC0D9FF1FC0DAFF3E0EAA
:10186800DF6E1CC0D9FF1DC0DAFFDF500A0F1CC095
:10187800D9FF1DC0DAFFDF6E1EC0D9FF1FC0DAFF17
:10188800DF500A0F1EC0D9FF1FC0DAFFDF6E1CC071
:1018980016F01DC017F0B3EC0AF01EC016F01FC0FA
:1018A80017F0B3EC0AF0020E216EA00E206E920E15
:1018B800E82EFED7202EFCD7212EFAD700D0120012
:1018C80020EE01F01C50D9261D50DA22010EDF6EE1
:1018D80020EE02F01C50D9261D50DA22000EDF6ED1
:1018E80020EE01F01E50D9261F50DA22010EDF6EBD
:1018F80020EE02F01E50D9261F50DA22000EDF6EAD
:101908001CC0D9FF1DC0DAFFDF50800A570FD8A0CE
:1019180090EF0CF092EF0CF098EF0CF01CC0D9FF90
:101928001DC0DAFF280EDF6E1EC0D9FF1FC0DAFF08
:10193800DF50800A540FD8A0A4EF0CF0A6EF0CF0EB
:10194800ACEF0CF01EC0D9FF1FC0DAFF2B0EDF6E04
:101958001CC0D9FF1DC0DAFFDF50050F1CC0D9FF1E
:101968001DC0DAFFDF6E1EC0D9FF1FC0DAFFDF50CF
:10197800070F1EC0D9FF1FC0DAFFDF6E1CC016F0AC
:101988001DC017F0B3EC0AF01EC016F01FC017F008
:10199800B3EC0AF0050E216E0F0E206EF10EE82E44
:1019A800FED7202EFCD7212EFAD700F0120020EE09
:1019B80001F01C50D9261D50DA22000EDF6E20EEF1
:1019C80002F01C50D9261D50DA22000EDF6E20EEE0
:1019D80001F01E50D9261F50DA22010EDF6E20EECC
:1019E80002F01E50D9261F50DA22000EDF6E1CC0EE
:1019F800D9FF1DC0DAFFDF50800A410FD8A007EFDA
:101A08000DF009EF0DF00FEF0DF01CC0D9FF1DC050
:101A1800DAFF3E0EDF6E1EC0D9FF1FC0DAFFDF50AF
:101A2800800A410FD8A01BEF0DF01DEF0DF023EF3A
:101A38000DF01EC0D9FF1FC0DAFF3E0EDF6E1CC0BE
:101A4800D9FF1DC0DAFFDF500A0F1CC0D9FF1DC027
:101A5800DAFFDF6E1EC0D9FF1FC0DAFFDF500A0FA2
:101A68001EC0D9FF1FC0DAFFDF6E1CC016F01DC0F4
:101A780017F0B3EC0AF01EC016F01FC017F0B3EC55
:101A88000AF0020E216EA00E206E920EE82EFED7EE
:101A9800202EFCD7212EFAD700D0120020EE01F01C
:101AA8001C50D9261D50DA22000EDF6E20EE02F0FF
:101AB8001C50D9261D50DA22000EDF6E20EE01F0F0
:101AC8001E50D9261F50DA22000EDF6E20EE02F0DB
:101AD8001E50D9261F50DA22000EDF6E1CC0D9FF17
:101AE8001DC0DAFFDF50800A590FD8A07EEF0DF035
:101AF80080EF0DF086EF0DF01CC0D9FF1DC0DAFF96
:101B0800260EDF6E1EC0D9FF1FC0DAFFDF50800A25
:101B1800510FD8A092EF0DF094EF0DF09AEF0DF061
:101B28001EC0D9FF1FC0DAFF2E0EDF6E1CC0D9FF02
:101B38001DC0DAFFDF50050F1CC0D9FF1DC0DAFF3A
:101B4800DF6E1EC0D9FF1FC0DAFFDF50080F1EC0AE
:101B5800D9FF1FC0DAFFDF6E1CC016F01DC017F0DA
:101B6800B3EC0AF01EC016F01FC017F0B3EC0AF071
:101B7800050E216E0F0E206EF10EE82EFED7202ED8
:101B8800FCD7212EFAD700F012000E0129933BC092
:101B980027F03CC028F03DC029F03EC02AF05BEC9D
:101BA8000FF036EF0EF0000E456E000E446E560E26
:101BB800096E000E0A6E3C0E0B6E010E0C6E47ECA1
:101BC80014F009C041F00AC042F0F7EF0DF03BC035
:101BD8001CF03CC01DF03DC01EF03EC01FF064EC80
:101BE8000CF0444A452A4150445C42504558D8A01C
:101BF80000EF0EF002EF0EF0EBEF0DF011EF0EF02C
:101C08003BC01CF03CC01DF03DC01EF03EC01FF0A4
:101C18003FEC0EF04406D8A0450644504510D8A421
:101C280018EF0EF01AEF0EF004EF0EF0550E096ED5
:101C3800000E0A6E770E0B6E000E0C6EF8EC14F0A8
:101C4800436E43503F6E406A3FC035F040C036F0A7
:101C58003BC037F03CC038F03DC039F03EC03AF0E8
:101C680097EC08F05650D8A43CEF0EF03EEF0EF07B
:101C7800D7EF0DF0120020EE02F01C50D9261D50AF
:101C8800DA22010EDF6E20EE02F01E50D9261F5018
:101C9800DA22010EDF6E1CC0D9FF1DC0DAFF000E6C
:101CA800DBBE5BEF0EF059EF0EF061EF0EF01CC0DB
:101CB800D9FF1DC0DAFF000EDF6E1EC0D9FF1FC09E
:101CC800DAFF000EDBBE6DEF0EF06BEF0EF073EF78
:101CD8000EF01EC0D9FF1FC0DAFF000EDF6E1CC059
:101CE800D9FF1DC0DAFFDF50FB0F1CC0D9FF1DC094
:101CF800DAFFDF6E1EC0D9FF1FC0DAFFDF50FB0F0F
:101D08001EC0D9FF1FC0DAFFDF6E1CC0D9FF1DC07F
:101D1800DAFF000EDF6E1EC0D9FF1FC0DAFF000E0B
:101D2800DF6E1CC016F01DC017F0B3EC0AF01EC021
:101D380016F01FC017F0B3EC0AF0D00E206ECA0ED2
:101D4800E82EFED7202EFCD71200000E346E2EC0CF
:101D580027F02FC028F030C029F031C02AF0B6ECA7
:101D680011F0050E336E0F0E326EF10EE82EFED70F
:101D7800322EFCD7332EFAD700F0CEEF0EF02EC05D
:101D88001CF02FC01DF030C01EF031C01FF064ECF5
:101D98000CF0342A2C0E3464D4EF0EF0D6EF0EF08B
:101DA800C3EF0EF0E3EF0EF02EC01CF02FC01DF0B5
:101DB80030C01EF031C01FF03FEC0EF03406345036
:101DC800D8A4E9EF0EF0EBEF0EF0D8EF0EF0050E09
:101DD800336E0F0E326EF10EE82EFED7322EFCD780
:101DE800332EFAD700F02EC027F02FC028F030C0CD
:101DF80029F031C02AF05BEC0FF01200000E346EAF
:101E08002EC027F02FC028F030C029F031C02AF0AA
:101E1800F9EC11F0050E336E0F0E326EF10EE82E4E
:101E2800FED7322EFCD7332EFAD700F027EF0FF06B
:101E38002EC01CF02FC01DF030C01EF031C01FF0A6
:101E480064EC0CF0342A2C0E34642DEF0FF02FEFD5
:101E58000FF01CEF0FF03CEF0FF02EC01CF02FC05E
:101E68001DF030C01EF031C01FF03FEC0EF03406FC
:101E78003450D8A442EF0FF044EF0FF031EF0FF0D9
:101E8800050E336E0F0E326EF10EE82EFED7322E8F
:101E9800FCD7332EFAD700F02EC027F02FC028F039
:101EA80030C029F031C02AF05BEC0FF01200000EB0
:101EB8002D6E6AEF0FF027C01CF028C01DF029C056
:101EC8001EF02AC01FF052EC0DF02D2A0F0E2D64C3
:101ED80070EF0FF072EF0FF05FEF0FF07FEF0FF082
:101EE80027C01CF028C01DF029C01EF02AC01FF012
:101EF8003FEC0EF02D062D50D8A485EF0FF087EF9C
:101F08000FF074EF0FF0050E2C6E0F0E2B6EF10E06
:101F1800E82EFED72B2EFCD72C2EFAD700F027C0A0
:101F280022F028C023F029C024F02AC025F00BECA9
:101F380010F0050E2C6E0F0E2B6EF10EE82EFED74C
:101F48002B2EFCD72C2EFAD700F027C022F028C061
:101F580023F029C024F02AC025F00BEC10F0120061
:101F6800000E266EC3EF0FF022C01CF023C01DF038
:101F780024C01EF025C01FF0EDEC0BF0262A0E0E33
:101F88002664C9EF0FF0CBEF0FF0B8EF0FF0D8EFE2
:101F98000FF022C01CF023C01DF024C01EF025C085
:101FA8001FF03FEC0EF026062650D8A4DEEF0FF007
:101FB800E0EF0FF0CDEF0FF0EDEF0FF022C01CF0C7
:101FC80023C01DF024C01EF025C01FF0EDEC0BF05F
:101FD800262A0E0E2664F3EF0FF0F5EF0FF0E2EF6E
:101FE8000FF002EF10F022C01CF023C01DF024C037
:101FF8001EF025C01FF03FEC0EF026062650D8A490
:1020080008EF10F00AEF10F0F7EF0FF01200000ED3
:10201800266E1AEF10F022C01CF023C01DF024C059
:102028001EF025C01FF0DBEC0CF0262A0F0E2664EC
:1020380020EF10F022EF10F00FEF10F02FEF10F05C
:1020480022C01CF023C01DF024C01EF025C01FF0C4
:102058003FEC0EF026062650D8A435EF10F037EFE7
:1020680010F024EF10F044EF10F022C01CF023C051
:102078001DF024C01EF025C01FF0DBEC0CF0262A52
:102088000E0E26644AEF10F04CEF10F039EF10F006
:1020980059EF10F022C01CF023C01DF024C01EF020
:1020A80025C01FF03FEC0EF026062650D8A45FEF9F
:1020B80010F061EF10F04EEF10F012007D9485944F
:1020C8007D9885987B9E839E7F9C879C050E0E013C
:1020D800746F060E766F070E696F080E886FBD5015
:1020E8008F0B4009BD6EE00EBE16BF50F00B010904
:1020F800BF6E09C0BCFFBD8E000EAA6E000EA66E94
:10210800000E0F01256F000E216FFC0EAD16F30EA9
:10211800AD16CF0EAD163F0EAD16AB88AB50F00B1B
:102128000C09AB6EAB8EA788A750F00B0C09A76EF5
:10213800A78E26892651F00B0C09266F268F228937
:102148002251F00B0C09226F228F1200000E2D6E07
:10215800B9EF10F027C01CF028C01DF029C01EF0F0
:102168002AC01FF052EC0DF02D2A2C0E2D64BFEF63
:1021780010F0C1EF10F0AEEF10F0CEEF10F027C066
:102188001CF028C01DF029C01EF02AC01FF03FEC2B
:102198000EF02D062D50D8A4D4EF10F0D6EF10F085
:1021A800C3EF10F0050E2C6E0F0E2B6EF10EE82EFD
:1021B800FED72B2EFCD72C2EFAD700F027C022F002
:1021C80028C023F029C024F02AC025F0B4EC0FF071
:1021D8001200000E2D6EFCEF10F027C01CF028C076
:1021E8001DF029C01EF02AC01FF052EC0DF02D2A58
:1021F8002C0E2D6402EF11F004EF11F0F1EF10F046
:1022080011EF11F027C01CF028C01DF029C01EF0E6
:102218002AC01FF03FEC0EF02D062D50D8A417EF62
:1022280011F019EF11F006EF11F0050E2C6E0F0EDC
:102238002B6EF10EE82EFED72B2EFCD72C2EFAD7BC
:1022480000F027C022F028C023F029C024F02AC0BB
:1022580025F00BEC10F01200000E326E3FEF11F07B
:102268002CC01CF02DC01DF02EC01EF02FC01FF07A
:1022780052EC0DF0322A0F0E326445EF11F047EFA1
:1022880011F034EF11F054EF11F02CC01CF02DC0F8
:102298001DF02EC01EF02FC01FF03FEC0EF03206CE
:1022A8003250D8A45AEF11F05CEF11F049EF11F059
:1022B800050E316E0F0E306EF10EE82EFED7302E61
:1022C800FCD7312EFAD700F02CC027F02DC028F00B
:1022D8002EC029F02FC02AF076EC12F01200000E62
:1022E800326E82EF11F02CC01CF02DC01DF02EC0F4
:1022F8001EF02FC01FF052EC0DF0322A0F0E326480
:1023080088EF11F08AEF11F077EF11F097EF11F0E5
:102318002CC01CF02DC01DF02EC01EF02FC01FF0C9
:102328003FEC0EF032063250D8A49DEF11F09FEF2B
:1023380011F08CEF11F0050E316E0F0E306EF10EAC
:10234800E82EFED7302EFCD7312EFAD700F02CC05D
:1023580027F02DC028F02EC029F02FC02AF0ADECB0
:1023680012F01200000E2D6EC5EF11F027C01CF000
:1023780028C01DF029C01EF02AC01FF052EC0DF035
:102388002D2A0F0E2D64CBEF11F0CDEF11F0BAEF1F
:1023980011F0DAEF11F027C01CF028C01DF029C099
:1023A8001EF02AC01FF03FEC0EF02D062D50D8A4C9
:1023B800E0EF11F0E2EF11F0CFEF11F0050E2C6E07
:1023C8000F0E2B6EF10EE82EFED72B2EFCD72C2EDF
:1023D800FAD700F027C022F028C023F029C024F043
:1023E8002AC025F0B4EC0FF01200000E2D6E08EF95
:1023F80012F027C01CF028C01DF029C01EF02AC00A
:102408001FF052EC0DF02D2A0F0E2D640EEF12F076
:1024180010EF12F0FDEF11F01DEF12F027C01CF0C5
:1024280028C01DF029C01EF02AC01FF03FEC0EF096
:102438002D062D50D8A423EF12F025EF12F012EF3D
:1024480012F0050E2C6E0F0E2B6EF10EE82EFED735
:102458002B2EFCD72C2EFAD700F027C022F028C04C
:1024680023F029C024F02AC025F00BEC10F012004C
:10247800000E146E000E136E11501210D8B447EFF0
:1024880012F049EF12F071EF12F0010E156E51EFD4
:1024980012F0D89011361236152A12AE56EF12F0F5
:1024A80058EF12F04DEF12F0D89013361436115041
:1024B8000F5C12501058D8A064EF12F066EF12F0BB
:1024C8006BEF12F011500F5E1250105A1380D89013
:1024D80012321132152E58EF12F013C00FF014C03B
:1024E80010F0120027C022F028C023F029C024F0E1
:1024F8002AC025F0B4EC0FF0000E2B6E8FEF12F00F
:1025080027C01CF028C01DF029C01EF02AC01FF0EB
:10251800EDEC0BF02B2A0E0E2B6495EF12F097EFD3
:1025280012F084EF12F0A4EF12F027C01CF028C0BC
:102538001DF029C01EF02AC01FF03FEC0EF02B063C
:102548002B50D8A4AAEF12F0ACEF12F099EF12F0CA
:10255800120027C022F028C023F029C024F02AC086
:1025680025F00BEC10F0000E2B6EC6EF12F027C012
:102578001CF028C01DF029C01EF02AC01FF0DBEC9B
:102588000CF02B2A0F0E2B64CCEF12F0CEEF12F0CA
:10259800BBEF12F0DBEF12F027C01CF028C01DF0D3
:1025A80029C01EF02AC01FF03FEC0EF02B062B505E
:1025B800D8A4E1EF12F0E3EF12F0D0EF12F012001E
:1025C80013EC13F014C0D9FF15C0DAFF0DC0DEFFFD
:1025D8000EC0DDFF3BEC13F020EE02F01450D926BC
:1025E8001550DA220DC0DEFF0EC0DDFF8BEC13F0B4
:1025F80020EE04F01450D9261550DA220DC0DEFF63
:102608000EC0DDFF63EC13F020EE06F01450D9265F
:102618001550DA220DC0DEFF0EC0DDFF120096EC69
:1026280015F0520E80EC15F0B60E80EC15F08CEC1F
:1026380015F0530E80EC15F0010E26EC14F00F6E19
:102648000F50126E136A000E26EC14F00F6E0F5026
:10265800116E106A12501010126E13501110136E72
:1026680091EC15F012C00DF013C00EF0120096ECAC
:1026780015F0520E80EC15F0B80E80EC15F08CECCD
:1026880015F0530E80EC15F0010E26EC14F00F6EC9
:102698000F50126E136A000E26EC14F00F6E0F50D6
:1026A800116E106A12501010126E13501110136E22
:1026B80091EC15F012C00DF013C00EF0120096EC5C
:1026C80015F0520E80EC15F0B40E80EC15F08CEC81
:1026D80015F0530E80EC15F0010E26EC14F00F6E79
:1026E8000F50126E136A000E26EC14F00F6E0F5086
:1026F800116E106A12501010126E13501110136ED2
:1027080091EC15F012C00DF013C00EF0120096EC0B
:1027180015F0520E80EC15F0BA0E80EC15F08CEC2A
:1027280015F0530E80EC15F0010E26EC14F00F6E28
:102738000F50126E136A000E26EC14F00F6E0F5035
:10274800116E106A12501010126E13501110136E81
:1027580091EC15F012C00DF013C00EF01200130E1C
:102768000B6E000E2AEC15F03F0E0D6E550EE82E7E
:10277800FED70D2EFCD700F0040E0B6E0C0E2AECC3
:1027880015F04FC00BF0040E2AEC15F050500B6EEC
:10279800050E2AEC15F0D5C00BF0060E2AEC15F044
:1027A8000001D6510B6E070E2AEC15F01200130E1D
:1027B800036E000E3AEC15F03F0E056E550EE82E2E
:1027C800FED7052EFCD700F0040E036E0C0E3AEC73
:1027D80015F04FC003F0040E3AEC15F05050036E9C
:1027E800050E3AEC15F0D5C003F0060E3AEC15F0DC
:1027F8000001D651036E070E3AEC15F01200520E86
:10280800F66E2B0EF76E000EF86E0900F5CFD5F0B8
:102818000900F5CFD6F001EE00F08C0EEE6AE8065E
:10282800FDE100EE60F03F0EEE6AE806FDE100EE25
:102838004FF0080EEE6AE806FDE157905792000146
:1028480020EF07F00B6EABEC14F00E01DA87ABEC5F
:1028580014F0D5CE0CF0ABEC14F00B50D8B437EF25
:1028680014F03BEF14F00A6A0A2A3CEF14F00A6AE3
:102878000A3A0A460E01DA510A18DF0B0A18DA6F0B
:10288800DA890C50120009C0D9FF0AC0DAFFDF0646
:10289800DF500D6E0D50020DF3CF0EF0F4CF0FF098
:1028A8000E500B24D96E0F500C20DA6EDECF10F0CC
:1028B800DDCF11F010C009F011C00AF0120096EC3B
:1028C80014F0010E0B6E000E2AEC15F03F0E0D6E83
:1028D800550EE82EFED70D2EFCD700F0030E0B6E1A
:1028E800000E2AEC15F0D50E0B6E010E2AEC15F031
:1028F80012000BC0D9FF0CC0DAFFDFCF0FF0010EBA
:10290800DF260F50020DF3CF10F0F4CF11F0105066
:102918000D24D96E11500E20DA6E09C0DEFF0AC0F0
:10292800DDFF12000E01D951F00B0809D96FD98BC0
:102938009F0ED66F848A848CA79BA79D1D0E1D6F42
:102948001E0E1C6F1C0E6F6F1B0E706F12000E0197
:10295800D8B5B1EF14F0B3EF14F0ABEF14F0DACE52
:1029680009F01F0E0916D8A4BCEF14F0BEEF14F03E
:10297800ABEF14F012000E01D8B5C5EF14F0C7EF95
:1029880014F0BFEF14F0DACE01F01F0E0116D8A430
:10299800D0EF14F0D2EF14F0BFEF14F0120009508A
:1029A8000B02F3CF0DF0F4CF0EF009500C02F350E8
:1029B8000E260A500B02F3500E260DC009F00EC069
:1029C8000AF012000E6E09C0D9FF0AC0DAFFDFCF85
:1029D8000DF0010EDF260D500B24D96E000E0C20D1
:1029E800DA6E0EC0DFFF120009C0D9FF0AC0DAFF95
:1029F800DF06DF500D6E0D500B24D96E000E0C2033
:102A0800DA6EDF500E6E0E5012000E0133A30FEF78
:102A180015F011EF15F018EF15F0010E0001766FA3
:102A280073EC15F00E01339357921100D6501F0B1B
:102A38004009D66ED688D650F00B0809D66ED588D0
:102A48000B0ED46EDB0ED36ED58E12000C6E96EC88
:102A580015F0520E80EC15F00C50800980EC15F042
:102A68000B5080EC15F091EC15F01200046EA0EC00
:102A780015F0520E86EC15F00450800986EC15F01E
:102A8800035086EC15F09BEC15F0120082820E01C3
:102A98009A9329831F83F292298B1F9B2D8766ECBB
:102AA80015F0F28AF28CF28E120087928198869E37
:102AB800809688967C9E849E868486860E01B49530
:102AC800B497120096EC15F0520E80EC15F0E60E55
:102AD80080EC15F091EC15F0B3EC13F01200A0ECBB
:102AE80015F0520E86EC15F0E60E86EC15F09BEC10
:102AF80015F0DBEC13F012000A6EABEC14F00AC010
:102B0800D5FE1200026EBFEC14F002C0D5FE120012
:102B1800ABEC14F00E01DA831200ABEC14F00E01EA
:102B2800DA851200ABEC14F00E01DA811200BFEC6A
:102B380014F00E01DA851200BFEC14F00E01DA81F0
:0C2B480012007F8279887E8E1200540BF0
:020000040020DA
:10000000FF0FFF0FFF0FFF0FFF0FFF0FFF0FFF0F80
:020000040030CA
:0C000000AAFFFFFF9FFFFFFFFFFFFFFFB5
:00000001FF
