:040000003DEF00F0E0
:06000800378287EF00F0D3
:100018003780D8CF07F0E8CF08F0E0CF09F00E011D
:1000280033AB19EF00F01BEF00F035EF00F080A6BE
:1000380020EF00F024EF00F0066A062A25EF00F012
:10004800066A06460646064680500618F70B061846
:10005800806EC20ED46EF60ED36E010E326E0E0195
:10006800339B09C0E0FF08C0E8FF07C0D8FF3790FE
:1000780010000BEF01F07D9485947D9885987B9E08
:10008800839E7F9C879C050E0E01746F060E766F0B
:10009800070E696F080E886FBD508F0B4009BD6E43
:1000A800E00EBE16BF50F00B0109BF6E0AC0BCFFC0
:1000B800BD8E000EAA6E000EA66E000E0F01256FF3
:1000C800000E216FFC0EAD16F30EAD16CF0EAD1659
:1000D8003F0EAD16AB88AB50F00B0C09AB6EAB8E78
:1000E800A788A750F00B0C09A76EA78E2689265162
:1000F800F00B0C09266F268F22892251F00B0C0970
:10010800226F228F1200D9CF03F0DACF04F00E014C
:1001180037A791EF00F093EF00F098EF00F0E3CEEF
:1001280005F00550F6EC00F01CEC01F00009D8A42D
:10013800A0EF00F0A2EF00F0A4EF00F00E012D9563
:100148000E0137A5AAEF00F0ACEF00F0B0EF00F019
:10015800E0EC00F00E01E46F04C0DAFF03C0D9FF41
:1001680037921100000E0B6E630E0A6E3FEC00F022
:10017800000E0C6E010E0D6E010E0E6EAA0E116EA3
:100188000F0E126EA60E136E0F0E146EBCCF0FF06C
:10019800106A000E156E010E166E010E176E250EF2
:1001A8001A6E0F0E1B6E210E1C6E0F0E1D6EBCCF2D
:1001B80018F0196A3DEF00F03B0E3364E6EF00F0EB
:1001C800E8EF00F0EAEF00F0000E336E332A330454
:1001D800016E026A600E0124D96E000E0220DA6EEA
:1001E800DF501200016E130E3664FDEF00F0FFEFD2
:1001F80000F001EF01F0000E366E1E0E3624D96EA7
:10020800DA6A000EDA2201C0DFFF362A120000EE99
:1002180060F03C0EEE6AE806FDE100EE1EF0190EF5
:10022800EE6AE806FDE1379037920001B6EF00F07C
:1002380033503418D8A423EF01F026EF01F0010E53
:0802480027EF01F0000E120087
:020000040020DA
:10000000FF0FFF0FFF0FFF0FFF0FFF0FFF0FFF0F80
:020000040030CA
:0C000000AAFFFFFF9FFFFFFFFFFFFFFFB5
:00000001FF
