:040000002CEF00F0F1
:0600080057822FEF12F0F9
:100018005780D8CF06F0E8CF07F0E0CF08F00E0100
:1000280033AB19EF00F01BEF00F024EF00F0C20E25
:10003800D46EF60ED36E010E0001746F0E01339B61
:1000480008C0E0FF07C0E8FF06C0D8FF57901000BF
:100058002AEF11F0000E0001D86F000E346E000E6A
:10006800356EC80E366E420E376E20EE04F0CA5159
:10007800D926CB51DA22DECFCCF0DDCFCDF020EE81
:1000880002F0CA51D926CB51DA22DECFCEF0DDCF2D
:10009800CFF0CAC0D9FFCBC0DAFFDECFD0F0DDCFBA
:1000A800D1F0CE51D025D26FCF51D121D36FCC51C1
:1000B800D225D46FCD51D321D56FD4C009F0D5C086
:1000C8000AF00B6A0C6A000E1EEC07F009C01BF060
:1000D8000AC01CF00BC01DF00CC01EF0CAC0D9FF2E
:1000E800CBC0DAFFDECFD6F0DDCFD7F0D6C009F02F
:1000F800D7C00AF00B6A0C6A000E1EEC07F009C0A4
:1001080017F00AC018F00BC019F00CC01AF051EC27
:1001180005F017C030F018C031F019C032F01AC01D
:1001280033F03CEC03F030C049F031C04AF032C043
:100138004BF033C04CF038EC0AF049500001D96F4D
:10014800000E346E000E356EC80E366E420E376ED7
:1001580020EE04F0CA51D926CB51DA22DECFCCF0FA
:10016800DDCFCDF020EE02F0CA51D926CB51DA22EC
:10017800DECFCEF0DDCFCFF0CAC0D9FFCBC0DAFFDB
:10018800DECFD0F0DDCFD1F0CE51D025D26FCF5118
:10019800D121D36FCC51D225D46FCD51D321D56F76
:1001A800D4C009F0D5C00AF00B6A0C6A000E1EEC28
:1001B80007F009C01BF00AC01CF00BC01DF00CC0F2
:1001C8001EF0000120EE02F0CA51D926CB51DA22E6
:1001D800DECFD6F0DDCFD7F0D6C009F0D7C00AF011
:1001E8000B6A0C6A000E1EEC07F009C017F00AC073
:1001F80018F00BC019F00CC01AF051EC05F017C03C
:1002080030F018C031F019C032F01AC033F03CECAD
:1002180003F030C049F031C04AF032C04BF033C06F
:100228004CF038EC0AF049500001DA6F000E346ED9
:10023800000E356EC80E366E420E376E20EE04F094
:10024800CA51D926CB51DA22DECFCCF0DDCFCDF0A2
:1002580020EE02F0CA51D926CB51DA22DECFCEF0F9
:10026800DDCFCFF0CAC0D9FFCBC0DAFFDECFD0F0E8
:10027800DDCFD1F0CE51D025D26FCF51D121D36F60
:10028800CC51D225D46FCD51D321D56FD4C009F02C
:10029800D5C00AF00B6A0C6A000E1EEC07F009C004
:1002A8001BF00AC01CF00BC01DF00CC01EF00001B2
:1002B80020EE04F0CA51D926CB51DA22DECFD6F08F
:1002C800DDCFD7F0D6C009F0D7C00AF00B6A0C6AA8
:1002D800000E1EEC07F009C017F00AC018F00BC09A
:1002E80019F00CC01AF051EC05F017C030F018C026
:1002F80031F019C032F01AC033F03CEC03F030C0D2
:1003080049F031C04AF032C04BF033C04CF038EC01
:100318000AF049500001DB6F5550D8B496EF01F050
:1003280098EF01F038EF03F0490ED9659EEF01F020
:10033800A0EF01F0CCEF01F04D0ED961A6EF01F06E
:10034800A8EF01F0CCEF01F0090EDA65AEEF01F08D
:10035800B0EF01F0CCEF01F00D0EDA61B6EF01F06D
:10036800B8EF01F0CCEF01F00C0EDB65BEEF01F049
:10037800C0EF01F0CCEF01F0100EDB61C6EF01F029
:10038800C8EF01F0CCEF01F0010ED86F38EF03F0A1
:10039800230ED965D2EF01F0D4EF01F000EF02F09F
:1003A800270ED961DAEF01F0DCEF01F000EF02F07F
:1003B800280EDA65E2EF01F0E4EF01F000EF02F059
:1003C8002C0EDA61EAEF01F0ECEF01F000EF02F039
:1003D800130EDB65F2EF01F0F4EF01F000EF02F02D
:1003E800170EDB61FAEF01F0FCEF01F000EF02F00D
:1003F800020ED86F38EF03F01C0ED96506EF02F035
:1004080008EF02F034EF02F0230ED9610EEF02F08C
:1004180010EF02F034EF02F01F0EDA6516EF02F06B
:1004280018EF02F034EF02F0270EDA611EEF02F047
:1004380020EF02F034EF02F01E0EDB6526EF02F02B
:1004480028EF02F034EF02F0260EDB612EEF02F007
:1004580030EF02F034EF02F0030ED86F38EF03F0FC
:10046800310ED9653AEF02F03CEF02F068EF02F086
:10047800350ED96142EF02F044EF02F068EF02F066
:100488001D0EDA654AEF02F04CEF02F068EF02F059
:10049800210EDA6152EF02F054EF02F068EF02F039
:1004A800100EDB655AEF02F05CEF02F068EF02F025
:1004B800140EDB6162EF02F064EF02F068EF02F005
:1004C800040ED86F38EF03F02F0ED9656EEF02F0E7
:1004D80070EF02F09CEF02F0330ED96176EF02F074
:1004E80078EF02F09CEF02F01B0EDA657EEF02F067
:1004F80080EF02F09CEF02F01F0EDA6186EF02F047
:1005080088EF02F09CEF02F0140EDB658EEF02F02C
:1005180090EF02F09CEF02F0180EDB6196EF02F00C
:1005280098EF02F09CEF02F0050ED86F38EF03F059
:100538003A0ED965A2EF02F0A4EF02F0D0EF02F074
:100548003E0ED961AAEF02F0ACEF02F0D0EF02F054
:10055800150EDA65B2EF02F0B4EF02F0D0EF02F058
:10056800190EDA61BAEF02F0BCEF02F0D0EF02F038
:100578000F0EDB65C2EF02F0C4EF02F0D0EF02F01D
:10058800130EDB61CAEF02F0CCEF02F0D0EF02F0FD
:10059800060ED86F38EF03F0200ED965D6EF02F0BB
:1005A800D8EF02F004EF03F0240ED961DEEF02F079
:1005B800E0EF02F004EF03F0250EDA65E6EF02F053
:1005C800E8EF02F004EF03F0290EDA61EEEF02F033
:1005D800F0EF02F004EF03F0190EDB65F6EF02F01E
:1005E800F8EF02F004EF03F01D0EDB61FEEF02F0FE
:1005F80000EF03F004EF03F0070ED86F38EF03F0B5
:100608002A0ED9650AEF03F00CEF03F038EF03F078
:100618002E0ED96112EF03F014EF03F038EF03F058
:100628001F0EDA651AEF03F01CEF03F038EF03F042
:10063800230EDA6122EF03F024EF03F038EF03F022
:10064800150EDB652AEF03F02CEF03F038EF03F00B
:10065800190EDB6132EF03F034EF03F038EF03F0EB
:10066800080ED86F38EF03F0000E556ED8511200FF
:100678003350800B3C6E33503324426E32AE47EF1A
:1006880003F049EF03F04AEF03F042804250D8B438
:1006980050EF03F052EF03F065EF03F04228D8A4BF
:1006A80058EF03F05AEF03F062EF03F0000E306EDC
:1006B800000E316E000E326E000E336E328E6DEF0C
:1006C80003F0000E306E000E316E000E326E000E1A
:1006D800336E3750800B3C1A37503724416E36AE94
:1006E80078EF03F07AEF03F07BEF03F0418041509D
:1006F800D8B481EF03F083EF03F096EF03F04128BD
:10070800D8A489EF03F08BEF03F093EF03F0000E0A
:10071800346E000E356E000E366E000E376E368E55
:100728009EEF03F0000E346E000E356E000E366E2E
:10073800000E376E4150D8B4A4EF03F0A6EF03F0D3
:10074800AEEF03F04250D8A4ACEF03F0AEEF03F0E5
:10075800B8EF03F0000E306E000E316E000E326EF0
:10076800000E336E50EF05F036503002F3CF47F0ED
:10077800F4CF48F047503D6E3E6A3F6A406A4850A1
:10078800436E446A456A466A35503102F3CF47F0F2
:10079800F4CF48F047503D26000E3E223F2240222B
:1007A80048504326000E4422452246223450320245
:1007B800F3CF47F0F4CF48F047503D26000E3E22D5
:1007C8003F22402248504326000E4422452246221A
:1007D8003FC040F03EC03FF03DC03EF03D6A34505F
:1007E8003102F3CF47F0F4CF48F047503D26485048
:1007F8003E22000E3F22000E402235503002F3CF39
:1008080047F0F4CF48F047503D2648503E22000EAE
:100818003F22000E40223FC040F03EC03FF03DC0A6
:100828003EF03D6A34503002F3CF47F0F4CF48F041
:1008380047503D2648503E22000E3F22000E4022DF
:1008480036503102F3CF47F0F4CF48F047504326F3
:1008580048504422000E4522000E462235503202EE
:10086800F3CF47F0F4CF48F047504326485044228E
:10087800000E4522000E462236503202F3CF47F0D2
:10088800F4CF48F04750386E4850396E3A6A3B6AA0
:100898003AC03BF039C03AF038C039F0386A3850BD
:1008A8004326395044223A5045223B5046223DC007
:1008B80038F03EC039F03FC03AF040C03BF0190E66
:1008C8006BEF04F0D8903B323A3239323832E82EA6
:1008D80066EF04F038504326395044223A504522F6
:1008E8003B5046223FC040F03EC03FF03DC03EF086
:1008F8003D6A415042C038F0396A3826000E392224
:10090800820E3824476EFF0E3920486EA1EF04F09E
:10091800D890433644364536463640AE96EF04F016
:1009280098EF04F099EF04F04380D8903D363E36B6
:100938003F3640364706D8A0480645AEA6EF04F035
:10094800A8EF04F08CEF04F0000E416E40AEAFEF5C
:1009580004F0B1EF04F0D5EF04F0FF0E3D14386E4B
:10096800FF0E3E14396EFF0E3F143A6E7F0E401490
:100978003B6E385039103A103B10D8B4C6EF04F02B
:10098800C8EF04F0CCEF04F0010E416ED5EF04F08F
:1009980043A0D1EF04F0D3EF04F0D5EF04F0C8EF93
:1009A80004F04150D8B4DBEF04F0DDEF04F001EFC0
:1009B80005F0010E4326000E44224522462246A099
:1009C800E8EF04F0EAEF04F001EF05F043C038F077
:1009D80044C039F045C03AF046C03BF03B343B32A6
:1009E8003A323932383238C043F039C044F03AC06C
:1009F80045F03BC046F0474A482A48BE0CEF05F090
:100A0800485008E14728D8A00CEF05F00EEF05F094
:100A180018EF05F0000E436E000E446E800E456E12
:100A28007F0E466E46EF05F048BE25EF05F04850AC
:100A380006E14704D8B023EF05F025EF05F031EFC4
:100A480005F0000E436E000E446E000E456E000E5B
:100A5800466E000E3C6E46EF05F047C042F0FF0EB2
:100A68004316FF0E44167F0E4516000E461642A08A
:100A780040EF05F042EF05F043EF05F0458ED890C2
:100A88004230466E3C50461243C030F044C031F00C
:100A980045C032F046C033F012001A50800B276E62
:100AA8001A501A242E6E19AE5CEF05F05EEF05F0B1
:100AB8005FEF05F02E802E50D8B465EF05F067EF94
:100AC80005F07CEF05F02E28D8A46DEF05F06FEF48
:100AD80005F077EF05F0000E176E000E186E000E89
:100AE800196E000E1A6E198E000E1A6E84EF05F03C
:100AF800000E176E000E186E000E196E000E1A6E9C
:100B08001E50800B271A1E501E242F6E1DAE8FEF0D
:100B180005F091EF05F092EF05F02F802F50D8B433
:100B280098EF05F09AEF05F0AFEF05F02F28D8A45D
:100B3800A0EF05F0A2EF05F0AAEF05F0000E1B6E7E
:100B4800000E1C6E000E1D6E000E1E6E1D8E000E19
:100B58001E6EB7EF05F0000E1B6E000E1C6E000E29
:100B68001D6E000E1E6E1B501C101D101E10D8A4EA
:100B7800C0EF05F0C2EF05F0DAEF05F0000E176ED2
:100B8800000E186E000E196E000E1A6E800E1912E5
:100B98007F0E1A1227501A1217C017F018C018F033
:100BA80019C019F01AC01AF01DEF07F02E50D8A47A
:100BB800E0EF05F0E2EF05F0ECEF05F0000E176E40
:100BC800000E186E000E196E000E1A6E1DEF07F05B
:100BD8002F502EC01FF0206A1F5E000E205A7F0E75
:100BE8001F24286E000E2020296E17C023F018C07D
:100BF80024F019C025F01AC026F0000E176E000E5A
:100C0800186E000E196E000E1A6E000E2A6E000E77
:100C18002B6E000E2C6E000E2D6E000E2F6E4DEFFB
:100C280006F02F50D8B41BEF06F01DEF06F034EF96
:100C380006F0D8902336243625362636D89017362F
:100C4800183619361A362DAE2CEF06F02EEF06F0B0
:100C58002FEF06F01780D8902A362B362C362D36F3
:100C68001B50235C1C5024581D5025581E502658D4
:100C7800D8A041EF06F043EF06F04CEF06F02D8CBC
:100C88001B50235E1C50245A1D50255A1E50265AAC
:100C98002F2A190E2F6453EF06F055EF06F015EFC3
:100CA80006F02350241025102610D8B45EEF06F065
:100CB80060EF06F078EF06F02A8078EF06F0D8901B
:100CC8001736183619361A362DAE6DEF06F06FEF57
:100CD80006F070EF06F01780D8902A362B362C369F
:100CE8002D362806D8A0290619AE7DEF06F07FEF2D
:100CF80006F063EF06F0000E2F6E2DAE86EF06F0BD
:100D080088EF06F0ACEF06F0FF0E2A141F6EFF0EF8
:100D18002B14206EFF0E2C14216E7F0E2D14226EC4
:100D28001F50201021102210D8B49DEF06F09FEF1D
:100D380006F0A3EF06F0010E2F6EACEF06F017A039
:100D4800A8EF06F0AAEF06F0ACEF06F09FEF06F06A
:100D58002F50D8B4B2EF06F0B4EF06F0D8EF06F093
:100D6800010E1726000E182219221A221AA0BFEF08
:100D780006F0C1EF06F0D8EF06F017C01FF018C054
:100D880020F019C021F01AC022F022342232213278
:100D980020321F321FC017F020C018F021C019F0F0
:100DA80022C01AF0284A292A29BEE3EF06F0295062
:100DB80008E12828D8A0E3EF06F0E5EF06F0F0EF09
:100DC80006F0000E296E2868000E176E000E186EC9
:100DD800000E196E000E1A6E29BEFDEF06F029509E
:100DE80006E12804D8B0FBEF06F0FDEF06F00BEFA4
:100DF80007F0000E296E000E286E000E176E000E0A
:100E0800186E000E196E000E1A6E000E276E28C09E
:100E18002EF02EA012EF07F014EF07F017EF07F0EF
:100E2800198E18EF07F0199ED8902E301A6ECEEF53
:100E380005F01200116E1150D8B425EF07F027EF16
:100E480007F049EF07F00CBE2EEF07F02CEF07F084
:100E580049EF07F009C00DF00AC00EF00BC00FF003
:100E68000CC010F00D1E0E1E0F1E101E0D2A000EB7
:100E78000E220F2210220DC013F00EC014F00FC066
:100E880015F010C016F051EF07F009C013F00AC0B2
:100E980014F00BC015F00CC016F009500A100B1016
:100EA8000C10D8A45AEF07F05CEF07F066EF07F0D4
:100EB800000E096E000E0A6E000E0B6E000E0C6E10
:100EC800F7EF07F0960E126E70EF07F0122AD8901F
:100ED8001632153214321332000E13140D6E000E32
:100EE80014140E6E000E15140F6EFE0E1614106EEE
:100EF8000D500E100F101010D8A485EF07F087EFD3
:100F080007F06AEF07F095EF07F0122A010E132693
:100F1800000E142215221622D890163215321432D9
:100F28001332000E13140D6E000E14140E6E000E04
:100F380015140F6EFF0E1614106E0D500E100F10B4
:100F48001010D8A4AAEF07F0ACEF07F089EF07F06C
:100F5800B4EF07F01206D890133614361536163645
:100F680015BEB9EF07F0BBEF07F0C3EF07F0020EAD
:100F78001260C1EF07F0C3EF07F0AEEF07F012B051
:100F8800C8EF07F0CAEF07F0CBEF07F0159ED8902F
:100F9800123212C00DF00E6A0F6A106A0DC010F0FE
:100FA8000F6A0E6A0D6A0D5013120E5014120F506C
:100FB8001512105016121150D8B4E5EF07F0E7EFEC
:100FC80007F0EFEF07F00CBEEEEF07F0ECEF07F0DD
:100FD800EFEF07F0168E13C009F014C00AF015C021
:100FE8000BF016C00CF012002E042F10D8A4FFEF3F
:100FF80007F001EF08F018EF08F030C027F031C013
:1010080028F032C029F033C02AF0CEEC0DF0560E8D
:10101800096E000E0A6E750E0B6E000E0C6E020E37
:10102800EBEC11F0C8EF08F0020E2E182F10D8A420
:1010380020EF08F022EF08F039EF08F030C027F071
:1010480031C028F032C029F033C02AF0DAEC0EF0B3
:10105800560E096E000E0A6E750E0B6E000E0C6EA3
:10106800010EEBEC11F0C8EF08F0030E2E182F104C
:10107800D8A441EF08F043EF08F05AEF08F030C069
:1010880027F031C028F032C029F033C02AF0EAEC4A
:101098000CF0560E096E000E0A6E750E0B6E000EE1
:1010A8000C6E030EEBEC11F0C8EF08F0040E2E18CE
:1010B8002F10D8A462EF08F064EF08F070EF08F082
:1010C80030C027F031C028F032C029F033C02AF0F0
:1010D8008BEC0DF0C8EF08F0050E2E182F10D8A4D1
:1010E80078EF08F07AEF08F086EF08F030C027F0C4
:1010F80031C028F032C029F033C02AF011EC0EF0CC
:10110800C8EF08F0060E2E182F10D8A48EEF08F09E
:1011180090EF08F0A7EF08F030C027F031C028F0B2
:1011280032C029F033C02AF054EC0EF0560E096E86
:10113800000E0A6E750E0B6E000E0C6E070EEBECB1
:1011480011F0C8EF08F0070E2E182F10D8A4AFEF33
:1011580008F0B1EF08F0C8EF08F030C027F031C050
:1011680028F032C029F033C02AF097EC0EF0560E62
:10117800096E000E0A6E750E0B6E000E0C6E060ED2
:10118800EBEC11F0C8EF08F01200000E0001E16F5F
:10119800000EE06F000EE36F000EE26F000EE56FC9
:1011A800000EE46F000EE76F000EE66F69EC12F0B8
:1011B8006EEC11F0D8EC11F00FEC12F0000E0A6E84
:1011C800630E096E43EC0DF0000E0001E86F010E8E
:1011D800E96F010EEA6FAA0EED6F0F0EEE6FA60E05
:1011E800EF6F0F0EF06FBCCFEBF0EC6B000EF16FF2
:1011F800010EF26F010EF36F250EF66F0F0EF76FEB
:10120800210EF86F0F0EF96FBCCFF4F0F56B94EC6C
:1012180012F0E00E146E000E156E57EC0FF0E00E93
:101228000001CA6F000ECB6F2EEC00F00001DF6FDB
:10123800000EDE6FDF51D8A424EF09F026EF09F085
:1012480034EF09F0E80E1C6E000E1D6EF10E1E6ED6
:10125800000E1F6EAAEC0BF00001DE2B0DEF09F05B
:10126800DF51D8B43AEF09F03CEF09F00DEF09F07F
:10127800C50E096E000E0A6E9D0E0B6E000E0C6EEA
:10128800000EFDEC11F0808656EF09F0E80E1C6E9A
:10129800000E1D6EF10E1E6E000E1F6E80EC0CF01F
:1012A8000001DE070001DE51D8A45DEF09F05FEF11
:1012B80009F04AEF09F0290E0001DD6F960EDC6F88
:1012C8007F0EE82EFED7DC2FFCD7DD2FFAD78096CD
:1012D8000001DF51DC6FDD6BDCC02EF0DDC02FF0CC
:1012E800E80E306E000E316EF10E326E000E336E67
:1012F800F8EC07F00DEF09F02CEF00F020EE02F00B
:101308001650D9261750DA22DF50D8B48EEF09F0DC
:1013180090EF09F0C4EF09F016C0D9FF17C0DAFF43
:10132800DF50096E0A6A09BE0A0620EE03F016505D
:10133800D9261750DA22DECF0BF0DDCF0CF0C5EC42
:1013480011F009C00FF00AC010F0000E126E640E02
:10135800116E1DEC0FF020EE03F01650D926175031
:10136800DA22DF50186E0F50185C1A6E20EE03F068
:101378001650D9261750DA22DF501B6EE7EF09F016
:10138800000E1A6E16C0D9FF17C0DAFFDF50096EBB
:101398000A6A09BE0A0620EE03F01650D92617502D
:1013A800DA22DECF0BF0DDCF0CF0C5EC11F009C06E
:1013B8000FF00AC010F0000E126E640E116E1DECD4
:1013C8000FF00F501B6E20EE01F01650D926175063
:1013D800DA22DF50D8B4F3EF09F0F5EF09F017EF90
:1013E8000AF020EE05F01650D9261750DA22DECF83
:1013F80018F0DDCF19F018C0D9FF19C0DAFF1AC0EC
:10140800DFFF20EE07F01650D9261750DA22DECF7C
:1014180018F0DDCF19F018C0D9FF19C0DAFF1BC0CA
:10142800DFFF37EF0AF020EE05F01650D9261750E7
:10143800DA22DECF18F0DDCF19F018C0D9FF19C0B5
:10144800DAFF1BC0DFFF20EE07F01650D926175031
:10145800DA22DECF18F0DDCF19F018C0D9FF19C095
:10146800DAFF1AC0DFFF12004B344C344E6E4E5078
:10147800D8A441EF0AF043EF0AF04DEF0AF0000E4E
:10148800496E000E4A6E000E4B6E000E4C6EBBEF9E
:101498000AF049C0C6F04AC0C7F04BC0C8F04CC0FB
:1014A800C9F0200E5EEF0AF00001D890C933C833A6
:1014B800C733C633E82E58EF0AF0C6514D6E4B8E2F
:1014C800FF0E4916FF0E4A16FF0E4B16000E4C165D
:1014D800960E4E5E4EBE75EF0AF073EF0AF08BEF74
:1014E8000AF04E50800A970FD8B07DEF0AF07FEFD0
:1014F8000AF081EF0AF043EF0AF0D8904C324B32F1
:101508004A3249324E3E81EF0AF0A3EF0AF01F0E2D
:101518004E6491EF0AF093EF0AF09BEF0AF043EF65
:101528000AF0D89049364A364B364C364E064E505D
:10153800D8A4A1EF0AF0A3EF0AF095EF0AF04D50F6
:10154800D8B4A9EF0AF0ABEF0AF0B3EF0AF04C1EDB
:101558004B1E4A1E496C000E4A224B224C2249C09F
:1015680049F04AC04AF04BC04BF04CC04CF0120056
:1015780020EE01F01C50D9261D50DA22010EDF6E34
:1015880020EE02F01C50D9261D50DA22000EDF6E24
:1015980020EE01F01E50D9261F50DA22000EDF6E11
:1015A80020EE02F01E50D9261F50DA22000EDF6E00
:1015B8001CC0D9FF1DC0DAFFDF50800A340FD8A045
:1015C800E8EF0AF0EAEF0AF0F0EF0AF01CC0D9FFE2
:1015D8001DC0DAFF4B0EDF6E1EC0D9FF1FC0DAFF39
:1015E800DF50800A340FD8A0FCEF0AF0FEEF0AF0B3
:1015F80004EF0BF01EC0D9FF1FC0DAFF4B0EDF6EE1
:101608001CC0D9FF1DC0DAFFDF50050F1CC0D9FF71
:101618001DC0DAFFDF6E1EC0D9FF1FC0DAFFDF5022
:10162800050F1EC0D9FF1FC0DAFFDF6E1CC016F001
:101638001DC017F082EC09F01EC016F01FC017F08D
:1016480082EC09F0050E216E0F0E206EF10EE82EC9
:10165800FED7202EFCD7212EFAD700F0120020EE5C
:1016680001F01C50D9261D50DA22000EDF6E20EE44
:1016780002F01C50D9261D50DA22000EDF6E20EE33
:1016880001F01E50D9261F50DA22010EDF6E20EE1F
:1016980002F01E50D9261F50DA22000EDF6E1CC041
:1016A800D9FF1DC0DAFFDF50800A340FD8A05FEFE2
:1016B8000BF061EF0BF067EF0BF01CC0D9FF1DC0FA
:1016C800DAFF4B0EDF6E1EC0D9FF1FC0DAFFDF50F6
:1016D800800A340FD8A073EF0BF075EF0BF07BEF97
:1016E8000BF01EC0D9FF1FC0DAFF4B0EDF6E1CC007
:1016F800D9FF1DC0DAFFDF50050F1CC0D9FF1DC080
:10170800DAFFDF6E1EC0D9FF1FC0DAFFDF50050FFA
:101718001EC0D9FF1FC0DAFFDF6E1CC016F01DC047
:1017280017F082EC09F01EC016F01FC017F082EC0B
:1017380009F0050E216E0F0E206EF10EE82EFED771
:10174800202EFCD7212EFAD700F0120020EE01F04F
:101758001C50D9261D50DA22010EDF6E20EE02F051
:101768001C50D9261D50DA22000EDF6E20EE01F043
:101778001E50D9261F50DA22010EDF6E20EE02F02D
:101788001E50D9261F50DA22000EDF6E1CC0D9FF6A
:101798001DC0DAFFDF50800A4D0FD8A0D6EF0BF03E
:1017A800D8EF0BF0DEEF0BF01CC0D9FF1DC0DAFF3D
:1017B800320EDF6E1EC0D9FF1FC0DAFFDF50800A6D
:1017C8004D0FD8A0EAEF0BF0ECEF0BF0F2EF0BF0B7
:1017D8001EC0D9FF1FC0DAFF320EDF6E1CC0D9FF52
:1017E8001DC0DAFFDF2A1EC0D9FF1FC0DAFFDF2ABB
:1017F8001CC016F01DC017F082EC09F01EC016F0D0
:101808001FC017F082EC09F0050E216E0F0E206E36
:10181800F10EE82EFED7202EFCD7212EFAD700F0A5
:10182800120020EE01F01C50D9261D50DA22000EBD
:10183800DF6E20EE02F01C50D9261D50DA22000E71
:10184800DF6E20EE01F01E50D9261F50DA22000E5E
:10185800DF6E20EE02F01E50D9261F50DA22000E4D
:10186800DF6E1CC0D9FF1DC0DAFFDF50800A4D0FA4
:10187800D8A041EF0CF043EF0CF049EF0CF01CC07E
:10188800D9FF1DC0DAFF320EDF6E1EC0D9FF1FC0A0
:10189800DAFFDF50800A4D0FD8A055EF0CF057EF54
:1018A8000CF05DEF0CF01EC0D9FF1FC0DAFF320E3E
:1018B800DF6E1CC0D9FF1DC0DAFFDF2A1EC0D9FFAA
:1018C8001FC0DAFFDF2A1CC016F01DC017F082EC1B
:1018D80009F01EC016F01FC017F082EC09F0050EC3
:1018E800216E0F0E206EF10EE82EFED7202EFCD7AB
:1018F800212EFAD700F0120020EE02F01C50D92653
:101908001D50DA22010EDF6E20EE02F01E50D9269D
:101918001F50DA22010EDF6E1CC0D9FF1DC0DAFF8E
:10192800000EDBBE9CEF0CF09AEF0CF0A2EF0CF06F
:101938001CC0D9FF1DC0DAFF000EDF6E1EC0D9FF24
:101948001FC0DAFF000EDBBEAEEF0CF0ACEF0CF000
:10195800B4EF0CF01EC0D9FF1FC0DAFF000EDF6E17
:101968001CC0D9FF1DC0DAFFDF50FB0F1CC0D9FF18
:101978001DC0DAFFDF6E1EC0D9FF1FC0DAFFDF50BF
:10198800FB0F1EC0D9FF1FC0DAFFDF6E1CC0D9FFD6
:101998001DC0DAFF000EDF6E1EC0D9FF1FC0DAFFC0
:1019A800000EDF6E1CC016F01DC017F082EC09F0A7
:1019B8001EC016F01FC017F082EC09F0D00E206E82
:1019C800CA0EE82EFED7202EFCD71200000E2D6E70
:1019D800F9EF0CF027C01CF028C01DF029C01EF03C
:1019E8002AC01FF015EC0CF02D2A070E2D64FFEF0E
:1019F8000CF001EF0DF0EEEF0CF00EEF0DF027C03C
:101A08001CF028C01DF029C01EF02AC01FF080EC71
:101A18000CF02D062D50D8A414EF0DF016EF0DF094
:101A280003EF0DF0290E2C6E960E2B6E7F0EE82E0E
:101A3800FED72B2EFCD72C2EFAD700F027C022F089
:101A480028C023F029C024F02AC025F00DEC10F09E
:101A5800050E2C6E0F0E2B6EF10EE82EFED72B2ED8
:101A6800FCD72C2EFAD700F027C022F028C023F08C
:101A780029C024F02AC025F00DEC10F012007D9446
:101A880085947D9885987B9E839E7F9C879C050E78
:101A98000E01746F060E766F070E696F080E886F59
:101AA800BD508F0B4009BD6EE00EBE16BF50F00B47
:101AB8000109BF6E09C0BCFFBD8E000EAA6E000EE4
:101AC800A66E000E0F01256F000E216FFC0EAD16DD
:101AD800F30EAD16CF0EAD163F0EAD16AB88AB505C
:101AE800F00B0C09AB6EAB8EA788A750F00B0C0956
:101AF800A76EA78E26892651F00B0C09266F268F14
:101B080022892251F00B0C09226F228F1200000E3D
:101B18002D6E9AEF0DF027C01CF028C01DF029C0CB
:101B28001EF02AC01FF015EC0CF02D2A130E2D64A0
:101B3800A0EF0DF0A2EF0DF08FEF0DF0AFEF0DF06D
:101B480027C01CF028C01DF029C01EF02AC01FF0B5
:101B580080EC0CF02D062D50D8A4B5EF0DF0B7EFA2
:101B68000DF0A4EF0DF0150E2C6E4B0E2B6EBE0E65
:101B7800E82EFED72B2EFCD72C2EFAD700D027C064
:101B880022F028C023F029C024F02AC025F086ECD2
:101B98000FF01200000E2D6EDDEF0DF027C01CF0C7
:101BA80028C01DF029C01EF02AC01FF015EC0CF04B
:101BB8002D2A070E2D64E3EF0DF0E5EF0DF0D2EFBF
:101BC8000DF0F2EF0DF027C01CF028C01DF029C061
:101BD8001EF02AC01FF080EC0CF02D062D50D8A462
:101BE800F8EF0DF0FAEF0DF0E7EF0DF0150E2C6E93
:101BF8004B0E2B6EBE0EE82EFED72B2EFCD72C2EAE
:101C0800FAD700D027C022F028C023F029C024F03A
:101C18002AC025F086EC0FF01200000E2D6E20EF82
:101C28000EF027C01CF028C01DF029C01EF02AC0E5
:101C38001FF015EC0CF02D2A130E2D6426EF0EF074
:101C480028EF0EF015EF0EF035EF0EF027C01CF060
:101C580028C01DF029C01EF02AC01FF080EC0CF02F
:101C68002D062D50D8A43BEF0EF03DEF0EF02AEFD5
:101C78000EF0150E2C6E4B0E2B6EBE0EE82EFED7F8
:101C88002B2EFCD72C2EFAD700D027C022F028C044
:101C980023F029C024F02AC025F00DEC10F0120022
:101CA800000E2D6E63EF0EF027C01CF028C01DF04B
:101CB80029C01EF02AC01FF015EC0CF02D2A130EB7
:101CC8002D6469EF0EF06BEF0EF058EF0EF078EF21
:101CD8000EF027C01CF028C01DF029C01EF02AC035
:101CE8001FF080EC0CF02D062D50D8A47EEF0EF0DE
:101CF80080EF0EF06DEF0EF0150E2C6E4B0E2B6E66
:101D0800BE0EE82EFED72B2EFCD72C2EFAD700D0ED
:101D180027C022F028C023F029C024F02AC025F0CB
:101D2800B3EC0FF01200000E2D6EA6EF0EF027C0D8
:101D38001CF028C01DF029C01EF02AC01FF015ECA9
:101D48000CF02D2A130E2D64ACEF0EF0AEEF0EF052
:101D58009BEF0EF0BBEF0EF027C01CF028C01DF063
:101D680029C01EF02AC01FF080EC0CF02D062D5063
:101D7800D8A4C1EF0EF0C3EF0EF0B0EF0EF0150EC1
:101D88002C6E4B0E2B6EBE0EE82EFED72B2EFCD7DC
:101D98002C2EFAD700D027C022F028C023F029C063
:101DA80024F02AC025F0E0EC0FF01200000E2D6E92
:101DB800E9EF0EF027C01CF028C01DF029C01EF066
:101DC8002AC01FF015EC0CF02D2A070E2D64EFEF3A
:101DD8000EF0F1EF0EF0DEEF0EF0FEEF0EF027C082
:101DE8001CF028C01DF029C01EF02AC01FF080EC8E
:101DF8000CF02D062D50D8A404EF0FF006EF0FF0CD
:101E0800F3EF0EF0150E2C6E4B0E2B6EBE0EE82E59
:101E1800FED72B2EFCD72C2EFAD700D027C022F0C5
:101E280028C023F029C024F02AC025F00DEC10F0BA
:101E38001200000E146E000E136E11501210D8B45A
:101E480028EF0FF02AEF0FF052EF0FF0010E156E8A
:101E580032EF0FF0D89011361236152A12AE37EF3E
:101E68000FF039EF0FF02EEF0FF0D890133614362D
:101E780011500F5C12501058D8A045EF0FF047EFE3
:101E88000FF04CEF0FF011500F5E1250105A1380E4
:101E9800D89012321132152E39EF0FF013C00FF00F
:101EA80014C010F012003AEC10F014C0D9FF15C09D
:101EB800DAFF0DC0DEFF0EC0DDFF62EC10F020EE91
:101EC80002F01450D9261550DA220DC0DEFF0EC0DC
:101ED800DDFFB2EC10F020EE04F01450D9261550B6
:101EE800DA220DC0DEFF0EC0DDFF8AEC10F020EE16
:101EF80006F01450D9261550DA220DC0DEFF0EC0A8
:101F0800DDFF1200000E266E95EF0FF022C01CF0C8
:101F180023C01DF024C01EF025C01FF0BCEC0AF041
:101F2800262A120E26649BEF0FF09DEF0FF08AEF22
:101F38000FF0AAEF0FF022C01CF023C01DF024C040
:101F48001EF025C01FF080EC0CF026062650D8A401
:101F5800B0EF0FF0B2EF0FF09FEF0FF01200000E8E
:101F6800266EC2EF0FF022C01CF023C01DF024C063
:101F78001EF025C01FF0BCEC0AF0262A140E2664B9
:101F8800C8EF0FF0CAEF0FF0B7EF0FF0D7EF0FF071
:101F980022C01CF023C01DF024C01EF025C01FF075
:101FA80080EC0CF026062650D8A4DDEF0FF0DFEF0A
:101FB8000FF0CCEF0FF01200000E266EEFEF0FF0CF
:101FC80022C01CF023C01DF024C01EF025C01FF045
:101FD80033EC0BF0262A140E2664F5EF0FF0F7EF1A
:101FE8000FF0E4EF0FF004EF10F022C01CF023C054
:101FF8001DF024C01EF025C01FF080EC0CF0260652
:102008002650D8A40AEF10F00CEF10F0F9EF0FF0FB
:102018001200000E266E1CEF10F022C01CF023C028
:102028001DF024C01EF025C01FF033EC0BF0262A4B
:10203800120E266422EF10F024EF10F011EF10F0CA
:1020480031EF10F022C01CF023C01DF024C01EF098
:1020580025C01FF080EC0CF026062650D8A437EFD8
:1020680010F039EF10F026EF10F0120085EC12F0A6
:10207800520E6FEC12F0B60E6FEC12F07BEC12F011
:10208800530E6FEC12F0010E4DEC11F00F6E0F5065
:10209800126E136A000E4DEC11F00F6E0F50116E98
:1020A800106A12501010126E13501110136E80EC3B
:1020B80012F012C00DF013C00EF0120085EC12F0F1
:1020C800520E6FEC12F0B80E6FEC12F07BEC12F0BF
:1020D800530E6FEC12F0010E4DEC11F00F6E0F5015
:1020E800126E136A000E4DEC11F00F6E0F50116E48
:1020F800106A12501010126E13501110136E80ECEB
:1021080012F012C00DF013C00EF0120085EC12F0A0
:10211800520E6FEC12F0B40E6FEC12F07BEC12F072
:10212800530E6FEC12F0010E4DEC11F00F6E0F50C4
:10213800126E136A000E4DEC11F00F6E0F50116EF7
:10214800106A12501010126E13501110136E80EC9A
:1021580012F012C00DF013C00EF0120085EC12F050
:10216800520E6FEC12F0BA0E6FEC12F07BEC12F01C
:10217800530E6FEC12F0010E4DEC11F00F6E0F5074
:10218800126E136A000E4DEC11F00F6E0F50116EA7
:10219800106A12501010126E13501110136E80EC4A
:1021A80012F012C00DF013C00EF01200130E0B6ED9
:1021B800000E1FEC12F03F0E0D6E550EE82EFED7E6
:1021C8000D2EFCD700F0040E0B6E0C0E1FEC12F057
:1021D8004FC00BF0040E1FEC12F050500B6E050EA2
:1021E8001FEC12F0FAC00BF0060E1FEC12F0000103
:1021F800FB510B6E070E1FEC12F01200130E036E4C
:10220800000E3FEC12F03F0E056E550EE82EFED77D
:10221800052EFCD700F0040E036E0C0E3FEC12F0F6
:102228004FC003F0040E3FEC12F05050036E050E41
:102238003FEC12F0FAC003F0060E3FEC12F000017A
:10224800FB51036E070E3FEC12F01200300EF66ED3
:10225800250EF76E000EF86E0900F5CFFAF00900AA
:10226800F5CFFBF001EE00F03C0EEE6AE806FDE16A
:1022780000EE60F0660EEE6AE806FDE100EE4FF053
:10228800080EEE6AE806FDE1579057920001C9EF83
:1022980008F00B6E9DEC11F00E01DA879DEC11F041
:1022A800D5CE0CF09DEC11F00B50D8B45EEF11F0C8
:1022B80062EF11F00A6A0A2A63EF11F00A6A0A3A11
:1022C8000A460E01DA510A18DF0B0A18DA6FDA89A2
:1022D8000C50120088EC11F0010E0B6E000E1FEC72
:1022E80012F03F0E0D6E550EE82EFED70D2EFCD7C0
:1022F80000F0030E0B6E000E1FEC12F0D50E0B6EE5
:10230800010E1FEC12F012000E01D951F00B080952
:10231800D96FD98B9F0ED66F848A848CA79BA79D73
:102328001D0E1D6F1E0E1C6F1C0E6F6F1B0E706F27
:1023380012000E01D8B5A3EF11F0A5EF11F09DEF33
:1023480011F0DACE09F01F0E0916D8A4AEEF11F07D
:10235800B0EF11F09DEF11F012000E01D8B5B7EFF4
:1023680011F0B9EF11F0B1EF11F0DACE01F01F0E54
:102378000116D8A4C2EF11F0C4EF11F0B1EF11F0BB
:10238800120009500B02F3CF0DF0F4CF0EF00950F4
:102398000C02F3500E260A500B02F3500E260DC005
:1023A80009F00EC00AF0120082820E019A93090EFB
:1023B8000D01F16F0E0129831F83F292298B1F9B58
:1023C8002D874FEC12F0F28AF28CF28E12000E6E0C
:1023D80009C0D9FF0AC0DAFFDFCF0DF0010EDF26F2
:1023E8000D500B24D96E000E0C20DA6E0EC0DFFFE4
:1023F80012000E6E09C0D9FF0AC0DAFFDFCF0DF058
:10240800010EDF260D500B24D96E000E0C20DA6E5B
:102418000EC0DFFF1200D6501F0B4009D66ED688BB
:10242800D650F00B0809D66ED588C20ED46EF60EBB
:10243800D36ED58E12000C6E85EC12F0520E6FEC36
:1024480012F00C5080096FEC12F00B506FEC12F088
:1024580080EC12F012000E0133A335EF12F037EFC3
:1024680012F03DEF12F0010E556E5CEC12F00E0109
:10247800339357921100046E8FEC12F0520E75ECE4
:1024880012F00450800975EC12F0035075EC12F04C
:102498008AEC12F0120085EC12F0520E6FEC12F07A
:1024A800E60E6FEC12F080EC12F0DAEC10F012008D
:1024B8008FEC12F0520E75EC12F0E60E75EC12F07D
:1024C8008AEC12F002EC11F0120087928198869E35
:1024D8008096889612000A6E9DEC11F00AC0D5FE0F
:1024E8001200026EB1EC11F002C0D5FE12009DEC94
:1024F80011F00E01DA8312009DEC11F00E01DA855D
:1025080012009DEC11F00E01DA811200B1EC11F00D
:102518000E01DA851200B1EC11F00E01DA81120019
:0A2528007F8279887E8E1200C409BC
:020000040020DA
:10000000FF0FFF0FFF0FFF0FFF0FFF0FFF0FFF0F80
:020000040030CA
:0C000000AAFFFFFF9FFFFFFFFFFFFFFFB5
:00000001FF
